S00A000043504E2E73333709
S315080000000010002089100008255F0008295F0008F5
S31508000010096200082D5F0008355F00088510000892
S31508000020851000088510000885100008851000084E
S31508000030395F00088510000885100008851000083B
S31508000040851000088510000885100008851000082E
S31508000050851000088510000885100008851000081E
S31508000060851000088510000885100008851000080E
S3150800007085100008390F0008290F000885100008A8
S3150800008085100008851000088510000885100008EE
S3150800009085100008851000088510000885100008DE
S315080000A085100008851000088510000885100008CE
S315080000B08510000885100008BD9001089D9A010862
S315080000C0559A0108519A010885920108999A0108DA
S315080000D0599A0108719A01085D9A0108FD9A010862
S315080000E0DD9A0108851000088510000885100008AB
S315080000F08510000891510008851000088510000831
S31508000100851000088510000885100008851000086D
S31508000110851000088510000885100008851000085D
S31508000120851000088510000885100008851000084D
S31508000130851000088510000885100008851000083D
S31508000140851000088510000885100008851000082D
S315080001508510000885100008CF740008957C0108F2
S315080001608510000885100008C55F0108CB5F0108E7
S3150800017010B5054C237833B9044B13B1044800E095
S3150800018000BF0123237010BD90140020000000005A
S31508000190AC21020808B5034B1BB10349034800E02C
S315080001A000BF08BD0000000094140020AC2102081E
S315080001B0A3F5803A704700BF174B002B08BF134BB7
S315080001C09D46FFF7F5FF00218B460F461348144A54
S315080001D0121A1AF02AFC0E4B002B00D098470D4B2A
S315080001E0002B00D098470020002104000D000D4880
S315080001F0002802D00C4800E000BF1AF0B3FB20002C
S31508000200290000F005FD1AF099FB00BF0000080060
S3150800021000000000000000000010002090140020DC
S31508000220D43C00200000000000000000F0B583B0B8
S3150800023004468368C26853F822301E78B7B20EF0B7
S315080002407CFA874226D324480FF070FC0622002148
S3150800025068461AF0EAFB214B1B88ADF80230A16804
S31508000260E36851F823201278ADF804206268D21AA0
S31508000270012A21DD013351F823301B88ADF80030FF
S3150800028068460CF08BFB0446032000F0ADFEC0B9AF
S3150800029003B0F0BD0546032000F0A6FE0028F7D0FF
S315080002A000F0C2FE00F0C1FE2B4632460C490D484E
S315080002B0006804F0D9FFEBE740F2FF13ADF8003011
S315080002C0DEE700F0B1FE00F0B0FE22460649054B17
S315080002D0186804F0C9FFDBE79C100020AC14002066
S315080002E050C801085418002088C8010810B582B003
S315080002F08368C26853F822301C7800230193436848
S315080003009B1A012B0FDD01AA012103F068FA0146A9
S315080003109DF804000CF0E2FB20460CF09BFB04461B
S3150800032020B902B010BD0CF0F3FBF5E7032000F08E
S315080003305BFE0028F5D000F077FE00F076FE224638
S315080003400249034B186804F08FFFEAE798C80108CA
S315080003505418002010B503468168C26851F8220077
S31508000360B0F900001A4C20805B689B1A012B0FDD40
S31508000370013251F8223093F90010003918BF0121D3
S315080003800EF0CCF9A0B9032000F02EFE10B910BD6E
S315080003900021F5E700F048FE00F047FE0D4B1C680B
S315080003A00EF0C7F902460C49204604F05DFFEEE759
S315080003B0012000F019FE0028E9D000F035FE00F013
S315080003C034FE0649034B186804F04EFFDFE700BF0A
S315080003D0AC14002054180020B4C80108C8C8010885
S315080003E010B584B0002300938268C36852F82320AE
S315080003F012788DF80C20022A10D18268013352F83F
S3150800040023301B78ADF8043001A809F077F80446C4
S31508000410032000F0E9FD58B904B010BD6A46012171
S3150800042003F0DDF90146009A01A81AF0D7FAEBE7BE
S3150800043000F0FAFD00F0F9FD22460349034B18685F
S3150800044004F012FFE8E700BF2CC901085418002081
S31508000450F0B587B06C4B1B7813F0020F3ED06B4C8F
S3150800046013F0010F3CD0694D13F0040F3AD0674ED4
S31508000470032000F0B9FD002836D1032000F0B4FDB2
S3150800048000283BD1032000F0AFFD002843D103200C
S3150800049000F0AAFD00284CD1032000F0A5FD002895
S315080004A053D1032000F0A0FD00286BD1032000F0F3
S315080004B09BFD002872D1032000F096FD002879D113
S315080004C0032000F091FD002840F08280032000F010
S315080004D08BFD002840F08A8007B0F0BD4C4CBFE782
S315080004E04B4DC1E74A4EC3E700F09EFD00F09DFD67
S315080004F04849494B186804F0B7FEBEE700F094FD7A
S3150800050000F093FD454B9A6CDB6C45494248006800
S3150800051004F0AAFEB6E700F087FD00F086FD3E4B24
S315080005201F680AF033F902463E49384604F09CFE35
S31508000530ADE700F079FD00F078FD3B4B1A783B49B2
S31508000540354B186804F090FEA6E700F06DFD00F044
S315080005506CFD374A53791179D078977892F801C0AB
S3150800056092F800E0CDF814E0CDF810C00397029099
S31508000570019100939379D2792E492748006804F0AF
S3150800058073FE8EE700F050FD00F04FFD2A4B1A88E7
S315080005902A49214B186804F067FE87E700F044FDF6
S315080005A000F043FD264B1A8826491B4B186804F0B1
S315080005B05BFE80E700F038FD00F037FD164B1F683C
S315080005C00EF0B9F802462049384604F04DFE77E7A2
S315080005D000F02AFD00F029FD0F4B1F680EF0A9F860
S315080005E002461A49384604F03FFE6FE700F01CFD44
S315080005F000F01BFD00962B46224615490648006862
S3150800060004F032FE68E700BFAC100020ECC8010811
S31508000610E0C8010844C90108541800200080E00F0A
S315080006204CC9010868C901082634002084C9010894
S315080006304B340020A0C9010878110020C4C901085C
S315080006407C110020E0C90108FCC9010814CA010888
S315080006502CCA010808B50BF0F1FE08BD10B5836871
S31508000660C26853F82230012118780EF0DFFC0446E0
S3150800067078B9032000F0B8FC00B910BD00F0D4FC2E
S3150800068000F0D3FC22460B490B4B186804F0ECFD2E
S31508000690F3E7012000F0A8FC0028EED000F0C4FC27
S315080006A000F0C3FC22460549034B186804F0DCFD3C
S315080006B0E3E700BF98CA010854180020BCCA01081D
S315080006C070B582B08368C26853F822301B78134A23
S315080006D0137013F0020F0ED0114C13F0010F0CD04B
S315080006E00F4D13F0040F0AD00D4E032000F07CFCCA
S315080006F038B902B070BD0B4CEFE70A4DF1E7094E69
S31508000700F3E700F091FC00F090FC00962B46224699
S3150800071005490648006804F0A7FDEAE7AC10002082
S31508000720ECC80108E0C80108ECCA01085418002002
S3150800073008B505F04FFA08BD70B58268C36852F867
S3150800074023100C78013352F823301D7829462046A9
S315080007500FF056F980B9032000F046FC00B970BDC9
S3150800076000F062FC00F061FC2B4622460B490C485F
S31508000770006804F079FDF2E70646012000F034FC33
S315080007800028ECD000F050FC00F04FFC324605493A
S31508000790034B186804F068FDE1E700BF24CB0108A5
S315080007A05418002054CB010810B586B000210591D5
S315080007B005AA03F014F8059A102A06D0032000F0BB
S315080007C013FC002862D106B010BD014601A81AF034
S315080007D005F901A80FF0AAF90446002847D1032015
S315080007E000F002FC78B100F01FFC00F01EFC2D4959
S315080007F02D4B186804F038FD05E0032000F0F4FBE3
S31508000800C0B90134E4B20F2C22D80F2CF5D003203E
S3150800081000F0EAFB0028F4D000F006FC00F005FC26
S3150800082006AB234413F8142C20491F4B186804F010
S315080008301BFDE6E700F0F8FB00F0F7FB06AB2344E8
S3150800084013F8142C1A49184B186804F00DFDD8E74C
S31508000850032000F0C9FB0028B5D000F0E5FB00F046
S31508000860E4FB1449104B186804F0FEFCABE70120C2
S3150800087000F0BAFB0028A6D000F0D6FB00F0D5FBA6
S315080008800D49094B186804F0EFFC9CE700F0CCFB17
S3150800089000F0CBFB10220949034B186804F0E4FC6E
S315080008A091E700BF84CB0108541800207CCA0108D0
S315080008B098CB0108A0CB0108A4CB0108C0CB01083E
S315080008C030B583B08368C26853F822301C7801A912
S315080008D020460FF031FB88B9032000F085FB08B9E4
S315080008E003B030BD00F0A0FB00F09FFB019B224641
S315080008F00B490C48006804F0B7FCF1E705460120EF
S3150800090000F072FB0028EBD000F08EFB00F08DFBA8
S315080009102A460549034B186804F0A6FCE0E700BF21
S31508000920E8CB01085418002004CC010810B582B0A1
S31508000930032000F059FB40BB1E480FF0F7F80BF0F8
S315080009402BFD04460BF07AFD032000F04DFB30BB6F
S3150800095018480FF0EBF80622002168461AF065F8E9
S315080009600023ADF802300B23ADF8043040F2FF1334
S31508000970ADF8003068460CF011F8322006F05EFB40
S31508000980FF200CF067F802B010BD00F04DFB00F038
S315080009904CFB0949094B186804F066FCCCE700F0E3
S315080009A043FB00F042FB22460549044B186804F055
S315080009B05BFCCDE79C10002028CC010854180020C9
S315080009C030CC01080379012B57D130B583B00546E1
S315080009D02A4B1B7813F0010F03D0037813F0010F8D
S315080009E03ED0032000F000FB08B900241CE000F00C
S315080009F01BFB00F01AFB6A882149224B186804F091
S31508000A0033FCF2E700F010FB00F00FFBAB681A5D51
S31508000A101D491C4B186804F027FCAB681A5D02AB2D
S31508000A20234403F8042C0134AB79A34205DD0320E3
S31508000A3000F0DAFA0028F0D0E4E79DF804209DF8E3
S31508000A4005301B0443EA02639DF8062043EA0223A5
S31508000A509DF8072042EA0304032000F0C5FA08B906
S31508000A6003B030BD00F0E0FA00F0DFFA224607498D
S31508000A70044B186804F0F8FBF2E77047AC10002046
S31508000A8048CC01085418002060CC010868CC01083D
S31508000A9000B9704710B50446032000F0A5FA00B95E
S31508000AA010BD00F0C1FA00F0C0FA22460249034B15
S31508000AB0186804F0D9FBF3E778CC0108541800202D
S31508000AC010B5902811D0044691281DD0032000F0B7
S31508000AD08BFA70B100F0A8FA00F0A7FA224612497C
S31508000AE0124B186804F0C0FB03E0032000F07CFA00
S31508000AF000B910BD00F098FA00F097FA0C490B4BB4
S31508000B00186804F0B1FBF4E7032000F06DFA00283A
S31508000B10EFD000F089FA00F088FA0649034B186806
S31508000B2004F0A2FBE5E700BFA0CC0108541800209A
S31508000B3084CC010890CC010838B505460C4603203C
S31508000B4000F052FA00B938BD00F06EFA00F06DFAFE
S31508000B502B46224602490348006804F085FBF2E763
S31508000B60B8CC01085418002008B509F017FE18B1CA
S31508000B70034800F0E6FB08BD014800F0E7FBFAE78A
S31508000B80E0D8010810B580B10446012000F02CFA1F
S31508000B9000B910BD00F048FA00F047FA22460A49A3
S31508000BA00A4B186804F060FBF3E7032000F01CFA10
S31508000BB00028EED000F038FA00F037FA0449034B63
S31508000BC0186804F051FBE4E7F0CC0108541800203B
S31508000BD018CD0108F0B583B004460D4616461F46E3
S31508000BE0032000F001FA08B903B0F0BD00F01CFAC2
S31508000BF000F01BFA019700962B4622460249034845
S31508000C00006804F031FBEFE730CD010854180020E6
S31508000C1008B506F07FFC06F089FC05F0F7FCFAE754
S31508000C2008B5024B1B6803B1984708BDE0140020BD
S31508000C3008B5024B5B6803B1984708BDE01400206D
S31508000C4008B5024B9B6803B1984708BDE01400201D
S31508000C5008B5024BDB6803B1984708BDE0140020CD
S31508000C6008B5024B1B6903B1984708BDE01400207C
S31508000C7008B5024B5B6903B1984708BDE01400202C
S31508000C807047704708B507F06DF908BD704770479B
S31508000C90704770477047704770477047704770478E
S31508000CA0704770477047704770477047704708B578
S31508000CB000214FF0FF300DF02BFE08BD00207047D5
S31508000CC0002070477047704730B585B0094C2268D8
S31508000CD0094B1A60094D0A4B2B600A4B019304F025
S31508000CE067FA02902B68039301A9206802F022FE96
S31508000CF005B030BDCC100020D41F0020D01F002026
S31508000D00C010002098D8010808B5024B186802F0F0
S31508000D1025FE08BDCC10002038B504F049FA044673
S31508000D20064D2B68D3F8B00204F036FA286802F0AC
S31508000D302FFE204604F030FA38BD00BFCC10002044
S31508000D4008B50321802001F073FB03214FF480606E
S31508000D5001F06EFB09214FF4C06001F069FB09211F
S31508000D604FF4F06001F064FB09213E2001F060FBBE
S31508000D7009212D2001F05CFB0921512001F058FBC7
S31508000D80002008BD10B5294B5A6E02F4803203F5CF
S31508000D9080514FF480304866586E4FF000434B66DA
S31508000DA0234B596C01F001014AF6CD341C64204BE3
S31508000DB05B6B13F0010FFAD11E4B01245C601C4BD0
S31508000DC01B6B13F0010FFAD01B4BD3F8083613F040
S31508000DD0020F03D1174B4FF48024DC6511B1144B75
S31508000DE016491964002803DB154B4FF00041596674
S31508000DF01AB9134B4FF480325A6603F09FFF00F07E
S31508000E003BF903F01BFF03F0B5FF03F041FF03F0C6
S31508000E107FFFFFF795FF03F029FF00F025F904F09F
S31508000E20A5FE00F0FDFA05F019FB10BD0080004094
S31508000E30004009400060094000C007403254FFFFE7
S31508000E4000A0004008B500F0C7F808BD08B502F0D4
S31508000E5079FC06F0C1FE06F0CFFE06F001FF08BDDC
S31508000E6008B500F0E3F808BD704708B5FFF754FF6A
S31508000E7008BD08B506F0D0FE06F0D4FE08BD7047DA
S31508000E8008B500F04DF808BD08B500F0EBF805F018
S31508000E903BFF03F073FF04F0E7FB07F013F905F0D7
S31508000EA0FBF8FFF7EDFFFFF70FFF08BD10B59AB087
S31508000EB0174C0DF1480CA646BEE80F00ACE80F002B
S31508000EC09EE80F008CE80F002C22002107A819F0D5
S31508000ED0ACFD104B079301238DF821305722ADF84E
S31508000EE02220099309230B930A230D930DF10C0C69
S31508000EF004F120030FCB8CE80F00074B009307ABD8
S31508000F0012AA6146054804F049FA1AB010BD00BF96
S31508000F10B0D8010800000A40B41700203018002095
S31508000F2008B5FFF7C3FF08BD08B5024B186804F0FB
S31508000F3049FB08BD3018002008B5024B186804F0B4
S31508000F4041FB08BD3018002008B5024B1A6A18681C
S31508000F50904708BD301800200120704701207047CF
S31508000F6038B5FFF7D1FE044606F09EFE054600B1E9
S31508000F70254604F0E9FD044600B12C46FFF7ECFFD0
S31508000F8000B1204638BD38B505F010FC0446FFF719
S31508000F90DBFF042811D0022811D0002504F0D6FD65
S31508000FA004280FD002280FD0FFF7D8FF04280FD047
S31508000FB002280BD06DB100240BE00125EEE70025D1
S31508000FC00124EBE70125EFE70124EDE70124F1E72A
S31508000FD00024204638BD000008B5024800F0ACF9E8
S31508000FE008BD00BFE0D8010803460B4A107828B1AF
S31508000FF00A4A12789A4202D2002000E00120084AE2
S3150800100012783AB1074A127842FA03F313F0010F3D
S3150800101000D10020704700BFD3100020D410002054
S3150800102058180020D51000207047704708B5084B9F
S3150800103001221A70074B00221A70074B04221A70F5
S31508001040064B1F221A7004F0B3F8054B186008BD4A
S31508001050D310002058180020D4100020D5100020E6
S31508001060541800200F20704708B501213A2000F0D7
S3150800107053FDFFF728FE08BD08B501213A2000F008
S315080010804BFD08BDFEE7000008B500F013F8064B57
S31508001090064A03E052F8041B43F8041B04498B4232
S315080010A0F8D3FFF789F800BF9C100020B421020886
S315080010B090140020044B054A9A60D3F8882042F41D
S315080010C07002C3F88820704700ED00E000000008B1
S315080010D0014B1868704700BFDC10002008B5094BA3
S315080010E01B6F03F00703022B04D0032B05D0012B3B
S315080010F006D0FEE7FFF7ECFF03E0034B186800E0B5
S31508001100024808BD00800040E0100020002D310193
S3150800111008B5FFF7E3FF054B1B6FC3F30333013332
S31508001120B0FBF3F0024B186008BD00BF008000401A
S31508001130D81000200048704700B4C404014B186852
S31508001140704700BFE010002008B5064B1860064B34
S315080011501B6F03F00703032B00D008BDFFF7D8FF6A
S31508001160FBE700BFE0100020008000400020704729
S3150800117000487047002D31014FF094439868C0F33A
S3150800118004400C2808D8DFE800F009070707070716
S3150800119022181A071C1E2000002070474FF094439F
S315080011A09B6803F04073B3F1807F12D0B3F1007FE0
S315080011B011D003B170470948704709487047094874
S315080011C070470948704709487047094870470948F1
S315080011D07047094870470948ECE700BF00093D0019
S315080011E00024F400C0EA210180BA8C010048E80115
S315080011F0005A6202405DC60080841E0040420F000D
S315080012004FF4004070474FF47A707047014B1868E6
S31508001210704700BFE410002000230360704703688E
S315080012200B600160704700E01846036823B18B42E3
S31508001230FAD10B68036070477047D0B18446C2B1D3
S31508001240B9B10020137883B100B501F1FF3E864598
S3150800125006D90CF8013B013201301378002BF4D182
S3150800126000238CF800305DF804FB00238CF800306E
S3150800127070477047034640B1002001E00133013052
S315080012801A781AB18842F9D370470020704708B512
S315080012904FF0FF31FFF7EEFF08BD80B170B50C4681
S315080012A01546064622B119B1FFF7F1FF844200D868
S315080012B070BD2A46211A3044FFF7BFFFF8E770478A
S315080012C0F0B18446F1B110B409E004F120030FE04F
S315080012D02030181A18D1BCB10CF1010C01319CF858
S315080012E000400B4BE35C03F00303012BEDD02346D0
S315080012F00878074A825C02F00302012AE9D1E7E787
S3150800130001207047012070475DF8044B704700BF05
S31508001310F11F02080346064A10680344054A934229
S3150800132002D8034A136070474FF0FF30704700BF7A
S31508001330E81000200000012008B5436800689847B7
S3150800134008BD08B583680068984708BD08B5C3682E
S315080013500068984708BD10B5044601213A2000F0F8
S31508001360DBFBA378B3FA83F35B0904226178207860
S3150800137001F01CFF002010BD83784BB90378427832
S315080013800121914003EB43031B01064AD1507047E4
S31508001390037842780121914003EB43031B01024A7B
S315080013A0D150704740E0034040D0034083784BB9A2
S315080013B0037842780121914003EB43031B01064A57
S315080013C0D1507047037842780121914003EB4303DB
S315080013D01B01024AD150704740D0034040E0034009
S315080013E0037842780121914003EB43031B01014A2C
S315080013F0D150704740F0034002460378407803EB2B
S3150800140043031B01103305495B58C34003F0010031
S3150800141093780BB980F00100704700BF30C00340D5
S3150800142008B5034B1968034B186810F0C7F908BDCF
S31508001430F0100020EC100020B0F1FF3F01D010B9E9
S315080014407047024870470248704700BF21E000F025
S3150800145024E000F08908002301E0043001338B42C0
S3150800146005D20268B2F1FF3FF7D00020704701208D
S315080014707047704738B504461BF0E2F9FFF7DCFF02
S31508001480054650B9074B9B680A3303F01F03012131
S3150800149099402046FFF7DEFF08B1284638BD024DC1
S315080014A0FBE700BF0080E00F0EE000F0F8B5054648
S315080014B00E46940022461BF0BBF9FFF7BDFF074610
S315080014C008B13846F8BD22463146284619F076FA5C
S315080014D00028F6D0004FF4E710E000F008B5034600
S315080014E0084613F0030F02D111F0030F0AD0920039
S315080014F0194619F073FA002008BD53F8041B40F882
S31508001500041B013A002AF8D1F5E7000010B582B0AD
S31508001510044601A801F026FF9DF806302380012223
S31508001520E2700020A070054B9B680A3303F01F0386
S3150800153002FA03F3636002B010BD00BF0080E00F3B
S3150800154008B501F0AFFE08BD08B501F09BFE002006
S3150800155008BD000008B501F02DFA014B186008BD5A
S31508001560F01E002008B5024B186801F027FA08BDDE
S31508001570F01E002008B50A464118013904F0F0FDAE
S3150800158008BD0000024B4FF480321A67704700BF4F
S315080015900090004038B505460C46FFF79FFD05B19B
S315080015A028600CB10D23237038BD000038B50546F8
S315080015B00C46164BD3F8203103F00703013B052BE5
S315080015C020D8DFE803F0030B130F171BFFF780FD86
S315080015D0052305B1286004B1237038BDFFF7AEFDB9
S315080015E00323F6E7FFF7C8FD0723F2E7FFF7C0FD79
S315080015F00223EEE7FFF76CFD0623EAE7FFF79EFDF9
S315080016000423E6E700231846E3E700BF008000400E
S3150800161038B505460C46114BD3F8283103F00703B5
S31508001620013B032B17D8DFE803F0020E120AFFF777
S315080016304FFD052305B1286004B1237038BDFFF7B7
S315080016409BFD0723F6E7FFF779FD0323F2E7FFF78C
S315080016508FFD0223EEE700231846EBE700800040E3
S3150800166030B583B005460C4600230193114BD3F8D9
S31508001670803103F00303022B16D0032B0FD0012B66
S3150800168007D000230DB1019A2A6004B1237003B074
S3150800169030BD002101A8FFF789FF0F23F2E7FFF706
S315080016A06BFD01900723EDE7FFF762FD019002232A
S315080016B0E8E700BF0080004038B505460C460C4BED
S315080016C0D3F8903203F00303012B05D0022B07D180
S315080016D0FFF752FD072305E0FFF74AFD022301E065
S315080016E00023184605B1286004B1237038BD00BF31
S315080016F00080004030B583B005460C4600230193B0
S31508001700144BD3F8203203F00703013B032B1ED8F2
S31508001710DFE803F0020E1318002101A8FFF778FF8F
S3150800172011230DB1019A2A6004B1237003B030BDAC
S31508001730FFF722FD01900723F3E7FFF761FD01900C
S315080017400A23EEE7FFF762FD01900923E9E7002384
S31508001750E7E700BF0080004038B505460C460F4B4A
S31508001760D3F8403103F00303022B0ED0032B10D01D
S31508001770012B06D00023184605B1286004B1237052
S3150800178038BDFFF73DFD0A23F6E7FFF73FFD0923BE
S31508001790F2E7FFF738FD0B23EEE700BF00800040B5
S315080017A030B583B005460C46002301934FF0E0237D
S315080017B01B6913F0040F0ED0FFF7AAFC01900C2347
S315080017C08DF803300DB1019B2B6014B19DF80330E1
S315080017D0237003B030BD0DF1030101A8FFF7BCFF6C
S315080017E0F0E7000030B583B005460C4600230193A8
S315080017F0144BD3F8603203F00703013B032B1FD8C1
S31508001800DFE803F0020E1914002101A8FFF7CEFE47
S315080018100F230DB1019A2A6004B1237003B030BDBD
S31508001820002101A8FFF798FF1023F2E7FFF7A4FCB1
S3150800183001900723EDE7FFF79BFC01900223E8E7F9
S315080018400023E6E70080004030B583B005460C4625
S31508001850002301930C4BD3F8703203F00303012BDA
S3150800186009D0022B0DD114230DB1019A2A6004B1B7
S31508001870237003B030BD002101A8FFF76DFF1023C8
S31508001880F2E70023F0E700BF0080004038B50546C0
S315080018900C46124BD3F8003203F00703013B032B27
S315080018A018D8DFE803F0020A0E12FFF7A9FC0A238C
S315080018B005B1286004B1237038BDFFF7A7FC0923DA
S315080018C0F6E7FFF7A0FC0B23F2E7FFF721FC800AF7
S315080018D00E23EDE700231846EAE700BF0080004024
S315080018E038B505460C46124BD3F8083203F0070301
S315080018F0013B032B18D8DFE803F0020A0E12FFF7A4
S315080019007FFC0A2305B1286004B1237038BDFFF7B0
S315080019107DFC0923F6E7FFF776FC0B23F2E7FFF7D2
S31508001920F7FB800A0E23EDE700231846EAE700BF17
S315080019300080004038B505460C460F4BD3F84032B8
S3150800194003F00303022B0ED0032B10D0012B06D075
S315080019500023184605B1286004B1237038BDFFF787
S315080019604FFC0A23F6E7FFF751FC0923F2E7FFF7D6
S315080019704AFC0B23EEE700BF0080004038B5054659
S315080019800C460F4BD3F8503203F00303022B12D048
S31508001990032B08D0012B0AD00023184605B128606E
S315080019A004B1237038BDFFF72EFC0B23F6E7FFF7CB
S315080019B027FC0A23F2E7FFF729FC0923EEE700BF15
S315080019C00080004038B505460C460F4BD3F8603109
S315080019D003F00303022B0ED0032B10D0012B06D0E5
S315080019E00023184605B1286004B1237038BDFFF7F7
S315080019F007FC0A23F6E7FFF709FC0923F2E7FFF7D6
S31508001A0002FC0B23EEE700BF0080004038B5054610
S31508001A100C46104BD3F8000100F00300032815D834
S31508001A20DFE800F002080C10012305B1286004B1B4
S31508001A30237038BDFFF782FB0323F6E7FFF7E6FBC3
S31508001A400923F2E7FFF792FB0823EEE7002318467F
S31508001A50EBE700BF00800040B0F5207F20D00ED80D
S31508001A60B0F5007F16D020D810B1B0F5C07F04D1EC
S31508001A700F4B186FC0F3033018E0002016E0B0F5DE
S31508001A80607F05D10A4BD3F88000C0F301100DE042
S31508001A9000200BE0064BD3F89000C0F3046005E085
S31508001AA0034B186FC0F3802000E000200130704718
S31508001AB00080004038B505460C46104B4FF480327E
S31508001AC09A660020FFF7C8FF05FB00F00C4BDA69A1
S31508001AD002F4803241F67131D9635B6823F440130E
S31508001AE00849884201D9002C05DD05494B600AB131
S31508001AF00022CA6338BD43F48013F6E7009000401D
S31508001B0000000340005A620208B5FFF713FB0021E4
S31508001B10FFF7D0FF08BD0000430905D0012B0ED002
S31508001B20022B0ED0002200E0002200F01F0051B167
S31508001B3002F58052012303FA00F010607047034A49
S31508001B40F3E7034AF1E702F50052F3E76480004041
S31508001B506880004010B582B0002301930093B0F569
S31508001B60807F00F20781B0F5807F00F27581DFE89B
S31508001B7010F04C0173017301730173017301730152
S31508001B8073017301730173017301730173017301A7
S31508001B907301730173017301730173017301730197
S31508001BA07301730173017301730173017301730187
S31508001BB073014C0185014C0185019D019D019D0123
S31508001BC09D019D018501A2013D01AC0123013D0155
S31508001BD08501850185017301730173017301730121
S31508001BE073017301AC01850185018501C001B1014D
S31508001BF08501730173017301730173017301730125
S31508001C0073017301730173017301B6019D014C01E0
S31508001C104C014C016D013D013D016201BB015601BC
S31508001C207C017C01730173017301730173017301F4
S31508001C3073017301730173017301730173017301F6
S31508001C4073017301730173017301730173017301E6
S31508001C5073017301730173017301730173017301D6
S31508001C6073017301730173017301730173017301C6
S31508001C7073018101730173017301730173017301A8
S31508001C8073017301730173017301730173017301A6
S31508001C907301730173017301730173017301730196
S31508001CA07301730173017301730173017301730186
S31508001CB07301730173017301730173017301730176
S31508001CC07301730173017301730173017301730166
S31508001CD07301730173017301730173017301730156
S31508001CE07301730173017301730173017301730146
S31508001CF07301730173017301730173017301730136
S31508001D007301730173017301730173017301730125
S31508001D107301730173017301730173017301730115
S31508001D207301730173017301730173017301730105
S31508001D3073017301730173017301730173017301F5
S31508001D4073017301730173017301730173017301E5
S31508001D5073017301730173017301730173017301D5
S31508001D6073017301730173017301730173017301C5
S31508001D707301A701B0F5E06F00F0AC800CD9B0F59F
S31508001D80286F00F0B1804FD9B0F5306F63D10021CC
S31508001D9001A8FFF791FC5FE0B0F5607F79D010D914
S31508001DA0B0F5B06F00F0878033D9B0F5C06F00F09A
S31508001DB08C80B0F5D06F4FD1002101A8FFF766FDE2
S31508001DC04AE0B0F5007F0AD1FFF788F904464FF4D8
S31508001DD00070FFF741FEB4FBF0F401943CE011D922
S31508001DE0B0F5207F4AD0B0F5407F35D1FFF790F99E
S31508001DF004464FF42070FFF72FFEB4FBF0F4640896
S31508001E00019429E0B0F5C07F26D1FFF781F901904A
S31508001E1022E0B0F5806F49D0B0F5A06F1CD1002143
S31508001E2001A8FFF767FC17E0B0F5186F57D007D978
S31508001E30B0F5206F10D1002101A8FFF7D3FC0BE005
S31508001E40B0F5F06F55D0B0F5106F05D1002101A897
S31508001E50FFF746FD00E002D2019802B010BDB0F5CA
S31508001E60386F32D0B0F5406FF6D1002101A8FFF7E0
S31508001E70CFFBF1E7FFF732F90190EDE7FFF748F9F5
S31508001E8004464FF42070FFF7E7FDB4FBF0F4019425
S31508001E90E2E700216846FFF77DFB009C4FF460707F
S31508001EA0FFF7DAFDB4FBF0F40194D5E7002101A8A9
S31508001EB0FFF77CFBD0E7002101A8FFF7D1FBCBE7B2
S31508001EC0002101A8FFF76CFCC6E7002101A8FFF76F
S31508001ED043FCC1E7002101A8FFF72CFDBCE7002160
S31508001EE001A8FFF74BFDB7E7002101A8FFF7ACFCF7
S31508001EF0B2E7002101A8FFF765FDADE708B5802028
S31508001F00FFF728FE034B984203D8034B4FF4803261
S31508001F101A6708BD005A620200A0004000B583B0E7
S31508001F2000238DF80730B0F5807F00F0BE8013D906
S31508001F30B0F5086F00F0C58046D9B0F5286F00F0F7
S31508001F40D88070D9B0F5306F40F082800DF1070166
S31508001F500020FFF7B1FB7CE080287AD8242878D3C4
S31508001F6024385C2875D8DFE800F04F4F4F4F4F7480
S31508001F704674A6587474747474747474747474A6F9
S31508001F807474743AB87474747474747474747474F9
S31508001F907474BE4F7474746D747464C4B27F7F7441
S31508001FA074747474747474747474747474747474E3
S31508001FB074747474747474747474747474747474D3
S31508001FC07474747474748500B0F5C06F73D00CD9CA
S31508001FD0B0F5E06F00F08180B0F5F06F1AD10DF121
S31508001FE007010020FFF7EEFC33E0B0F5A06F6ED0D6
S31508001FF0B0F5B06F05D10DF107010020FFF730FBF2
S3150800200027E0B0F5806F24D10DF107010020FFF716
S31508002010CDFA1EE0B0F5D06F1BD10DF107010020F7
S31508002020FFF734FC15E0B0F5186F5CD0B0F5206FFB
S3150800203005D10DF107010020FFF7D4FB09E0B0F543
S31508002040106F06D10DF107010020FFF749FC00E0EB
S3150800205004D29DF8070003B05DF804FBB0F5386FAD
S3150800206029D0B0F5406FF4D10DF107010020FFF734
S31508002070CFFAEEE7224B1B6F03F00703013B032B56
S31508002080E7D8DFE803F00E02060A05238DF80730C5
S31508002090DFE703238DF80730DBE708238DF80730E1
S315080020A0D7E702238DF80730D3E70DF107010020A3
S315080020B0FFF776FBCDE70DF107010020FFF74CFB94
S315080020C0C7E70DF107010020FFF7A0FCC1E70DF1F6
S315080020D007010020FFF70EFBBBE70DF10701002003
S315080020E0FFF728FCB5E70DF107010020FFF746FCCE
S315080020F0AFE70DF107010020FFF7A6FBA9E700BF30
S315080021000080004070B505468020FFF707FF0328CA
S3150800211000F0A180584B4FF480125A66574B45F68B
S315080021200E02C3F8802003F580524FF0A061916239
S3150800213003F500534FF480329A62504B9C6D14F4A9
S315080021408034FAD12A786B781B0543EA0263EA7869
S3150800215043EA02432A7943EA02336A7943EA821355
S31508002160AA791343454E3361B36903F00043EA790C
S3150800217043EA82632A7A43EA02636A7A43EA0243B3
S31508002180AA7A43EA0223EA7A1343B36100F012FCFF
S31508002190B26B82F4006303F440635340B36300F008
S315080021A00DFC336A23F00F036A7B02B1082423432C
S315080021B02C7B43EA84031343304A13626B7B002B60
S315080021C030D1916A2E4B0B40A97B43EA4113E97B38
S315080021D043EA0113A97C43EAC10343F480339362BB
S315080021E0264B9A6D274B9343FAD1244A02F5805120
S315080021F04FF080738B62136923F47003A87843EA5F
S31508002200005313614FF000438B612B7C1BB91E4BA7
S315080022104FF080729A626B7CBBB91B4B4FF48032CD
S315080022209A6212E0022B17D0144A916A144B0B409B
S31508002230A97B43EA4113297C43EA0163A97C43EA63
S31508002240C103697C43EA01439362EB7C1BB10B4BE8
S315080022500E4AC3F8802070BD084C00232361A36191
S3150800226000F0A8FB626B82F4085303F47F435340E3
S31508002270636300F0A3FBD7E7009000400040004AE4
S31508002280C7FFFEFE030001000060004AF1A7FFFF3A
S31508002290014B93F9000070471011002010B44378E1
S315080022A04F2B28BF4F231A461C4B4FF40001596683
S315080022B003F5B8334FF4D151596203F5805102241E
S315080022C04C6003F5005301215960154B1B6913F443
S315080022D0803FFAD1037842EA0323114A5361817891
S315080022E0C3781B0143EA0123017943EA4103417993
S315080022F00B4393608179C3791B0143EA4113017A41
S3150800230043EA4103417A0B435360837A1BB1134670
S315080023106FF4D1525A625DF8044B70470090004042
S3150800232000000240014B1880704700BF12110020C0
S3150800233008B5002903DD0121FFF7BCFB08BD002114
S31508002340FFF7B8FBFAE70000B0F5207F4AD02FD890
S31508002350B0F5007F3BD04ED810B1B0F5C07F26D17E
S3150800236010B54C1EFFF7D0FB00F048F8FFF70AF946
S31508002370214B196F21F4704141EA04311967FEF7C0
S31508002380C7FE4FF04023D3F8843013F0100FF8D16E
S315080023904FF04023D3F88410C1F38111C1F1020133
S315080023A0FFF7C6FF00F032F8FFF7A8FD10BD70472B
S315080023B0B0F5607F0AD101390F4AD2F8803023F090
S315080023C0300343EA0111C2F880107047704701399B
S315080023D0094AD2F8903023F0F85343EA0161C2F86B
S315080023E0901070470139044A136F23F4806343EA57
S315080023F081211167704770470080004008B50221A7
S315080024004FF42070FFF7A0FF08BD000008B54FF491
S31508002410C070FFF79FFB054B984205D902214FF480
S315080024202070FFF791FF08BD0121F8E780F0FA0256
S3150800243070B50C46B0F5807F00F094811FD9B0F5D1
S31508002440086F00F0108240F28380B0F5286F00F024
S31508002450998240F2D180B0F5306F40F0F8800229B9
S3150800246000F0A282072940F0A1820221874AD2F809
S31508002470903223F003030B43C2F89032E8E0802839
S3150800248000F2E6802428C0F0E38024385C2800F2B5
S31508002490DF80DFE810F0990099009900990099000B
S315080024A0DD008300DD00A801A500DD00DD00DD00FC
S315080024B0DD00DD00DD00DD00DD00DD00DD00DD0026
S315080024C0A801DD00DD00DD0069002D02DD00DD006C
S315080024D0DD00DD00DD00DD00DD00DD00DD00DD0006
S315080024E0DD00DD00DD0043029900DD00DD00DD00D2
S315080024F0D000DD00DD00B8007702FE01E500E5004A
S31508002500DD00DD00DD00DD00DD00DD00DD00DD00D5
S31508002510DD00DD00DD00DD00DD00DD00DD00DD00C5
S31508002520DD00DD00DD00DD00DD00DD00DD00DD00B5
S31508002530DD00DD00DD00DD00DD00DD00DD00DD00A5
S31508002540DD00DD00DD00DD00DD00DD00DD00F10081
S31508002550B0F5C06F00F0478119D9B0F5E06F00F00B
S31508002560C781B0F5F06F38D10A2C00F054810B2CD6
S3150800257000F05381092C00F04C810021434AD2F81F
S31508002580603123F003030B43C2F8603160E0B0F515
S31508002590A06F00F07E81B0F5B06F12D1072C00F065
S315080025A0C7800F2C00F0C680022C00F0BF800021E7
S315080025B0364AD2F8803123F003030B43C2F8803140
S315080025C046E0B0F5806F43D1023C052C00F2B4809A
S315080025D0DFE804F0B8B4BCBEBAB6B0F5D06F37D1F0
S315080025E0093C052C00F21B81DFE814F023012901C0
S315080025F02501190119012701B0F5186F00F08E8120
S31508002600B0F5206F14D1023C0E2C00F29D81DFE854
S3150800261014F0B7019B019B019B019B01B1019B0132
S315080026209B019B019B019B019B019B01B301B5018A
S31508002630B0F5106F0CD1093C052C00F20281DFE8D9
S3150800264014F00A0110010C01000100010E0100D26C
S3150800265070BDB0F5386F00F0C680B0F5406FF7D1A1
S31508002660023C052C00F23281DFE814F03C013E0101
S315080026703001400130013A018B1E062B08D8DFE8ED
S3150800268003F04F3D075207074C0000BF008000408B
S3150800269000252E460121022000F0F8F9FFF734FA4A
S315080026A0FFF7ACFEFEF76EFFAC4A136F23F0070385
S315080026B033431367FEF72CFD4FF04023D3F88430DD
S315080026C013F0100FF8D14FF04023D3F88410C1F35C
S315080026D08111C1F10201FFF72BFE0121002000F054
S315080026E01FFAFFF793FEFFF709FC002DB0D1032C64
S315080026F0AED19B4B4FF480329A62A9E7994B4FF4BF
S3150800270080125A66984B9D6AC5F3006503F5805397
S315080027104FF480329A620326BCE700250426B9E7FF
S3150800272000250126B6E700250226B3E702213FE782
S3150800273003213DE701213BE700210AE0022108E0E9
S31508002740042106E0032104E0052102E0062100E059
S315080027500121824AD2F8203123F007030B43C2F83D
S31508002760203175E70C2924D01FD8A1F10904E4B259
S31508002770022C3FF66DAF794B596E03F580534FF433
S3150800278080325A66794A536A43F00103536211F458
S31508002790803F03D1764B4FF480325A664FF0E022E1
S315080027A0136923F00403136152E710297FF450AF2D
S315080027B0E1E76A4B596E03F580534FF480325A6647
S315080027C06A4A536A23F00103536211F4803F03D126
S315080027D0674B4FF480325A664FF0E022136943F094
S315080027E00403136134E70A2C0FD00B2C0FD0092CE5
S315080027F009D00021594AD2F8403123F003030B438C
S31508002800C2F8403124E70221F4E70121F2E7032167
S31508002810F0E70221B2E60121B0E60321AEE6002187
S315080028204E4AD2F8003223F007030B43C2F80032AF
S315080028300EE70221F4E70321F2E70421F0E701217C
S31508002840EEE70021454AD2F8083223F007030B4386
S31508002850C2F80832FCE60221F4E70321F2E7042174
S31508002860F0E70121EEE708290FD009290FD003293F
S3150800287009D00021394AD2F8003123F003030B436B
S31508002880C2F80031E4E60121F4E70321F2E7022168
S31508002890F0E7073C0A2C07D8DFE804F01006141204
S315080028A0060606060606160000212C4AD2F820322D
S315080028B023F007030B43C2F82032C9E60221F4E7E6
S315080028C00321F2E70421F0E70121EEE70021234A7C
S315080028D0D2F8283123F007030B43C2F82831B7E6AC
S315080028E00421F4E70321F2E70221F0E70121EEE7EC
S315080028F00A2C0FD00B2C0FD0092C09D00021174A0F
S31508002900D2F8403223F003030B43C2F840329FE665
S315080029100221F4E70121F2E70321F0E70A2C0FD0A0
S315080029200B2C0FD0092C09D000210C4AD2F85032B2
S3150800293023F003030B43C2F8503289E60221F4E779
S315080029400121F2E70321F0E70021044AD2F86032B8
S3150800295023F007030B43C2F8603279E60080004093
S315080029600060004A009000400040004A00C007404E
S3150800297000A000400421E8E70121E6E70221E4E798
S315080029800321E2E7102C0BD0142C0BD10221084AA4
S31508002990D2F8703223F003030B43C2F8703257E6BD
S315080029A00121F4E70021F2E701215FE500215DE559
S315080029B000800040EFF3108072B6704700B962B627
S315080029C07047302383F311887047002383F31188F7
S315080029D07047EFF31180302383F31188704780F333
S315080029E011887047EFF3108313F0010F05D1EFF349
S315080029F011832F2B03D80020704701207047012030
S31508002A0070474FF04022536F23F44073417843EAEE
S31508002A1001235367704770477047000010B5044696
S31508002A20094A136943F00403136103F0B9FFFFF77A
S31508002A30F2FF30BFFFF7F0FF03F0C8FF04B110BD87
S31508002A40FEF766FBFBE700BF00ED00E010B50446A5
S31508002A50074A136943F00403136103F0A1FF30BF6B
S31508002A6003F0B4FF04B110BDFEF752FBFBE700BF4D
S31508002A7000ED00E0704770474FF04022D36E23F018
S31508002A80300301790B43D36670477047F8B504469F
S31508002A904FF04023D3F8843013F0100FF8D14FF0DD
S31508002AA04023D3F88430C3F381139C4231D0FEF718
S31508002AB015FB0646012C12D0FFF77CFF05464FF0A2
S31508002AC0402707F500534FF000725A662046FFF775
S31508002AD0DCFF621E4FF4806393403B6707E00121E9
S31508002AE0FFF726FCE8E74FF04023D3F884304FF091
S31508002AF040235B6E13F0007F06D14FF04023D3F8D6
S31508002B00843013F0200FEED02846FFF757FF022C2B
S31508002B1000D0F8BD00213046FFF70AFCF9E70000AF
S31508002B2010B50C46034650B1094A127812B1094A43
S31508002B30934208D921460220FFF7A8FF10BDFEF7E9
S31508002B40CDFA0346F0E721460120FFF79FFFF5E798
S31508002B50A41F0020005A620208B50278034B1A70B7
S31508002B6001210020FFF7DCFF08BD00BFA41F0020DD
S31508002B701B4B4FF000425A6603F50B235A6C02F0C2
S31508002B8001024AF6CD31196490B9164B5B6B13F006
S31508002B90010FFAD1134B5B6813F0010F1BD0124BD0
S31508002BA0012159600F4B1B6B13F0010FFAD012E08D
S31508002BB00C4B1B6B13F0080FFAD10A4B03F50051A7
S31508002BC02020886203F5805301215960054B9B6AD2
S31508002BD013F0200FFAD012B1024B044A1A64704758
S31508002BE00090004000400940006009403254FFFF51
S31508002BF010B5194B4FF000425A6603F50B235C6C6F
S31508002C0004F001044AF6CD321A6443785B0043F0B7
S31508002C1001034FF04022D363104B5B6B13F00B0F8D
S31508002C20FAD10E4A536823F4F873817843EA0113FC
S31508002C305360C178437943EA012393600179837924
S31508002C4043EA012313610078FFF792FF14B1034B9F
S31508002C50034A1A64012010BD009000400040094054
S31508002C603254FFFF10B40F2800D90F20124B5C6EA8
S31508002C7003F580534FF000425A6603F50B235A6C4E
S31508002C8002F001024AF6CD3119640C4B5B6B13F066
S31508002C90800FFAD109490B6A23F00F03184308621B
S31508002CA00AB1074A0A64002C03DB064B4FF00042C0
S31508002CB05A665DF8044B70470080004000400940A2
S31508002CC03254FFFF00A0004010B4134B5C6E03F5AE
S31508002CD080534FF000425A6603F50B235A6C02F0F4
S31508002CE001024AF6CD3119640C4B5B6B13F0800F69
S31508002CF0FAD10A490B6A23F4F85343EA002008621A
S31508002D000AB1074A0A64002C03DB064B4FF000425F
S31508002D105A665DF8044B7047008000400040094041
S31508002D203254FFFF00A00040084B98420AD0084BD7
S31508002D30984209D003F58043984201D00020704795
S31508002D405820704756207047572070470000014B9F
S31508002D5000000A40436813F0010F19D0836813F086
S31508002D60010F03D0036913F0010F09D00A23836307
S31508002D70436D13F0500FFBD1836C13F0030FFBD197
S31508002D8000F5005301225A60436813F0020FFBD185
S31508002D90042307E000F5805304221A6100F5005366
S31508002DA01A610B46591E002BF4D120230361002318
S31508002DB0C360836041F20202426183614FF4A0223C
S31508002DC04262C36103628362C3624363036500F5BB
S31508002DD000520249D1640363704700BFFF3F0D03E9
S31508002DE00A46F1B100F580530121596002F00F013E
S31508002DF0436DC3F30B03002BFAD18163436D13F0C4
S31508002E007803FBD112F0010F00D0012312F0040F52
S31508002E1001D043F00203826C02F003029A42FAD10F
S31508002E207047436813F0010FFAD0836813F0010F57
S31508002E3003D0036913F0010F09D00A238363436D96
S31508002E4013F0500FFBD1836C13F0030FFBD100F581
S31508002E50005301225A60436813F0020FFBD17047F2
S31508002E60836C13F0800FFBD0C06BC0B27047836CC5
S31508002E7013F0400FFBD041647047000038B5044694
S31508002E8015460846E1B1A36813F0010F4ED06268F3
S31508002E90B0FBF5F0013812F001023BD0636D13F078
S31508002EA0280FFBD1A36C13F0030F0FD1A36C13F0FB
S31508002EB0010F2BD1A36C13F0020F29D1002106E0D4
S31508002EC02046FFF731FFFEF745FEDCE7052163687C
S31508002ED013F0010F1FD0A36813F0010F03D0236965
S31508002EE013F0010F09D00A23A363636D13F0500F83
S31508002EF0FBD1A36C13F0030FFBD104F50053012596
S31508002F005D60636813F0020FFBD104E00921DEE778
S31508002F100621DCE70021236923F07F4343EA0060AA
S31508002F2020610AB32046FFF75BFF1DE06368A368CC
S31508002F3003F0E003402B1DD017D9602B1ED0802B41
S31508002F4012D10123400105FB03F3B0FBF3F020384F
S31508002F500B4B03EAC000636D13F0010FFBD120632E
S31508002F60636D13F0010FFBD138BD2BB1202BFBD1BC
S31508002F700823E7E70623E5E71023E3E70423E1E769
S31508002F80F8FF7F0070B504460D461646436823B120
S31508002F90636DC3F30B03002BFAD12046FFF7DAFE65
S31508002FA0636923F44C5323F00F036A7B1343EA89BE
S31508002FB013432A8A13436361A36823F0804323F0EB
S31508002FC0E2032A7B13432A7E13436A691343A360E9
S31508002FD0AB681BB9A36843F00043A360EA69002AFB
S31508002FE074D0A368127A43EA8253A360A368EA6995
S31508002FF0927A43EA4243A360A368EA69928802F494
S31508003000C0421343A360A368EA69527843EA82037D
S31508003010A360A368EA69527B43EAC203A360A36874
S31508003020EA69927B43EA0213A360A368EA69927885
S3150800303043EA8223A360EA699179D3795B0243EA7A
S315080030408123E360EB691B78012B01D0032B03D1A5
S31508003050E36843F00403E360EB691B78023BDBB2E9
S31508003060012B4DD9474B9C4267D0474B9C4266D0B3
S3150800307003F580439C425ED04FF0FF3303F593730C
S315080030805B0103F1804303F5703302225A60EB6952
S315080030905A7A04F580539A62EB695B7A1BB1E36846
S315080030A043F40063E360EB69DB7A7BB1E36843F4DE
S315080030B00043E360334B9C4243D0EB691B7B03F030
S315080030C00F03324A1367324B9C4241D03EB196F801
S315080030D02030002B42D004F5805301221A620521C4
S315080030E02046FFF77DFEAA68002A46D129782046A1
S315080030F0FFF776FEA36CDB4313F4405FFAD170BD8D
S31508003100204B9C4213D0204B9C4212D003F580439F
S315080031109C420AD04FF0FF33A6335B0103F180438C
S3150800312003F5703302225A60B1E70223F4E700235D
S31508003130F2E70123F0E70223A0E700239EE7012335
S315080031409CE7EB691B7B03F00F03104A5366B4E751
S31508003150EB691B7B03F00F03D367B7E7E36923F03B
S31508003160090396F82220134396F82120134343F0C7
S31508003170010304F58052D361B1E769682046FFF779
S315080031807DFEB3E70000014B00000A4000900340B3
S3150800319000400A4008B500231A46FFF7F3FE08BDAB
S315080031A008B500231A46FFF7EDFE08BD2DE9F84FCE
S315080031B004460E461F4690463AB183B301228A401A
S315080031C000EB400109012C4B5A50072E2FD804EB6F
S315080031D044094FEA091909F10409DFF8A4A0B30064
S315080031E00F2505FA03FB08FA03F5FFF7E3FB59F881
S315080031F00A305D4005EA0B055D4049F80A50FFF7BD
S31508003200DDFBB8F1000F08D16FB3012101FA06F60C
S3150800321004EB44042401184B1E51BDE8F88F012223
S315080032208A4000EB40010901144B5A50CDE704EBE4
S3150800323044052D010C35DFF84890A6F108039B00DC
S315080032400F2202FA03FA08FA03FBFFF7B3FB55F855
S3150800325009308BEA030202EA0A025A4045F80920B5
S31508003260FFF7ACFBCDE7012101FA06F604EB4404AF
S315080032702401024B1E51D0E740D0034040E00340F2
S3150800328030C00340064B4FF480329A6603F51C3370
S3150800329041F67132DA6303F500530122DA607047AA
S315080032A000900040074B41F67132DA6303F500528D
S315080032B00121D1600022DA63A3F518334FF4803276
S315080032C09A66704700000340024B4FF400321A67B3
S315080032D0704700BF005000404FF04023D3F89400D9
S315080032E07047436813B9416070475B685A68012A9A
S315080032F0FBD159607047836813B9816070475B6872
S315080033005A68012AFBD159607047C369032B05D84F
S315080033109A1C00EB820251600133C3617047C2698F
S31508003320042A1DD84FF098431B6C13F4801FF9D05C
S31508003330043292004FF098431A6502681A60426890
S315080033401A6082681A600023C2699A4208D99A1CD0
S3150800335000EB820251684FF0984211600133F3E79F
S3150800336070470000074B4FF480325A6603F5E62390
S315080033709B69C3F38512827003F03F0242701B0BF0
S315080033800370704700900040436813F0010F00D1A6
S31508003390704710B50446FFF71CFB636A13F0010F6C
S315080033A001D10123E360FFF71AFB10BD0A4B9B68A6
S315080033B013F0020FFAD1084B5B6813F0020FF5D130
S315080033C0054BDB69002BF1D1034B03F58051012234
S315080033D04A601A61704700BF00800A400A4B5B6862
S315080033E0012B00D07047084B5B6813F0010F03D020
S315080033F0054BDB69002BF6D1034B02221A6103F554
S31508003400005301225A60EDE700800A4038B50546A8
S31508003410134B9B6813F0020FFAD1114B5B6813F03C
S31508003420020FF5D10E4BDC69002CF1D15B68012B3C
S3150800343005D02B7803B10124094BDC6038BDFFF7B2
S31508003440CDFF074B9B6813F0020FFAD1044B5B685C
S3150800345013F0020FF5D1024BDB69002BF1D1E8E737
S3150800346000800A40D8B90B78D3B101234A6812B153
S31508003470127843EAC2034A78A2B1022213438A6841
S3150800348012B1127843EA82138A786AB10422134386
S31508003490CA6812B1127843EA4223044A9364704711
S315080034A00023E3E70022E9E70022F0E700800A406C
S315080034B008B9014B5964704700900A4008B9014B96
S315080034C05964704700A00A4008B9014B196470474F
S315080034D000A00A4010B9024B186C704700207047CC
S315080034E000800A4048B911B1012903D07047044B3E
S315080034F0D86C7047024B186D70470020704700BFA4
S3150800350000800A4040B911B1012903D07047034B26
S31508003510DA647047014B1A65704700BF00800A409D
S3150800352038B504460FF00AFB064DA446BCE80F0062
S315080035300FC5BCE80F000FC59CE8030085E803002B
S31508003540002038BDA81F002047F6FF739A4275D0A1
S31508003550042975D870B53C4B03EBC10090F802C03E
S31508003560604613F83130012B22D0374B03EBC103E9
S315080035705C68002C66D0B4F90050954204DBB4F9B7
S315080035800250954200DC1546A388FF2B2BD028262F
S31508003590C8230022AE465B1B93FBF6F313442A4A64
S315080035A002EBC1014D78691E994231D319462FE0C5
S315080035B0254B03EBC103D878A0EB0C000025A842E5
S315080035C00ED9431BA0EB53031F4C04EBC1046468DC
S315080035D034F91340944201DC1D46F0E7581EEEE725
S315080035E06044C0B229E0B4F90630B4F90860012293
S315080035F0D0E703F5FA73154AA2FB03239B094A1C75
S31508003600954210D904EBC206B6889E420BD31146E2
S3150800361004EBC1029368B2F9062002FB0E33002BB5
S31508003620E7DA0023E5E704EBC1018A889A4200D36A
S315080036301A46624500D31046C0B270BDFF207047D7
S31508003640002070470020F8E7A81F0020D34D62101D
S3150800365004296DD8394B13F83130012B23D010B516
S31508003660364B03EBC1035C68002C63D014F1040CE1
S3150800367062D0324B03EBC1039B7893422BD22F4B7C
S3150800368003EBC103DB78934228D92C4B03EBC1012A
S3150800369091F801E00EF1FF3E5FFA8EFEA388FF2B3C
S315080036A01FD0002321E0254B03EBC103DB789342AF
S315080036B000D21A46214800EBC1008078121AD2B20D
S315080036C01B1A9A4200DD00221C4B03EBC1014B6812
S315080036D033F912007047B4F9020010BDB4F90000BE
S315080036E0FBE7012301E00133DBB2734505D2591C20
S315080036F03CF8310091B28842F5D24FF47A7101FB59
S3150800370002F20CEBC30CDCF80430D31ABCF9022025
S3150800371002EBD27103EB610393FBF2F3B4F90000F9
S315080037209842DADBB4F902009842D6DC18B2D4E73C
S31508003730034870470248D0E70148CEE7A81F002093
S315080037400080FFFF08B50348FFF7EAFE01200FF0E7
S3150800375051FA08BD1CD90108002070470048704777
S31508003760141100202D2822D8DFE800F01721212186
S31508003770212121212121212121212121212121212B
S31508003780212121212121212121211B21212321211F
S3150800379021211D212121211F21190748704707488A
S315080037A070470748704707487047074870470748F3
S315080037B070470748704700BF3CDC0108D4DA0108A7
S315080037C0E8DA010810DB010828DB01089CDA0108A1
S315080037D0ACDA01087047002070470020704710B423
S315080037E08468C3680B4454F82310084610F8023B53
S315080037F0497803EB012313605DF8044B704700001A
S3150800380010B504464FF42F72002117F00EF98023E5
S31508003810C4F88C300023C4F89030C4F8943084F887
S315080038209830054A626001222272C4F8AC3204F16B
S315080038309C00FDF7F1FC10BD48DB010810B50346F6
S315080038400846D3F8A0202AB1D3F8A410904700243C
S31508003850204610BD184600F0D5FD04460028F7D0CE
S31508003860FFF780FF0146024801F03FF9F0E700BF85
S3150800387060CA010838B504460123037200F1090538
S31508003880284617F05FFA00B938BD204600F05AFFFF
S3150800389029462046FFF7D2FF204600F05EFEF3E7F2
S315080038A0F8B5067816B100263046F8BD0546FFF786
S315080038B094FF0028F8D101232B702B7A0BB93746D1
S315080038C016E000232B726968194801F00EF9F6E72D
S315080038D001F0EFF8044614E02846FFF77BFFE1B253
S315080038E0284600F073FF0646B4F1FF3F0ED06EB9C6
S315080038F0D5F8B442B4F1FF3FEAD04FF0FF33C5F82C
S31508003900B432B4F1FF3FE7D10127EDE71EB9002332
S315080039102B703E46C8E72846FFF7ACFF2B7A002BEC
S31508003920F5D06968024801F0E0F800232B72EEE74B
S315080039304CDB010838B504460D46FFF761FF6B6896
S31508003940C4F8B032A968204600F016FC4FF0FF33E1
S31508003950C4F8B4322046FFF73EFF38BD10B504461A
S31508003960D0F8B432B3F1FF3F09D0D4F8B432B3F18A
S31508003970FF3F09D194F8B83243B9012005E001F0B8
S3150800398098F8C4F8B402F0E7002010BD0020FCE760
S3150800399008B5FFF785FF08BD1038072801D80120AC
S315080039A0704700207047A0F11003072B00D8D8B243
S315080039B070470000F8B506460D4617460B78302BBB
S315080039C00DD04FF0000C15F80C30002B4ED0394CAA
S315080039D01B5D13F0040F6AD00CF1010CF3E74B786A
S315080039E0782B04D0582B0CD04FF0000CEBE70222B2
S315080039F0AB5C43B12F495B5C13F0440F55D00132E1
S31508003A00F6E70222F4E7724206F0030302F0030225
S31508003A1058BF5342032B1AD1284617F093F9831E31
S31508003A20013609D4B410B3EBA60F07D1A878372806
S31508003A308CBF002001203BE00336F3E7284617F049
S31508003A4081F902388442D4BF0020012030E028469C
S31508003A5017F078F9831E3246002E05DBB3EBA20F6A
S31508003A60D4BF0120002023E0F21CF7E70A22002138
S31508003A70284617F0A5FA02460C46202E11D02FB17B
S31508003A8051EA000302D0421E61F100040123B3404B
S31508003A90013B1340002C08BF93420CBF01200020B5
S31508003AA006E0B1FA81F0400902E0002000E00020BB
S31508003AB0F8BD00BFF11F020808B50B782D2B04D0FE
S31508003AC000220138FFF776FF08BD012211440138AC
S31508003AD0FFF770FFF8E7000003787B2B1CD14FF047
S31508003AE0000C0123C25C7D2A0ED00E49515C11F0F0
S31508003AF0440F03D00CF1010C0133F3E7202A01D05F
S31508003B00002070470133EDE71844437833B91CF0B9
S31508003B10010F05D10120704700207047002070472B
S31508003B2000207047F11F020808B5072826D8DFE8E5
S31508003B3000F0060B1015191D0421012008BD0022EE
S31508003B400820FFF737FFF9E700221020FFF732FFBA
S31508003B50F4E700222020FFF72DFFEFE70820FFF704
S31508003B60ABFFEBE71020FFF7A7FFE7E72020FFF7FB
S31508003B70A3FFE3E70846FFF7AFFFDFE70020DDE72F
S31508003B802DE9F04383B00C4617461D460A9EDDF81C
S31508003B902C8021282BD8DFE800F0112D445A718893
S31508003BA09EA22A2A2A2A2A2A2A2A2A2A2A2A2A2A7B
S31508003BB02A2A2A2A2A2A2A2A2A2A2AD300221146DD
S31508003BC0204617F079FAD8F80030C0B245F8230035
S31508003BD0D8F80030326805EB830347F82230D8F866
S31508003BE000300133C8F8003033680133336003B05E
S31508003BF0BDE8F08300221146204617F05DFAD8F892
S31508003C00003080B245F82300D8F80030326805EB5A
S31508003C10830347F82230D8F800300133C8F800305B
S31508003C20E2E700221146204617F046FAD8F8003097
S31508003C3045F82300D8F80030326805EB830347F8C7
S31508003C402230D8F800300133C8F80030CCE700221B
S31508003C501146204617F014F940B2D8F8003045F856
S31508003C602300D8F80030326805EB830347F8223082
S31508003C70D8F800300133C8F80030B5E700221146FD
S31508003C80204617F0FDF800B2D8F8003045F82300B2
S31508003C90D8F80030326805EB830347F82230D8F8A5
S31508003CA000300133C8F800309EE70022114620464E
S31508003CB017F0E6F8D8F8003045F82300D8F80020C1
S31508003CC0336805EB820547F82350D8F800300133EE
S31508003CD0C8F8003088E7336847F8231084E74FF0C0
S31508003CE000098DF80690C846012512E0013510E056
S31508003CF08DF8053008F101081022002101A817F0F7
S31508003D00BFF809F10203E05409F101091FFA89F91C
S31508003D100135635D7D2B09D0202BE7D018F0010F04
S31508003D20E6D18DF8043008F10108F1E784F800902F
S31508003D304FEA192984F80190336847F8234053E776
S31508003D40336847F823104FE72DE9F04F87B09B46B5
S31508003D500023059304938B4500F38A8080468A46A0
S31508003D6017461C461E46994602E04FF001090134E3
S31508003D7018F80400FF280CD02028F6D0212805D0F2
S31508003D80FFF70AFE0028F2D00646F0E74FF00109D1
S31508003D90EDE705465C44B9F1000F06D0013C5445F1
S31508003DA068DC0024A146029443E03EB1013C544538
S31508003DB062DC0024CDF80890A1463AE0A2455DD120
S31508003DC000240296A14634E008EB09035B78FF2B32
S31508003DD00ED02B2049E0039B43445B78FF2B4FD141
S31508003DE00123029304E009F10109354600E006259E
S31508003DF0029B93B957F824102846FFF795FE00282A
S31508003E0042D004AB019305AB0093119B109A57F867
S31508003E1024102846FFF7B4FE0AE004AB019305AB6D
S31508003E200093119B109A57F824102120FFF7A8FE3B
S31508003E300134544518DA5C45D9DBCDF80C9018F8EE
S31508003E400960202EC0D0212EC5D03046FFF7A4FD2C
S31508003E500028C8D0039B43445B78FF2B12D1304619
S31508003E60FFF7A1FD0546C3E7002007B0BDE8F08FC0
S31508003E702120FAE72B20F8E72B20F6E72B20F4E79A
S31508003E802B20F2E72B20F0E72620EEE7212816D88C
S31508003E9021283AD8DFE800F0113B191B1D1F212302
S31508003EA039393939393939392527292B2D2F3133DC
S31508003EB03939393939393939353718487047FE2883
S31508003EC027D0FF2827D11648704716487047164846
S31508003ED07047164870471648704716487047164880
S31508003EE07047164870471648704716487047164870
S31508003EF07047164870471648704716487047164860
S31508003F00704716487047164870471648704716484F
S31508003F107047164870471348704700BFFCDB010816
S31508003F200CDC010860DB010868DB010870DB0108AE
S31508003F3078DB010880DB010888DB01088CDB0108D7
S31508003F4098DB0108A4DB0108B0DB0108B8DB01082F
S31508003F50C4DB0108D0DB0108DCDB0108E4DB01086F
S31508003F60F0DB010850DB010858DB010804DC010816
S31508003F7008B5FDF7A5F908BD2DE9F04784B08146D7
S31508003F808A4690461D460C9F0D9E04460EE018680C
S31508003F900F9B03930E9B0293019600972B4642466E
S31508003FA00121FFF7E9FF044618E00C342068A8B1A0
S31508003FB033682A68934211DA57F82310FFF7D8FFB7
S31508003FC00028F2D133680133336063681A7BFE2A0E
S31508003FD0DDD001230E9A137088F8003098F8003067
S31508003FE05BB90F9B1B7843B9BAF1000F09D00123BF
S31508003FF00F9A137088F800304C46204604B0BDE886
S31508004000F0870024F9E7000070B506460D4616F05D
S3150800401099FE0446304600F068FD03E0034800F0C8
S3150800402064FD0134AC42F9D370BD00BF80CA0108F3
S315080040302DE9F84F044602213248FFF7E5FF1E2115
S315080040402068FFF7E1FF6368586800F04EFD2E48C8
S3150800405000F04BFD63681A7BFD2A01D9BDE8F88F8D
S3150800406003F10C09D3F808A0504616F06BFE8046FB
S315080040704FF0FF34002510E02B2000F02AFD36E033
S3150800408000F027FD01341AF804001F2801D0444522
S31508004090F6DB1D4800F029FD0135AB4619F8056029
S315080040A0FF2EDBD03046FFF7F1FE0746B8F1000FCA
S315080040B000DD0134202EEFD0124E02213046FFF7E4
S315080040C0A3FF1E213046FFF79FFF104800F00DFDA5
S315080040D00F49384616F02CFE00B90E4F39460E48E1
S315080040E000F003FDCB449BF80130202BC4D00B48CD
S315080040F000F0FBFCB8F1000FCBDD1AF804301F2BDB
S31508004100C7D0C0E73CDC0108ECCC010814DC010888
S31508004110F0DB010810DC01084CDB010818DC01089B
S3150800412038B50546002402E0FFF782FF013404EBA8
S31508004130440305EB830055F8233023B1037A002B9B
S31508004140F2D00134F3E738BD10B539B1084612B1DB
S31508004150FFF76EFF10BDFFF7E3FFFBE7D0F89C40C3
S3150800416000E02468002CF5D0A0680028F9D0FFF7F5
S31508004170D7FFF6E77047704759B10A790AB10020A8
S31508004180704710B501240C719C30FDF748F820469D
S3150800419010BD0020704700002DE9F04F95B081460C
S315080041A0039104929A461E9F00F109031C46069342
S315080041B0184616F0C7FD05900023CAF800303B6084
S315080041C00CAA0BA9204600F0B8FC28B100230293DC
S315080041D0029815B0BDE8F08F0C9816F0B3FDCAF832
S315080041E00000D9F89CB000231C4602939846B4E018
S315080041F03B6801333B60013409EB04035B7A202BEF
S31508004200F6D0002410E0D9F894203B68D21ACAF8F0
S315080042100020296814AB03EB880353F8200C16F02A
S3150800422099FD019080B1013404EB440306EB830544
S3150800423056F82330002B64D00B9B434561DB2B7A61
S31508004240002BE0D00134EFE7286816F07BFD8446A2
S3150800425069680A7BFE2A18D0D9F8943038681B1A80
S3150800426063452FDDFE2ADED10B9B013B4345DAD1A0
S315080042700D680794CDF82080CDF824B0019C029EE5
S31508004280DDF80C80DDF810B049E00B9B013B434597
S31508004290E2D00E6814AB03EB880353F8200C16F033
S315080042A051FD421C3B6813443B6001E001333B600F
S315080042B03B6809EB0302527A002AF7D008F1010895
S315080042C0019CB1E7039816F03DFD0190286816F0A9
S315080042D039FD019B03447B2B0ED8029B01330293C5
S315080042E02A680499039D2846FCF7D7FF204A0499B3
S315080042F02846FCF7D2FF96E71E4A04990398FCF76E
S31508004300CCFF069B059A1EE059464046FCF7C5FFBA
S31508004310174A59464046FCF7C0FF0136013404EBFC
S31508004320440355F82320002AEED1079CDDF82080A7
S31508004330DDF824B00296059B3B600023CAF80030DE
S31508004340DFE70133013A002A05DD19780029F8D19B
S3150800435020211970F5E7DBF800B0BBF1000F3FF438
S3150800436037AFDBF80860002E7FF446AFF3E700BFEF
S3150800437080CA01081CDC01082DE9F04786B004460E
S315080043800F4616461D46DDF83890DDF83C800023BA
S315080043908DF817302B6089F8003088F800302B68C4
S315080043A052F823101648FFF7E3FD40B92B6801338E
S315080043B02B604FF0010AD4F89C40002003E04FF030
S315080043C0000AF8E7246894B1A0680028FAD0CDF866
S315080043D00C80CDF80890019500963B460DF1170222
S315080043E00021FFF7C9FD9DF81730002BEAD0BAF176
S315080043F0000F02D0012388F8003006B0BDE8F08728
S3150800440024DC0108F0B5A3B0054608461AAA19A97E
S3150800441000F093FB044610B1204623B0F0BD0023FC
S315080044208DF80B300DF10B0301930DF10A03009380
S3150800443003AB1AAA19A92846FFF79EFF9DF80B3069
S3150800444013BB40B3466806F10C0711AB019309ABE1
S315080044500093039B1AAA19993846FFF775FC044678
S315080044600028D9D10495199B059309AB0693039B9C
S315080044700793089704A8FFF77DFE336804A89847B2
S3150800448004A8FFF778FEC7E79DF80A2001462846E4
S31508004490FFF75AFEC0E72D24BEE770B5054600248F
S315080044A0264600E0013405F1AC0016F04BFCA042AC
S315080044B007D92B1993F8AC301BB10A2BF2D1013668
S315080044C0F0E7304670BDF8B500230B601360D0F8EE
S315080044D0AC320BB90020F8BD07460E461546AC307F
S315080044E016F030FC50B30121002301E001330131FD
S315080044F0D7F8AC228A4213D9B3F5007FF7D23468CD
S31508004500013434602C6801342C60FA1892F8AC2017
S315080045100A2AEBD00133EFE72A6801322A60013311
S31508004520B3F5007F08D2FA1892F8AC200A2A07D009
S31508004530002AF1D10120CEE70120CCE70020CAE706
S315080045400120C8E708B50844407A00F0C2FA08BD59
S3150800455008B5082000F0BDFA08BD10B50446D0F825
S315080045608C200021093016F060FA0023C4F8903038
S31508004570C4F8943010BD000070B5ADF5447D04460E
S315080045800021A4917C22A5A816F04FFAA3AB0093AC
S31508004590A2AB8022A4A92046FFF7FEFD012804D07D
S315080045A0012842DC0DF5447D70BDA4A816F0CAFBAF
S315080045B00546A299431AA39A0A44083222440132AC
S315080045C0A4A8014404E011F8010B02F8010B013B11
S315080045D0002BF8DC00231370D4F890600AE0D4F8B6
S315080045E090102046FFF7AEFFD4F890300133C4F898
S315080045F090300136A29AA39B1344B342EFDCAD1A5E
S31508004600D4F894302B44C4F89430D4F890302B4422
S31508004610C4F89030A4AB9C1804E014F8010B00F021
S3150800462058FA013D002DF8DCBCE78022002102A8DB
S3150800463016F0FBF94FF40072002122A816F0F5F9DE
S315080046400125002300E00133C4AA1A4412F8802C7D
S315080046503AB1202AF7D15A1C22A941F8252001355A
S31508004660F1E722AA42F82530A4A816F06BFB002130
S3150800467014E0013222AB53F82230834208D00B44AF
S31508004680C4AE334413F8803C6345F2D0002300E0FF
S3150800469001235BB102AB03F801C001318D4208DB8F
S315080046A0C4AB0B4413F880CC0022E3E702AB00222C
S315080046B05A54D4F890500AE0D4F890102046FFF7E0
S315080046C041FFD4F890300133C4F890300135A29BED
S315080046D0AB42F1DC04F10903184AA4A9184800F012
S315080046E004FA02A816F02EFBA29AA39BD118083149
S315080046F02144013102AB9D18821A0EE015F8013BE0
S3150800470001F8013BD4F890300133C4F89030D4F85E
S3150800471094300133C4F89430013A002AEEDC0023C1
S315080047200B70A29C02AB1D19041B04E015F8010BC3
S3150800473000F0CFF9013C002CF8DC33E748DB010830
S315080047402CDC0108F0B583B004460EE02046FFF7DE
S31508004750A4FEC4F8AC0201AA69462046FFF7B3FED8
S31508004760009B2344002283F8AC2004F10906304656
S3150800477016F0E8FA451C04F1AC07384616F0E2FADA
S31508004780C0F500708542E1D8304616F0DBFA451CC4
S315080047903D44384616F0D6FA421C3946284616F0E5
S315080047A02AF9304616F0CEFA02463146384616F051
S315080047B015F9304616F0C6FA20440A2380F8AC30BC
S315080047C00023C4F8AC3203B0F0BD00002DE9F8436D
S315080047D004460D46D0F89060D0F8947000F10908A8
S315080047E090F89830012B0AD0012B0ED9022B00F035
S315080047F0C680032B00F0D2800020BDE8F8830A2982
S31508004800F2D1002084F89800F7E71B2D29D00D2D4A
S315080048102CD0002384F89830082D2BD07F2D68D013
S315080048200D2D00F088800A2D00F08580092D00F0F6
S315080048308F80D4F88C30013BBB4240F3E280BE4205
S31508004840C0F28B8008F806500136C4F89060D4F898
S3150800485094300133C4F89430284600F03AF9002021
S31508004860CBE7022384F898300020C6E7012384F8B2
S315080048709830D1E7002E01DDBE420CD0002E01DDB6
S31508004880BE4217DB002E00F0BA80C4F89060C4F868
S3150800489094700020B1E7082000F01BF9202000F0F2
S315080048A018F9082000F015F9013E002308F806302B
S315080048B0013FEAE706F1FF39082000F00AF908EB9C
S315080048C00905A7EB090208EB0601284616F093F836
S315080048D0002308F8073029464C4800F006F9013F3E
S315080048E03D4602E0FFF734FE013D4D45FADC4E46F3
S315080048F0CBE7002F01DDBE4201DB00207DE708EB98
S315080049000605711CBA1B4144284616F074F80023A4
S3150800491008F8073029463E4800F0E7F803E0082083
S3150800492000F0D7F8013FB742F9DCD4F89430013BE0
S31508004930C4F89430E1E70D2000F0CBF80A2000F027
S31508004940C8F80023C4F89030C4F89430012054E71E
S315080049502046FFF711FE00204FE7701C08EB0609FA
S31508004960BA1B4946404416F046F8484600F0BDF8DA
S3150800497002E0FFF7EDFD013FB742FADA62E75B2D89
S3150800498004D1032384F89830002036E7002384F8FE
S31508004990983029462046FFF719FF2EE7002384F8AA
S315080049A09830413D032D2ED8DFE805F002080F1E8A
S315080049B00121204600F02EF800201EE74FF0FF31B7
S315080049C0204600F027F8002017E7BE4201DB00204A
S315080049D013E731462046FFF7B5FDD4F8903001338A
S315080049E0C4F89030002008E7002E01DC002004E718
S315080049F0013EC4F89060FFF7ABFD0020FDE60020FD
S31508004A00FBE60020F9E60020F7E600BF38DC0108DF
S31508004A1040DC010830B583B005460C46FFF73DFD7E
S31508004A20B4F1FF3F0FD0012C2DD1D5F8AC3283421B
S31508004A3029D20133C5F8AC320123D5F8AC42B4B15A
S31508004A40F3B1002413E0D5F8AC3223B1013BC5F825
S31508004A50AC320123F1E70023EFE7082000F039F82C
S31508004A60202000F036F8082000F033F8013405F16C
S31508004A70090016F067F9A042EFD82846FFF76DFD42
S31508004A80D5F8AC320BB903B030BD01AA6946284641
S31508004A90FFF719FD0028F6D0009C06E02B1993F8BD
S31508004AA0AC102846FFF792FE0134019BA342F5D8C5
S31508004AB0E9E700B583B00DF10701002000F0CDFB52
S31508004AC020B99DF8070003B05DF804FB4FF0FF30EE
S31508004AD0F9E710B50446C1B2002000F0ABFB08B9EF
S31508004AE0204610BD4FF0FF30FBE70FB400B583B08A
S31508004AF004A951F8040B019104F088FB002003B0C7
S31508004B005DF804EB04B0704708B50B4601F1010CDB
S31508004B1000EB0C0110F80CC0BCF1220F07D0BCF159
S31508004B207B0F04D0BCF15C0F01D0002004E0D21A40
S31508004B30184415F060FF012008BD2DE9F843054625
S31508004B408846914616F0FEF80646002400E0013431
S31508004B502A192B5D202BFAD0C9F800200123C8F8A2
S31508004B60003030E07B2B14D0D8F8003003F18043B6
S31508004B70013B621C2A4449F823202227012C06D926
S31508004B802B1913F8013C202B01D0002B49D10134F5
S31508004B9004E07D27F2E70134A64246D928192B5DA1
S31508004BA0BB4209D05C2BF6D1324621462846FFF790
S31508004BB0ABFFC0B3013EEEE74378202B00D0BBBB6A
S31508004BC0222F21D00134A64229D92A192B5D7B2B05
S31508004BD0C8D0222BC6D05C2B19D0202BF2D10023AB
S31508004BE01370631CB342EDD2EA18EB5C202BE9D0B4
S31508004BF0D8F80030072B1FDC49F82320D8F80030F6
S31508004C000133C8F80030DDE700230370DAE73246DF
S31508004C1021462846FFF778FF60B1013ED2E700201B
S31508004C2004E0212002E0212000E02120BDE8F883ED
S31508004C302120FBE72120F9E71E20F7E700B583B01E
S31508004C40094B93E803000090ADF80410090C8DF8A1
S31508004C5006106846FDF7CCFF0920FEF703F800208A
S31508004C6003B05DF804FB00BF44DC010810B582B050
S31508004C704FF04022536F43F001035367002400941A
S31508004C808DF804406846FDF7F7FE204602B010BDD1
S31508004C9030B587B001AC1A4D0FCD0FC42B68236011
S31508004CA0184BD3F84C3113F4002F10D1154BD3F809
S31508004CB05041E4B2B4F1FF3F13D08DF80E40FDF732
S31508004CC0E7FA24180FD4FF2C0EDDFF240CE04FF072
S31508004CD0FF340D4B1B884FF6FF729342EAD01C46F1
S31508004CE0E8E76B24E9E700248DF80D400748FCF750
S31508004CF02BFA01A8FDF706FA002007B030BD00BF61
S31508004D004CDC01080080E00F0001E00FC0175302D9
S31508004D1000B585B0084A01AB07CA03C323F8022BBE
S31508004D20120C1A7001A8FDF7B9FA6420FDF7FAFA11
S31508004D30002005B05DF804FB60DC01086FF0040391
S31508004D4007E003F00F010A4A0A445021117601339D
S31508004D505BB24B2B09DC002BF3DB03F1604202F557
S31508004D606142502182F80013F1E70020704700BF26
S31508004D70FCEC00E008B500F087F808BD10B501F0B6
S31508004D80C3FF044608B1204610BD02F041F94FF4AE
S31508004D90167100FB01F101F5742101F23F210A4B5E
S31508004DA0A3FB0131890C094B1960002308E0084A66
S31508004DB042F82310074802680A4402600133DBB24E
S31508004DC0092BF4D9DFE700BF83DE1B43142000203C
S31508004DD0E41F0020E01F00207047000008B5044BC0
S31508004DE001221A7002F0ECF8024B186008BD00BFE9
S31508004DF0DC1F002010200020184B1B7803B97047D1
S31508004E0070B502F0DDF8164B1B68C01A154B186012
S31508004E1000B90120134B1860134C2378134D55F82D
S31508004E202320111A124E3268521A326045F82300AE
S31508004E3009321049A1FB0202D2080F480260013369
S31508004E40DBB22370A1FB0312D20802EB8202A3EBAA
S31508004E5042032370014B00221A7070BDDC1F00202C
S31508004E6010200020D81F00200C200020E41F00205E
S31508004E70E01F0020CDCCCCCC14200020014B1868B4
S31508004E80704700BF142000200B49202381F82D33DA
S31508004E900A4B4FF480125A66094B03F50050094A2B
S31508004EA0426702674FF40050C1F88401486003F571
S31508004EB080535A67704700BF00E100E00090004049
S31508004EC00040004A010000A0024603E000231846FD
S31508004ED063B95AB1064B9B6D13F0010FF6D0054B1B
S31508004EE01B780BB10023F2E70123F0E7704700BFF8
S31508004EF00040004A2C200020F8B5974B1C6F9E6A8C
S31508004F0006F080769D6A05F4803514F0010365D0B5
S31508004F10924A1367924B1B78002B58D0904B00226D
S31508004F201A70904B1B78012B4BD88B4B03F500520C
S31508004F304FF48031916203F580534FF080729A6284
S31508004F40854B9B6D13F4803FFAD1834AD36A23F4C9
S31508004F507063854909680B43D362936923F47F0319
S31508004F6023F47F43814909680B43814909680B4348
S31508004F709361136923F47F6323F00F037D4909685E
S31508004F800B437D4909680B431361936923F0FF03BB
S31508004F907A4909680B4393614EB9704B4FF080729A
S31508004FA09A624DB1764B4FF480329A6216E0744B92
S31508004FB04FF080729A62F4E7684B4FF480329A6237
S31508004FC00CE0FFF709FF6F4B01221A7006E0FFF7A6
S31508004FD013FF01F0FBFB634B00221A7014F000521A
S31508004FE07BD05D4B03F5005CCCF870205C4A012150
S31508004FF011705C490A7801320A70DA6A02F4706044
S3150800500059490860996901F47F41584801609869CF
S3150800501000F47F00564F38609F69FFB2DFF85CE105
S31508005020CEF800701F6907F47C67DFF848E1CEF810
S3150800503000701F6907F03F07DFF83CE1CEF8007003
S315080050404FF48037CCF8287003F580534FF08077FB
S315080050509F624FF000479F623F4B9B6D13F4803F62
S31508005060FAD13D4B03F500574FF0004CC7F828C05E
S3150800507022F4706242F40072DA62B1F5C84F02D8BF
S31508005080B0F5C80F0CD9344A936923F47F0323F487
S315080050907F433D49096843EA012343EA0143936193
S315080050A02D490B6923F47F6323F00F03374A1268EF
S315080050B0900843EA920343EA80130B618B6923F055
S315080050C0FF031A438A615EB9244B4FF080729A62D5
S315080050D05DB12B4B4FF480329A62002C0ADBF8BD87
S315080050E0274B4FF080729A62F2E71C4B4FF48032DE
S315080050F09A62F2E704F00044184B1C67214B1B78B0
S31508005100002BECD0144B03F500524FF4803191621A
S3150800511003F580534FF080729A620F4B9B6D13F420
S31508005120803FFAD1164B4FF000429A6156B903F503
S3150800513080534FF080729A624DB1114B4FF4803212
S315080051409A62CCE70E4B4FF080729A62F4E7034BF3
S315080051504FF480329A62C2E70040004A0060004A73
S315080051602C2000202D200020302000202420002084
S31508005170282000201C2000202020002018200020A5
S315080051800050004A2E200020201100201C1100206B
S3150800519008B5FFF7B1FE08BD10B50446FDF70AFCD1
S315080051A0024B1C60FDF70AFC002010BD34200020CD
S315080051B010B5FDF7FFFB034B1C68FDF7FFFB204608
S315080051C010BD00BF3420002070B50C4615460346B6
S315080051D038B153B15E6856B12A4621461868B047B9
S315080051E070BDFFF7E5FF0346F3E72320F8E7232022
S315080051F0F6E72DE9F04182B00E4617461C460546ED
S3150800520070B18CB195B1D5F80880B8F1000F0FD000
S3150800521023463A4631462868C04702B0BDE8F081C1
S31508005220FFF7C6FF0546ECE701ACEBE72320F4E7FA
S315080052302320F2E700B583B08DF8071001220DF19F
S315080052400701FFF7C1FF03B05DF804FB08B50B467D
S3150800525001461846FFF7EEFF08BD08B500230122F0
S31508005260FFF7C7FF08BD00000EB410B583B005AB45
S3150800527053F8044B0193014660B1019B2246084846
S3150800528003F0D4FF002809DD002003B0BDE8104074
S3150800529003B07047FFF78CFF0146EEE73720F4E7C7
S315080052A04D52000829B1036B03F5805301221A6594
S315080052B07047036B03F5005301221A65036B03F568
S315080052C00053DA647047036B03F5805304221A65AA
S315080052D070470000012900D9704710B5064B1C68B5
S315080052E0583C05E00521206BFDF77AFDA46D583C76
S315080052F014F1580FF6D110BD3820002038B50446F1
S31508005300236B9B6C13F0400FFAD000231A46A16B4F
S3150800531094F83600FDF74AFF00231A46216C94F8E4
S315080053203C00FDF743FF94F8543013F0010F16D1F3
S3150800533094F8543013F0020F19D10021206BFDF7B1
S315080053404FFD0021A08EFCF7E7FB0F4D04F1580135
S315080053502846FBF768FF2B688BB1002038BD002371
S315080053601A46A16C94F84400FDF720FFE0E70023F5
S315080053701A46216D94F84C00FDF718FFDDE703483F
S3150800538001F002F9E9E700BF382000203C200020A0
S3150800539008B5006BFDF76BFD002008BDF0B58BB0B6
S315080053A016461C46109D00230693079308930993F7
S315080053B023790BB18DF8183006ABF361637993B195
S315080053C0012304930393774B0293774B0193774B0F
S315080053D00093774B0A46294600F092FA074620B111
S315080053E038460BB0F0BD0223EBE7E388AB86A3692A
S315080053F02B64237D85F83C302369AB63237B85F8D2
S315080054003630236AAB64237F85F84430A36A2B655C
S3150800541094F8243085F84C3023682B6301213A2010
S31508005420FCF77AFB012304222169207BFDF7BEFEE7
S3150800543001230222A169207DFDF7B8FE00233370FF
S3150800544085F854300121E088FCF766FB63795BBB7D
S3150800545001213620FCF760FB0A21E088FCF7E8FF0B
S3150800546031462068FDF79CFEA268524B263203EBB4
S31508005470421210215160217B2069A26841EA00414D
S3150800548003EB4212C2F8DC14227DA069A16842EA45
S31508005490004203EB4113C3F8D4242379032B7ED8A7
S315080054A0DFE803F05C1B4C5405214FF44060FCF721
S315080054B0BFFFE388562B0AD031462068FDF76AFEFF
S315080054C095F8543043F0040385F85430CCE711219D
S315080054D04FF4A060FCF7ACFFEEE795F8543043F0C4
S315080054E0010385F85430002600230222216A207F12
S315080054F0FDF75CFE227F216AA36842EA01425B014E
S3150800550003F1804303F5703341F2CC415A503EBB58
