S0140000636F6E6E6563745F656D7074792E73333768
S3150800000000100020AD100008F9500008FD50000847
S31508000010DD5300080151000809510008A91000081D
S31508000020A9100008A9100008A9100008A9100008BE
S315080000300D510008A9100008A9100008A910000809
S31508000040A9100008A9100008A9100008A91000089E
S31508000050A9100008A9100008A9100008A91000088E
S31508000060A9100008A9100008A9100008810F0008A7
S31508000070710F0008A9100008A9100008A9100008A7
S31508000080A9100008A910000889060008A910000888
S31508000090A9100008A9100008A9100008A91000084E
S315080000A0A9100008A91000084D050008A9100008A5
S315080000B0A9100008A91000081D6D0108F9760108A5
S315080000C0B1760108AD760108E16E0108F5760108FA
S315080000D0B5760108CD760108B97601085977010881
S315080000E039770108A9100008A9100008A910000806
S315080000F0A91000087D430008A9100008A9100008E7
S31508000100A9100008A9100008C9040008A9100008C9
S31508000110A9100008A9100008A9100008A9100008CD
S31508000120A9100008A9100008A9100008A9100008BD
S31508000130A9100008A9100008A9100008A9100008AD
S31508000140A9100008A9100008A9100008A91000089D
S31508000150A9100008A9100008EB6500082D59010828
S31508000160A9100008A91000085D3C0108633C0108B5
S3150800017010B5054C237833B9044B13B1044800E095
S3150800018000BF0123237010BD4C140020000000009E
S31508000190E0DA010808B5034B1BB10349034800E040
S315080001A000BF08BD0000000050140020E0DA010876
S315080001B0A3F5803A704700BF174B002B08BF134BB7
S315080001C09D46FFF7F5FF00218B460F461348144A54
S315080001D0121A18F050FA0E4B002B00D098470D4B08
S315080001E0002B00D098470020002104000D000D4880
S315080001F0002802D00C4800E000BF18F0E1F9200002
S31508000200290000F075FD18F0C7F900BF00000800C6
S315080002100000000000000000001000204C14002020
S3150800022058350020000000000000000030B583B0FB
S3150800023000244649464806F07DFD032000F0F6FEF8
S31508000240A0B1444D4449286804F0FEF800F00EFFBA
S3150800025000F00DFF4149286804F0F6F806E04FF46F
S31508000260FA7005F079FF09F0FDFE0446002CF6D178
S31508000270642005F071FF032000F0D8FEC8BB38489B
S315080002800DF0BCFA0028FAD1032000F0CFFE0028B2
S315080002903ED106220021684618F0EDF90023ADF894
S315080002A002300B23ADF8043040F2FF13ADF80030EE
S315080002B06A464FF6FF7104200AF09CFB04460320A9
S315080002C000F0B4FE98BB02F075FB0446002101203D
S315080002D005F0E0F9204602F071FB02F06BFB0446DC
S315080002E00121022005F0D6F9204602F067FB03B08B
S315080002F030BD184D1849286804F0A6F800F0B6FE77
S3150800030000F0B5FE22461749286804F09DF8B6E7BE
S31508000310104D1149286804F097F800F0A7FE00F080
S31508000320A6FE22460F49286804F08EF8B1E7094D63
S315080003300949286804F088F800F098FE00F097FE4E
S3150800034022460849286804F07FF8BCE785070008B4
S315080003506814002070150020F88E0108008F010827
S315080003609C1000200C8F0108F0B593B000240F9460
S31508000370109411940DF1140C314D0FCDACE80F000B
S315080003800FCDACE80F0095E803008CE80300039452
S31508000390049403278DF80E7001268DF808608DF8F1
S315080003A009408DF80A408DF80B4031463B2001F094
S315080003B0FDFB4FF42C524FF42851204603F026FB40
S315080003C08C222146204603F029FB31462A2001F0DB
S315080003D0EDFB8DF817404FF4966308938DF815409A
S315080003E0184D9DF841300093234622461649284663
S315080003F003F09EF807908DF810708DF80E708DF842
S31508000400136010238DF809308DF8086005AA0FA926
S31508000410284603F0B3F802AA03A9284603F013F8FE
S3150800042005F50053094A5A62AB6A43F40073AB6296
S31508000430074B4FF48022C3F884215A6013B0F0BDED
S31508000440248F01080040004940420F008F330F8077
S3150800045000E100E000B583B001213A2001F0A6FBD7
S31508000460012303220521022002F034FF0123019310
S315080004700022009205221146022002F097FE074B41
S315080004804FF08062C3F880211A604FF00062C3F80B
S3150800049080211A6003B05DF804FB00BF00E100E0AC
S315080004A00170427043609DF800300372BDF8043055
S315080004B04381BDF8083083819DF80C3083739DF81D
S315080004C01030C3737047000030B583B0174C6D46C3
S315080004D01749284603F012FA95E8030084E8030052
S315080004E023684FF4966202FB03F3124AA2FB032326
S315080004F09B09114A5360032000F098FD28B90F4B59
S315080005004FF400725A6203B030BD0D4C0D49206895
S3150800051003F09AFF00F0AAFD00F0A9FD064B5A6801
S315080005200949206803F090FFE9E700BF6C14002032
S3150800053000400049D34D6210741400200060004941
S3150800054070150020F88E01084C8F010810B584B08C
S31508000550434BD3F820240392D3F8202403F5005301
S31508000560C3F82024039B13F0200F02D03D4BDB7BFE
S315080005709BB1039B13F0200F03D03A4BDB7B002B78
S3150800058053D102F017FA04460121022005F082F839
S31508000590204602F013FA04B010BD324AD37B013369
S315080005A0DBB2D373304800F072FE032000F03EFD44
S315080005B068BB00F0D1FA0B214FF4F06001F038FF68
S315080005C001213D2001F0F2FA01213C2001F0EEFA6A
S315080005D0264A6B4607CA83E8070001248DF80840B7
S315080005E08DF80940184600F073FF00F0FBFF40F64F
S315080005F02821002000F0E6FF1D4B02229A611D4BC0
S315080006004FF480221A60204600F0A8FFB9E71A4C7A
S315080006101A49206803F018FF00F028FD00F027FDAE
S315080006201749206803F010FFC3E70E4AD37B01334E
S31508000630DBB2D373032000F0F9FC10B900F0D2FF47
S315080006409FE70D4C0D49206803F0FEFE00F00EFDF5
S3150800065000F00DFD0B49206803F0F6FEEEE700BF3B
S3150800066000C003407414002034960108589001080D
S315080006700050064000E100E070150020F88E0108E1
S31508000680508F0108588F010810B5364B4FF080621D
S31508000690C3F88021C3F88020BFF34F8FBFF36F8F55
S315080006A0314BDB7B73B300F09DFF40F21451002001
S315080006B000F088FF2D4B03F58052022191615A699B
S315080006C003F500535A61274B4FF480221A60012024
S315080006D000F044FF00F060FA032000F0A7FC18B908
S315080006E0214B0022DA7310BD214C2249206803F001
S315080006F0ABFE00F0BBFC00F0BAFC1F49206803F013
S31508000700A3FEEDE700F06EFF40F62821002000F07A
S3150800071059FF144B4FF48022C3F88020BFF34F8F44
S31508000720BFF36F8F002000F019FF144B02225A61A5
S31508000730032000F07BFC30B90A4B4FF08062C3F807
S3150800074080211A60CFE70A4C0A49206803F07CFE2C
S3150800075000F08CFC00F08BFC0949206803F074FE5D
S31508000760EAE700BF00E100E07414002000400640FC
S3150800077070150020F88E0108608F01080060064099
S315080007806C8F010808B507F06FFE20B9084B1B6887
S3150800079000221A7008BD074800F079FD00F01EFA1D
S315080007A0054B1988024B186808F039F8F2E700BFBC
S315080007B06814002034960108AC1000200120704708
S315080007C010B50446034800F062FD204600F04EFAD4
S315080007D010BD00BF4C96010808B5034800F05CFD43
S315080007E0024800F059FD08BD349601084C960108E8
S315080007F030B587B0A0F19003062B00F2D180DFE870
S3150800080013F007004B007A00CF00CF008D00A00040
S31508000810032000F00BFC08BB032000F007FC58BBC4
S315080008200023049301220392764A128802920193C6
S31508000830754A12780092052289217448FFF730FE1E
S31508000840734B1988734B186807F0E9FFFFF78CFD9F
S31508000850FFF700FE00F03CF907B030BD6E4C6F495B
S31508000860206803F0F1FD00F001FC00F000FC6C4983
S31508000870206803F0E9FDCFE7674C6849206803F074
S31508000880E3FD00F0F3FB00F0F2FB5E4B1A886549C6
S31508000890206803F0D9FDC3E7634800F0F8FC03209D
S315080008A000F0C4FB50B900F0F9F80446032000F044
S315080008B0BDFB88B95C4800F0EFFCCDE7564C5749BC
S315080008C0206803F0C1FD00F0D1FB00F0D0FB5749CA
S315080008D0206803F0B9FDE6E74F4D5049286803F054
S315080008E0B3FD00F0C3FB00F0C2FB2246504928685E
S315080008F003F0AAFDDEE7012000F098FB0028ABD044
S31508000900454C4C49206803F09FFD00F0AFFB00F012
S31508000910AEFB4949206803F097FD9DE7012000F0EA
S3150800092085FB002898D03C4C4249206803F08CFD92
S3150800093000F09CFB00F09BFB4049206803F084FD17
S315080009408AE7394800F0A3FC032000F06FFB50B992
S3150800095000F0A4F80446032000F068FB88B9324882
S3150800096000F09AFC78E72C4C2C49206803F06CFDC3
S3150800097000F07CFB00F07BFB2C49206803F064FD4B
S31508000980E6E7254D2549286803F05EFD00F06EFB75
S3150800099000F06DFB22462649286803F055FDDEE780
S315080009A00446214800F073FC032000F03FFB50B9D1
S315080009B000F074F80446032000F038FB90B91A4892
S315080009C000F06AFC48E7144D1449286803F03CFD1A
S315080009D000F04CFB00F04BFB22461949286803F04F
S315080009E033FDE5E70C4D0D49286803F02DFD00F0B1
S315080009F03DFB00F03CFB22460D49286803F024FD28
S31508000A00DDE700BF38110020CE2D00207414002029
S31508000A10AC1000206814002070150020F88E01081C
S31508000A20708F01087C8F01084C960108A48F010875
S31508000A300C8F0108C08F0108C88F0108E88F0108CC
S31508000A400C900108704700002DE9F04182B0074676
S31508000A500C4615461E46032000F0E8FA10B902B007
S31508000A60BDE8F081DFF830800949D8F8000003F0C6
S31508000A70EBFC00F0FBFA00F0FAFA01960095234623
S31508000A803A460449D8F8000003F0DEFCE7E700BF61
S31508000A90F88E0108249001087015002000B583B06F
S31508000AA006220021684617F0E6FD0023ADF802305D
S31508000AB00B23ADF8043040F2FF13ADF800306A4658
S31508000AC04FF6FF71042009F095FF03B05DF804FBAB
S31508000AD000B587B000228DF808201D4B19788DF8CF
S31508000AE0091059788DF80A105968090E8DF80B10F7
S31508000AF05968090C8DF80C105968090A8DF80D10FB
S31508000B0059688DF80E10197A8DF80F105989C1F3A6
S31508000B1007218DF8101059898DF811109989C1F39C
S31508000B2007218DF8121099898DF81310997B8DF885
S31508000B3014105889074B1B78019302AB00930D23B9
S31508000B40012180B207F09AFC07B05DF804FB00BFEC
S31508000B5074140020AE10002000B585B09A238DF8D5
S31508000B600C3000228DF80D208DF80E20084B597890
S31508000B708DF80F105889074B1B78019303AB009328
S31508000B800423012180B207F079FC05B05DF804FB67
S31508000B9074140020AE10002000B585B09A238DF895
S31508000BA00C3001218DF80D100A4BDA7B8DF80E20DA
S31508000BB05A788DF80F205889074B1B78019303AB99
S31508000BC000930423002280B207F058FC05B05DF8B4
S31508000BD004FB00BF74140020AE10002000B585B0D9
S31508000BE001218DF80810104B5A68120E8DF809204D
S31508000BF05A68120C8DF80A205A68120A8DF80B20CA
S31508000C005A688DF80C205A788DF80D205889074BAC
S31508000C101B78019302AB00930623002280B207F0EB
S31508000C202DFC05B05DF804FB74140020AE100020FE
S31508000C3000B585B09C238DF80C308DF80D00094B56
S31508000C405A788DF80E205889074B1B78019303AB09
S31508000C50009303230022012180B207F00FFC05B0A0
S31508000C605DF804FB74140020AE10002008B5027964
S31508000C701E4B9B7BDBB29A4206D042881B4B5B8994
S31508000C809BB29A4200D008BD826813789B2B04D089
S31508000C90FF2BF8D1FFF71CFFF5E753782BB1012B93
S31508000CA01CD00020FFF7C4FFEDE79078052803D095
S31508000CB006280AD00020F5E70C4A5378DBB2C01A9A
S31508000CC018BF012005235370ECE7084A5378DBB2B6
S31508000CD0C01A18BF012006235370E3E70021907855
S31508000CE00BF084FBB0FA80F04009DBE774140020AF
S31508000CF008B505F09DFC05F0A7FC04F071FDFAE7C0
S31508000D0008B5024B1B6803B1984708BDB814002004
S31508000D1008B5024B5B6803B1984708BDB8140020B4
S31508000D2008B5024B9B6803B1984708BDB814002064
S31508000D3008B5024BDB6803B1984708BDB814002014
S31508000D4008B5024B1B6903B1984708BDB8140020C3
S31508000D5008B5024B5B6903B1984708BDB814002073
S31508000D607047704708B506F09FF908BD7047704789
S31508000D7070477047704770477047704770477047AD
S31508000D80704770477047704770477047704708B597
S31508000D9000214FF0FF300BF023FC08BD0020704700
S31508000DA000207047704708B50321802001F040FBFA
S31508000DB003214FF4806001F03BFB0A214FF4C06029
S31508000DC001F036FB0A214FF4F06001F031FB0A21ED
S31508000DD03E2001F02DFB0A212D2001F029FB0A21D6
S31508000DE0512001F025FB002008BD000010B5264B58
S31508000DF05A6E02F4803203F580514FF4803048660B
S31508000E00586E4FF000434B66204B596C01F00101B8
S31508000E104AF6CD341C641D4B5B6B13F0010FFAD1F7
S31508000E201B4B01245C60194B1B6B13F0010FFAD0A6
S31508000E30184BD3F8083613F0020F03D1144B4FF4AE
S31508000E408024DC6511B1114B13491964002803DBB2
S31508000E50124B4FF0004159661AB9104B4FF48032C5
S31508000E605A6603F061F802F0F5FF03F079F803F02B
S31508000E701BF8FFF798FF03F005F803F067FF00F08B
S31508000E8075FA04F0D5FB10BD00800040004009400B
S31508000E900060094000C007403254FFFF00A0004030
S31508000EA008B500F0B7F808BD08B502F0C3FF05F0AD
S31508000EB021FF05F02FFF05F07DFF08BD08B500F0FE
S31508000EC0D7F808BD7047704708B505F051FF05F01B
S31508000ED055FF08BD704708B500F046F808BD08B5C7
S31508000EE004F0FCFF03F040F803F0AEFC04F0BEF992
S31508000EF0FFF7F1FF08BD000010B59AB0164C0DF1CA
S31508000F00480CA646BEE80F00ACE80F009EE80F00A6
S31508000F108CE80F002C22002107A817F0ACFB0F4B1A
S31508000F20079301238DF821305623ADF82230062386
S31508000F300B9307230D930DF10C0C04F120030FCB33
S31508000F408CE80F00064B009307AB12AA61460548CA
S31508000F5003F014FB1AB010BD049601080000014BFB
S31508000F60D01400204C15002008B5FFF7C5FF08BDB2
S31508000F7008B5024B186803F015FC08BD4C1500208F
S31508000F8008B5024B186803F00DFC08BD4C15002087
S31508000F9008B5024B1A6A1868904708BD4C15002018
S31508000FA0012070470120704738B505F027FF044631
S31508000FB003F0BAFE054600B12546FFF7F1FF00B17A
S31508000FC0284638BD38B504F0DBFC0446FFF7E0FFD9
S31508000FD0042811D0022811D0002503F0A7FE042802
S31508000FE00FD002280FD0FFF7DDFF04280FD0022804
S31508000FF00BD06DB100240BE00125EEE70025012496
S31508001000EBE70125EFE70124EDE70124F1E70024EA
S31508001010204638BD08B5034800F034F9024800F008
S3150800102031F908BD349601084C96010803460B4A67
S31508001030107828B10A4A12789A4202D2002000E0B3
S315080010400120084A12783AB1074A127842FA03F39D
S3150800105013F0010F00D10020704700BFC710002011
S31508001060C810002074150020C9100020704770476A
S3150800107008B5084B01221A70074B00221A70074B55
S3150800108004221A70064B1F221A7003F087F9054BC3
S31508001090186008BDC710002074150020C81000206D
S315080010A0C910002070150020FEE7000008B500F002
S315080010B013F8064B064A03E052F8041B43F8041BD0
S315080010C004498B42F8D3FFF777F800BF9C1000203D
S315080010D0E8DA01084C140020044B054A9A60D3F854
S315080010E0882042F47002C3F88820704700ED00E0BB
S315080010F000000008014B1868704700BFD010002098
S3150800110008B5094B1B6F03F00703022B04D0032B0A
S3150800111005D0012B06D0FEE7FFF7ECFF03E0034BF3
S31508001120186800E0024808BD00800040D41000207E
S31508001130002D310108B5FFF7E3FF054B1B6FC3F31D
S3150800114003330133B0FBF3F0024B186008BD00BF50
S3150800115000800040CC1000200048704700B4C4044A
S31508001160014B1868704700BFD410002008B5064B1D
S315080011701860064B1B6F03F00703032B00D008BD4E
S31508001180FFF7D8FFFBE700BFD4100020008000401F
S315080011900020704700487047002D31014FF09443F6
S315080011A09868C0F304400C2808D8DFE800F009075F
S315080011B00707070722181A071C1E20000020704779
S315080011C04FF094439B6803F04073B3F1807F12D0CD
S315080011D0B3F1007F11D003B1704709487047094839
S315080011E070470948704709487047094870470948D1
S315080011F0704709487047094870470948ECE700BF37
S3150800120000093D000024F400C0EA210180BA8C01DF
S315080012100048E801005A6202405DC60080841E004C
S3150800122040420F004FF4004070474FF47A70704701
S31508001230014B1868704700BFD810002000230360D0
S31508001240704703680B600160704700E01846036842
S3150800125023B18B42FAD10B680360704770470000D0
S315080012600346064A10680344054A934202D8034ACD
S31508001270136070474FF0FF30704700BFDC10002046
S315080012800000012008B543680068984708BD08B5FE
S3150800129083680068984708BD08B5C368006898471A
S315080012A008BD10B5044601213A2000F07FFCA3785A
S315080012B0B3FA83F35B0904226178207802F00AF80E
S315080012C0002010BD83784BB90378427801219140FC
S315080012D003EB43031B01064AD15070470378427853
S315080012E00121914003EB43031B01024AD150704789
S315080012F040E0034040D0034083784BB903784278F6
S315080013000121914003EB43031B01064AD150704764
S31508001310037842780121914003EB43031B01024AFB
S31508001320D150704740D0034040E0034003784278EC
S315080013300121914003EB43031B01014AD150704739
S3150800134040F0034002460378407803EB43031B0151
S31508001350103305495B58C34003F0010093780BB975
S3150800136080F00100704700BF30C0034008B5034B4A
S315080013701968034B18680EF061F808BDE4100020E0
S31508001380E0100020B0F1FF3F01D010B970470248C5
S3150800139070470248704700BF21E000F024E000F0E3
S315080013A08908002301E0043001338B4205D2026824
S315080013B0B2F1FF3FF7D00020704701207047704711
S315080013C038B5044617F090FDFFF7DCFF054650B91F
S315080013D0074B9B680A3303F01F03012199402046F7
S315080013E0FFF7DEFF08B1284638BD024DFBE700BF10
S315080013F00080E00F0EE000F0F8B505460E469400B2
S31508001400224617F069FDFFF7BDFF074608B13846C3
S31508001410F8BD22463146284617F0F6F80028F6D0D9
S31508001420004FF4E710E000F008B50346084613F04D
S31508001430030F02D111F0030F0AD09200194617F0D4
S31508001440F3F8002008BD53F8041B40F8041B013AC2
S31508001450002AF8D1F5E7000010B582B0044601A8C5
S3150800146002F0F8FA9DF8063023800122E270002087
S31508001470A070054B9B680A3303F01F0302FA03F3B7
S31508001480636002B010BD00BF0080E00F08B502F02F
S315080014904FFA08BD08B502F03BFA002008BD000067
S315080014A008B501F087FA014B186008BD081C002032
S315080014B008B5024B186801F081FA08BD081C00201F
S315080014C008B50A464118013903F034FF08BD000083
S315080014D04368B3FA83F2C2F11F021E4B5B6833B14D
S315080014E01C4B5B681BB11B4B9B6A002BF8D11A4B34
S315080014F001215960174B5B6813F00203FAD11201F8
S31508001500017A09B302210A434178F9B101210A4354
S3150800151010498A60427ADAB10222817A01B101233E
S3150800152013430C4A536202F5805201235360037831
S315080015304BB1084B5B681BB1064B9B6A002BF8D175
S31508001540044B0122DA6070471946DCE71946DEE7E4
S315080015501A46E2E70040064000600640164B5B6804
S315080015600BB9002827D0144B5B6833B1124B5B6864
S315080015701BB1114B9B6A002BF8D118B10F4B0122F6
S315080015805A6070470C4B5B681BB10B4B9B6A002B70
S31508001590F8D1094B0222DA60074B5B681BB1064B90
S315080015A09B6A002BF8D1064B01225A60024B5B68F6
S315080015B013F0020FFAD1704700400640005006406B
S315080015C000600640064B9B6A13F0100FFAD1044BD5
S315080015D01963034B9B6A13F0100FFAD1704700BFCB
S315080015E0004006400B4B5B681BB10A4B9B6A002BFD
S315080015F0F8D1084B0222DA6000221A62054B5B68B2
S315080016001BB1044B9B6A002BF8D1024B0122DA600E
S31508001610704700BF00400640024B4FF480321A67FD
S31508001620704700BF0090004038B505460C46FFF7E6
S3150800163067FD05B128600CB10D23237038BD000085
S3150800164038B505460C46164BD3F8203103F0070388
S31508001650013B052B20D8DFE803F0030B130F171BFC
S31508001660FFF748FD052305B1286004B1237038BD8E
S31508001670FFF776FD0323F6E7FFF790FD0723F2E76A
S31508001680FFF788FD0223EEE7FFF734FD0623EAE7B6
S31508001690FFF766FD0423E6E700231846E3E700BFE5
S315080016A00080004038B505460C46114BD3F8283162
S315080016B003F00703013B032B17D8DFE803F0020EFC
S315080016C0120AFFF717FD052305B1286004B1237038
S315080016D038BDFFF763FD0723F6E7FFF741FD032350
S315080016E0F2E7FFF757FD0223EEE700231846EBE77C
S315080016F00080004030B583B005460C4600230193B0
S31508001700114BD3F8803103F00303022B16D0032BB9
S315080017100FD0012B07D000230DB1019A2A6004B11E
S31508001720237003B030BD002101A8FFF789FF0F23FE
S31508001730F2E7FFF733FD01900723EDE7FFF72AFDF0
S3150800174001900223E8E700BF0080004038B505464F
S315080017500C460C4BD3F8903203F00303012B05D04B
S31508001760022B07D1FFF71AFD072305E0FFF712FD45
S31508001770022301E00023184605B1286004B123704E
S3150800178038BD00BF0080004030B583B005460C4622
S3150800179000230193144BD3F8203203F00703013BCF
S315080017A0032B1ED8DFE803F0020E1318002101A848
S315080017B0FFF778FF11230DB1019A2A6004B123704F
S315080017C003B030BDFFF7EAFC01900723F3E7FFF704
S315080017D029FD01900A23EEE7FFF72AFD0190092368
S315080017E0E9E70023E7E700BF0080004038B5054673
S315080017F00C460F4BD3F8403103F00303022B0ED0EF
S31508001800032B10D0012B06D00023184605B12860FB
S3150800181004B1237038BDFFF705FD0A23F6E7FFF785
S3150800182007FD0923F2E7FFF700FD0B23EEE700BFEC
S315080018300080004030B583B005460C46002301936E
S315080018404FF0E0231B6913F0040F0ED0FFF772FC6C
S3150800185001900C238DF803300DB1019B2B6014B158
S315080018609DF80330237003B030BD0DF1030101A8C4
S31508001870FFF7BCFFF0E7000030B583B005460C461D
S3150800188000230193144BD3F8603203F00703013B9E
S31508001890032B1FD8DFE803F0020E1914002101A854
S315080018A0FFF7CEFE0F230DB1019A2A6004B123700B
S315080018B003B030BD002101A8FFF798FF1023F2E717
S315080018C0FFF76CFC01900723EDE7FFF763FC019037
S315080018D00223E8E70023E6E70080004030B583B03E
S315080018E005460C46002301930C4BD3F8703203F0DF
S315080018F00303012B09D0022B0DD114230DB1019A34
S315080019002A6004B1237003B030BD002101A8FFF797
S315080019106DFF1023F2E70023F0E700BF00800040C8
S3150800192038B505460C46124BD3F8003203F00703C8
S31508001930013B032B18D8DFE803F0020A0E12FFF763
S3150800194071FC0A2305B1286004B1237038BDFFF77E
S315080019506FFC0923F6E7FFF768FC0B23F2E7FFF7AE
S31508001960E9FB800A0E23EDE700231846EAE700BFE5
S315080019700080004038B505460C46124BD3F80832AD
S3150800198003F00703013B032B18D8DFE803F0020A2C
S315080019900E12FFF747FC0A2305B1286004B123702D
S315080019A038BDFFF745FC0923F6E7FFF73EFC0B2396
S315080019B0F2E7FFF7BFFB800A0E23EDE70023184680
S315080019C0EAE700BF0080004038B505460C460F4BD5
S315080019D0D3F8403203F00303022B0ED0032B10D0AA
S315080019E0012B06D00023184605B1286004B12370E0
S315080019F038BDFFF717FC0A23F6E7FFF719FC09239A
S31508001A00F2E7FFF712FC0B23EEE700BF0080004069
S31508001A1038B505460C460F4BD3F8503203F003038E
S31508001A20022B12D0032B08D0012B0AD0002318460C
S31508001A3005B1286004B1237038BDFFF7F6FB0B2308
S31508001A40F6E7FFF7EFFB0A23F2E7FFF7F1FB0923B7
S31508001A50EEE700BF0080004038B505460C460F4B40
S31508001A60D3F8603103F00303022B0ED0032B10D0FA
S31508001A70012B06D00023184605B1286004B123704F
S31508001A8038BDFFF7CFFB0A23F6E7FFF7D1FB09239B
S31508001A90F2E7FFF7CAFB0B23EEE700BF0080004022
S31508001AA038B505460C46104BD3F8000100F0030084
S31508001AB0032815D8DFE800F002080C10012305B149
S31508001AC0286004B1237038BDFFF74AFB0323F6E705
S31508001AD0FFF7AEFB0923F2E7FFF75AFB0823EEE709
S31508001AE000231846EBE700BF00800040B0F5207FD2
S31508001AF020D00ED8B0F5007F16D020D810B1B0F59A
S31508001B00C07F04D10F4B186FC0F3033018E00020D4
S31508001B1016E0B0F5607F05D10A4BD3F88000C0F314
S31508001B2001100DE000200BE0064BD3F89000C0F33F
S31508001B30046005E0034B186FC0F3802000E0002026
S31508001B40013070470080004038B505460C46104BFA
S31508001B504FF480329A660020FFF7C8FF05FB00F0B5
S31508001B600C4BDA6902F4803241F67131D9635B684D
S31508001B7023F440130849884201D9002C05DD05499C
S31508001B804B600AB10022CA6338BD43F48013F6E7F6
S31508001B900090004000000340005A620208B5FFF7B3
S31508001BA0DBFA0021FFF7D0FF08BD0000430905D086
S31508001BB0012B0ED0022B0ED0002200E0002200F0EE
S31508001BC01F0051B102F58052012303FA00F010609C
S31508001BD07047034AF3E7034AF1E702F50052F3E7D1
S31508001BE0648000406880004010B582B000230193ED
S31508001BF00093B0F5807F00F20781B0F5807F00F290
S31508001C007581DFE810F04C017301730173017301EC
S31508001C107301730173017301730173017301730116
S31508001C207301730173017301730173017301730106
S31508001C3073017301730173017301730173017301F6
S31508001C407301730173014C0185014C0185019D01E6
S31508001C509D019D019D019D018501A2013D01AC01EA
S31508001C6023013D0185018501850173017301730116
S31508001C707301730173017301AC0185018501850147
S31508001C80C001B10185017301730173017301730109
S31508001C907301730173017301730173017301B60153
S31508001CA09D014C014C014C016D013D013D01620154
S31508001CB0BB0156017C017C01730173017301730139
S31508001CC07301730173017301730173017301730166
S31508001CD07301730173017301730173017301730156
S31508001CE07301730173017301730173017301730146
S31508001CF07301730173017301730173017301730136
S31508001D007301730173018101730173017301730117
S31508001D107301730173017301730173017301730115
S31508001D207301730173017301730173017301730105
S31508001D3073017301730173017301730173017301F5
S31508001D4073017301730173017301730173017301E5
S31508001D5073017301730173017301730173017301D5
S31508001D6073017301730173017301730173017301C5
S31508001D7073017301730173017301730173017301B5
S31508001D8073017301730173017301730173017301A5
S31508001D907301730173017301730173017301730195
S31508001DA07301730173017301730173017301730185
S31508001DB07301730173017301730173017301730175
S31508001DC07301730173017301730173017301730165
S31508001DD07301730173017301730173017301730155
S31508001DE07301730173017301730173017301730145
S31508001DF07301730173017301730173017301730135
S31508001E00730173017301A701B0F5E06F00F0AC80B0
S31508001E100CD9B0F5286F00F0B1804FD9B0F5306F06
S31508001E2063D1002101A8FFF791FC5FE0B0F5607F60
S31508001E3079D010D9B0F5B06F00F0878033D9B0F5F6
S31508001E40C06F00F08C80B0F5D06F4FD1002101A88B
S31508001E50FFF766FD4AE0B0F5007F0AD1FFF750F9B3
S31508001E6004464FF40070FFF741FEB4FBF0F401940A
S31508001E703CE011D9B0F5207F4AD0B0F5407F35D186
S31508001E80FFF758F904464FF42070FFF72FFEB4FB0E
S31508001E90F0F46408019429E0B0F5C07F26D1FFF775
S31508001EA049F9019022E0B0F5806F49D0B0F5A06FEE
S31508001EB01CD1002101A8FFF767FC17E0B0F5186FE1
S31508001EC057D007D9B0F5206F10D1002101A8FFF728
S31508001ED0D3FC0BE0B0F5F06F55D0B0F5106F05D117
S31508001EE0002101A8FFF746FD00E002D2019802B0E2
S31508001EF010BDB0F5386F32D0B0F5406FF6D100217D
S31508001F0001A8FFF7CFFBF1E7FFF7FAF80190EDE735
S31508001F10FFF710F904464FF42070FFF7E7FDB4FB0E
S31508001F20F0F40194E2E700216846FFF77DFB009C88
S31508001F304FF46070FFF7DAFDB4FBF0F40194D5E7CF
S31508001F40002101A8FFF77CFBD0E7002101A8FFF7D5
S31508001F50D1FBCBE7002101A8FFF76CFCC6E70021FF
S31508001F6001A8FFF743FCC1E7002101A8FFF72CFDF4
S31508001F70BCE7002101A8FFF74BFDB7E7002101A840
S31508001F80FFF7ACFCB2E7002101A8FFF765FDADE756
S31508001F9008B58020FFF728FE034B984203D8034B69
S31508001FA04FF480321A6708BD005A620200A000404A
S31508001FB000B583B000238DF80730B0F5807F00F0B8
S31508001FC0BE8013D9B0F5086F00F0C58046D9B0F5C4
S31508001FD0286F00F0D88070D9B0F5306F40F0828055
S31508001FE00DF107010020FFF7B1FB7CE080287AD8C5
S31508001FF0242878D324385C2875D8DFE800F04F4FBA
S315080020004F4F4F744674A658747474747474747409
S31508002010747474A67474743AB87474747474747436
S31508002020747474747474BE4F7474746D747464C404
S31508002030B27F7F74747474747474747474747474FE
S315080020407474747474747474747474747474747442
S31508002050747474747474747474748500B0F5C06F91
S3150800206073D00CD9B0F5E06F00F08180B0F5F06F51
S315080020701AD10DF107010020FFF7EEFC33E0B0F5A9
S31508002080A06F6ED0B0F5B06F05D10DF10701002035
S31508002090FFF730FB27E0B0F5806F24D10DF107017B
S315080020A00020FFF7CDFA1EE0B0F5D06F1BD10DF179
S315080020B007010020FFF734FC15E0B0F5186F5CD077
S315080020C0B0F5206F05D10DF107010020FFF7D4FB0D
S315080020D009E0B0F5106F06D10DF107010020FFF7F2
S315080020E049FC00E004D29DF8070003B05DF804FB44
S315080020F0B0F5386F29D0B0F5406FF4D10DF107016E
S315080021000020FFF7CFFAEEE7224B1B6F03F0070319
S31508002110013B032BE7D8DFE803F00E02060A052386
S315080021208DF80730DFE703238DF80730DBE7082350
S315080021308DF80730D7E702238DF80730D3E70DF17E
S3150800214007010020FFF776FBCDE70DF10701002018
S31508002150FFF74CFBC7E70DF107010020FFF7A0FCCE
S31508002160C1E70DF107010020FFF70EFBBBE70DF1F4
S3150800217007010020FFF728FCB5E70DF1070100204D
S31508002180FFF746FCAFE70DF107010020FFF7A6FBB6
S31508002190A9E700BF0080004070B505468020FFF71C
S315080021A007FF032800F0A180584B4FF480125A66A7
S315080021B0574B45F60E02C3F8802003F580524FF0C0
S315080021C0A061916203F500534FF480329A62504B36
S315080021D09C6D14F48034FAD12A786B781B0543EA8F
S315080021E00263EA7843EA02432A7943EA02336A79C0
S315080021F043EA8213AA791343454E3361B36903F060
S315080022000043EA7943EA82632A7A43EA02636A7AEE
S3150800221043EA0243AA7A43EA0223EA7A1343B361FA
S3150800222000F0C8FBB26B82F4006303F440635340CA
S31508002230B36300F0C3FB336A23F00F036A7B02B172
S31508002240082423432C7B43EA84031343304A13624E
S315080022506B7B002B30D1916A2E4B0B40A97B43EA4E
S315080022604113E97B43EA0113A97C43EAC10343F41A
S3150800227080339362264B9A6D274B9343FAD1244AAF
S3150800228002F580514FF080738B62136923F4700353
S31508002290A87843EA005313614FF000438B612B7C07
S315080022A01BB91E4B4FF080729A626B7CBBB91B4BF5
S315080022B04FF480329A6212E0022B17D0144A916AC0
S315080022C0144B0B40A97B43EA4113297C43EA01637B
S315080022D0A97C43EAC103697C43EA01439362EB7C28
S315080022E01BB10B4B0E4AC3F8802070BD084C002367
S315080022F02361A36100F05EFB626B82F4085303F46A
S315080023007F435340636300F059FBD7E700900040D2
S315080023100040004AC7FFFEFE030001000060004AB5
S31508002320F1A7FFFF014B93F9000070470411002045
S3150800233008B5002903DD0121FFF706FC08BD0021C9
S31508002340FFF702FCFAE70000B0F5207F4AD02FD845
S31508002350B0F5007F3BD04ED810B1B0F5C07F26D17E
S3150800236010B54C1EFFF71AFC00F048F8FFF754F9B1
S31508002370214B196F21F4704141EA04311967FEF7C0
S31508002380D9FE4FF04023D3F8843013F0100FF8D15C
S315080023904FF04023D3F88410C1F38111C1F1020133
S315080023A0FFF7C6FF00F032F8FFF7F2FD10BD7047E1
S315080023B0B0F5607F0AD101390F4AD2F8803023F090
S315080023C0300343EA0111C2F880107047704701399B
S315080023D0094AD2F8903023F0F85343EA0161C2F86B
S315080023E0901070470139044A136F23F4806343EA57
S315080023F081211167704770470080004008B50221A7
S315080024004FF42070FFF7A0FF08BD000008B54FF491
S31508002410C070FFF7E9FB054B984205D902214FF436
S315080024202070FFF791FF08BD0121F8E780F0FA0256
S3150800243070B50C46B0F5807F00F094811FD9B0F5D1
S31508002440086F00F0108240F28380B0F5286F00F024
S31508002450998240F2D180B0F5306F40F0F8800229B9
S3150800246000F0A282072940F0A1820221874AD2F809
S31508002470903223F003030B43C2F89032E8E0802839
S3150800248000F2E6802428C0F0E38024385C2800F2B5
S31508002490DF80DFE810F0990099009900990099000B
S315080024A0DD008300DD00A801A500DD00DD00DD00FC
S315080024B0DD00DD00DD00DD00DD00DD00DD00DD0026
S315080024C0A801DD00DD00DD0069002D02DD00DD006C
S315080024D0DD00DD00DD00DD00DD00DD00DD00DD0006
S315080024E0DD00DD00DD0043029900DD00DD00DD00D2
S315080024F0D000DD00DD00B8007702FE01E500E5004A
S31508002500DD00DD00DD00DD00DD00DD00DD00DD00D5
S31508002510DD00DD00DD00DD00DD00DD00DD00DD00C5
S31508002520DD00DD00DD00DD00DD00DD00DD00DD00B5
S31508002530DD00DD00DD00DD00DD00DD00DD00DD00A5
S31508002540DD00DD00DD00DD00DD00DD00DD00F10081
S31508002550B0F5C06F00F0478119D9B0F5E06F00F00B
S31508002560C781B0F5F06F38D10A2C00F054810B2CD6
S3150800257000F05381092C00F04C810021434AD2F81F
S31508002580603123F003030B43C2F8603160E0B0F515
S31508002590A06F00F07E81B0F5B06F12D1072C00F065
S315080025A0C7800F2C00F0C680022C00F0BF800021E7
S315080025B0364AD2F8803123F003030B43C2F8803140
S315080025C046E0B0F5806F43D1023C052C00F2B4809A
S315080025D0DFE804F0B8B4BCBEBAB6B0F5D06F37D1F0
S315080025E0093C052C00F21B81DFE814F023012901C0
S315080025F02501190119012701B0F5186F00F08E8120
S31508002600B0F5206F14D1023C0E2C00F29D81DFE854
S3150800261014F0B7019B019B019B019B01B1019B0132
S315080026209B019B019B019B019B019B01B301B5018A
S31508002630B0F5106F0CD1093C052C00F20281DFE8D9
S3150800264014F00A0110010C01000100010E0100D26C
S3150800265070BDB0F5386F00F0C680B0F5406FF7D1A1
S31508002660023C052C00F23281DFE814F03C013E0101
S315080026703001400130013A018B1E062B08D8DFE8ED
S3150800268003F04F3D075207074C0000BF008000408B
S3150800269000252E460121022000F0F8F9FFF77EFA00
S315080026A0FFF7ACFEFEF7B8FFAC4A136F23F007033B
S315080026B033431367FEF73EFD4FF04023D3F88430CB
S315080026C013F0100FF8D14FF04023D3F88410C1F35C
S315080026D08111C1F10201FFF72BFE0121002000F054
S315080026E01FFAFFF793FEFFF753FC002DB0D1032C1A
S315080026F0AED19B4B4FF480329A62A9E7994B4FF4BF
S3150800270080125A66984B9D6AC5F3006503F5805397
S315080027104FF480329A620326BCE700250426B9E7FF
S3150800272000250126B6E700250226B3E702213FE782
S3150800273003213DE701213BE700210AE0022108E0E9
S31508002740042106E0032104E0052102E0062100E059
S315080027500121824AD2F8203123F007030B43C2F83D
S31508002760203175E70C2924D01FD8A1F10904E4B259
S31508002770022C3FF66DAF794B596E03F580534FF433
S3150800278080325A66794A536A43F00103536211F458
S31508002790803F03D1764B4FF480325A664FF0E022E1
S315080027A0136923F00403136152E710297FF450AF2D
S315080027B0E1E76A4B596E03F580534FF480325A6647
S315080027C06A4A536A23F00103536211F4803F03D126
S315080027D0674B4FF480325A664FF0E022136943F094
S315080027E00403136134E70A2C0FD00B2C0FD0092CE5
S315080027F009D00021594AD2F8403123F003030B438C
S31508002800C2F8403124E70221F4E70121F2E7032167
S31508002810F0E70221B2E60121B0E60321AEE6002187
S315080028204E4AD2F8003223F007030B43C2F80032AF
S315080028300EE70221F4E70321F2E70421F0E701217C
S31508002840EEE70021454AD2F8083223F007030B4386
S31508002850C2F80832FCE60221F4E70321F2E7042174
S31508002860F0E70121EEE708290FD009290FD003293F
S3150800287009D00021394AD2F8003123F003030B436B
S31508002880C2F80031E4E60121F4E70321F2E7022168
S31508002890F0E7073C0A2C07D8DFE804F01006141204
S315080028A0060606060606160000212C4AD2F820322D
S315080028B023F007030B43C2F82032C9E60221F4E7E6
S315080028C00321F2E70421F0E70121EEE70021234A7C
S315080028D0D2F8283123F007030B43C2F82831B7E6AC
S315080028E00421F4E70321F2E70221F0E70121EEE7EC
S315080028F00A2C0FD00B2C0FD0092C09D00021174A0F
S31508002900D2F8403223F003030B43C2F840329FE665
S315080029100221F4E70121F2E70321F0E70A2C0FD0A0
S315080029200B2C0FD0092C09D000210C4AD2F85032B2
S3150800293023F003030B43C2F8503289E60221F4E779
S315080029400121F2E70321F0E70021044AD2F86032B8
S3150800295023F007030B43C2F8603279E60080004093
S315080029600060004A009000400040004A00C007404E
S3150800297000A000400421E8E70121E6E70221E4E798
S315080029800321E2E7102C0BD0142C0BD10221084AA4
S31508002990D2F8703223F003030B43C2F8703257E6BD
S315080029A00121F4E70021F2E701215FE500215DE559
S315080029B000800040EFF3108072B6704700B962B627
S315080029C07047302383F311887047002383F31188F7
S315080029D07047EFF31180302383F31188704780F333
S315080029E011887047EFF3108313F0010F05D1EFF349
S315080029F011832F2B03D80020704701207047012030
S31508002A0070474FF04022536F23F44073417843EAEE
S31508002A1001235367704770477047000010B5044696
S31508002A20094A136943F00403136103F0A3F8FFF797
S31508002A30F2FF30BFFFF7F0FF03F0B2F804B110BDA4
S31508002A40FEF778FBFBE700BF00ED00E010B5044693
S31508002A50074A136943F00403136103F08BF830BF88
S31508002A6003F09EF804B110BDFEF764FBFBE700BF58
S31508002A7000ED00E0704770474FF04022D36E23F018
S31508002A80300301790B43D36670477047F8B504469F
S31508002A904FF04023D3F8843013F0100FF8D14FF0DD
S31508002AA04023D3F88430C3F381139C4231D0FEF718
S31508002AB027FB0646012C12D0FFF77CFF05464FF090
S31508002AC0402707F500534FF000725A662046FFF775
S31508002AD0DCFF621E4FF4806393403B6707E00121E9
S31508002AE0FFF726FCE8E74FF04023D3F884304FF091
S31508002AF040235B6E13F0007F06D14FF04023D3F8D6
S31508002B00843013F0200FEED02846FFF757FF022C2B
S31508002B1000D0F8BD00213046FFF70AFCF9E70000AF
S31508002B2010B50C46034650B1094A127812B1094A43
S31508002B30934208D921460220FFF7A8FF10BDFEF7E9
S31508002B40DFFA0346F0E721460120FFF79FFFF5E786
S31508002B50BC1C0020005A620208B50278034B1A70A2
S31508002B6001210020FFF7DCFF08BD00BFBC1C0020C8
S31508002B701B4B4FF000425A6603F50B235A6C02F0C2
S31508002B8001024AF6CD31196490B9164B5B6B13F006
S31508002B90010FFAD1134B5B6813F0010F1BD0124BD0
S31508002BA0012159600F4B1B6B13F0010FFAD012E08D
S31508002BB00C4B1B6B13F0080FFAD10A4B03F50051A7
S31508002BC02020886203F5805301215960054B9B6AD2
S31508002BD013F0200FFAD012B1024B044A1A64704758
S31508002BE00090004000400940006009403254FFFF51
S31508002BF010B5194B4FF000425A6603F50B235C6C6F
S31508002C0004F001044AF6CD321A6443785B0043F0B7
S31508002C1001034FF04022D363104B5B6B13F00B0F8D
S31508002C20FAD10E4A536823F4F873817843EA0113FC
S31508002C305360C178437943EA012393600179837924
S31508002C4043EA012313610078FFF792FF14B1034B9F
S31508002C50034A1A64012010BD009000400040094054
S31508002C603254FFFF10B40F2800D90F20124B5C6EA8
S31508002C7003F580534FF000425A6603F50B235A6C4E
S31508002C8002F001024AF6CD3119640C4B5B6B13F066
S31508002C90800FFAD109490B6A23F00F03184308621B
S31508002CA00AB1074A0A64002C03DB064B4FF00042C0
S31508002CB05A665DF8044B70470080004000400940A2
S31508002CC03254FFFF00A0004010B4134B5C6E03F5AE
S31508002CD080534FF000425A6603F50B235A6C02F0F4
S31508002CE001024AF6CD3119640C4B5B6B13F0800F69
S31508002CF0FAD10A490B6A23F4F85343EA002008621A
S31508002D000AB1074A0A64002C03DB064B4FF000425F
S31508002D105A665DF8044B7047008000400040094041
S31508002D203254FFFF00A00040084B98420AD0084BD7
S31508002D30984209D003F58043984201D00020704795
S31508002D405820704756207047572070470000014B9F
S31508002D5000000A40436813F0010F19D0836813F086
S31508002D60010F03D0036913F0010F09D00A23836307
S31508002D70436D13F0500FFBD1836C13F0030FFBD197
S31508002D8000F5005301225A60436813F0020FFBD185
S31508002D90042307E000F5805304221A6100F5005366
S31508002DA01A610B46591E002BF4D120230361002318
S31508002DB0C360836041F20202426183614FF4A0223C
S31508002DC04262C36103628362C3624363036500F5BB
S31508002DD000520249D1640363704700BFFF3F0D03E9
S31508002DE00A46F1B100F580530121596002F00F013E
S31508002DF0436DC3F30B03002BFAD18163436D13F0C4
S31508002E007803FBD112F0010F00D0012312F0040F52
S31508002E1001D043F00203826C02F003029A42FAD10F
S31508002E207047436813F0010FFAD0836813F0010F57
S31508002E3003D0036913F0010F09D00A238363436D96
S31508002E4013F0500FFBD1836C13F0030FFBD100F581
S31508002E50005301225A60436813F0020FFBD17047F2
S31508002E60836C13F0800FFBD0C06BC0B27047836CC5
S31508002E7013F0400FFBD041647047000038B5044694
S31508002E8015460846E1B1A36813F0010F4ED06268F3
S31508002E90B0FBF5F0013812F001023BD0636D13F078
S31508002EA0280FFBD1A36C13F0030F0FD1A36C13F0FB
S31508002EB0010F2BD1A36C13F0020F29D1002106E0D4
S31508002EC02046FFF731FFFEF78FFEDCE70521636832
S31508002ED013F0010F1FD0A36813F0010F03D0236965
S31508002EE013F0010F09D00A23A363636D13F0500F83
S31508002EF0FBD1A36C13F0030FFBD104F50053012596
S31508002F005D60636813F0020FFBD104E00921DEE778
S31508002F100621DCE70021236923F07F4343EA0060AA
S31508002F2020610AB32046FFF75BFF1DE06368A368CC
S31508002F3003F0E003402B1DD017D9602B1ED0802B41
S31508002F4012D10123400105FB03F3B0FBF3F020384F
S31508002F500B4B03EAC000636D13F0010FFBD120632E
S31508002F60636D13F0010FFBD138BD2BB1202BFBD1BC
S31508002F700823E7E70623E5E71023E3E70423E1E769
S31508002F80F8FF7F0070B504460D461646436823B120
S31508002F90636DC3F30B03002BFAD12046FFF7DAFE65
S31508002FA0636923F44C5323F00F036A7B1343EA89BE
S31508002FB013432A8A13436361A36823F0804323F0EB
S31508002FC0E2032A7B13432A7E13436A691343A360E9
S31508002FD0AB681BB9A36843F00043A360EA69002AFB
S31508002FE074D0A368127A43EA8253A360A368EA6995
S31508002FF0927A43EA4243A360A368EA69928802F494
S31508003000C0421343A360A368EA69527843EA82037D
S31508003010A360A368EA69527B43EAC203A360A36874
S31508003020EA69927B43EA0213A360A368EA69927885
S3150800303043EA8223A360EA699179D3795B0243EA7A
S315080030408123E360EB691B78012B01D0032B03D1A5
S31508003050E36843F00403E360EB691B78023BDBB2E9
S31508003060012B4DD9474B9C4267D0474B9C4266D0B3
S3150800307003F580439C425ED04FF0FF3303F593730C
S315080030805B0103F1804303F5703302225A60EB6952
S315080030905A7A04F580539A62EB695B7A1BB1E36846
S315080030A043F40063E360EB69DB7A7BB1E36843F4DE
S315080030B00043E360334B9C4243D0EB691B7B03F030
S315080030C00F03324A1367324B9C4241D03EB196F801
S315080030D02030002B42D004F5805301221A620521C4
S315080030E02046FFF77DFEAA68002A46D129782046A1
S315080030F0FFF776FEA36CDB4313F4405FFAD170BD8D
S31508003100204B9C4213D0204B9C4212D003F580439F
S315080031109C420AD04FF0FF33A6335B0103F180438C
S3150800312003F5703302225A60B1E70223F4E700235D
S31508003130F2E70123F0E70223A0E700239EE7012335
S315080031409CE7EB691B7B03F00F03104A5366B4E751
S31508003150EB691B7B03F00F03D367B7E7E36923F03B
S31508003160090396F82220134396F82120134343F0C7
S31508003170010304F58052D361B1E769682046FFF779
S315080031807DFEB3E70000014B00000A4000900340B3
S3150800319000400A4008B500231A46FFF7F3FE08BDAB
S315080031A008B500231A46FFF7EDFE08BD2DE9F84FCE
S315080031B00C4615461E469DF828809DF82C70072A51
S315080031C044D84FEA8209032303FA09FA00FA09F9EF
S315080031D0FFF7F0FB384AD2F8001489EA010303EA3C
S315080031E00A034B40C2F80034FFF7E8FB4FF0000A29
S315080031F0072D43D8A9004FF0030909FA01F904F08D
S3150800320003048C40FFF7D6FB2B4BD3F80824544015
S3150800321004EA09045440C3F80844FFF7CFFB002E1C
S3150800322044D0264A0123AB401360B8F1000F3FD0C3
S31508003230234A1360012202FA05F5224AC2F82054ED
S31508003240C7B3A2F6DC321360BDE8F88FA2F1080A0C
S315080032504FEA8A09032303FA09FB00FA09F9FFF77B
S31508003260A9FB154AD2F8041489EA010303EA0B03F9
S315080032704B40C2F80434FFF7A1FBB9E74FEA8A0AC4
S315080032804FF0030909FA0AF904F0030404FA0AF4E8
S31508003290FFF790FB084BD3F80C24544004EA0904C2
S315080032A05440C3F80C44FFF789FBB8E7064AB9E768
S315080032B0064ABEE7064AC6E700C0034010D40340E4
S315080032C014D4034000E0034010E4034014E4034030
S315080032D024E403402DE9F84F04460E461F4690465F
S315080032E03AB183B301228A4000EB400109012C4B15
S315080032F05A50072E2FD804EB44094FEA091909F149
S315080033000409DFF8A4A0B3000F2505FA03FB08FAA1
S3150800331003F5FFF74FFB59F80A305D4005EA0B0540
S315080033205D4049F80A50FFF749FBB8F1000F08D18C
S315080033306FB3012101FA06F604EB44042401184B85
S315080033401E51BDE8F88F01228A4000EB40010901B1
S31508003350144B5A50CDE704EB44052D010C35DFF824
S315080033604890A6F108039B000F2202FA03FA08FA0E
S3150800337003FBFFF71FFB55F809308BEA030202EA45
S315080033800A025A4045F80920FFF718FBCDE7012144
S3150800339001FA06F604EB44042401024B1E51D0E759
S315080033A040D0034040E0034030C00340436913F077
S315080033B0807FFBD100F5005001234360024B5B6818
S315080033C013F0020FFAD170470040004900F580500B
S315080033D0012343607047022A09D9033AD2B2022A66
S315080033E004D821F0FF03036001717047704721F08C
S315080033F07F4311F4000201D04FF07F42134303606C
S31508003400090E0171704770B505460C46466806F008
S315080034100106FFF7DBFF2378627843EA0223A278E6
S31508003420120402F480321343E27832B14FF40032C8
S315080034301343C5F8983016B170BD0022F8E7284640
S31508003440FFF7B4FFF8E770B505460C461646FFF7D2
S31508003450ADFF237803F0070362786AB308221343A3
S31508003460A278120102F070021343E27832B34FF4E5
S31508003470807213432B67EB6A23F48B3323F4807330
S315080034802279120202F4E06213436279120302F40B
S3150800349080521343A2799AB14FF480321343EB62F8
S315080034A031462846FFF7AFFF2846FFF78FFFE37937
S315080034B00BB10123EB6070BD0022D0E70022D8E7EC
S315080034C00022EBE708B50B4669B103F5742303F24E
S315080034D03F230948A0FB0330800C01387F2828BF0A
S315080034E07F20C0B208BD2A20FEF77EFB03460028CF
S315080034F0EBD10123E9E700BF83DE1B4310B50B4C74
S315080035008C4228BF0C4610465AB12044431EB3FBD2
S31508003510F4F0A34200D30138032800D90320C0B22F
S3150800352010BD2A20FEF760FBEFE700BF005A6202D3
S3150800353010B5BBB90F4C8C4200D30C46A2B19DF80E
S3150800354008000130B2FBF0F22244013AB2FBF4F073
S31508003550A24200D3013840F2FF33984228BF1846EA
S31508003560C0B210BD044CE6E72A20FEF73DFB024632
S31508003570E5E700BF80969800404B4C002DE9F043E4
S3150800358083B005460C4616460022D049FFF7B6FF1B
S3150800359094F80580404500D980462846FFF706FF7F
S315080035A0207910B3E3781B0103F03003000400F41C
S315080035B0FE0003434FEA087202F0E0421343227802
S315080035C00AB143F0020362780AB143F00403A27811
S315080035D00AB143F00803AB60E3882B61228963894B
S315080035E043EA02432B620024C7E000212846FFF77E
S315080035F069FFD7E7B649D4E0B64BD3F88031002F38
S3150800360040F0B48005EB04139B6CC3F302335A1ED7
S31508003610012A23D9032B00F01781042B00F02081FF
S31508003620AC4AD2F884311B0CD2F88C21121402EB66
S31508003630420207EE102AB8EEC77A15E0A54BD3F872
S315080036408031DCE7A34BD3F88431D8E7A14BD3F814
S315080036508431D4E79F4BD3F88031D0E79D4BD3F81C
S3150800366080319BB29FED9C7A23F4C042920413F4F6
S31508003670004F40F0028105EB04118F6CC7F38207F7
S31508003680791C01278F40022F00F0FA80DFF844C228
S31508003690DCF8901109B207EE901AF8EEE77A37EEE1
S315080036A0C77A07EE907AF8EEE76AF6EE007A66EEE3
S315080036B0A76A87EE266ADCF8881109B207EE901A1F
S315080036C0F8EEE77A37EE867A04EB840106EB810199
S315080036D0D1ED037AF8EE677A9FED806AC7EE866ABF
S315080036E0B7EE046AC6EE267A67EE877AB1EE007AF6
S315080036F067EE877A07EE107AB8EEC77A9FED786A92
S31508003700C6EE076A9FED777A26EE877A77EE877A8E
S31508003710B2F1004F0FD007EE103AB8EEC77ADFEDD8
S31508003720726A27EE267ADFED716A77EEA67A67EE79
S31508003730277A77EEE67AF5EEC07AF1EE10FA40F3DC
S31508003740AA80F1EE677AB6EE007A77EEC77AFDEED2
S31508003750E77A17EE903AB3F5003FC0F2A5806FEA14
S3150800376052426FEA4242631D1B01EA50C0F3090048
S31508003770631D05EB0313586001345D4B9D4200F051
S315080037809D8000239C4280F09B8004EB840306EB1B
S31508003790830216F82370D2F80890002F7FF42AAF18
S315080037A05449CDF800803B4600222846FFF7C0FE64
S315080037B05FFA89F9484538BF484605EB0412936C09
S315080037C04D49194007F003030B4304EB840106EB4C
S315080037D0810191F801C04FEA8C0C0CF01C0C43EAED
S315080037E00C0391F802C04FEA0C3C0CF4E04C43EA97
S315080037F00C0391F803C04FEA0C4C0CF4E02C43EA96
S315080038000C0391F810C04FEA4C5C0CF4600C43EAC8
S315080038100C030979090701F040510B439364936C33
S31508003820C3F30233013B042B3FF614AF01A252F84F
S3150800383023F000BFF9350008F93500083D360008C1
S31508003840453600084D360008224AD2F880311B0C4E
S31508003850D2F88C21121407EE102AB8EEC77A03E7BD
S315080038601C4AD2F884319BB2D2F88C211214520029
S3150800387007EE102AB8EEC77AF6E642F00042FAE6F4
S315080038801449D1F88C1109B207EE901AF8EEE77AC6
S3150800389037EE877A18E7B6EE007A77EE677AFDEEA6
S315080038A0E77A17EE903A56E713F5003F02DA42F444
S315080038B0003258E7C3F311031A4354E7022361E7BA
S315080038C02846FFF783FD03B0BDE8F083005A62027D
S315080038D0404B4C000080E00F0000000000007A44D6
S315080038E00000804300002044000000380000004922
S315080038F00040004980969800E08F18CF10B504461E
S315080039000A6F496F02F00702FFF765FD204610BDF2
S31508003910064B4FF480329A6603F51C3341F6713232
S31508003920DA6303F500530122DA607047009000401D
S31508003930074B41F67132DA6303F500520121D16073
S315080039400022DA63A3F518334FF480329A6670477B
S3150800395000000340013831281AD8DFE800F027199B
S3150800396019191919191919191925191919191919AD
S3150800397019191919191919191919191919191B1DA3
S315080039801F21191919191919191919191919192381
S3150800399000207047012070470220704704207047B6
S315080039A00520704706207047072070470320704798
S315080039B00C2801D008467047022903D00329F9D1FB
S315080039C00121F7E70021F5E770B50446C2F306269C
S315080039D002F0070241B942EA062242F440220634BE
S315080039E0094B43F8242070BD11463046FFF7E0FF27
S315080039F005463046FFF7AEFF45EA00251234024B6E
S31508003A0043F82450EFE700BF0080034008B589B2A9
S31508003A1092B20A430021FFF7D7FF08BD22F003033D
S31508003A2003F1804303F5603322B109B91860704782
S31508003A300002186070470000024B4FF400321A6704
S31508003A40704700BF005000404FF04023D3F8940061
S31508003A5070470000074B4FF480325A6603F5E62399
S31508003A609B69C3F38512827003F03F0242701B0BF9
S31508003A700370704700900040436813F0010F00D1AF
S31508003A80704710B50446FEF7A4FF636A13F0010FEA
S31508003A9001D10123E360FEF7A2FF10BD0A4B9B6824
S31508003AA013F0020FFAD1084B5B6813F0020FF5D139
S31508003AB0054BDB69002BF1D1034B03F5805101223D
S31508003AC04A601A61704700BF00800A400A4B5B686B
S31508003AD0012B00D07047084B5B6813F0010F03D029
S31508003AE0054BDB69002BF6D1034B02221A6103F55D
S31508003AF0005301225A60EDE700800A4038B50546B2
S31508003B00134B9B6813F0020FFAD1114B5B6813F045
S31508003B10020FF5D10E4BDC69002CF1D15B68012B45
S31508003B2005D02B7803B10124094BDC6038BDFFF7BB
S31508003B30CDFF074B9B6813F0020FFAD1044B5B6865
S31508003B4013F0020FF5D1024BDB69002BF1D1E8E740
S31508003B5000800A40D8B90B78D3B101234A6812B15C
S31508003B60127843EAC2034A78A2B1022213438A684A
S31508003B7012B1127843EA82138A786AB1042213438F
S31508003B80CA6812B1127843EA4223044A936470471A
S31508003B900023E3E70022E9E70022F0E700800A4075
S31508003BA008B9014B5964704700900A4008B9014B9F
S31508003BB05964704700A00A4008B9014B1964704758
S31508003BC000A00A4010B9024B186C704700207047D5
S31508003BD000800A4048B911B1012903D07047044B47
S31508003BE0D86C7047024B186D70470020704700BFAD
S31508003BF000800A4040B911B1012903D07047034B30
S31508003C00DA647047014B1A65704700BF00800A40A6
S31508003C1038B504460CF0CCFD064DA446BCE80F00AA
S31508003C200FC5BCE80F000FC59CE8030085E8030034
S31508003C30002038BDC01C002047F6FF739A4275D095
S31508003C40042975D870B53C4B03EBC10090F802C047
S31508003C50604613F83130012B22D0374B03EBC103F2
S31508003C605C68002C66D0B4F90050954204DBB4F9C0
S31508003C700250954200DC1546A388FF2B2BD0282638
S31508003C80C8230022AE465B1B93FBF6F313442A4A6D
S31508003C9002EBC1014D78691E994231D319462FE0CE
S31508003CA0254B03EBC103D878A0EB0C000025A842EE
S31508003CB00ED9431BA0EB53031F4C04EBC1046468E5
S31508003CC034F91340944201DC1D46F0E7581EEEE72E
S31508003CD06044C0B229E0B4F90630B4F9086001229C
S31508003CE0D0E703F5FA73154AA2FB03239B094A1C7E
S31508003CF0954210D904EBC206B6889E420BD31146EC
S31508003D0004EBC1029368B2F9062002FB0E33002BBE
S31508003D10E7DA0023E5E704EBC1018A889A4200D373
S31508003D201A46624500D31046C0B270BDFF207047E0
S31508003D30002070470020F8E7C01C0020D34D621011
S31508003D4004296DD8394B13F83130012B23D010B51F
S31508003D50364B03EBC1035C68002C63D014F1040CEA
S31508003D6062D0324B03EBC1039B7893422BD22F4B85
S31508003D7003EBC103DB78934228D92C4B03EBC10133
S31508003D8091F801E00EF1FF3E5FFA8EFEA388FF2B45
S31508003D901FD0002321E0254B03EBC103DB789342B8
S31508003DA000D21A46214800EBC1008078121AD2B216
S31508003DB01B1A9A4200DD00221C4B03EBC1014B681B
S31508003DC033F912007047B4F9020010BDB4F90000C7
S31508003DD0FBE7012301E00133DBB2734505D2591C29
S31508003DE03CF8310091B28842F5D24FF47A7101FB62
S31508003DF002F20CEBC30CDCF80430D31ABCF902202F
S31508003E0002EBD27103EB610393FBF2F3B4F9000002
S31508003E109842DADBB4F902009842D6DC18B2D4E745
S31508003E20034870470248D0E70148CEE7C01C002087
S31508003E300080FFFF08B50348FFF7EAFE01200CF0F3
S31508003E4013FD08BD88960108002070470048704792
S31508003E500811002000B583B0094B93E803000090D1
S31508003E60ADF80410090C8DF806106846FEF7C0FE7A
S31508003E700920FEF7F7FE002003B05DF804FB00BF3B
S31508003E80E097010810B582B04FF04022536F43F017
S31508003E9001035367002400948DF804406846FEF732
S31508003EA0EBFD204602B010BD30B587B001AC1A4D07
S31508003EB00FCD0FC42B682360184BD3F84C3113F47D
S31508003EC0002F10D1154BD3F85041E4B2B4F1FF3F9F
S31508003ED013D08DF80E40FEF725FA24180FD4FF2CC0
S31508003EE00EDDFF240CE04FF0FF340D4B1B884FF618
S31508003EF0FF729342EAD01C46E8E78C24E9E70024DF
S31508003F008DF80D400748FDF731F901A8FEF744F989
S31508003F10002007B030BD00BFE89701080080E00F19
S31508003F200001E00FC01753026FF0040307E003F027
S31508003F300F010A4A0A445021117601335BB24B2B12
S31508003F4009DC002BF3DB03F1604202F561425021E4
S31508003F5082F80013F1E70020704700BFFCEC00E090
S31508003F6008B500F087F808BD10B501F0B7FF04469C
S31508003F7008B1204610BD02F0D9F84FF4167100FBBF
S31508003F8001F101F5742101F23F210A4BA3FB01312E
S31508003F90890C094B1960002308E0084A42F82310E7
S31508003FA0074802680A4402600133DBB2092BF4D9D8
S31508003FB0DFE700BF83DE1B43241D0020F41C00201E
S31508003FC0F01C00207047000008B5044B01221A7047
S31508003FD002F084F8024B186008BD00BFEC1C0020F4
S31508003FE0201D0020184B1B7803B9704770B502F0E6
S31508003FF075F8164B1B68C01A154B186000B90120D6
S31508004000134B1860134C2378134D55F82320111AB7
S31508004010124E3268521A326045F8230009321049A6
S31508004020A1FB0202D2080F4802600133DBB22370FB
S31508004030A1FB0312D20802EB8202A3EB4203237010
S31508004040014B00221A7070BDEC1C0020201D0020B8
S31508004050E81C00201C1D0020F41C0020F01C002079
S31508004060CDCCCCCC241D0020014B1868704700BF6E
S31508004070241D00200B49202381F82D330A4B4FF4C9
S3150800408080125A66094B03F50050094A42670267CF
S315080040904FF40050C1F88401486003F580535A670D
S315080040A0704700BF00E100E0009000400040004A71
S315080040B0010000A0024603E00023184663B95AB17E
S315080040C0064B9B6D13F0010FF6D0054B1B780BB111
S315080040D00023F2E70123F0E7704700BF0040004ADB
S315080040E03C1D0020F8B5974B1C6F9E6A06F080763B
S315080040F09D6A05F4803514F0010365D0924A13676A
S31508004100924B1B78002B58D0904B00221A70904B7C
S315080041101B78012B4BD88B4B03F500524FF480319B
S31508004120916203F580534FF080729A62854B9B6DBE
S3150800413013F4803FFAD1834AD36A23F4706385491E
S3150800414009680B43D362936923F47F0323F47F43FF
S31508004150814909680B43814909680B4393611369CF
S3150800416023F47F6323F00F037D4909680B437D49D8
S3150800417009680B431361936923F0FF037A490968B9
S315080041800B4393614EB9704B4FF080729A624DB1F2
S31508004190764B4FF480329A6216E0744B4FF0807279
S315080041A09A62F4E7684B4FF480329A620CE0FFF7A4
S315080041B009FF6F4B01221A7006E0FFF713FF01F0A3
S315080041C0EFFB634B00221A7014F000527BD05D4B54
S315080041D003F5005CCCF870205C4A012111705C493B
S315080041E00A7801320A70DA6A02F47060594908607E
S315080041F0996901F47F4158480160986900F47F0085
S31508004200564F38609F69FFB2DFF85CE1CEF8007060
S315080042101F6907F47C67DFF848E1CEF800701F696C
S3150800422007F03F07DFF83CE1CEF800704FF480371F
S31508004230CCF8287003F580534FF080779F624FF0D3
S3150800424000479F623F4B9B6D13F4803FFAD13D4B6D
S3150800425003F500574FF0004CC7F828C022F47062E7
S3150800426042F40072DA62B1F5C84F02D8B0F5C80F49
S315080042700CD9344A936923F47F0323F47F433D49D9
S31508004280096843EA012343EA014393612D490B690F
S3150800429023F47F6323F00F03374A1268900843EA32
S315080042A0920343EA80130B618B6923F0FF031A43D9
S315080042B08A615EB9244B4FF080729A625DB12B4BCE
S315080042C04FF480329A62002C0ADBF8BD274B4FF078
S315080042D080729A62F2E71C4B4FF480329A62F2E7D8
S315080042E004F00044184B1C67214B1B78002BECD0BC
S315080042F0144B03F500524FF48031916203F5805355
S315080043004FF080729A620F4B9B6D13F4803FFAD17F
S31508004310164B4FF000429A6156B903F580534FF099
S3150800432080729A624DB1114B4FF480329A62CCE793
S315080043300E4B4FF080729A62F4E7034B4FF48032CB
S315080043409A62C2E70040004A0060004A3C1D00200D
S315080043503D1D0020401D0020341D0020381D002072
S315080043602C1D0020301D0020281D00200050004A6A
S315080043703E1D0020141100201011002008B5FFF77B
S31508004380B1FE08BD10B50446FEF714FB024B1C60CF
S31508004390FEF714FB002010BD441D002010B5FEF7E3
S315080043A009FB034B1C68FEF709FB204610BD00BF3E
S315080043B0441D002070B50C461546034638B153B166
S315080043C05E6856B12A4621461868B04770BDFFF7A1
S315080043D0E5FF0346F3E72320F8E72320F6E72DE970
S315080043E0F04182B00E4617461C46054670B18CB1A0
S315080043F095B1D5F80880B8F1000F0FD023463A4694
S3150800440031462868C04702B0BDE8F081FFF7C6FF0D
S315080044100546ECE701ACEBE72320F4E72320F2E7B7
S3150800442000B583B08DF8071001220DF10701FFF7DB
S31508004430C1FF03B05DF804FB08B50B4601461846F4
S31508004440FFF7EEFF08BD00000EB410B583B005AB4C
S3150800445053F8044B0193014660B1019B2246084874
S3150800446003F036FF002809DD002003B0BDE8104040
S3150800447003B07047FFF792FF0146EEE73720F4E7EF
S315080044803944000829B1036B03F5805301221A65E4
S315080044907047036B03F5005301221A65036B03F596
S315080044A00053DA647047036B03F5805304221A65D8
S315080044B070470000012900D9704710B5064B1C68E3
S315080044C0583C05E00521206BFEF78AFCA46D583C94
S315080044D014F1580FF6D110BD481D002038B5044612
S315080044E0236B9B6C13F0400FFAD000231A46A16B7E
S315080044F094F83600FEF7EEFE00231A46216C94F86F
S315080045003C00FEF7E7FE94F8543013F0010F16D17D
S3150800451094F8543013F0020F19D10021206BFEF7DE
S315080045205FFC0021A08EFDF741FB0F4D04F15801F9
S315080045302846FCF78AFE2B688BB1002038BD00237D
S315080045401A46A16C94F84400FEF7C4FEE0E700237F
S315080045501A46216D94F84C00FEF7BCFEDDE70348C9
S3150800456001F0FCF8E9E700BF481D00204C1D0020BB
S3150800457008B5006BFEF77BFC002008BDF0B58BB0D4
S3150800458016461C46109D0023069307930893099325
S31508004590637993B10123049303937A4B02937A4B7D
S315080045A001937A4B00937A4B0A46294600F098FA0B
S315080045B0074620B138460BB0F0BD0223EBE7E38887
S315080045C0AB86A3692B64237D85F83C302369AB63EE
S315080045D0237B85F83630236AAB64237F85F844301D
S315080045E0A36A2B6594F8243085F84C3023682B632E
S315080045F001213A20FDF7DAFA012304222169207BFA
S31508004600FEF768FE01230222A169207DFEF762FEFD
S315080046100023337085F854300121E088FDF7C6FA87
S315080046206379002B31D101213620FDF7BFFA0A2123
S31508004630E088FDF7FDFE31462068FEF7B1FDA26869
S31508004640544B263203EB421210215160217B20691C
S31508004650A26841EA004103EB4212C2F8DC14227D4B
S31508004660A069A16842EA004203EB4113C3F8D424C7
S3150800467023791BB18DF8183006ABF3612379032B28
S315080046807ED8DFE803F05C1B4C5405214FF44060EC
S31508004690FDF7CEFEE388562B0AD031462068FEF792
S315080046A079FD95F8543043F0040385F85430C6E78D
S315080046B011214FF4A060FDF7BBFEEEE795F85430E4
S315080046C043F0010385F85430002600230222216AAC
S315080046D0207FFEF7FFFD227F216AA36842EA014296
S315080046E05B0103F1804303F5703341F2CC415A5024
S315080046F03EBB236803F500530422DA64236803F5F6
S3150800470080531A6505212068FEF76AFB224B1B6851
S315080047108BB305F158012048FCF793FD4AE795F855
S31508004720543043F0020385F854300126E0E795F843
S31508004730543043F0030385F854300126C5E70026B4
S31508004740D6E700230422A16A94F82400FEF7C2FDE6
S31508004750A368104AA63302EB43130221596094F862
S315080047602430A06AA16843EA004302EB411241F2F1
S31508004770D0415350BDE70949094800F0DFFFC8E7B3
S31508004780232717E7DD440008A744000885440008E6
S315080047907145000800C00340481D0020181100207C
S315080047A04C1D002010B50446026B136DD26C1340E5
S315080047B013F0040F0ED1236BDA6C12F0010F08D038
S315080047C003F500530122DA64236B9B6C13F0200F68
S315080047D016D110BD00F024FA28B9236B03F500534F
S315080047E004221A65E7E7206BFEF73AFB01462046E6
S315080047F000F026FA236B03F500530422DA64DAE79D
S31508004800204600F05DFAE4E700207047FEE74FF423
S3150800481000534B60002070470020704700B583B0F6
S315080048200020019001ABFFF7DAFD019810B103B043
S315080048305DF804FB4FF0FF30F9E710B51446002089
S31508004840FFF7B8FD204610BD08B5044B18680023CD
S3150800485002221946806813F017FF08BDF0110020E0
S31508004860034690F82A204AB190F82E00022801D073
S3150800487001207047012283F82E20704701207047D7
S3150800488080F82410704790F82400704790F82B00A1
S31508004890704770B504460D46FEF79BF8A6699EB1AB
S315080048A0E2692369D35C2B70236901332361226A89
S315080048B093420CD0A369013BA361FEF790F8A36865
S315080048C020469847304670BDFEF789F8FAE7002378
S315080048D02361EFE72DE9F84304460F46154690F89D
S315080048E02460FEF776F894F82A309BB9FEF777F835
S315080048F04EBB4FF00108AE4239D294F82630002B51
S31508004900F9D02368397820469847804698BB0137FE
S315080049100136F0E7FEF763F894F82D90FEF74AF8AB
S3150800492080460121484600F0B5FE4046FEF746F8A7
S31508004930FEF74FF8002384F82A30D7E723680D21BD
S31508004940204698470BE000264FF00108AE420ED2EB
S3150800495094F82630002BF9D03B780A2BEED0236842
S3150800496017F8011B2046984780460136EEE763682C
S315080049700121204698474046BDE8F88308B5FFF769
S31508004980A9FF002008BD2DE9F04182B007460E4672
S3150800499090461D4600232B6003E001362C6801343F
S315080049A02C602B68434505D231463846FFF771FF20
S315080049B00028F2D197F827302BB12B6883B1002055
S315080049C002B0BDE8F08111238DF8073001220DF100
S315080049D007013846FFF7D2FF012387F82730ECE7AF
S315080049E01B20EDE770B5044690F82B300A4601B156
S315080049F013B102B983B970BD90F82C60FDF7DAFFE0
S31508004A0005460121304600F045FE2846FDF7D6FF4B
S31508004A10012384F82B30EEE794F82C60FDF7CAFFE3
S31508004A2005460021304600F035FE2846FDF7C6FF4C
S31508004A30002384F82B30DEE738B504460568FFF70F
S31508004A40ADFC844245D095F92830002B08DB03F0ED
S31508004A501F015B0901228A406033204941F823205F
S31508004A6095F92830002B0CDB03F01F015B090122A6
S31508004A708A402033194941F82320BFF34F8FBFF3EB
S31508004A806F8F95F92930002B08DB03F01F015B09AE
S31508004A9001228A406033114941F8232095F92930CB
S31508004AA0002B0CDB03F01F015B0901228A4020332F
S31508004AB00A4941F82320BFF34F8FBFF36F8F0023B6
S31508004AC023606360A36023616361EB6828469847A7
S31508004AD038BD0020FFF756FCB5E700BF00E100E04F
S31508004AE0F8B515465268002A00F0848006460C463A
S31508004AF01F46AB68002B7FD030220021204613F0DA
S31508004B00BAFD6B68E361AB6823622B7B84F82430BB
S31508004B10AB7B84F82530012384F8263084F82730C7
S31508004B202760069A6260079AA260089AE26095F979
S31508004B30002084F8282095F9012084F8292034607B
S31508004B402E4A72602E4AB2602E4A32612E4A72612D
S31508004B502E4AF2602E4A326284F82E302D4AB2610D
S31508004B602D4AF2619DF8282084F82D209DF82420EE
S31508004B7084F82C20002284F82B2084F82A30697BBC
S31508004B802046FFF72FFF95F90130002B08DB03F0CD
S31508004B901F015B0901228A406033204941F823201E
S31508004BA095F90130002B07DB03F01F015B09012291
S31508004BB08A401A4941F8232095F90030002B08DB72
S31508004BC003F01F015B0901228A406033134941F84B
S31508004BD0232095F90030002B07DB03F01F015B0942
S31508004BE001228A400D4941F823203046FFF7CAFBC7
S31508004BF00020F8BD2220FCE72120FAE77D490008BD
S31508004C00874900088148000887480008394A00088B
S31508004C1061480008E54900088D48000800E100E001
S31508004C2010B50446FDF7D5FEA269236A9A4203D356
S31508004C30FDF7D5FE002010BDFDF7D1FE0120FAE7ED
S31508004C4030B583B004460D46FDF7C3FE94F825300B
S31508004C501BB1132D18D0112D1CD0E2696369D554E8
S31508004C60636901336361A2690132A261226A9342D0
S31508004C7016D0FDF7B4FE042384F82E30A269236A01
S31508004C809A4210D003B030BD002384F82630FDF7D1
S31508004C90A6FEF7E7012384F82630FDF7A0FEF1E724
S31508004CA000236361E5E713238DF8073001220DF130
S31508004CB007012046FFF70EFE002384F82730E1E7B8
S31508004CC090F82A30BBB970B5044643680021984766
S31508004CD0012384F82A3094F82D60FDF76BFE05460B
S31508004CE00021304600F0D6FC2846FDF767FE022371
S31508004CF084F82E3070BD704700B583B001F0FAF91C
S31508004D006A4601F0A5FA20B9DDE9000103B05DF8AD
S31508004D1004FB4E21014800F0DFF8F5E7FC9701088F
S31508004D2008B5FFF7E9FF08BD012070470420704762
S31508004D3008B501F0D3F808B9002008BD7621024865
S31508004D4000F0CAF8F8E700BFFC97010808B500F0BC
S31508004D5041F80D4A536A43F470235362EFF308830C
S31508004D60043B03E04FF0CD3243F80429074A934247
S31508004D70F8D24FF0402302221A67FFF7D9FF0448FA
S31508004D80FEF746FF08BD00BF00ED00E0000000206A
S31508004D908896010808B5054B5B6E13F4005F00D1D1
S31508004DA008BD0348FEF768FEFAE700BF008000402A
S31508004DB00040004B42DE704700E00430044B984246
S31508004DC003D20368B3F1CD3FF7D0014B181A7047E9
S31508004DD00010002010B5FEF737FE0446FEF72CFE3D
S31508004DE000230F2B0BD8194601229A40224202D1E2
S31508004DF001339BB2F5E7254B33F8113000E0002369
S31508004E00062B0CD040F20722934222D0204A138068
S31508004E101F4B1A8840F201739A4230D010BD4FF0EA
S31508004E2000535A884FF20F039A4209D0184B4FF491
S31508004E30C0621A804FF000534CF23C325A80E7E7C2
S31508004E404FF000531B88B3F5406FEFD2104A13801A
S31508004E50F0E74FF0005251884FF20F029142D5D138
S31508004E604FF00052128840F207218A42CED14FF005
S31508004E7000534CF23C315980054B1A80C8E7054B64
S31508004E80054A92E8030083E80300C7E77498010817
S31508004E905C1D0020541D00209410002010B5044607
S31508004EA0FDF78FFD4FF000531C804FF20F025A801A
S31508004EB0BFF35F8FBFF34F8F0549CA6802F4E062FC
S31508004EC0044B1343CB60BFF34F8F00BFFDE700BF12
S31508004ED000ED00E00400FA0538B504460D46FFF774
S31508004EE059FFFDF76EFD2B46224604490020FFF7C1
S31508004EF0ABFA29462046FFF75DFF38BD60980108E2
S31508004F0070B5754A5068754B5865516A9965744904
S31508004F10D1F80042DC65D1F804121966916A9966DF
S31508004F20D16AD966116B1967516B5967D26B9A6743
S31508004F305B6B13F0040F19D0684BDB6B1D46694A8F
S31508004F4066490A650024CC6493422AD32033664A0C
S31508004F50934226D8AA690B460A64E9695964C0F3DC
S31508004F600800062805D04FF4206421E05B4B9B6BB4
S31508004F70E4E75E4B9A4222D35D4B9A4222D21288CC
S31508004F804DF642639A4202D04FF4206410E0534B28
S31508004F901A68C3F894205A68C3F8982040F2017436
S31508004FA006E04E4B00221A645A644E4D4FF42064B4
S31508004FB04C48FFF701FF494B986400230EE04FF475
S31508004FC02064F5E74FF42064F2E703F11E01434A33
S31508004FD002EB8102002151600133DBB2052BF4D9C3
S31508004FE0414B0022AB4239D953F8041D3F48814250
S31508004FF0F8D33F488142F5D211F0010FF2D00020D4
S3150800500001E00130C0B2052808D800F11E0C334E65
S3150800501006EB8C0CDCF804608E42F2D10628E1D14E
S3150800502042B1013AD2B202F11E062C4800EB8600C4
S315080050304160D7E70522F6E7581C284A03F11F0105
S3150800504002EB810149681E3302EB83035960C3B240
S31508005050042BF1D9214BC3F890506246531E5FFAD0
S3150800506083FC1AB11D4BDD6F0023F1E71B4BB3F828
S315080050705430C3F308030C2B0ED8032B23D3DA1EA4
S31508005080092A20D8DFE802F0052512161F1F1F1F60
S315080050901F1C40F601240BE03B2B14D1154B9B69D2
S315080050A013F0020F04D040F2025401E040F6032444
S315080050B0204670BDB4F5206FFAD140F60424F7E710
S315080050C040F60524F4E7013B5A2BF1D840F60724AD
S315080050D0EEE740F60224EBE700ED00E000100020C2
S315080050E000E100E000000020001000207001000828
S315080050F0BC8E01080040004B00F00CB800F00AB85E
S3150800510000F008B800F006B800F004B800F002B8DD
S3150800511000F000B872B61EF0080F09D01EF0040F92
S315080051200DD0DFF850E0AEE8FF1F6FF002000CE08C
S31508005130DFF840E0AEE8FF1F6FF00E0005E0DFF88D
S3150800514034E0AEE8FF1F6FF006006946EFF3098208
S315080051508EE8070086460848084C854501D3A545CC
S3150800516001D384F30888FFF7CBFE84F30888FFF79A
S3150800517095FE0000001000204000002000100020CE
S3150800518003460088B3F90020002A02DB42001A8091
S3150800519070474840FAE7000083B2074A13801BB9F4
S315080051A013464BF6EF621A80000C044B188010B9B0
S315080051B04FF6CE221A8070472011002022110020B7
S315080051C010B562210548FFF7DBFF044641F20B01E3
S315080051D00348FFF7D5FF604080B210BD20110020BC
S315080051E02211002008B501F061FAB8B10F4B9842B8
S315080051F016D8083B984215D90D4B0344072B07D8F8
S31508005200DFE803F01208060A06060604C12000E0D5
S31508005210C52008BDC320FCE7C420FAE70020F8E74C
S31508005220C520F6E7C520F4E7C220F2E708E000F05B
S31508005230FF1FFF0F08B5844608461146624601F06F
S3150800524029FB08BD08B501F071FB08BD08B501F0DA
S31508005250B7FB08BD08B5844608461146624601F004
S3150800526039FC08BD08B501F0CDFC08BD70B4BFF324
S315080052704F8FBFF36F8F294B5A6A22F480325A62D6
S31508005280D3F8942022F00102C3F89420244B254831
S31508005290834240D020F01F012039204CD4F8C0505A
S315080052A085F0A002D2B26A40C4F8C020B1F1005F0E
S315080052B00CD31D4D2A6841F00101C4F898201B4EF5
S315080052C0C4F89C60C4F8A01001322A60834210D04A
S315080052D01F3323F01F0343F00303134802680F49E3
S315080052E0C1F89820C1F89C30114BC1F8A0300132A2
S315080052F00260BFF34F8FBFF36F8F084B0522C3F8C9
S3150800530094205A6A42F480325A62BFF34F8FBFF331
S315080053106F8F70BC70474FF08041BEE700ED00E02C
S315080053204414002054120020601D002003000020B1
S31508005330E1FFFF3F10B4BFF34F8FBFF36F8F254BCD
S315080053405C6A24F480345C62D3F8944024F0010447
S31508005350C3F894401F2A13D8BFF34F8FBFF36F8F3C
S315080053601C4B0522C3F894205A6A42F480325A62CA
S31508005370BFF34F8FBFF36F8F00205DF8044B704764
S315080053801A46D3F8C04084F4807303F47F4363401D
S31508005390C2F8C03010F01F0F02D020F01F002030D6
S315080053A011F01F0F01D021F01F0120F01F0040F05F
S315080053B00300094C236821F01F0141F00301054A47
S315080053C0C2F89830C2F89C00C2F8A01001332360D6
S315080053D0C2E700BF00ED00E0601D002008B5FFF73A
S315080053E091FE08BD0120012805D8431E034AD35C57
S315080053F00BB90130F7E7C0B2704700BF941D002013
S31508005400F8B506460F46032903D8DFE801F00A0473
S315080054100608002506E0042504E0102502E04025DC
S3150800542000E00125032E05D8DFE806F002070A0D7D
S3150800543045F002050B4B1C6809E045F00805F9E73D
S3150800544045F02005F6E745F08005F3E7246844B102
S3150800545063681A682A42F9D05B6839463046984725
S31508005460F4E7F8BD901D0020134B1B7813B310B555
S31508005470124B1B785BB9002000F0F0FB68B9104BA3
S3150800548001221A700F4B1A780F4B1A7010BD00F0D4
S31508005490BDFB0A4B00221A70EDE700F0EBFB064B4A
S315080054A000221A70074C01212078FFF7A9FF012373
S315080054B02370EBE7704700BF8E1D0020891D002072
S315080054C08D1D0020801D0020A01D002008B50B4B57
S315080054D01B78024660B101210B4408490B7032B1B2
S315080054E0074B1B78012B02D9064B1B7813B108BD55
S315080054F0FF21F1E7FFF7B8FFF9E700BF941D002089
