S00B00004143534E2E733337C4
S3150800000000100020050D00089142000895420008DE
S315080000109545000899420008A1420008010D00080C
S31508000020010D0008010D0008010D0008010D00086A
S31508000030A5420008010D0008010D0008010D000881
S31508000040010D0008010D0008010D0008010D00084A
S31508000050010D0008010D0008010D0008010D00083A
S31508000060010D0008010D0008010D0008010D00082A
S31508000070010D0008010D0008010D0008010D00081A
S31508000080010D0008010D0008D9050008010D00083A
S31508000090010D0008010D0008010D0008010D0008FA
S315080000A0010D0008010D0008E1040008010D000813
S315080000B0010D0008010D0008DD600108BD6A010890
S315080000C0756A0108716A0108A5620108B96A01081A
S315080000D0796A0108916A01087D6A01081D6B0108A1
S315080000E0FD6A0108010D0008010D0008010D000850
S315080000F0010D0008D93B0008010D0008010D000894
S31508000100010D0008010D000891040008010D000802
S31508000110010D0008010D0008010D0008010D000879
S31508000120010D0008010D0008010D0008010D000869
S31508000130010D0008010D0008010D0008010D000859
S31508000140010D0008010D0008010D0008010D000849
S31508000150010D0008010D000813580008B54C0108E8
S31508000160010D0008010D0008E52F0108EB2F010815
S3150800017010B5054C237833B9044B13B1044800E095
S3150800018000BF0123237010BD7C140020000000006E
S3150800019008F4010808B5034B1BB10349034800E0FE
S315080001A000BF08BD000000008014002008F4010804
S315080001B0A3F5803A704700BF174B002B08BF134BB7
S315080001C09D46FFF7F5FF00218B460F461348144A54
S315080001D0121A17F03AFC0E4B002B00D098470D4B1D
S315080001E0002B00D098470020002104000D000D4880
S315080001F0002802D00C4800E000BF17F0C3FB20001F
S31508000200290000F01FFC17F0A9FB00BF000008003A
S315080002100000000000000000001000207C140020F0
S3150800022084390020000000000000000010B582B0EC
S315080002302B492C4805F0A0FE2B4800F0DAFE642076
S3150800024005F094F8032000F039FD40BB274C204602
S315080002500CF07CFC0028FAD1032000F02FFD48BBE7
S3150800026006220021684617F0F0FB0023ADF802309D
S315080002700B23ADF8043040F2FF13ADF800306A46A0
S315080002804FF6FF71042009F05DFD0446032000F0D7
S3150800029015FDD0B9012006F037F802B010BD00F000
S315080002A02DFD00F02CFD00221149124B186803F0B1
S315080002B0FBFCCBE700F022FD00F021FD00220C49F3
S315080002C00C4B186803F0F0FCCAE700F017FD00F0C5
S315080002D016FD22460649074B186803F0E5FCD9E7E0
S315080002E0590600089C140020BCAE01089C1000208A
S315080002F0B8A8010808150020F0B593B000240F949B
S31508000300109411940DF1140C334D0FCDACE80F0079
S315080003100FCDACE80F0095E803008CE803000394C2
S31508000320049403278DF80E7001268DF808608DF861
S3150800033009408DF80A408DF80B4031463B2001F004
S3150800034045FA4FF42C524FF42851204602F068FF24
S315080003508C222146204602F06AFF31462A2001F007
S3150800036035FA8DF817404FF4966308938DF81540C3
S315080003701A4D9DF8413000932346224618492846CF
S3150800038002F0F4FC07908DF810708DF80E708DF859
S31508000390136010238DF809308DF8086005AA0FA997
S315080003A0284602F00BFD02AA03A9284602F06BFCB8
S315080003B005F500530B4A5A62AB6A43F40073AB6205
S315080003C0094B4FF48022C3F88421702183F81A134D
S315080003D05A6013B0F0BD00BFD0A80108004000491C
S315080003E040420F008F330F8000E100E010B505246E
S315080003F0104B5C7001213A2001F0E8F901231A46F6
S315080004002146022002F05EFB4FF40001084602F086
S31508000410C7FB094B4FF40002C3F82424C3F82C2465
S31508000420064B4FF08062C3F88021502183F81A13D7
S315080004301A6010BDA814002000C0034000E100E0C7
S3150800044008B5104B06225A700F4B4FF08062C3F85E
S315080004508021C3F88020BFF34F8FBFF36F8F0B4BFC
S31508000460D3F82C2422F40002C3F82C240022C3F863
S315080004702424C3F82C2401230521022002F022FBA0
S3150800048008BD00BFA814002000E100E000C003403A
S3150800049070B582B00E4D6E460E4C2146304602F0BF
S315080004A037FE96E8030085E803002B684FF496624A
S315080004B002FB03F3084AA2FB03239B09074A53607E
S315080004C004F500544FF40073636202B070BD00BFB8
S315080004D0A014002000400049D34D6210A814002043
S315080004E010B584B0334BD3F820240392039A03F54E
S315080004F00053C3F82024039A2F4B13402BB12D4BDE
S31508000500D3F8A43013F0200F0BD1039A2A4B1340CB
S315080005102BB1284BD3F8A43013F0200F17D004B012
S3150800052010BD264800F065FD254800F062FD254A05
S31508000530D37B0133DBB2D373CC235370224B012216
S315080005401A7000214FF4000002F02AFBE7E7194A67
S31508000550D2F82C3423F40003C2F82C340B214FF4C0
S31508000560F06001F01FFE01213D2001F02FF9012165
S315080005703C2001F02BF9154A6B4607CA83E80700A9
S3150800058001248DF80840184600F05AFE00F0DAFEFD
S315080005903221002000F0C6FE0D4B02229A610D4B57
S315080005A0402283F812234FF480221A60204600F076
S315080005B085FEB4E700C0034020008000A4AE010811
S315080005C0BCAE0108A8140020B8140020F8A8010839
S315080005D00050064000E100E008B5184BD3F8A430F7
S315080005E013F0200F24D1164800F003FD154800F03B
S315080005F000FD154B0022DA7305225A70134B0122AF
S315080006001A704FF40001084602F0CAFA00F09AFE82
S315080006100F4B4FF48022C3F88020BFF34F8FBFF3F0
S315080006206F8F002000F04AFE0A4B02225A6108BD6D
S3150800063000214FF4000002F0B3FAE7E700C00340D8
S31508000640A4AE0108BCAE0108A81400209814002026
S3150800065000E100E00060064008B507F0ADF820B9F3
S31508000660084B1B6800221A7008BD074800F0C1FC39
S3150800067000F03AF9054B1988024B186807F077FA23
S31508000680F2E700BF9C140020BCAE0108AC100020A5
S315080006900120704710B50446034800F0AAFC20461E
S315080006A000F06AF910BD00BFBCAE010808B50348E2
S315080006B000F0A4FC024800F0A1FC08BDA4AE0108A5
S315080006C0BCAE010808B59038062839D8DFE800F02E
S315080006D00426253838252F001E4B18781E4B1988F6
S315080006E01E4B8A221A7006225A7000225A60187205
S315080006F05A81998101219973DA73194B1988194B13
S31508000700186807F034FAFFF7F7FD174800F071FC90
S3150800071000F066F8154800F06CFC08BD134800F0B8
S3150800072072FC114800F06FFC00F040F8F5E70F483E
S3150800073000F069FC0C4800F066FC00F037F8ECE7BE
S315080007400A4800F060FC084800F05DFC00F02EF84E
S31508000750E3E700BF5A30002070110020A8140020DB
S31508000760AC1000209C140020BCAE0108A4AE010801
S3150800077010B50B4B1B781BB90A4B1B7833B910BD48
S3150800078000F072F8064B00221A70F8E7064CE07B78
S3150800079000F08AF80023E373024A1370EFE700BFFC
S315080007A0B814002098140020A814002000B583B0BF
S315080007B006220021684617F048F90023ADF80230F2
S315080007C00B23ADF8043040F2FF13ADF800306A464B
S315080007D04FF6FF71042009F0B5FA03B05DF804FB83
S315080007E000B587B000228DF808201D4B19788DF8C2
S315080007F0091059788DF80A105968090E8DF80B10EA
S315080008005968090C8DF80C105968090A8DF80D10ED
S3150800081059688DF80E10197A8DF80F105989C1F399
S3150800082007218DF8101059898DF811109989C1F38F
S3150800083007218DF8121099898DF81310997B8DF878
S3150800084014105889074B1B78019302AB00930D23AC
S31508000850012180B206F0BAFF07B05DF804FB00BFBD
S31508000860A8140020AE10002000B585B09A238DF894
S315080008700C3000228DF80D208DF80E20084B597883
S315080008808DF80F105889074B1B78019303AB00931B
S315080008900423012180B206F099FF05B05DF804FB38
S315080008A0A8140020AE10002000B585B09A238DF854
S315080008B00C3001218DF80D108DF80E00084B5A7872
S315080008C08DF80F205889074B1B78019303AB0093CB
S315080008D00423002280B206F079FF05B05DF804FB18
S315080008E0A8140020AE10002000B585B001218DF8AF
S315080008F00810104B5A68120E8DF809205A68120C07
S315080009008DF80A205A68120A8DF80B205A688DF855
S315080009100C205A788DF80D205889074B1B780193BF
S3150800092002AB00930623002280B206F04FFF05B003
S315080009305DF804FBA8140020AE10002000B585B0B1
S315080009409C238DF80C308DF80D00094B5A788DF8DC
S315080009500E205889074B1B78019303AB009303239A
S315080009600022012180B206F031FF05B05DF804FBD4
S31508000970A8140020AE10002038B5314B9B7BDBB2A3
S3150800098002799A4254D12E4B5B899BB242889A428D
S3150800099051D1037813F0010F4FD0826813789B2B3F
S315080009A003D0FF2B40D0002443E053783BB1012B02
S315080009B031D0002425462846FFF7C0FF39E0937852
S315080009C0052B04D0062B14D001240025F3E71C4B75
S315080009D0DB7B13B101240025EDE7194B05225A707C
S315080009E05D78EDB2AD1A18BF0125FFF7FFFC0124AB
S315080009F0E1E7134BDB7B13B101240025DBE7104B42
S31508000A0006225A705D78EDB2AD1A18BF0125FFF7B8
S31508000A1017FD0124CFE7002190780AF08FFEB0FA7F
S31508000A2080F56D090124C6E7FFF7DAFE012400E028
S31508000A300024204638BD0024FBE70024F9E700BF60
S31508000A40A814002008B504F003FF04F00BFF03F018
S31508000A503BFFFAE708B5024B1B6803B1984708BD88
S31508000A60F014002008B5024B5B6803B1984708BD2F
S31508000A70F014002008B5024B9B6803B1984708BDDF
S31508000A80F014002008B5024BDB6803B1984708BD8F
S31508000A90F014002008B5024B1B6903B1984708BD3E
S31508000AA0F014002008B5024B5B6903B1984708BDEE
S31508000AB0F01400207047704708B505F011FC08BD12
S31508000AC07047704770477047704770477047704760
S31508000AD07047704770477047704770477047704750
S31508000AE0704770477047704708B500214FF0FF30D0
S31508000AF00AF01EFF08BD00207047002070477047A7
S31508000B0008B50321802001F04DFB03214FF48060D6
S31508000B1001F048FB0A214FF4C06001F043FB0A21AB
S31508000B204FF4F06001F03EFB0A213E2001F03AFB4B
S31508000B300A212D2001F036FB0A21512001F032FB53
S31508000B40002008BD10B5264B596E01F4803103F517
S31508000B5080524FF4803050665C6E4FF00043536607
S31508000B60204B586C00F001004AF6CD321A641A463A
S31508000B70536B13F0010FFBD11B4B01225A60194A24
S31508000B80136B13F0010FFBD0184BD3F8083613F08C
S31508000B90020F03D1144B4FF48022DA6510B1114BC2
S31508000BA0134A1A64002C03DB124B4FF000425A66B4
S31508000BB019B9104B4FF480325A6602F0E3FD02F081
S31508000BC089FD02F0FFFD02F0A9FDFFF799FF02F08B
S31508000BD099FD03F067F900F081FA03F07FFD10BD77
S31508000BE000800040004009400060094000C00740FE
S31508000BF03254FFFF00A0004008B500F06BF900F082
S31508000C0051F808BD08B504F01DFA02F0DFFD03F03F
S31508000C10A9F805F051FC03F0F1FB03F063F808BDF1
S31508000C2008B502F047FD05F087F905F095F905F0D6
S31508000C30E3F908BD7047704708B505F0BBF905F03C
S31508000C40BFF908BD7047012070470120704710B5ED
S31508000C5005F0F6F9044603F013F9002808BF044620
S31508000C60FFF7F1FF002818BF204610BD38B503F07E
S31508000C703BFF044603F006F904280FD00025022896
S31508000C8008BF0124FFF7E1FF042809D0022808BF9E
S31508000C900124002D18BF0024204638BD0125F1E7A0
S31508000CA00024F9E708B5034800F09EF9024800F069
S31508000CB09BF908BDA4AE0108BCAE010802460B4B61
S31508000CC01B788BB10A4B1B78834234BF0020012066
S31508000CD0084B1B783BB1084B1B7843FA02F212F01B
S31508000CE0010F08BF002070470120F1E7C710002058
S31508000CF0C81000200C150020C91000207047704746
S31508000D00FEE7000008B500F019F8094A094B9A42AF
S31508000D100CD2581E801A20F003000430064B1844E3
S31508000D2053F8041B42F8041B8342F9D1FFF744FA2F
S31508000D309C1000207C14002010F40108044B054A7E
S31508000D409A60D3F8882042F47002C3F88820704766
S31508000D5000ED00E000000008014B1868704700BF6E
S31508000D60D0100020094B1B6F03F00703022B04D099
S31508000D70032B05D0012B06D0FEE7054B18687047F4
S31508000D80044B186870470448704700BF008000404D
S31508000D90D0100020D4100020002D310108B5FFF72F
S31508000DA0E1FF054B1B6FC3F303330133B0FBF3F0CD
S31508000DB0024B186008BD00BF00800040CC10002020
S31508000DC00048704700B4C404014B1868704700BF58
S31508000DD0D410002008B5064B1860064B1B6F03F0AD
S31508000DE00703032B00D008BDFFF7D8FFFBE700BFBA
S31508000DF0D41000200080004000207047004870474B
S31508000E00002D31014FF094439868C0F304400C2834
S31508000E1024D8DFE800F009232323232307191B23FB
S31508000E201D1F2100104870474FF094439B6803F03C
S31508000E304073B3F1807F13D0B3F1007F12D00B4A11
S31508000E40002B08BF10467047094870470948704785
S31508000E500948704709487047094870470020704795
S31508000E600848704708487047405DC60000093D00BD
S31508000E700024F400C0EA210180BA8C010048E80188
S31508000E80005A620280841E0040420F004FF4004060
S31508000E9070474FF47A707047014B1868704700BF67
S31508000EA0D810002000230360704703680B600160B8
S31508000EB0704700000346054A10680344044A9342F3
S31508000EC09ABF024A13604FF0FF307047DC100020CB
S31508000ED00000012008B501213A2000F077FC012323
S31508000EE004220321002001F0EDFD002001F0E8FDB9
S31508000EF01A4B0122C3F844244FF4607000F084FCB6
S31508000F00174BD3F8F02042F00102C3F8F020D3F8CB
S31508000F10FC2042F08072C3F8FC20A3F55D43114A19
S31508000F201A6000F5D52000F2FC40C0080E4BA3FB62
S31508000F300030800A01380D4B18610222C3F8F020F0
S31508000F404FF48072C3F804234FF06043084AC3F88D
S31508000F50B02F084AC3F8802E002008BD00D00340F1
S31508000F6000ED00E0FF03004017916502000004E071
S31508000F7055CEACC5090001004FF06042D2F8001EFC
S31508000F80012383400B43C2F8003E0020704700004F
S31508000F904FF06043D3F8803E13F0010F01D11120C2
S31508000FA0704710B44FF0010C0CFA00FC0D4C4FF0D2
S31508000FB06042D4F8FC3043F08073C4F8FC30D2F8B1
S31508000FC0003E43EA0C03C2F8003E52F82030002BDC
S31508000FD0EFD04FF0604303F8201000205DF8044B73
S31508000FE0704700BF00ED00E008B543680068984701
S31508000FF008BD08B583680068984708BD08B5C36882
S315080010000068984708BD08B503690068984708BD91
S3150800101010B5044601213A2000F0D8FBA378B3FAAC
S3150800102083F35B0904226178207801F04BFD0020E8
S3150800103010BD000083784BB90378427801219140AE
S3150800104003EB43031B01064AD150704703784278E5
S315080010500121914003EB43031B01024AD15070471B
S3150800106040E0034040D0034083784BB90378427888
S315080010700121914003EB43031B01064AD1507047F7
S31508001080037842780121914003EB43031B01024A8E
S31508001090D150704740D0034040E00340037842787F
S315080010A00121914003EB43031B01014AD1507047CC
S315080010B040F003400246037803EB43031B01103359
S315080010C005495B584078C34003F0010093780BB993
S315080010D080F00100704700BF30C0034008B5034BDD
S315080010E01968034B18680DF079FB08BDE410002059
S315080010F0E01000207047000010B5044619F0CCFB3C
S31508001100B0F1FF3F1BD0E0B90F4B9B680A3303F0E1
S315080011101F03012202FA03F39908032B0BD9201F98
S31508001120002350F8042FB2F1FF3F06D1013399424C
S31508001130F7D8002006E0002004E0044802E004484E
S3150800114000E0044810BD00BF0080E00F0EE000F08C
S3150800115021E000F024E000F008B5034608461943EC
S3150800116011F0030F05D09200194616F047FC00202F
S3150800117008BD002AFBD0011F53F8040B41F8040FE1
S31508001180013AF9D1F3E7000010B582B0044601A888
S3150800119002F0AEF89DF8063023800122E2700020A6
S315080011A0A070054B9B680A3303F01F0302FA03F38A
S315080011B0636002B010BD00BF0080E00F08B501F003
S315080011C0C1FF08BD08B501F0ADFF002008BD00004D
S315080011D070B505460E469400224619F065FBB0F137
S315080011E0FF3F0AD058B922463146284616F0F6FB84
S315080011F00028044808BF002002E0034800E003482E
S3150800120070BD00BF10E000F021E000F024E000F01F
S3150800121008B501F081FA014B186008BDA01B002033
S3150800122008B5024B186801F07BFA08BDA01B002020
S3150800123008B50A460139014403F05AF908BD000009
S315080012404268B2FA82F2C2F11F011A4B5B682BB1EF
S31508001250184B5A6812B19A6A002AFAD1164B01221B
S315080012605A60144A536813F00203FBD1027A002A23
S315080012700CBF9C464FF0020C427842EA011242EA41
S315080012800C020C498A60427A002A18BF0223827A25
S3150800129013434B6201F5805201235360037843B12F
S315080012A00B465A6812B19A6A002AFAD1014B0122F2
S315080012B0DA6070470040064000600640164B5B68DF
S315080012C043B930B1144B5B683BB9144B01225A60E1
S315080012D070477047104B5B682BB10F4B5A6812B1B9
S315080012E09A6A002AFAD10028EFD10B4B5A6812B134
S315080012F09A6A002AFAD1084B0222DA605A6812B1B1
S315080013009A6A002AFAD1064B01225A60024A5368A1
S3150800131013F0020FFBD1704700400640005006400C
S3150800132000600640064A936A13F0100FFBD1044B7F
S3150800133019631A46936A13F0100FFBD1704700BF62
S3150800134000400640094B5A6812B19A6A002AFAD137
S31508001350064B0222DA6000221A625A6812B19A6AA9
S31508001360002AFAD1014B0122DA6070470040064094
S3150800137038B505460C46164BD3F8203103F007035B
S31508001380013B052B20D8DFE803F0030B130F171BCF
S31508001390FFF7E2FC052305B1286004B1237038BDC8
S315080013A0FFF712FD0323F6E7FFF72CFD0723F2E705
S315080013B0FFF724FD0223EEE7FFF7CEFC0623EAE754
S315080013C0FFF702FD0423E6E700231846E3E700BF1C
S315080013D00080004038B505460C46114BD3F8283135
S315080013E003F00703013B032B17D8DFE803F0020ECF
S315080013F0120AFFF7B1FC052305B1286004B1237072
S3150800140038BDFFF7FFFC0723F6E7FFF7DDFC0323EC
S31508001410F2E7FFF7F3FC0223EEE700231846EBE7B3
S315080014200080004030B583B005460C460023019382
S31508001430114BD3F8803103F00303022B16D0032B8C
S315080014400FD0012B07D000230DB1019A2A6004B1F1
S31508001450237003B030BD002101A8FFF789FF0F23D1
S31508001460F2E7FFF7CFFC01900723EDE7FFF7C6FC8D
S3150800147001900223E8E700BF0080004030B583B042
S3150800148005460C4600230193144BD3F8203203F08B
S315080014900703013B032B1ED8DFE803F0020E1318DF
S315080014A0002101A8FFF796FF11230DB1019A2A60C2
S315080014B004B1237003B030BDFFF7A4FC01900723E5
S315080014C0F3E7FFF7E3FC01900A23EEE7FFF7E4FCF6
S315080014D001900923E9E70023E7E700BF0080004001
S315080014E038B505460C460F4BD3F8403103F00303D5
S315080014F0022B0ED0032B10D0012B06D00023184642
S3150800150005B1286004B1237038BDFFF7BFFC0A2374
S31508001510F6E7FFF7C1FC0923F2E7FFF7BAFC0B234E
S31508001520EEE700BF0080004030B583B005460C46A4
S3150800153000230193144BD3F8603203F00703013BF1
S31508001540032B1FD8DFE803F0020E1914002101A8A7
S31508001550FFF70EFF0F230DB1019A2A6004B123701D
S3150800156003B030BD002101A8FFF7BAFF1023F2E748
S31508001570FFF748FC01900723EDE7FFF73FFC0190D2
S315080015800223E8E70023E6E70080004038B5054671
S315080015900C46124BD3F8003203F00703013B032B2A
S315080015A018D8DFE803F0020A0E12FFF76FFC0A23C9
S315080015B005B1286004B1237038BDFFF76DFC092317
S315080015C0F6E7FFF766FC0B23F2E7FFF7E7FB800A6F
S315080015D00E23EDE700231846EAE700BF0080004027
S315080015E038B505460C46124BD3F8083203F0070304
S315080015F0013B032B18D8DFE803F0020A0E12FFF7A7
S3150800160045FC0A2305B1286004B1237038BDFFF7ED
S3150800161043FC0923F6E7FFF73CFC0B23F2E7FFF749
S31508001620BDFB800A0E23EDE700231846EAE700BF54
S315080016300080004038B505460C460F4BD3F84032BB
S3150800164003F00303022B0ED0032B10D0012B06D078
S315080016500023184605B1286004B1237038BDFFF78A
S3150800166015FC0A23F6E7FFF717FC0923F2E7FFF74D
S3150800167010FC0B23EEE700BF0080004038B5054696
S315080016800C460F4BD3F8503203F00303022B12D04B
S31508001690032B08D0012B0AD00023184605B1286071
S315080016A004B1237038BDFFF7F4FB0B23F6E7FFF709
S315080016B0EDFB0A23F2E7FFF7EFFB0923EEE700BF8E
S315080016C00080004038B505460C460F4BD3F860310C
S315080016D003F00303022B0ED0032B10D0012B06D0E8
S315080016E00023184605B1286004B1237038BDFFF7FA
S315080016F0CDFB0A23F6E7FFF7CFFB0923F2E7FFF74F
S31508001700C8FB0B23EEE700BF00800040B0F5207F42
S3150800171020D00ED8B0F5007F16D020D820B1B0F56D
S31508001720C07F18BF00201BD10E4B186FC0F30330C3
S3150800173016E0B0F5607F05D10A4BD3F88000C0F3F8
S3150800174001100DE000200BE0064BD3F89000C0F323
S31508001750046005E0034B186FC0F3802000E000200A
S31508001760013070470080004038B504460D46104BDE
S315080017704FF480329A660020FFF7C8FF0D4BDA69EE
S3150800178002F4803241F67131D9635B6823F4401361
S3150800179004FB00F00849884203D9002DD8BF43F45A
S315080017A0801304494B600AB10022CA6338BD00BFE2
S315080017B00090004000000340005A620208B5FFF797
S315080017C0FFFA0021FFF7D0FF08BD0000430906D045
S315080017D0012B0FD0022B0A4B18BF002300E0002371
S315080017E000F01F0041B103F58053012202FA00F010
S315080017F018607047034BF3E703F50053F5E700BF9E
S31508001800688000406480004010B584B000230393CC
S31508001810B0F5807F00F20781B0F5807F00F27E8107
S31508001820DFE810F055017C017C017C017C017C011C
S315080018307C017C017C017C017C017C017C017C01B2
S315080018407C017C017C017C017C017C017C017C01A2
S315080018507C017C017C017C017C017C017C017C0192
S315080018607C017C0155018E0155018E01A401A4015C
S31508001870A401A401A4018E01A9014601C2012C01FB
S3150800188046018E018E018E017C017C017C017C0162
S315080018907C017C017C01C2018E018E018E01E8016A
S315080018A0C7018E017C017C017C017C017C017C01E5
S315080018B07C017C017C017C017C017C01CC01A401BA
S315080018C05501550155017601460146016B01D101C5
S315080018D05F01850185017C017C017C017C017C011D
S315080018E07C017C017C017C017C017C017C017C0102
S315080018F07C017C017C017C017C017C017C017C01F2
S315080019007C017C017C017C017C017C017C017C01E1
S315080019107C017C017C017C017C017C017C017C01D1
S315080019207C017C018A017C017C017C017C017C01B3
S315080019307C017C017C017C017C017C017C017C01B1
S315080019407C017C017C017C017C017C017C017C01A1
S315080019507C017C017C017C017C017C017C017C0191
S315080019607C017C017C017C017C017C017C017C0181
S315080019707C017C017C017C017C017C017C017C0171
S315080019807C017C017C017C017C017C017C017C0161
S315080019907C017C017C017C017C017C017C017C0151
S315080019A07C017C017C017C017C017C017C017C0141
S315080019B07C017C017C017C017C017C017C017C0131
S315080019C07C017C017C017C017C017C017C017C0121
S315080019D07C017C017C017C017C017C017C017C0111
S315080019E07C017C017C017C017C017C017C017C0101
S315080019F07C017C017C017C017C017C017C017C01F1
S31508001A007C017C017C017C017C017C017C017C01E0
S31508001A107C017C017C017C017C017C017C017C01D0
S31508001A207C017C01AE01B0F5E06F00F0C28015D9EB
S31508001A30B0F5286F00F0C78058D9B0F5306F6CD173
S31508001A406F4BD3F8903203F00303012B00F0CC80E0
S31508001A50022B40F0CC80FFF7D5F9C9E0B0F5607FDE
S31508001A6079D010D9B0F5B06F00F0858033D9B0F5CC
S31508001A70C06F00F09980B0F5D06F4FD1002103A850
S31508001A80FFF784FD4AE0B0F5007F0AD1FFF76AF94F
S31508001A9004464FF40070FFF739FEB4FBF0F40394E4
S31508001AA03CE011D9B0F5207F4AD0B0F5407F35D15A
S31508001AB0FFF774F904464FF42070FFF727FEB4FBCE
S31508001AC0F0F46408039429E0B0F5C07F26D1FFF747
S31508001AD065F9039022E0B0F5806F47D0B0F5A06FA6
S31508001AE01CD1002103A8FFF7C9FC17E0B0F5186F51
S31508001AF064D007D9B0F5206F10D1002103A8FFF7ED
S31508001B0013FD0BE0B0F5F06F74D0B0F5106F05D18A
S31508001B10002103A8FFF764FD00E002D2039804B091
S31508001B2010BDB0F5386F3FD0B0F5406FF6D1002143
S31508001B3003A8FFF74FFCF1E7FFF714F90390EDE769
S31508001B40FFF72CF904464FF42070FFF7DFFDB4FBCE
S31508001B50F0F40394E2E7FFF705F904464FF46070E2
S31508001B60FFF7D4FDB4FBF0F40394D7E7002103A8EC
S31508001B70FFF7FEFBD2E7002103A8FFF753FCCDE7EA
S31508001B80002302934FF0E0231B6913F0040F05D0DE
S31508001B90FFF704F90290029B0393BFE70DF10701D3
S31508001BA002A8FFF79DFCF6E7002103A8FFF798FCBB
S31508001BB0B4E7002103A8FFF73DFDAFE7002103A81E
S31508001BC0FFF75CFDAAE7002302930D4BD3F87032AA
S31508001BD003F00303012B02D0029B03939EE7002127
S31508001BE002A8FFF77DFCF7E7FFF708F900E00020F9
S31508001BF0039093E7002103A8FFF764FD8EE700BF73
S31508001C000080004008B58020FFF7FEFD034B984290
S31508001C1003D8034B4FF480321A6708BD005A620294
S31508001C2000A0004000B585B000238DF80F30B0F550
S31508001C30807F00F0FD801ED9B0F5086F00F0168190
S31508001C4040F28280B0F5286F00F0428140F2AD8004
S31508001C50B0F5306F40F0BF809C4BD3F8903203F05C
S31508001C600303012B00F04A81022B40F04B81FFF75A
S31508001C70C9F8072347E1A0F124039BB25C2B00F2C5
S31508001C80AB8024385C2800F2A780DFE810F07F00DC
S31508001C907F007F007F007F00A5007600A500E90091
S31508001CA08800A500A500A500A500A500A500A5001B
S31508001CB0A500A500A500A500E900A500A500A500AA
S31508001CC069001201A500A500A500A500A500A500AC
S31508001CD0A500A500A500A500A500A500A50018015A
S31508001CE07F00A500A500A5009E00A500A5009500FB
S31508001CF021010C01B000B000A500A500A500A500B3
S31508001D00A500A500A500A500A500A500A500A5009D
S31508001D10A500A500A500A500A500A500A500A5008D
S31508001D20A500A500A500A500A500A500A500A5007D
S31508001D30A500A500A500A500A500A500A500A5006D
S31508001D40A500A500A500B600B0F5C06F00F0888014
S31508001D500CD9B0F5E06F00F0AC80B0F5F06F1BD190
S31508001D600DF10F010020FFF7ADFC35E0B0F5A06FCF
S31508001D7000F09980B0F5B06F05D10DF10F01002084
S31508001D80FFF750FB28E0B0F5806F25D10DF10F0164
S31508001D900020FFF7EDFA1FE0B0F5D06F1CD10DF16A
S31508001DA00F010020FFF7F2FB16E0B0F5186F00F000
S31508001DB08680B0F5206F05D10DF10F010020FFF7E1
S31508001DC0B3FB09E0B0F5106F06D10DF10F01002045
S31508001DD0FFF706FC00E004D29DF80F0005B05DF899
S31508001DE004FBB0F5386F3BD0B0F5406FF4D10DF178
S31508001DF00F010020FFF7EEFAEEE7344B1B6F03F0F6
S31508001E000703013B032BE7D8DFE803F00E02060AB7
S31508001E1005238DF80F30DFE703238DF80F30DBE756
S31508001E2008238DF80F30D7E702238DF80F30D3E754
S31508001E30002302934FF0E0231B6913F0040F09D027
S31508001E40FEF7ACFF0C238DF807309DF807308DF8A8
S31508001E500F30C1E70DF1070102A8FFF741FBF4E7D0
S31508001E600DF10F010020FFF73BFBB5E7174BD3F841
S31508001E70003103F00303032B03D8DFE803F0100453
S31508001E80080C00230CE0FEF79FFF032308E0FFF78A
S31508001E9003F8092304E0FEF7AFFF082300E0012357
S31508001EA08DF80F3098E70DF10F010020FFF7E6FADD
S31508001EB092E70DF10F010020FFF7BCFB8CE70DF14F
S31508001EC00F010020FFF7DAFB86E700BF008000401D
S31508001ED0002302930D4BD3F8703203F00303012B52
S31508001EE006D0022B14BF002314238DF80F3073E796
S31508001EF0002102A8FFF7F4FA1023F6E7FEF77EFFA3
S31508001F00022300E000238DF80F3065E700800040CB
S31508001F1070B505468020FFF785FE032800F0A180EE
S31508001F20584B4FF480125A66574B45F60E02C3F8C3
S31508001F30802003F580524FF0A061916203F50053AB
S31508001F404FF480329A62504A946D14F48034FBD16F
S31508001F502A786B781B0543EA0263AA791343EA7861
S31508001F6043EA02432A7943EA02336A7943EA821347
S31508001F70454E3361B36903F00043EA7A1343EA79BD
S31508001F8043EA82632A7A43EA02636A7A43EA0243A5
S31508001F90AA7A43EA0223B36100F0BEFBB36B23F4CB
S31508001FA0406343F40063B36300F0BAFB326A22F07D
S31508001FB00F026B7B002B18BF0824297B134343EAC7
S31508001FC08103234333626B7B002B31D13146B06AE0
S31508001FD0AA7BAB7CDB0043EA42132C4A024013433C
S31508001FE0EA7B43EA021343F48033B362284A8B6DD3
S31508001FF032EA0303FBD1244A02F580514FF080737D
S315080020008B621369A87823F4700343EA00531361BB
S315080020104FF000438B612B7C1BB91E4B4FF080722F
S315080020209A626B7CBBB91B4B4FF480329A6212E002
S31508002030022B17D01449886AAA7B2B7C1B0643EA15
S315080020404213124A02401343AA7C43EAC2036A7C3B
S3150800205043EA02438B62EB7C1BB10B4B0E4AC3F877
S31508002060802070BD084C00232361A36100F054FB57
S31508002070636B23F47F4343F40853636300F050FB18
S31508002080D8E700BF009000400040004AC7FFFEFEA8
S31508002090030001000060004AF1A7FFFF014B93F916
S315080020A0000070470411002008B50029CCBF0121A3
S315080020B00021FFF759FB08BD10B50C46B0F5207F87
S315080020C04AD030D8B0F5007F3BD02BD810B1B0F548
S315080020D0C07F27D1FFF772FB00F04AF8234A02F5C2
S315080020E080534FF480311967136F611E23F47043D0
S315080020F043EA01311167FEF751FE4FF04022D2F84C
S31508002100843013F0100FFAD14FF04023D3F884101F
S31508002110C1F38111C1F10201FFF7C6FF00F030F8E3
S31508002120FFF770FD10BDB0F5607FFBD10F4AD2F8FE
S315080021308030013923F0300343EA0111C2F88010D8
S31508002140F0E70A4AD2F89030013923F0F85343EA07
S315080021500161C2F89010E5E7044A136F013923F4C8
S31508002160806343EA81211167DCE700BF00800040F5
S3150800217008B502214FF42070FFF79EFF08BD000046
S3150800218008B54FF4C070FFF73FFB054988428CBF7E
S31508002190022101214FF42070FFF78EFF08BD00BF12
S315080021A080F0FA0270B50C46B0F5807F00F0948195
S315080021B01FD9B0F5086F00F00D8240F28380B0F5A4
S315080021C0286F00F0938240F2D180B0F5306F40F06E
S315080021D0F880022900F09B82072914BF00210221FA
S315080021E0884AD2F8903223F003030B43C2F89032A0
S315080021F0E8E0A0F124039BB25C2B00F2E3802438CC
S315080022005C2800F2DF80DFE810F099009900990059
S3150800221099009900DD008300DD00A801A500DD0016
S31508002220DD00DD00DD00DD00DD00DD00DD00DD00B8
S31508002230DD00DD00A801DD00DD00DD006900290202
S31508002240DD00DD00DD00DD00DD00DD00DD00DD0098
S31508002250DD00DD00DD00DD00DD003E029900DD0069
S31508002260DD00DD00D000DD00DD00B8007102FA01F6
S31508002270E500E500DD00DD00DD00DD00DD00DD0058
S31508002280DD00DD00DD00DD00DD00DD00DD00DD0058
S31508002290DD00DD00DD00DD00DD00DD00DD00DD0048
S315080022A0DD00DD00DD00DD00DD00DD00DD00DD0038
S315080022B0DD00DD00DD00DD00DD00DD00DD00DD0028
S315080022C0DD00F100B0F5C06F00F0478119D9B0F50F
S315080022D0E06F00F0C381B0F5F06F38D10A2C00F03A
S315080022E051810B2C00F05081092C14BF00210221CA
S315080022F0444AD2F8603123F003030B43C2F8603135
S3150800230060E0B0F5A06F00F07A81B0F5B06F12D139
S31508002310072C00F0C7800F2C00F0C680022C14BFD3
S3150800232000210221374AD2F8803123F003030B43F8
S31508002330C2F8803146E0B0F5806F43D1023C052CE7
S3150800234000F2C880DFE804F0C0BCC4B2C2BEB0F573
S31508002350D06F37D1093C052C00F22081DFE814F054
S31508002360180116011A011E011E011C01B0F5186F8D
S3150800237000F08981B0F5206F14D1023C0E2C00F2D2
S31508002380AB81DFE814F09501A901A901A901A9010A
S315080023909701A901A901A901A901A901A901A901F1
S315080023A099019B01B0F5106F0CD1093C052C00F280
S315080023B00781DFE814F0FF00FD00010105010501B2
S315080023C0030100D270BDB0F5386F00F0C680B0F5D5
S315080023D0406FF7D1023C052C00F23681DFE814F095
S315080023E03001320134012C0134012E018B1E062BDB
S315080023F01FD8DFE803F01B091E041E1E180000255F
S31508002400022618E000800040AD4B4FF480125A6651
S31508002410AC4B9D6AC5F3006503F580534FF48032D3
S315080024209A62032607E00025042604E00025012613
S3150800243001E000252E460121022000F0D7F9FFF71A
S31508002440BDF9FFF795FEA04A02F580534FF4803197
S315080024501967136F23F0070333431367FEF79EFCD0
S315080024604FF04022D2F8843013F0100FFAD14FF013
S315080024704023D3F88410C1F38111C1F10201FFF79B
S3150800248013FE0121002000F011FAFFF779FEFFF78D
S31508002490B9FB002D96D1032C94D18C4B4FF4803286
S315080024A09A628FE703213DE701213BE70121864A2E
S315080024B0D2F8203123F007030B43C2F8203181E715
S315080024C00221F4E70421F2E70321F0E70521EEE70C
S315080024D00621ECE70021EAE70C2924D01FD8A1F150
S315080024E00904E4B2022C3FF66DAF774B596E03F53B
S315080024F080534FF480325A66754A536A43F0010393
S31508002500536211F4803F03D1724B4FF480325A66FE
S315080025104FF0E022136923F00403136152E71029F0
S315080025207FF450AFE1E7684B596E03F580534FF4DB
S3150800253080325A66664A536A23F00103536211F4DD
S31508002540803F03D1634B4FF480325A664FF0E02246
S31508002550136943F00403136134E70A2C0ED00B2CDD
S315080025600ED0092C14BF00210221574AD2F8403157
S3150800257023F003030B43C2F8403123E70121F4E7B4
S315080025800321F2E70121B3E60321B1E6012106E0C2
S31508002590022104E0032102E0042100E000214A4A66
S315080025A0D2F8003223F007030B43C2F8003209E7DA
S315080025B0012106E0022104E0032102E0042100E0F3
S315080025C00021414AD2F8083223F007030B43C2F828
S315080025D00832F7E608290ED009290ED0032914BFB8
S315080025E000240124384AD2F8003123F003031C439F
S315080025F0C2F80041E6E60324F4E70224F2E7073CC2
S315080026000A2C0FD8DFE804F0080E0C0A0E0E0E0E80
S315080026100E0E0600012106E0022104E0032102E075
S31508002620042100E00021284AD2F8203223F00703CB
S315080026300B43C2F82032C5E6012106E0042104E076
S31508002640032102E0022100E000211F4AD2F82831C6
S3150800265023F007030B43C2F82831B3E60A2C0ED041
S315080026600B2C0ED0092C14BF00210221164AD2F8D1
S31508002670403223F003030B43C2F84032A2E601219D
S31508002680F4E70321F2E70A2C0ED00B2C0ED0092C06
S3150800269014BF002102210C4AD2F8503223F003035A
S315080026A00B43C2F850328DE60121F4E70321F2E725
S315080026B0032112E0042110E001210EE002210CE0C2
S315080026C0009000400040004A008000400060004A38
S315080026D000C0074000A0004000210E4AD2F8603230
S315080026E023F007030B43C2F860326BE6102C0CD0BC
S315080026F0142C14BF00210221064AD2F8703223F0A6
S3150800270003030B43C2F870325CE60121F4E70121AA
S3150800271066E500BF00800040EFF3108072B6704790
S3150800272000B962B67047302383F3118870470023D7
S3150800273083F311887047EFF31180302383F31188F0
S31508002740704780F311887047EFF3108313F0010F79
S3150800275006D1EFF311802F2894BF0020012070477F
S31508002760012070474FF04022536F417823F440739D
S3150800277043EA0123536770477047704710B504460C
S31508002780094A136943F00403136102F0A7FAFFF735
S31508002790F3FF30BFFFF7F1FF02F0B6FA04B110BD40
S315080027A0FEF7FCFAFBE700BF00ED00E010B50446B3
S315080027B0074A136943F00403136102F08FFA30BF26
S315080027C002F0A2FA04B110BDFEF7E8FAFBE700BF73
S315080027D000ED00E0704770474FF04022D36E23F0BB
S315080027E0300301790B43D36670477047F8B5044642
S315080027F04FF04022D2F8843013F0100FFAD14FF080
S315080028004023D3F88430C3F381139C422CD0FEF7BF
S31508002810A9FA0646012C28D0FFF77EFF05464FF099
S31508002820402707F500534FF000725A662046FFF717
S31508002830DCFF621E4FF4806393403B677B6E13F0A8
S31508002840007F0CD14FF04023D3F8842012F0200FDC
S3150800285005D1D3F884205A6E12F0007FF4D02846AA
S31508002860FFF75EFF022C1BD0F8BD0121FFF71CFC09
S31508002870FFF752FF05464FF0402707F500534FF084
S3150800288000725A660120FFF7B0FF4FF480633B677A
S315080028907B6E13F0007FD5D02846FFF741FFE3E7AC
S315080028A000213046FFF700FCDEE7000010B50C46B5
S315080028B0034650B1094A127812B1094A934208D917
S315080028C021460220FFF792FF10BDFEF74BFA03469A
S315080028D0F0E721460120FFF789FFF5E7541C0020A1
S315080028E0005A620208B50278034B1A7001210020CB
S315080028F0FFF7DCFF08BD00BF541C00201B4B4FF040
S3150800290000425A6603F50B23596C01F001014AF699
S31508002910CD321A64B8B11A46136B13F0080FFBD1FF
S31508002920134B03F500522020906203F580530122D1
S315080029305A600F4A936A13F0200FFBD011B10C4B63
S315080029400C4A1A6470470A4A536B13F0010FFBD1FD
S31508002950074B5B6813F0010FF0D0074B01225A6052
S31508002960034A136B13F0010FFBD0E7E70090004012
S31508002970004009403254FFFF0060094010B51A4B69
S315080029804FF000425A6603F50B235C6C04F0010411
S315080029904AF6CD321A6443785B0043F001034FF0E0
S315080029A04022D36302F51022536B13F00B0FFBD1B1
S315080029B00E4A5368817823F4F87343EA0113536087
S315080029C0C178437943EA012393600179837943EA1D
S315080029D0012313610078FFF791FF14B1034B044AF2
S315080029E01A64012010BD00BF009000400040094055
S315080029F03254FFFF10B40F2828BF0F20134B5C6E0C
S31508002A0003F580534FF000425A6603F50B23596CC1
S31508002A1001F001014AF6CD321A641A46536B13F0D7
S31508002A20800FFBD10A4A136A23F00F03184310627A
S31508002A3011B11346074A1A64002C03DB064B4FF004
S31508002A4000425A665DF8044B704700BF008000409C
S31508002A50004009403254FFFF00A0004010B4144B58
S31508002A605C6E03F580534FF000425A6603F50B235C
S31508002A70596C01F001014AF6CD321A641A46536BB5
S31508002A8013F0800FFBD10B4A136A23F4F85343EA79
S31508002A900020106211B11346074A1A64002C03DBA2
S31508002AA0064B4FF000425A665DF8044B704700BF6C
S31508002AB000800040004009403254FFFF00A000405B
S31508002AC0704700002DE9F84F04460D461E4690460D
S31508002AD03AB183B301228A4000EB400109012D4B2C
S31508002AE05A50072D2FD804EB44073F010437DFF867
S31508002AF0AC904FEA850B08FA0BFAFFF70DFE57F86C
S31508002B0009200F2303FA0BF38AEA020A03EA0A03E7
S31508002B10534047F80930FFF703FEB8F1000F08D114
S31508002B2076B3012101FA05F504EB44042401194B97
S31508002B301D51BDE8F88F01228A4000EB40010901CA
S31508002B40154B5A50CDE704EB44073F010C37DFF825
S31508002B504C90A5F108034FEA830B08FA0BFAFFF726
S31508002B60DBFD57F809200F2303FA0BF38AEA020A5A
S31508002B7003EA0A03534047F80930FFF7D1FDCCE7CB
S31508002B80012101FA05F504EB44042401024B1D5109
S31508002B90CFE700BF40D0034040E0034030C00340C9
S31508002BA0124BD3F8302422EA0002C3F83024D3F8B3
S31508002BB0302401401143C3F83014D3F82C240243BF
S31508002BC0C3F82C244FF04023DB6E03F03003202B90
S31508002BD007D04FF04022D36E23F0300343F01003A2
S31508002BE0D366034BC3F82004704700BF00C00340F8
S31508002BF000E00340436913F0807FFBD100F50050E5
S31508002C0001234360024A536813F0020FFBD1704751
S31508002C100040004910B4022A08D90023033AD2B268
S31508002C20022A0CD821F0FF04CBB208E021F07F4439
S31508002C3011F4000318BF4FF07F431C430B0E0460CA
S31508002C4003715DF8044B704710B5446800F580536E
S31508002C5001225A604A780B7843EA02238A781204DA
S31508002C6002F480321343CA78002A14BF4FF40032A4
S31508002C7000221343C0F8983014F0010F00D010BD9D
S31508002C80FFF7B8FFFBE770B505460C461646FFF793
S31508002C90B1FF237803F007026378002B14BF0821DD
S31508002CA00021A3781B0103F0700313430B43E2785A
S31508002CB0002A14BF4FF48072002213432B67EA6A76
S31508002CC023791B0203F4E0636179090301F4805157
S31508002CD00B4322F48B3222F480721343A279002A22
S31508002CE014BF4FF4803200221343EB623146284664
S31508002CF0FFF7AAFF05F5805301225A60E37903B16D
S31508002D00EA6070BD08B5084669B100F5742000F29E
S31508002D103F20084BA3FB0030800C01387F2828BFD2
S31508002D207F20C0B208BD2A20FEF76EFD012838BFF5
S31508002D300120EAE783DE1B4310B50B4C8C4228BF03
S31508002D400C46104662B1631E0344B3FBF4F0A3427B
S31508002D5028BF00F1FF30032828BF0320C0B210BDEA
S31508002D602A20FEF751FDEEE7005A620210B5114817
S31508002D70114C002B08BF04468C4228BF0C4610464F
S31508002D809AB19DF808300133B0FBF3F0631E034493
S31508002D90B3FBF4F0A34228BF00F1FF3040F2FF3343
S31508002DA0984228BF1846C0B210BD2A20FEF72CFD4F
S31508002DB0E7E700BF80969800404B4C002DE9F04F9E
S31508002DC02DED048B85B080460D4614460022C44975
S31508002DD0FFF7B2FF95F805A0824538BF82465FFA2D
S31508002DE08AFA4046FFF706FF287978B3EB781B0185
S31508002DF003F030034FEA0A7202F0E042134300047C
S31508002E0000F4FE0003432A780AB143F002036A7805
S31508002E100AB143F00403AA780AB143F00803C8F8D4
S31508002E200830EB88C8F810302A896B8943EA0243D0
S31508002E30C8F820300026DFF8D4B29FEDAA9ADFED55
S31508002E40AA8A9FEDAA8ADFEDAA9ABDE0002140462C
S31508002E50FFF758FFCAE7A74BD3F88031B9F1000F3F
S31508002E6040F0AB80330103F1924303F580439B6C3A
S31508002E70C3F302335A1E012A23D9032B00F0B1806B
S31508002E80042B00F0BA809B4BD3F88421120CD3F89C
S31508002E908C311B1403EB430307EE903AB8EEE77A3E
S31508002EA015E0944BD3F88031D8E7924BD3F88431A8
S31508002EB0D4E7904BD3F88431D0E78E4BD3F88031E2
S31508002EC0CCE78C4BD3F8802192B29FED8B7A22F413
S31508002ED0C0439B0412F4004F18BF43F0004331016E
S31508002EE001F1924101F58041896CC1F382010131FA
S31508002EF0012505FA01F1022900F08C807D4FD7F8EB
S31508002F0090512DB207EE905AF8EEE77A77EEC77A27
S31508002F1006EE901AFAEEEF6A87EEA67AD7F8885187
S31508002F202DB207EE905AF8EEE77A77EE877A039D88
S31508002F3095ED037AB8EE477A87EE096AB7EE047A12
S31508002F40C7EE066A66EEA77AF1EE006A67EEA66A2B
S31508002F5007EE901AB8EEE77AC8EE877A67EE887AAF
S31508002F6077EEA67AB3F1004F0DD007EE102AB8EE29
S31508002F70C77A27EE297ADFED616A77EEA67A67EED9
S31508002F80277A77EEE67AF5EEC07AF1EE10FACCBF3C
S31508002F90BEEE007AB6EE007A77EE677AFDEEE77A4D
S31508002FA017EE902AB2F5003F3FDB6FEA53436FEA0C
S31508002FB04343721D120152498B50C0F30900320176
S31508002FC0504B9850013614344D4B984536D008F579
S31508002FD080580123C8F8043005B0BDEC048BBDE861
S31508002FE0F08F444BD3F88021120CD3F88C311B1484
S31508002FF007EE903AB8EEE77A69E73E4BD3F88421B4
S3150800300092B2D3F88C311B145B0007EE903AB8EEF7
S31508003010E77A5CE7374DD5F88C512DB207EE905A12
S31508003020F8EEE77A77EE877A81E712F5003FB2BFC6
S3150800303043F40033C2F311021343BAE7022EC6D093
S31508003040039494F80090A5682D4FCDF800A04B4640
S3150800305000222D49914518BF59463846FFF786FE86
S31508003060EDB2A84238BF284607EB0617BA6C09F036
S31508003070030322F0435222F41D1222F4405222F096
S315080030801F0213436278920002F01C021343A278CF
S31508003090120302F4E0421343E278120402F4E02237
S315080030A01343227C520502F4600213432279120765
S315080030B002F040521343BB64BB6CC3F30233013BBB
S315080030C0042B3FF6FAAE01A252F823F0572E000859
S315080030D0572E0008A32E0008AB2E0008B32E0008B2
S315080030E0005A620200007A4400008043000020442F
S315080030F0000000380080E00F0000000000000049D2
S31508003100004000495440004980969800404B4C00C6
S3150800311010B504460A6F496F02F00702FFF77AFDF9
S31508003120204610BD064B4FF480329A6603F51C33D1
S3150800313041F67132DA6303F500530122DA6070470B
S3150800314000900040074B41F67132DA6303F50052EE
S315080031500121D1600022DA63A3F518334FF48032D7
S315080031609A667047000003400138312828D8DFE8FE
S3150800317000F019272727272727272727272527273F
S3150800318027272727272727272727272727272727C1
S3150800319027271B1D1F2127272727272727272727D5
S315080031A027272723032070470120704702207047EE
S315080031B0042070470520704706207047072070478F
S315080031C0002070470C2801D008467047022903D012
S315080031D0032908BF0121F7E70021F5E770B5044682
S315080031E0C2F3062602F0070241B942EA062242F471
S315080031F040220634094B43F8242070BD1146304658
S31508003200FFF7E0FF05463046FFF7AEFF45EA002523
S315080032101234024B43F82450EFE700BF0080034006
S3150800322008B50A4392B20021FFF7D8FF08BD52B18C
S3150800323022F0030303F1804303F5603309B91860EC
S315080032407047000218607047024B4FF400321A6745
S31508003250704700BF005000404FF04023D3F8940059
S315080032607047436843B15A68012A03D05B685A68B5
S31508003270012AFBD15960704741607047836843B1A2
S315080032805A68012A03D05B685A68012AFBD159603B
S31508003290704781607047C369032B04D800EB83022B
S315080032A0D1600133C3617047C16904291FD84FF043
S315080032B09842136C13F4801FFBD0043189004FF039
S315080032C09843196502681A6042681A6082681A602B
S315080032D0C36963B100F10C0200234FF0984C52F811
S315080032E0041BCCF800100133C1699942F7D870471E
S315080032F0074B4FF480325A6603F5E6239B69C3F3FE
S315080033008512827003F03F0242701B0B03707047F0
S3150800331000900040436813F0010F00D1704710B5C4
S315080033200446FFF708FA636A13F0010F04BF012386
S31508003330E360FFF706FA10BD094A936813F0020F17
S31508003340FBD1536813F0020FF7D1D369002BF4D1E0
S31508003350034B03F5805101224A601A61704700BF8A
S3150800336000800A400A4B5B68012B00D07047084B67
S315080033705A6812F0010F02D0DA69002AF8D1044B14
S3150800338002221A6103F5005301225A60EEE700BFD4
S3150800339000800A4010B50446114A936813F0020FDC
S315080033A0FBD1536813F0020FF7D1D369002BF4D180
S315080033B00B4B5B68012B03D02278094BDA6010BDF2
S315080033C0FFF7D0FF064A936813F0020FFBD1536844
S315080033D013F0020FF7D1D369002BF4D1ECE700BF45
S315080033E000800A40E8B90B784A6812B1127843EAB5
S315080033F0C2034A78002A14BF0222002213438A68AD
S3150800340012B1127843EA82138A78002A14BF04227A
S3150800341000221343CA6812B1127843EA4223014ACA
S315080034209364704700800A4008B9014B5964704795
S3150800343000900A4008B9014B5964704700A00A4039
S3150800344008B9014B1964704700A00A4010B9024B2D
S31508003450186C70470020704700800A4048B911B1BF
S31508003460012903D07047044BD86C7047024B186D7E
S3150800347070470020704700BF00800A4040B911B16C
S31508003480012903D07047034BDA647047014B1A656C
S31508003490704700BF00800A4038B504460CF05EFB52
S315080034A0064DA446BCE80F000FC5BCE80F000FC5C3
S315080034B09CE8030085E80300002038BD581C00205E
S315080034C047F6FF739A4273D0042973D8F0B53B4B7D
S315080034D003EBC100847813F83130012B49D0374B00
S315080034E003EBC1035E68002E66D0B6F9003093423E
S315080034F004DBB6F902309342B8BF1346B288FF2AF6
S3150800350050D04FF0280EC82200251F462B4800EB46
S31508003510C10191F801C0D21A92FBFEF22A440CF1BD
S31508003520FF339A4228BF1A4606EBC201244D0846C5
S31508003530B1F906E08B6807FB0E3323EAE37303F55C
S31508003540FA73A5FB03E39B0996460132944503D912
S31508003550083180899842EAD206EBCE06B6F804C04E
S315080035609C4528BF9C46A44538BFA4465FFA8CF004
S31508003570F0BD90F803E0AEEB040C002305460BE023
S31508003580ACEB0301ACEB5101686830F911009042CD
S31508003590CCBF01F1FF3C0B469C45F1D8A4445FFA29
S315080035A08CF0E5E7B6F90620B6F908E00125ACE7A0
S315080035B0FF207047002070470020D9E7581C0020DC
S315080035C0D34D621004296CD830B5384B13F8313016
S315080035D0012B49D0354B03EBC1035C68002C62D044
S315080035E0324B03EBC1039B78934254D22F4B03EB28
S315080035F0C103DB78934251D9251D2C4B03EBC1013E
S3150800360091F801C00CF1FF3C5FFA8CFCA188FF29F8
S3150800361014BF002101210B468C450BD904EBC101CF
S315080036201FFA82FE8889704504D30133DBB208315C
S315080036309C45F7D805EBC301B1F902004FF47A733C
S3150800364002FB03F34A689B1A00EBD07203EB620392
S3150800365093FBF0F3B4F9000098421EDBB4F90200BC
S3150800366098421ADC18B218E0104B03EBC103D8785D
S315080036709C78904294BFC4EB0003C4EB0203DBB210
S31508003680001B8342C8BF0023084A02EBC1014A68EF
S3150800369032F9130001E0B4F9020030BDB4F90000B4
S315080036A0FBE7034870470248F7E700BF581C0020AD
S315080036B00080FFFF08B50348FFF7EEFE01200CF077
S315080036C0A9FA08BDF8AE01080020704700487047FF
S315080036D00811002000B583B0094B93E80300009059
S315080036E0ADF80410090C8DF806106846FFF746F980
S315080036F00920FFF77FF9002003B05DF804FB00BF3F
S3150800370050B0010810B582B0002400948DF804402A
S315080037106846FFF761F8204602B010BD30B587B09D
S3150800372001AC144D0FCD0FC42B682360124BD3F890
S315080037304C3113F4002F04D10F4BD3F85041E4B2A7
S3150800374006E00E4B1C884FF6FF739C4208BF8C247C
S315080037508DF80E40FEF7A2FC044484F308048DF8A5
S315080037600D400748FDF736FB01A8FEF7D1FB002000
S3150800377007B030BD58B001080080E00F0001E00F27
S31508003780C017530230B4FC22FB230C4D50200C4CBE
S3150800379008E003F00F010439294408760133DBB247
S315080037A00132D2B259B20029F3DB214481F8000371
S315080037B051B24B29F2DD002030BC704700ED00E025
S315080037C000E100E008B500F085F808BD38B501F05D
S315080037D039FC044608B1204638BD01F0B1FD4FF466
S315080037E0167200FB02F202F5742202F23F220A4B1D
S315080037F0A3FB0232920C094B1A60094B1B6813444F
S31508003800084901F1280041F8042B1D46134481425A
S31508003810F9D1034B1D60DEE783DE1B43BC1C002089
S31508003820881C00208C1C00207047000008B5044B3B
S3150800383001221A7001F05CFD024B186008BD00BF3A
S31508003840841C0020B81C0020174B1B7803B970474E
S3150800385070B501F04DFD154B1B68C01A012838BF1D
S315080038600120134B1860134C2378134E134D55F84B
S315080038702320111A3268521A326045F82300093299
S315080038800F49A1FB0202D2080E4802600133DBB2DF
S31508003890A1FB0312D20802EB8202A3EB42032370B8
S315080038A0014B00221A7070BD841C0020B81C002031
S315080038B0801C0020B41C0020881C00208C1C0020C2
S315080038C0CDCCCCCCBC1C0020014B1868704700BF7F
S315080038D0BC1C00200B49202381F82D330A4B4FF4DA
S315080038E080125A66094B03F50050094A4267026777
S315080038F04FF40050C1F88401486003F580535A67B5
S31508003900704700BF00E100E0009000400040004A18
S31508003910010000A0064B1978064A00E038B1936DFD
S3150800392013F0010FFAD00029F8D10120704770472B
S31508003930D41C00200040004AF8B5994B1C6F9E6ABB
S3150800394006F080769D6A05F4803514F0010F68D07C
S3150800395003F5005301221A67924B1B78002B59D0A6
S31508003960904B00221A70904B1B78012B4CD88C4B2D
S3150800397003F500524FF48031916203F580534FF0FE
S3150800398080729A62864A936D13F4803FFBD1844B0A
S31508003990DA6A22F47062854909680A43DA62996923
S315080039A0834A126883480068024321F47F0121F4A0
S315080039B07F410A439A6119697F4A12687F480068FD
S315080039C0024321F47F6121F00F010A431A619A69C3
S315080039D022F0FF027A4909680A439A6156B903F543
S315080039E000534FF080729A624DB1764B4FF4803295
S315080039F09A6216E0734B4FF080729A62F4E7724B44
S31508003A004FF480329A620CE0FFF70EFF6F4B0122EB
S31508003A101A7006E0FFF718FF01F076F8624B0022ED
S31508003A201A7014F000527BD05D4B03F5005CCCF89D
S31508003A3070205C4A012111705B490A7801320A70CC
S31508003A40D96A01F47060594A1060986900F47F4099
S31508003A50574A10609F6907F47F07564A17609A69A4
S31508003A60D2B2DFF85CE1CEF800201A6902F47C6273
S31508003A70DFF844E1CEF800201A6902F03F02DFF8C9
S31508003A803CE1CEF800204FF48032CCF8282003F52C
S31508003A9080534FF080729A624FF000429A62404A11
S31508003AA0936D13F4803FFBD13D4B03F500524FF065
S31508003AB0004CC2F828C021F4706141F40071D96243
S31508003AC0B0F5C84F02D8B7F5C80F0CD9344A936970
S31508003AD03F49096823F47F0323F47F4343EA01231C
S31508003AE043EA014393612E4A13693A4909688808EB
S31508003AF023F47F6323F00F0343EA910343EA801319
S31508003B001361936923F0FF030B4393615EB92E4B50
S31508003B104FF080729A625DB12A4B4FF480329A62F6
S31508003B20002C0ADBF8BD274B4FF080729A62F2E749
S31508003B30254B4FF480329A62F2E7234B4FF000424E
S31508003B401A67224B1B78002BECD0154B03F5005255
S31508003B504FF48031916203F580534FF080729A6278
S31508003B600F4A936D13F4803FFBD1164B4FF000427A
S31508003B709A6156B903F580534FF080729A624DB137
S31508003B80104B4FF480329A62CCE70E4B4FF080729E
S31508003B909A62F4E70C4B4FF480329A62C2E700BF90
S31508003BA00040004AD41C0020D51C0020D81C002048
S31508003BB0CC1C0020D01C0020C41C0020C81C0020DF
S31508003BC0C01C00200050004A0060004AD61C002095
S31508003BD0141100201011002008B5FFF7ADFE08BD2E
S31508003BE010B50446FEF798FD024B1C60FEF798FDDB
S31508003BF0002010BDDC1C002010B5FEF78DFD034B20
S31508003C001C68FEF78DFD204610BD00BFDC1C002099
S31508003C1070B50C461546034630B15E685EB12A4655
S31508003C2021461868B04770BDFFF7E6FF034600282F
S31508003C30F3D12320F7E72320F5E72DE9F04182B0F9
S31508003C400D4616461C4670B10746B3B1D7F808802C
S31508003C50B8F1000F13D02346324629463868C047C4
S31508003C6002B0BDE8F081FFF7C7FF07461CB1002F79
S31508003C70ECD12320F4E701ACF9E701ACE6E7232011
S31508003C80EEE700B583B08DF8071001220DF10701A4
S31508003C90FFF7BEFF03B05DF804FB08B50B46014607
S31508003CA01846FFF7EEFF08BD0EB410B583B005AB96
S31508003CB053F8044B0193014668B1019B2246084814
S31508003CC003F0AEFC0028CCBF0020372003B0BDE8C7
S31508003CD0104003B07047FFF78FFF0146EDE700BFBE
S31508003CE09B3C000810B500F051F80448044B4360AB
S31508003CF000248460FFF774FF204610BDE41C0020F2
S31508003D00053D000800B583B0044B0093044B1B889F
S31508003D1000F054F803B05DF804FB00BFE01C002077
S31508003D201811002000207047FEE74FF400534B603F
S31508003D30002070470020704700B583B0002001902E
S31508003D4001ABFFF77AFF0198002808BF4FF0FF3054
S31508003D5003B05DF804FB10B514460020FFF758FFC2
S31508003D60204610BD08B5044B1868002302221946E0
S31508003D70806813F029FF08BD281200204FF0604222
S31508003D80D2F8803E13F4000FFAD1704708B5084BF5
S31508003D901B680BB1002008BD054B01221A600820DC
S31508003DA0FDF7EAF80349044800F06CFDF2E700BFA6
S31508003DB0F81C00201C110020F01C00202DE9F84FEB
S31508003DC012F1090541D08A46174698464FEA132B41
S31508003DD000245B21082602F104095FFA89F90AE042
S31508003DE0494608E05FFA88F105E00A9B13F8011BCB
S31508003DF00A9300E05B213046FDF7CAF80134A54274
S31508003E0023D0002CF6D0012CEAD0022C13D0032C98
S31508003E10E8D0042C11D0052CE7D0BB1DA3420ED048
S31508003E20FB1DA3420DD007F10803A3420BD0AAF14C
S31508003E300603195DDFE7D121DDE75946DBE75A219D
S31508003E40D9E75A21D7E75D21D5E70020BDE8F88FE5
S31508003E5000B583B001F058FA6A4601F003FB20B9B1
S31508003E60DDE9000103B05DF804FB4E21014800F0CE
S31508003E70D9F8F5E76CB0010808B5FFF7E9FF08BD02
S31508003E80012070470420704708B501F0DBF808B92F
S31508003E90002008BD7621024800F0C4F8F8E700BF04
S31508003EA06CB0010808B500F035F80E4A536A43F4B9
S31508003EB070235362EFF30883043B0B4A934207D3FC
S31508003EC04FF0CD3011461A46043B10608B42FAD2A9
S31508003ED04FF0402302221A67FFF7D6FF0348FFF781
S31508003EE0DBFA08BD00ED00E000000020F8AE01088E
S31508003EF008B5054B5B6E13F4005F00D108BD034897
S31508003F00FFF708FAFAE700BF008000400040004BC0
S31508003F1042DE704710B5FFF79FF90446FFF794F99C
S31508003F2014F0010F4ED101231946184601FA03F27F
S31508003F3022420CD10133102BF7D10023264A1380D5
S31508003F40254B1A8840F201739A423ED010BD234B86
S31508003F5033F81030062B19D14FF000535A884FF218
S31508003F600F039A4209D04FF4C0631B4A13804FF0DF
S31508003F7000534CF23C325A80E2E74FF000531B885C
S31508003F80B3F5406F28BF4FF4C063EEE740F207224F
S31508003F909342D3D14FF0005251884FF20F0291420B
S31508003FA0CCD14FF00052118840F207229142C5D178
S31508003FB04FF000534CF23C325A80074B40F207222E
S31508003FC01A80C3E740F20143B8E7054B054A92E871
S31508003FD0030083E80300B9E7041D0020C8B0010800
S31508003FE0FC1C00209410002010B50446FEF79BFB2D
S31508003FF04FF000531C804FF20F025A80BFF35F8FB9
S31508004000BFF34F8F0549CA6802F4E062044B1343B5
S31508004010CB60BFF34F8F00BFFDE700BF00ED00E0A8
S315080040200400FA0538B504460D46FFF761FFFEF7AA
S315080040307AFB2B46224604490020FFF735FE29461F
S315080040402046FFF765FF38BDB4B001082DE9F047F3
S31508004050874A5068874B5865516A99658649D1F8E9
S315080040600042DC65D1F804121966916A9966D16A2C
S31508004070D966116B1967516B5967D26B9A675B6B77
S3150800408013F0040F7B4B14BFDA6B9A6B14467B4B09
S3150800409078490B650025CD649A4227D320327849A2
S315080040A08A4223D8A169734A1164E5695564C0F345
S315080040B00800062802D04FF420601EE0714A91429B
S315080040C045D3714A914245D209884DF642629142DA
S315080040D002D04FF4206010E0664A1168C2F89410C6
S315080040E05168C2F8981040F2017006E0614A002152
S315080040F011645164614C4FF420606049604A9142F2
S315080041002BD215461A4604331168B1F1CD3F02D1B8
S315080041101A46AB42F6D3574B59498A1A9A64002273
S31508004120DA67C3F88020C3F88420C3F88820C3F868
S315080041308C20C3F890208C4260D20B469646514D8F
S31508004140514FDFF8308191464FF0050A10E04FF4E1
S315080041502060D2E74FF42060CFE7484ADBE706291C
S3150800416004D119E0D64608EB8E01CA679C421BD2D9
S3150800417053F8042DAA42F9D3BA42F7D212F0010F26
S31508004180F4D008F17806494656F804CF9445E6D0A7
S315080041900131C9B20629F7D1BEF1000FE2D00EF1FE
S315080041A0FF3E5FFA8EFEDEE70EF1FF33DBB2BEF1AD
S315080041B0000F23D02F49CA6FD1F88070D1F88460D8
S315080041C0D1F88850D1F88C40D1F8901006E0944682
S315080041D03A4637462E4625460C466146013BDBB233
S315080041E0FF2BF4D1234BDF67C3F88060C3F88450F4
S315080041F0C3F88840C3F88C10C3F890201D4BB3F859
S315080042005430C3F308030C2B0ED8022B25D9DA1E1B
S31508004210092A22D8DFE802F02805141721212121CE
S31508004220211E40F6022009E03B2B16D1174B9B694D
S3150800423013F0020F40F2025318BF1846BDE8F08784
S3150800424040F60320FAE740F60423B0F5206F08BFCE
S315080042501846F3E740F60520F0E7013B40F607224B
S315080042605A2B98BF1046E9E740F60120E6E700BF5B
S3150800427000ED00E00010002000E100E00000002052
S31508004280001000207001000880A801080040004BBB
S3150800429000F00CB800F00AB800F008B800F006B84C
S315080042A000F004B800F002B800F000B872B61EF0CC
S315080042B0080F09D01EF0040F0DD0DFF850E0AEE865
S315080042C0FF1F6FF002000CE0DFF840E0AEE8FF1FCA
S315080042D06FF00E0005E0DFF834E0AEE8FF1F6FF080
S315080042E006006946EFF309828EE807008646084805
S315080042F0084C854501D3A54501D384F30888FFF703
S31508004300A5FE84F30888FFF76FFE00000010002062
S31508004310400000200010002083B213B1074A138022
S3150800432003E0064B4BF6EF621A80000C044B12BFF3
S3150800433018804FF6CE221A80704700BF241100203D
S31508004340261100200C4B1888B3F90030002BB8BF93
S3150800435080F062004300084A1380084A1388B2F9BD
S315080043600020002ABCBF83F4805383F00B03590056
S31508004370024A118058407047241100202611002057
S3150800438008B501F0A7FAA8B10D4B0344072B13D8BB
S315080043900B4B0344072B07D8DFE803F00408060A8B
S315080043A006060610C22000E0C52008BDC320FCE7AB
S315080043B0C420FAE70020F8E7C520F6E7C120F4E7AD
S315080043C0FF1FFF0F08B5844608461146624601F0EE
S315080043D089FB08BD08B501F0CFFB08BD08B501F09B
S315080043E015FC08BD08B5844608461146624601F024
S315080043F02BFC08BD08B501F00FFD08BD30B4BFF3AE
S315080044004F8FBFF36F8F334B5A6A22F480325A624A
S31508004410D3F8942022F00102C3F894202E4B2F4A99
S31508004420934231D022F01F02203A2A48D0F8C01011
S3150800443021F0FF0141F0A001C0F8C010B2F1005F01
S3150800444038D21F3323F01F0343F0030324480268BE
S315080044502049C1F89820C1F89C30224BC1F8A030F9
S3150800446001320260BFF34F8FBFF36F8F194B0522DE
S31508004470C3F894205A6A42F480325A62BFF34F8FC7
S31508004480BFF36F8F30BC7047124BD3F8C02022F0B1
S31508004490FF0242F0A002C3F8C02011490A68C3F817
S315080044A098201148C3F89C001048C3F8A0000132B0
S315080044B00A60D7E70A4C216842F001020548C0F8AD
S315080044C09810094DC0F89C50C0F8A0200131216011
S315080044D0B7E700BF00ED00E0741400209412002036
S315080044E0081D0020E1FFFF3F0300002001000040F7
S315080044F010B4BFF34F8FBFF36F8F244B5C6A24F45D
S3150800450080345C62D3F8944024F00104C3F89440E4
S315080045101F2A13D8BFF34F8FBFF36F8F1B4B05228C
S31508004520C3F894205A6A42F480325A62BFF34F8F16
S31508004530BFF36F8F00205DF8044B70471A46D3F817
S31508004540C03023F47F4343F48073C2F8C03010F0C0
S315080045501F0F1CBF20F01F00203011F01F0F18BFBF
S3150800456021F01F0120F01F0040F00300084C2368CB
S3150800457021F01F0141F00301044AC2F89830C2F83D
S315080045809C00C2F8A01001332360C3E700ED00E0E9
S31508004590081D002008B5FFF781FE08BD034B1B78F0
S315080045A0002B14BF01200220704700BF3C1D0020CD
S315080045B0F8B506460F46032910D8DFE801F00209C8
S315080045C00B0D0125032E0DD8DFE806F00A10131689
S315080045D00425F7E71025F5E74025F3E70025F1E779
S315080045E045F002050C4B1C6864B9F8BD45F0080592
S315080045F0F8E745F02005F5E745F08005F2E7246879
S31508004600002CF2D063681A681542F8D05B68394600
S3150800461030469847F3E700BF381D0020134B1B7838
S3150800462013B310B5124B1B785BB9002000F0CAFB18
S3150800463068B9104B01221A700F4B1A780F4B1A7073
S3150800464010BD00F097FB0A4B00221A70EDE700F048
S31508004650C5FB064B00221A70074C01212078FFF78C
S31508004660A7FF01232370EBE7704700BF361D002024
S31508004670311D0020351D0020281D0020481D002062
S3150800468008B50A4B1B7818B9013B084A137008BDD0
S315080046900133064A1370064B1B78012BF7D9054BD5
S315080046A01B78002BF3D1FFF7B9FFF0E73C1D00207C
S315080046B0281D0020351D002010B5FEF72DF80446EC
S315080046C0054B1B782BB9FFF7A9FF2046FEF728F8FC
S315080046D010BDFEF725F8FBE7301D002038B5FEF7BC
S315080046E01BF80446114B1B786BB900F0ABFC05466A
S315080046F0C0B900F025FE0E4B18600E48FCF7D2FB39
S315080047000D4B00221A6000F04FFA00F09FFB0B4B8E
S315080047101860064B01221A702046FEF701F800259C
S31508004720284638BD2046FDF7FBFFF9E7321D002075
S31508004730441D0020381D00204C1D00202C1D002083
S3150800474038B501382A4B1B5C002939D1013B284A68
S31508004750135438BDFDF7E0FF0546264B1B78D3B149
S31508004760254B1B782BB9244B01221A70234B0022A8
S315080047701A70234B1B7893B92846FDF7D1FF012001
S3150800478000F020FBFDF7C8FF05461B4B1B7863B9F5
S31508004790184B00221A702846FDF7C2FF1EE000F0EB
S315080047A0E9FA174B00221A70E6E700F017FB124BDE
S315080047B000221A70ECE7022810D100F065FB0DE024
S315080047C001330B4A13540F4B1D78012DC1D9FFF73E
S315080047D0E5FE04460128BDD9032DECD0094B18780F
S315080047E0A042B6D02146FFF7E3FE064B1C70B0E7A1
S315080047F03C1D0020361D0020301D0020351D0020E0
S31508004800311D0020281D002010B50446FDF784FF41
S31508004810084B1B78002C14BF0122FF221344DBB27D
S31508004820044A1370B3FA83F35B09034A1370FDF75E
S3150800483077FF10BD3F1D00203E1D002038B5FDF74F
S315080048406BFF0446084B1B78012B09D9074B1D68DB
S3150800485000F002FB05442046FDF762FF284638BDF6
S31508004860FDF75EFF0025F9E7281D00204C1D0020F6
S3150800487010B5FDF751FF0446FFF7D0FE2046FDF7B9
S315080048804FFF10BD38B504464160FDF745FF0546A4
S3150800489021460348FCF709FB2846FDF741FF38BDCA
S315080048A0381D0020064B1B6803FB00F000F574203A
S315080048B000F23F20034BA3FB0030800C704700BF7B
S315080048C0441D002083DE1B432DE9F04F85B0FDF71C
S315080048D023FF054600E000BFFCF7B9F950B1DFF841
S315080048E0FC91DFF8FCB1DFF8FCA1724E724FDFF8DD
S315080048F0E88169E000E000BF2846FDF711FFCFE038
S315080049000020FFF7BDFE002389F8003060E003A908
S31508004910002000F0B7FC002860D1DBF80030039ACD
S315080049209A4206D80120FFF7ABFE012389F800302A
S3150800493054E0624B1C6800F08FFA204403998842C1
S3150800494006D30120FFF79CFE012389F8003045E0D5
S315080049500223019300230093594A091A504600F08E
S31508004960D9FB3BE000F0B6F941E02146FFF720FE0F
S3150800497046E000233B700BF0A3FC47E0514B0122B5
S315080049801A70307800F048FA98F8003013B14E4B98
S315080049901B78337000E000BF2846FDF7C1FEFDF71F
S315080049A0BBFE0546494B1B783BB1484B00221A70A3
S315080049B0454B18783378834238D0504600F07EFB52
S315080049C0FCF754F9002836D099F80030002B97D117
S315080049D0FFF7E4FD0238C0B2012898D9FFF7DEFDDB
S315080049E00446012803D9374B1B78002BBAD03078F8
S315080049F0A04206D000233B7098F80030002BB4D0B4
S31508004A0034703B7813B13378022BB2D0012CB8D965
S31508004A102C4B1B78002BB4D12D4B1B78002BADD11A
S31508004A2000F0A2F92B4B01221A70A7E70121317079
S31508004A30FFF7BEFDC1E7204B00221A70214B1B78F9
S31508004A40FBB1254B1A70234B1B787BB90024012632
S31508004A50204600F0B7F978B9304600F0DDF9284667
S31508004A60FDF75EFEFDF758FE0546F1E700F082F910
S31508004A70184B00221A70E9E700F0B0F9114B002232
S31508004A801A70164B1B7873B90A4C00212078FFF769
S31508004A908FFD0023237000E000BF2846FDF740FE87
S31508004AA005B0BDE8F08F0020FFF7EAFD0B4B0022AA
S31508004AB01A70E9E7281D00203E1D00204C1D002025
S31508004AC0B9460008361D0020481D0020341D002068
S31508004AD03F1D0020311D0020351D0020401D0020EF
S31508004AE02C1D00200C1D002010B5FDF715FE054BEA
S31508004AF01C7800221A70FDF713FE00F0BBFD204358
S31508004B00C0B210BD331D002008B50A4B1B7813B17F
S31508004B10094B1B7803B908BD00F060F90023064A63
S31508004B201370064A13700123054A1370054A137059
S31508004B30F1E700BF281D0020351D0020361D002086
S31508004B40331D0020341D0020154B1B78834225D0C9
S31508004B5010B582B0044600238DF8043002238DF880
S31508004B60053068B900238DF8053001A8FDF7FAFD70
S31508004B704020FFF797FE0B4A13680344136009E0C9
S31508004B8001A8FDF7EFFD4020FFF78CFE054A1368E4
S31508004B901B1A1360024B1C7002B010BD704700BF91
S31508004BA028110020581D002010B582B000248DF869
S31508004BB0044001A8FDF796FE2046FFF7C5FF404BC7
S31508004BC01A6F02F007023F490A60D3F8201103F56D
S31508004BD080534FF4801058664FF40030586603F53A
S31508004BE098339B6903F00203032A62D001F0070198
S31508004BF0022914BF00200120334A1070B3B10229DC
S31508004C0009D02F4BD3F8003103F00303012B14BF4F
S31508004C100023012313702A4BD3F8003103F0030352
S31508004C20022B3ED0032B40D0012B08D06420FFF77F
S31508004C3039FE264A13680344136002B010BDFCF718
S31508004C40C3F80246002AF1D0214BDB68C3F30B03F5
S31508004C50013303EB8303D80E5901C91A60F100002A
S31508004C60400240EAD1504902C91840F100044FEA0F
S31508004C70841C4CEA916C8801411A6CEB0400CB1831
S31508004C8040F10001501E18184FF0000341F10001D1
S31508004C9012F0D4FCFFF706FE0C4A136803441360AF
S31508004CA0C4E7FCF7F9F80246CCE7FCF7A5F8024694
S31508004CB0C8E7054A01211170002BACD1B6E700BF41
S31508004CC000800040501D0020561D0020581D002061
S31508004CD000C0014008B5FDF77DFD08BD08B5084BC5
S31508004CE01B7803B908BD064B00221A70054A136FD4
S31508004CF023F0070343F001031367FCF74FF8F1E7C6
S31508004D00541D00200080004008B5134B1B7803B9DA
S31508004D1008BD022000F06CFD0028F9D000F0E2FA88
S31508004D200028F5D00D4B9B6D13F4803F04D00B4B38
S31508004D30DB6D13F0020F09D1094B01221A70FEF739
S31508004D4075FD084B4FF480329A62E1E7054B4FF444
S31508004D5080329A62DCE700BF561D00200040004AF8
S31508004D60551D00200050004A014B01221A70704759
S31508004D70541D002008B50F4B1B78ABB10E4B1B78A2
S31508004D807BB90E4B9B6D13F4803F04D00B4BDB6D48
S31508004D9013F0020F09D1FEF749FD094B4FF4803293
S31508004DA09A62054B00221A7008BD054B4FF48032F3
S31508004DB09A62F9E7561D0020551D00200040004A5A
S31508004DC00050004A08B5044B1B780BB9012008BDF2
S31508004DD0FEF7A0FDFBE700BF561D002008B5FDF74E
S31508004DE0FAFC094A136F23F00703084909680B43BD
S31508004DF01367074B1B781BB1064B4FF480329A6238
S31508004E00FBF7CCFF08BD00BF00800040501D002006
S31508004E10561D00200060004A08B502280BD003285A
S31508004E200DD0012800D008BD074A136923F00403F2
S31508004E30136130BFF7E70020FDF7A0FCF3E7002079
S31508004E40FDF7B4FCEFE700BF00ED00E008B54FF44E
S31508004E50C870FFF727FD08BD08B5064B1B7823B9B0
S31508004E600020054B1B68184408BDFEF72DFD00EB16
S31508004E70D000F6E7561D0020581D0020014B0122E0
S31508004E801A707047561D0020704700230B70704734
S31508004E90104B1B68C3B1834218D01A469B687BB176
S31508004EA09842FAD18368936083682BB15A6941693D
S31508004EB00A445A6100207047002070470220704754
S31508004EC00028EFD0022070470028F7D18268014BEE
S31508004ED01A60E9E7741D002010B500F013FC0A4BB0
S31508004EE01A680A4B1968411A5AB151B1002403E0ED
S31508004EF0C91A5461926822B153698B42F8D35B1A76
S31508004F005361024B186010BD741D0020601D0020FF
S31508004F1070B505460C46C38873B16C61154B1B68A2
S31508004F2013B300215A69A2420FD8A41A6C619A6871
S31508004F30194692B11346F5E7FFF780FC0646844208
S31508004F40EBD2FFF795FC3446E7E721B9094A156025
S31508004F50AB601A4604E01A460B469D60AA6012B179
S31508004F6053691B1B536170BD024B1D600023AB6068
S31508004F70F9E700BF741D002010B5144B1B685B6968
S31508004F80C3B1134A14681C44022000F0CFFB204624
S31508004F9000F0D8FB0D4B1B6800220E490A70D98811
S31508004FA011F0020F0DD19B6873B159690A44012AA1
S31508004FB0F5D909E0022000F0B9FB022000F00EFC4A
S31508004FC0E8E7044B01221A7010BD00BF741D0020CB
S31508004FD0601D0020681D002070B504460E46154663
S31508004FE09DF814200271049A02600022826005610D
S31508004FF0C360BDF81830C38000F084FB2844A06164
S31508005000CEB900236361E36813B121682046984747
S315080050107DB1FDF781FB0646FFF75EFF2946204670
S31508005020FFF776FF064B1B68A34206D03046FDF70E
S3150800503077FB002070BD3546EBE7FFF79DFFF5E7E8
S31508005040741D002010B5FDF776FB0446144B1B783B
S31508005050DBB9144A1360144A1360144A138000F02B
S3150800506015FB012000F062FB00F0EDFB0246104B39
S31508005070186078B100230F4840F2E73112F0DEFAE3
S315080050800D4B1860064B01221A702046FDF759FB96
S31508005090002010BD2046FDF754FB2320F9E700BF8A
S315080050A05C1D0020741D0020601D00206A1D002064
S315080050B0701D002018FCFFFF641D0020F8B520B302
S315080050C00546FDF729FB0446FFF706FF104B1F6848
S315080050D02846FFF7DDFE064638B9AF4209D10C4B24
S315080050E01B6873B1FFF748FF06E02046FDF718FB7B
S315080050F005E0074B1B6823B12046FDF711FB304638
S31508005100F8BD022000F052FBF6E72226F7E700BFBB
S31508005110741D0020B0B1F0B585B00F4614461D4683
S315080051200646FFF7CBFFBDF82C3002939DF82830D2
S31508005130019300952346002239463046FFF74CFF77
S3150800514005B0F0BD22207047B0B1F0B585B00C4669
S3150800515015461E460746FFF7B1FFBDF82C300293E9
S315080051609DF82830019300962B462246214638465C
S31508005170FFF732FF05B0F0BD22207047C0B138B541
S315080051800C460546B1B100230B70FDF7D4FA0A4B5D
S315080051901B684BB1012100E02170227822B99D429B
S315080051A0FAD09B68002BF8D1FDF7CBFA002038BD62
S315080051B0222070472220FAE7741D0020F0B587B038
S315080051C000248DF81740C8B10F4616461D460446FA
S315080051D00DF11701FFF7D2FF9DF8173083B9BDF817
S315080051E0343002939DF830300193009533460022FF
S315080051F039462046FFF7F0FE07B0F0BD2220FBE750
S315080052000320F9E730B370B50C46054621B3FDF720
S3150800521092FA0646FFF760FE6B692360174B1B6818
S315080052209D421BD043B1226859690A4422609B6893
S315080052309D4213D0002BF6D13046FDF782FA0320A3
S315080052401AE000F05FFA0E4B1B68226813441B1A1B
S3150800525023600DE02220704722200DE0256800F02B
S3150800526051FA074B1B68C01A8542EAD80023236007
S315080052703046FDF766FA002070BD00BF741D002099
S31508005280601D0020F8B505460F46FDF754FA064698
S31508005290124B1B6843B100245A691444DA88AA429F
S315080052A007D09B68002BF7D13046FDF74AFA1B203A
S315080052B0F8BD00F027FA0A4B1B68C01AA04206D3AD
S315080052C0002038603046FDF73CFA0020F0E700F091
S315080052D019FA034B1B681C44201AF2E7741D0020B8
S315080052E0601D0020014B1878704700BF681D00201C
S315080052F038B5FDF720FA054600F004FA04462846B4
S31508005300FDF71FFA204638BD70B5FDF714FA0646B4
S3150800531000F0F8F90446094B1D88ADB2012000F0EB
S3150800532067FA28B93046FDF70CFA2046294670BDBB
S3150800533000F0E8F904460135F4E700BF6A1D0020CD
S31508005340014B1868704700BF701D0020054B1B688D
S3150800535003FB00F000F2E730034BA3FB00308009A3
S31508005360704700BF701D0020D34D621000B58BB08A
S3150800537001238DF82730FFF7E9FF01460023019343
S3150800538000930DF12703064A02A8FFF717FF18B97D
S315080053909DF82730002BFBD10BB05DF804FB00BF4E
S315080053A08B4E00080C4B1B68834213D310B50C4672
S315080053B00A4B1968A1FB000140F2E733C0184FF405
S315080053C07A724FF0000341F1000112F037F92060BC
S315080053D0002010BD21207047641D0020701D00208C
S315080053E008B501461E4B186810B3431E034220D168
S315080053F0B0FA80F2C80E4B015B1A60F1000080001B
S3150800540040EA93709B00591840F10003DB0043EA19
S315080054105173C900C2F11F0E02F1010CD04321FAE3
S315080054200EF203FA0CFC42EA0C0223FA00F01043CF
S3150800543008BDCA0E4B015B1A62F10002920042EAED
S3150800544093729B00591842F100024FEAC20C0246B9
S315080054500023C8004CEA517112F0F0F8E8E700BFE3
S31508005460701D002038B52C4B83422C4B8B414FD3F3
S31508005470844615462A4B1A68002A4BD0501E1040FF
S3150800548028D1B2FA82FE4A0142EADC624FEA4C149B
S31508005490B4EB0C0462EB0102920042EA9472A40097
S315080054A014EB0C0441EB0201C90041EA5471E40013
S315080054B0CEF11F020EF101036FEA0E0ED44001FA77
S315080054C003F31C4321FA0EFE44EA0E04D1402C6075
S315080054D0696038BD4B0143EADC634FEA4C10B0EB18
S315080054E00C0063EB01039B0043EA9073800010EB0A
S315080054F00C0C41EB0301C900002423464FEACC00FB
S3150800550041EA5C7112F09AF8C5E900012046E0E725
