:020000040800F2
:1000000000100020F5110008996100089D610008AA
:100010007D640008A1610008A9610008F1110008D1
:10002000F1110008F1110008F1110008F1110008A8
:10003000AD610008F1110008F1110008F11100088C
:10004000F1110008F1110008F1110008F111000888
:10005000F1110008F1110008F1110008F111000878
:10006000F1110008F1110008F1110008250F000836
:10007000150F0008F1110008F1110008F111000836
:10008000F1110008F1110008F1110008F111000848
:10009000F1110008F1110008F1110008F111000838
:1000A000F1110008F1110008F1110008F111000828
:1000B000F1110008F1110008B59701089DA1010890
:1000C00055A1010851A101088599010899A10108CC
:1000D00059A1010871A101085DA10108FDA1010854
:1000E000DDA10108F1110008F1110008F11100086B
:1000F000F111000805540008F1110008F111000881
:10010000F1110008F1110008F1110008F1110008C7
:10011000F1110008F1110008F1110008F1110008B7
:10012000F1110008F1110008F1110008F1110008A7
:10013000F1110008F1110008F1110008F111000897
:10014000F1110008F1110008F1110008F111000887
:10015000F1110008F1110008E77600083D8101085F
:10016000F1110008F1110008396301083F6301082B
:1001700010B5054C237833B9044B13B1044800E0A3
:1001800000BF0123237010BD801400200000000078
:100190007423020808B5034B1BB10349034800E070
:1001A00000BF08BD00000000841400207423020872
:1001B000A3F5803A704700BF174B002B08BF134BC5
:1001C0009D46FFF7F5FF00218B460F461348144A62
:1001D000121A1AF0BEFF0E4B002B00D098470D4BA1
:1001E000002B00D098470020002104000D000D488E
:1001F000002802D00C4800E000BF1AF047FF2000A2
:10020000290000F003FD1AF02DFF00BF00000800D8
:1002100000000000000000000010002080140020FA
:10022000E43C00200000000000000000F0B583B0B6
:1002300004468368C26853F822301E78B7B20EF0C5
:10024000BCFB874226D324480FF0B0FD06220021D4
:1002500068461AF07EFF214B1B88ADF80230A1687A
:10026000E36851F823201278ADF804206268D21AAE
:10027000012A21DD013351F823301B88ADF800300D
:1002800068460CF0CBFC0446032000F0A3FEC0B986
:1002900003B0F0BD0546032000F09CFE0028F7D017
:1002A00000F0B8FE00F0B7FE2B4632460C490D4870
:1002B000006805F013F9EBE740F2FF13ADF80030EA
:1002C000DEE700F0A7FE00F0A6FE22460649054B39
:1002D000186805F003F9DBE79C1000209C1400204F
:1002E00078CF010844180020B0CF010810B582B0C3
:1002F0008368C26853F822301C7800230193436856
:100300009B1A012B0FDD01AA012103F0B8FB014666
:100310009DF804000CF022FD20460CF0DBFC0446A6
:1003200020B902B010BD0CF033FDF5E7032000F05A
:1003300051FE0028F5D000F06DFE00F06CFE224664
:100340000249034B186805F0C9F8EAE7C0CF010875
:100350004418002010B503468168C26851F8220095
:10036000B0F900001A4C20805B689B1A012B0FDD4E
:10037000013251F8223093F90010003918BF0121E1
:100380000EF00CFBA0B9032000F024FE10B910BD44
:100390000021F5E700F03EFE00F03DFE0D4B1C682D
:1003A0000EF007FB02460C49204605F097F8EEE7F1
:1003B000012000F00FFE0028E9D000F02BFE00F035
:1003C0002AFE0649034B186805F088F8DFE700BFEE
:1003D0009C14002044180020DCCF0108F0CF010855
:1003E00010B584B0002300938268C36852F82320BC
:1003F00012788DF80C20022A10D18268013352F84D
:1004000023301B78ADF8043001A809F0B7F9044691
:10041000032000F0DFFD58B904B010BD6A46012189
:1004200003F02DFB0146009A01A81AF06BFEEBE7E2
:1004300000F0F0FD00F0EFFD22460349034B186881
:1004400005F04CF8E8E700BF54D00108441800203C
:10045000F0B587B06C4B1B7813F0020F3ED06B4C9D
:1004600013F0010F3CD0694D13F0040F3AD0674EE2
:10047000032000F0AFFD002836D1032000F0AAFDD4
:1004800000283BD1032000F0A5FD002843D1032024
:1004900000F0A0FD00284CD1032000F09BFD0028B7
:1004A00053D1032000F096FD00286BD1032000F00B
:1004B00091FD002872D1032000F08CFD002879D135
:1004C000032000F087FD002840F08280032000F028
:1004D00081FD002840F08A8007B0F0BD4C4CBFE79A
:1004E0004B4DC1E74A4EC3E700F094FD00F093FD89
:1004F0004849494B186804F0F1FFBEE700F08AFD57
:1005000000F089FD454B9A6CDB6C45494248006818
:1005100004F0E4FFB6E700F07DFD00F07CFD3E4B0B
:100520001F680AF073FA02463E49384604F0D6FFC7
:10053000ADE700F06FFD00F06EFD3B4B1A783B49D4
:10054000354B186804F0CAFFA6E700F063FD00F021
:1005500062FD374A53791179D078977892F801C0C3
:1005600092F800E0CDF814E0CDF810C003970290A7
:10057000019100939379D2792E492748006804F0BD
:10058000ADFF8EE700F046FD00F045FD2A4B1A88CE
:100590002A49214B186804F0A1FF87E700F03AFDD3
:1005A00000F039FD264B1A8826491B4B186804F0C9
:1005B00095FF80E700F02EFD00F02DFD164B1F6823
:1005C0000EF0F9F902462049384604F087FF77E734
:1005D00000F020FD00F01FFD0F4B1F680EF0E9F941
:1005E00002461A49384604F079FF6FE700F012FD21
:1005F00000F011FD00962B4622461549064800687A
:1006000004F06CFF68E700BFAC10002014D00108B4
:1006100008D001086CD00108441800200080E00FC9
:1006200074D0010890D0010816340020ACD0010825
:100630003B340020C8D0010868110020ECD001082C
:100640006C11002008D1010824D101083CD1010817
:1006500054D1010808B50CF031F808BD10B5836815
:10066000C26853F82230012118780EF01FFE0446AC
:1006700078B9032000F0AEFC00B910BD00F0CAFC50
:1006800000F0C9FC22460B490B4B186804F026FF0A
:10069000F3E7012000F09EFC0028EED000F0BAFC49
:1006A00000F0B9FC22460549034B186804F016FF18
:1006B000E3E700BFC0D1010844180020E4D10108DD
:1006C00070B582B08368C26853F822301B78134A31
:1006D000137013F0020F0ED0114C13F0010F0CD059
:1006E0000F4D13F0040F0AD00D4E032000F072FCE2
:1006F00038B902B070BD0B4CEFE70A4DF1E7094E77
:10070000F3E700F087FC00F086FC00962B462246BB
:1007100005490648006804F0E1FEEAE7AC10002055
:1007200014D0010808D0010814D201084418002090
:1007300008B505F089FB08BD70B58268C36852F83A
:1007400023100C78013352F823301D7829462046B7
:100750000FF096FA80B9032000F03CFC00B970BDA0
:1007600000F058FC00F057FC2B4622460B490C4881
:10077000006804F0B3FEF2E70646012000F02AFC10
:100780000028ECD000F046FC00F045FC324605495C
:10079000034B186804F0A2FEE1E700BF4CD2010849
:1007A000441800207CD2010810B586B000210591C4
:1007B00005AA03F064F9059A102A06D0032000F078
:1007C00009FC002862D106B010BD014601A81AF04C
:1007D00099FC01A80FF0EAFA0446002847D103204B
:1007E00000F0F8FB78B100F015FC00F014FC2D4986
:1007F0002D4B186804F072FE05E0032000F0EAFBC0
:10080000C0B90134E4B20F2C22D80F2CF5D003204C
:1008100000F0E0FB0028F4D000F0FCFB00F0FBFB54
:1008200006AB234413F8142C20491F4B186804F01E
:1008300055FEE6E700F0EEFB00F0EDFB06AB2344CF
:1008400013F8142C1A49184B186804F047FED8E71F
:10085000032000F0BFFB0028B5D000F0DBFB00F068
:10086000DAFB1449104B186804F038FEABE701209E
:1008700000F0B0FB0028A6D000F0CCFB00F0CBFBD2
:100880000D49094B186804F029FE9CE700F0C2FBF3
:1008900000F0C1FB10220949034B186804F01EFE4A
:1008A00091E700BFACD2010844180020A4D1010890
:1008B000C0D20108C8D20108CCD20108E8D2010890
:1008C00030B583B08368C26853F822301C7801A920
:1008D00020460FF071FC88B9032000F07BFB08B9BB
:1008E00003B030BD00F096FB00F095FB019B224663
:1008F0000B490C48006804F0F1FDF1E705460120C2
:1009000000F068FB0028EBD000F084FB00F083FBD4
:100910002A460549034B186804F0E0FDE0E700BFF4
:1009200010D30108441800202CD3010810B503206F
:1009300000F050FB50B910480FF038FA0BF06CFE85
:100940000446032000F046FB50B910BD00F062FBE6
:1009500000F061FB09490A4B186804F0BFFDEAE7A3
:1009600000F058FB00F057FB22460649044B18687C
:1009700004F0B4FDE9E700BF9C10002050D301084B
:100980004418002058D301080379012B70D12DE9B8
:10099000F04182B00546374B1B7813F0010F03D0AE
:1009A000037813F0010F29D0032000F013FB08B9DE
:1009B00000240BE000F02EFB00F02DFB6A882E498E
:1009C0002E4B186804F08AFDF2E70134AB79A3429C
:1009D00010DD032000F0FEFA0028F6D000F01AFB2C
:1009E00000F019FBAB681A5D2549244B186804F028
:1009F00075FDEAE7032000F0EDFA10B902B0BDE89A
:100A0000F08100F007FB00F006FB1C4BD3F80080E0
:100A1000A96801200BF058FD0646A96801200BF0DB
:100A200053FD0746A968043101200BF04DFD044633
:100A3000A968043101200BF047FD0146114DA5FBCB
:100A400007239B094FF47A7CA5FB0602A5FB0160F6
:100A500080090CFB10110191A5FB0414A40900945A
:100A60000CFB137392090849404604F037FDC5E7B3
:100A7000704700BFAC10002070D30108441800205C
:100A800088D30108D34D621090D3010800B9704794
:100A900010B50446032000F09DFA00B910BD00F027
:100AA000B9FA00F0B8FA22460249034B186804F07C
:100AB00015FDF3E7BCD301084418002010B59028B9
:100AC00011D0044691281DD0032000F083FA70B1A4
:100AD00000F0A0FA00F09FFA22461249124B186863
:100AE00004F0FCFC03E0032000F074FA00B910BD30
:100AF00000F090FA00F08FFA0C490B4B186804F0E4
:100B0000EDFCF4E7032000F065FA0028EFD000F0D8
:100B100081FA00F080FA0649034B186804F0DEFC05
:100B2000E5E700BFE4D3010844180020C8D301085A
:100B3000D4D3010838B505460C46032000F04AFA24
:100B400000B938BD00F066FA00F065FA2B4622467F
:100B500002490348006804F0C1FCF2E7FCD3010835
:100B60004418002008B509F059FF18B1034800F0F7
:100B70009EFC08BD014800F09FFCFAE7F4DA01088A
:100B800010B580B10446012000F024FA00B910BD70
:100B900000F040FA00F03FFA22460A490A4B186872
:100BA00004F09CFCF3E7032000F014FA0028EED0D8
:100BB00000F030FA00F02FFA0449034B186804F0F3
:100BC0008DFCE4E734D40108441800205CD401080B
:100BD000F0B583B004460D4616461F46032000F0CC
:100BE000F9F908B903B0F0BD00F014FA00F013FAF7
:100BF000019700962B46224602490348006804F0FC
:100C00006DFCEFE774D401084418002008B506F025
:100C10008DFD06F097FD05F033FEFAE708B5024BAF
:100C20001B6803B1984708BDD014002008B5024BDB
:100C30005B6803B1984708BDD014002008B5024B8B
:100C40009B6803B1984708BDD014002008B5024B3B
:100C5000DB6803B1984708BDD014002008B5024BEB
:100C60001B6903B1984708BDD014002008B5024B9A
:100C70005B6903B1984708BDD014002070477047E6
:100C800008B507F0AFFA08BD704770477047704766
:100C9000704770477047704770477047704770479C
:100CA0007047704770477047704708B500214FF094
:100CB000FF300DF06DFF08BD08B500F0D6F908BD96
:100CC00030B585B0094C2268094B1A60094D0A4BB2
:100CD0002B600A4B019304F0A5FB02902B68039351
:100CE00001A9206802F076FF05B030BDBC100020DD
:100CF000C41F0020C01F0020B010002080DA0108AF
:100D000008B5024B186802F079FF08BDBC1000203E
:100D100038B504F087FB0446064D2B68D3F8B002C3
:100D200004F074FB286802F083FF204604F06EFB99
:100D300038BD00BFBC10002008B50321802001F0A1
:100D4000E3FB03214FF4806001F0DEFB0A214FF446
:100D5000C06001F0D9FB0A214FF4F06001F0D4FB30
:100D60000A213E2001F0D0FB0A212D2001F0CCFB0E
:100D70000A21512001F0C8FB002008BD10B5284B06
:100D80005A6E02F4803203F580514FF48030486689
:100D9000586E4FF000434B66224B596C01F0010135
:100DA0004AF6CD341C641F4B5B6B13F0010FFAD174
:100DB0001D4B01245C601B4B1B6B13F0010FFAD021
:100DC0001A4BD3F8083613F0020F03D1164B4FF429
:100DD0008024DC6511B1134B15491964002803DB2D
:100DE000144B4FF0004159661AB9124B4FF4803240
:100DF0005A6604F0DDF800F04BF904F06FF804F0E7
:100E0000F3F804F095F8FFF797FF04F07FF800F08F
:100E100035F904F0E5FF00F0B9FB05F059FC10BD11
:100E200000800040004009400060094000C00740C9
:100E30003254FFFF00A0004008B500F0C3F808BD21
:100E400008B502F0CFFD07F007F807F015F807F036
:100E500047F808BD08B500F0DFF808BD704708B5D1
:100E6000FFF756FF08BD08B507F016F807F01AF8A7
:100E700008BD704708B500F049F808BD08B500F096
:100E8000F0F806F079F804F0B3F804F027FD07F065
:100E900059FA05F03BFAFFF7EDFFFFF711FF08BD28
:100EA00010B59AB0164C0DF1480CA646BEE80F00DE
:100EB000ACE80F009EE80F008CE80F000DF11C0C51
:100EC00004F1200EBEE80F00ACE80F00BEE80F00F2
:100ED000ACE80F009EE807008CE807000DF10C0C51
:100EE00004F14C030FCB8CE80F00064B009307ABCB
:100EF00012AA6146044804F08BFB1AB010BD00BF73
:100F000098DA0108A41700202018002008B5FFF780
:100F1000C7FF08BD08B5024B186804F08DFC08BD7A
:100F20002018002008B5024B186804F085FC08BDA5
:100F30002018002008B5024B1A6A1868904708BDAF
:100F400020180020012070470120704738B5FFF7B6
:100F5000D7FE044606F0E8FF054600B1254604F03A
:100F60002DFF044600B12C46FFF7ECFF00B12046F0
:100F700038BD38B505F054FD0446FFF7DBFF042803
:100F800011D0022811D0002504F01AFF04280FD038
:100F900002280FD0FFF7D8FF04280FD002280BD06B
:100FA0006DB100240BE00125EEE700250124EBE7FD
:100FB0000125EFE70124EDE70124F1E700242046B5
:100FC00038BD000008B5024800F06CFA08BD00BF4B
:100FD000F4DA010803460B4A107828B10A4A12785D
:100FE0009A4202D2002000E00120084A12783AB169
:100FF000074A127842FA03F313F0010F00D10020E0
:10100000704700BFC3100020C41000204818002003
:10101000C51000207047704708B5084B01221A70B0
:10102000074B00221A70074B04221A70064B1F222E
:101030001A7004F0F7F9054B186008BDC3100020C2
:1010400048180020C4100020C510002044180020BB
:1010500008B5012304220021184602F0F7F9002008
:1010600008BD08B5FFF7F4FF08BD08B5002304224A
:101070001946012002F0EAF9002008BD08B5012157
:101080003A2000F0FFFDFFF717FE00F017F808BD4B
:1010900008B501213A2000F0F5FD08BD024B1022F1
:1010A000C3F8A020704700BF00E00340024B1022AD
:1010B000C3F8A020704700BF00D00340F0B58FB048
:1010C000464C09AD26460FCE0FC533682B600DF197
:1010D000040C14340FCCACE80F0094E80F008CE83B
:1010E0000F0001213A2000F0CDFD0121572000F032
:1010F000C9FD01258DF8095000248DF80840384BB2
:101100000B9301AB0D93374F09A9384602F09AF9BA
:101110002B4604222946022002F098F923462A464B
:101120000221084602F092F92B46042203210220F4
:1011300002F08CF92B4604221146022002F086F9B7
:10114000294E2A4BC6F8F8344FF00213C6F8F4348F
:10115000A3F58033C6F8FC341C23C6F8E4344FF4FE
:10116000487006F045FEFFF799FF142006F040FE98
:10117000FFF79CFF232006F03BFEFFF78FFFB9210E
:10118000384601F0E6FEFFF791FF23462246294646
:10119000022002F05BF9234622460221084602F0B3
:1011A00055F92B4622460321022002F04FF92B4627
:1011B00022460421022002F049F9384601F036FEA9
:1011C000C6F8F844C6F8F444C6F8FC44C6F8E4444B
:1011D0002146572000F056FD0FB0F0BD0CDB010892
:1011E000E070720000000A4000C0034002000300EB
:1011F000FEE7000008B500F013F8064B064A03E0CE
:1012000052F8041B43F8041B04498B42F8D3FEF741
:10121000D3FF00BF9C1000207C2302088014002014
:10122000044B054A9A60D3F8882042F47002C3F850
:101230008820704700ED00E000000008014B1868AE
:10124000704700BFCC10002008B5094B1B6F03F09E
:101250000703022B04D0032B05D0012B06D0FEE799
:10126000FFF7ECFF03E0034B186800E0024808BDFD
:1012700000800040D0100020002D310108B5FFF79C
:10128000E3FF054B1B6FC3F303330133B0FBF3F0F4
:10129000024B186008BD00BF00800040C81000204D
:1012A0000048704700B4C404014B1868704700BF81
:1012B000D010002008B5064B1860064B1B6F03F0DA
:1012C0000703032B00D008BDFFF7D8FFFBE700BFE3
:1012D000D010002000800040002070470048704778
:1012E000002D31014FF094439868C0F304400C285E
:1012F00008D8DFE800F009070707070722181A07D0
:101300001C1E2000002070474FF094439B6803F0A0
:101310004073B3F1807F12D0B3F1007F11D003B1DD
:10132000704709487047094870470948704709489D
:10133000704709487047094870470948704709488D
:1013400070470948ECE700BF00093D000024F400A5
:10135000C0EA210180BA8C010048E801005A62020B
:10136000405DC60080841E0040420F004FF40040E4
:1013700070474FF47A707047014B1868704700BF90
:10138000D410002000230360704703680B600160E5
:10139000704700E01846036823B18B42FAD10B680E
:1013A000036070477047D0B18446C2B1B9B1002024
:1013B000137883B100B501F1FF3E864506D90CF8DC
:1013C000013B013201301378002BF4D100238CF85B
:1013D00000305DF804FB00238CF800307047704744
:1013E000034640B1002001E0013301301A781AB100
:1013F0008842F9D370470020704708B54FF0FF319D
:10140000FFF7EEFF08BD80B170B50C4615460646E5
:1014100022B119B1FFF7F1FF844200D870BD2A460E
:10142000211A3044FFF7BFFFF8E77047F0B1844658
:10143000F1B110B409E004F120030FE02030181AD4
:1014400018D1BCB10CF1010C01319CF800400B4BE0
:10145000E35C03F00303012BEDD023460878074A31
:10146000825C02F00302012AE9D1E7E7012070471C
:10147000012070475DF8044B704700BFB921020896
:101480000346064A10680344054A934202D8034AB9
:10149000136070474FF0FF30704700BFD810002036
:1014A0000000012008B543680068984708BD08B5EA
:1014B00083680068984708BD08B5C3680068984706
:1014C00008BD10B5044601213A2000F0DBFBA378EB
:1014D000B3FA83F35B0904226178207801F0B6FF48
:1014E000002010BD83784BB90378427801219140E8
:1014F00003EB43031B01064AD1507047037842783F
:101500000121914003EB43031B01024AD150704774
:1015100040E0034040D0034083784BB903784278E1
:101520000121914003EB43031B01064AD150704750
:10153000037842780121914003EB43031B01024AE7
:10154000D150704740D0034040E0034003784278D8
:101550000121914003EB43031B01014AD150704725
:1015600040F0034002460378407803EB43031B013D
:10157000103305495B58C34003F0010093780BB961
:1015800080F00100704700BF30C0034008B5034B36
:101590001968034B186810F051FA08BDE0100020DC
:1015A000DC100020B0F1FF3F01D010B970470248B5
:1015B00070470248704700BF21E000F024E000F0CF
:1015C0008908002301E0043001338B4205D2026810
:1015D000B2F1FF3FF7D000207047012070477047FD
:1015E00038B504461BF0B8FCFFF7DCFF054650B9E0
:1015F000074B9B680A3303F01F03012199402046E3
:10160000FFF7DEFF08B1284638BD024DFBE700BFFB
:101610000080E00F0EE000F0F8B505460E4694009D
:1016200022461BF0A1FCFFF7BDFF074608B1384674
:10163000F8BD22463146284619F054FD0028F6D060
:10164000004FF4E710E000F008B50346084613F039
:10165000030F02D111F0030F0AD09200194619F0BE
:1016600051FD002008BD53F8041B40F8041B013A4B
:10167000002AF8D1F5E7000010B582B0044601A8B1
:1016800001F0C0FF9DF8063023800122E2700020A7
:10169000A070054B9B680A3303F01F0302FA03F3A3
:1016A000636002B010BD00BF0080E00F08B501F01C
:1016B00049FF08BD08B501F035FF002008BD000056
:1016C00008B501F0E3F9014B186008BDE01E0020E9
:1016D00008B5024B186801F0DDF908BDE01E0020D6
:1016E00008B50A464118013904F074FE08BD00002F
:1016F000024B4FF480321A67704700BF00900040E1
:1017000038B505460C46FFF79FFD05B128600CB1C2
:101710000D23237038BD000038B505460C46164B26
:10172000D3F8203103F00703013B052B20D8DFE875
:1017300003F0030B130F171BFFF780FD052305B103
:10174000286004B1237038BDFFF7AEFD0323F6E730
:10175000FFF7C8FD0723F2E7FFF7C0FD0223EEE71E
:10176000FFF76CFD0623EAE7FFF79EFD0423E6E79B
:1017700000231846E3E700BF0080004038B5054667
:101780000C46114BD3F8283103F00703013B032B20
:1017900017D8DFE803F0020E120AFFF74FFD05230A
:1017A00005B1286004B1237038BDFFF79BFD072306
:1017B000F6E7FFF779FD0323F2E7FFF78FFD02233A
:1017C000EEE700231846EBE70080004030B583B019
:1017D00005460C4600230193114BD3F8803103F0EA
:1017E0000303022B16D0032B0FD0012B07D00023AD
:1017F0000DB1019A2A6004B1237003B030BD0021FD
:1018000001A8FFF789FF0F23F2E7FFF76BFD0190B7
:101810000723EDE7FFF762FD01900223E8E700BF31
:101820000080004038B505460C460C4BD3F890328A
:1018300003F00303012B05D0022B07D1FFF752FD64
:10184000072305E0FFF74AFD022301E000231846C5
:1018500005B1286004B1237038BD00BF008000408E
:1018600030B583B005460C4600230193144BD3F8E2
:10187000203203F00703013B032B1ED8DFE803F0FF
:10188000020E1318002101A8FFF778FF11230DB1F4
:10189000019A2A6004B1237003B030BDFFF722FD26
:1018A00001900723F3E7FFF761FD01900A23EEE7BC
:1018B000FFF762FD01900923E9E70023E7E700BF96
:1018C0000080004038B505460C460F4BD3F8403138
:1018D00003F00303022B0ED0032B10D0012B06D0F4
:1018E0000023184605B1286004B1237038BDFFF706
:1018F0003DFD0A23F6E7FFF73FFD0923F2E7FFF777
:1019000038FD0B23EEE700BF0080004030B583B008
:1019100005460C46002301934FF0E0231B6913F0AA
:10192000040F0ED0FFF7AAFC01900C238DF80330B2
:101930000DB1019B2B6014B19DF80330237003B0EF
:1019400030BD0DF1030101A8FFF7BCFFF0E7000077
:1019500030B583B005460C4600230193144BD3F8F1
:10196000603203F00703013B032B1FD8DFE803F0CD
:10197000020E1914002101A8FFF7CEFE0F230DB1AE
:10198000019A2A6004B1237003B030BD002101A880
:10199000FFF798FF1023F2E7FFF7A4FC019007235D
:1019A000EDE7FFF79BFC01900223E8E70023E6E761
:1019B0000080004030B583B005460C4600230193FB
:1019C0000C4BD3F8703203F00303012B09D0022B28
:1019D0000DD114230DB1019A2A6004B1237003B014
:1019E00030BD002101A8FFF76DFF1023F2E70023AF
:1019F000F0E700BF0080004038B505460C46124BAA
:101A0000D3F8003203F00703013B032B18D8DFE8BB
:101A100003F0020A0E12FFF7A9FC0A2305B12860A1
:101A200004B1237038BDFFF7A7FC0923F6E7FFF7E1
:101A3000A0FC0B23F2E7FFF721FC800A0E23EDE761
:101A400000231846EAE700BF0080004038B505468D
:101A50000C46124BD3F8083203F00703013B032B6B
:101A600018D8DFE803F0020A0E12FFF77FFC0A2302
:101A700005B1286004B1237038BDFFF77DFC092350
:101A8000F6E7FFF776FC0B23F2E7FFF7F7FB800A98
:101A90000E23EDE700231846EAE700BF0080004070
:101AA00038B505460C460F4BD3F8403203F003031C
:101AB000022B0ED0032B10D0012B06D0002318468A
:101AC00005B1286004B1237038BDFFF74FFC0A232D
:101AD000F6E7FFF751FC0923F2E7FFF74AFC0B2377
:101AE000EEE700BF0080004038B505460C460F4BBE
:101AF000D3F8503203F00303022B12D0032B08D08B
:101B0000012B0AD00023184605B1286004B12370C8
:101B100038BDFFF72EFC0B23F6E7FFF727FC0A235F
:101B2000F2E7FFF729FC0923EEE700BF0080004041
:101B300038B505460C460F4BD3F8603103F003036C
:101B4000022B0ED0032B10D0012B06D000231846F9
:101B500005B1286004B1237038BDFFF707FC0A23E4
:101B6000F6E7FFF709FC0923F2E7FFF702FC0B2376
:101B7000EEE700BF0080004038B505460C46104B2C
:101B8000D3F8000100F00300032815D8DFE800F0C7
:101B900002080C10012305B1286004B1237038BD80
:101BA000FFF782FB0323F6E7FFF7E6FB0923F2E7E3
:101BB000FFF792FB0823EEE700231846EBE700BF90
:101BC00000800040B0F5207F20D00ED8B0F5007F17
:101BD00016D020D810B1B0F5C07F04D10F4B186FCC
:101BE000C0F3033018E0002016E0B0F5607F05D1A7
:101BF0000A4BD3F88000C0F301100DE000200BE089
:101C0000064BD3F89000C0F3046005E0034B186F57
:101C1000C0F3802000E000200130704700800040C9
:101C200038B505460C46104B4FF480329A660020BA
:101C3000FFF7C8FF05FB00F00C4BDA6902F48032B5
:101C400041F67131D9635B6823F440130849884237
:101C500001D9002C05DD05494B600AB10022CA6399
:101C600038BD43F48013F6E70090004000000340C5
:101C7000005A620208B5FFF713FB0021FFF7D0FFFF
:101C800008BD0000430905D0012B0ED0022B0ED059
:101C9000002200E0002200F01F0051B102F5805246
:101CA000012303FA00F010607047034AF3E7034A88
:101CB000F1E702F50052F3E76480004068800040DD
:101CC00010B582B0002301930093B0F5807F00F23D
:101CD0000781B0F5807F00F27581DFE810F04C01DC
:101CE0007301730173017301730173017301730154
:101CF0007301730173017301730173017301730144
:101D00007301730173017301730173017301730133
:101D100073017301730173017301730173014C014A
:101D200085014C0185019D019D019D019D019D0144
:101D30008501A2013D01AC0123013D018501850121
:101D400085017301730173017301730173017301E1
:101D5000AC01850185018501C001B10185017301D7
:101D600073017301730173017301730173017301D3
:101D7000730173017301B6019D014C014C014C01CB
:101D80006D013D013D016201BB0156017C017C01F9
:101D900073017301730173017301730173017301A3
:101DA0007301730173017301730173017301730193
:101DB0007301730173017301730173017301730183
:101DC0007301730173017301730173017301730173
:101DD0007301730173017301730173017301810155
:101DE0007301730173017301730173017301730153
:101DF0007301730173017301730173017301730143
:101E00007301730173017301730173017301730132
:101E10007301730173017301730173017301730122
:101E20007301730173017301730173017301730112
:101E30007301730173017301730173017301730102
:101E400073017301730173017301730173017301F2
:101E500073017301730173017301730173017301E2
:101E600073017301730173017301730173017301D2
:101E700073017301730173017301730173017301C2
:101E800073017301730173017301730173017301B2
:101E900073017301730173017301730173017301A2
:101EA0007301730173017301730173017301730192
:101EB0007301730173017301730173017301730182
:101EC0007301730173017301730173017301730172
:101ED0007301730173017301730173017301A7012E
:101EE000B0F5E06F00F0AC800CD9B0F5286F00F0D1
:101EF000B1804FD9B0F5306F63D1002101A8FFF751
:101F000091FC5FE0B0F5607F79D010D9B0F5B06F8B
:101F100000F0878033D9B0F5C06F00F08C80B0F549
:101F2000D06F4FD1002101A8FFF766FD4AE0B0F560
:101F3000007F0AD1FFF788F904464FF40070FFF7DD
:101F400041FEB4FBF0F401943CE011D9B0F5207FE0
:101F50004AD0B0F5407F35D1FFF790F904464FF4F1
:101F60002070FFF72FFEB4FBF0F46408019429E021
:101F7000B0F5C07F26D1FFF781F9019022E0B0F5DE
:101F8000806F49D0B0F5A06F1CD1002101A8FFF7E8
:101F900067FC17E0B0F5186F57D007D9B0F5206F80
:101FA00010D1002101A8FFF7D3FC0BE0B0F5F06FD2
:101FB00055D0B0F5106F05D1002101A8FFF746FDFF
:101FC00000E002D2019802B010BDB0F5386F32D0F7
:101FD000B0F5406FF6D1002101A8FFF7CFFBF1E784
:101FE000FFF732F90190EDE7FFF748F904464FF4A7
:101FF0002070FFF7E7FDB4FBF0F40194E2E7002165
:102000006846FFF77DFB009C4FF46070FFF7DAFD38
:10201000B4FBF0F40194D5E7002101A8FFF77CFBA5
:10202000D0E7002101A8FFF7D1FBCBE7002101A8F1
:10203000FFF76CFCC6E7002101A8FFF743FCC1E7EE
:10204000002101A8FFF72CFDBCE7002101A8FFF744
:102050004BFDB7E7002101A8FFF7ACFCB2E7002178
:1020600001A8FFF765FDADE708B58020FFF728FE62
:10207000034B984203D8034B4FF480321A6708BDD4
:10208000005A620200A0004000B583B000238DF822
:102090000730B0F5807F00F0BE8013D9B0F5086F2F
:1020A00000F0C58046D9B0F5286F00F0D88070D90F
:1020B000B0F5306F40F082800DF107010020FFF78E
:1020C000B1FB7CE080287AD8242878D324385C2897
:1020D00075D8DFE800F04F4F4F4F4F744674A65845
:1020E0007474747474747474747474A67474743AB8
:1020F000B874747474747474747474747474BE4F37
:102100007474746D747464C4B27F7F747474747402
:10211000747474747474747474747474747474747F
:10212000747474747474747474747474747474746F
:1021300074748500B0F5C06F73D00CD9B0F5E06F42
:1021400000F08180B0F5F06F1AD10DF10701002089
:10215000FFF7EEFC33E0B0F5A06F6ED0B0F5B06FD6
:1021600005D10DF107010020FFF730FB27E0B0F5A6
:10217000806F24D10DF107010020FFF7CDFA1EE09A
:10218000B0F5D06F1BD10DF107010020FFF734FC33
:1021900015E0B0F5186F5CD0B0F5206F05D10DF1EA
:1021A00007010020FFF7D4FB09E0B0F5106F06D15E
:1021B0000DF107010020FFF749FC00E004D29DF873
:1021C000070003B05DF804FBB0F5386F29D0B0F517
:1021D000406FF4D10DF107010020FFF7CFFAEEE7D1
:1021E000224B1B6F03F00703013B032BE7D8DFE80B
:1021F00003F00E02060A05238DF80730DFE70323FC
:102200008DF80730DBE708238DF80730D7E7022386
:102210008DF80730D3E70DF107010020FFF776FBBB
:10222000CDE70DF107010020FFF74CFBC7E70DF1EB
:1022300007010020FFF7A0FCC1E70DF10701002016
:10224000FFF70EFBBBE70DF107010020FFF728FCAD
:10225000B5E70DF107010020FFF746FCAFE70DF1F0
:1022600007010020FFF7A6FBA9E700BF00800040A0
:1022700070B505468020FFF707FF032800F0A18016
:10228000584B4FF480125A66574B45F60E02C3F86E
:10229000802003F580524FF0A061916203F5005356
:1022A0004FF480329A62504B9C6D14F48034FAD112
:1022B0002A786B781B0543EA0263EA7843EA024313
:1022C0002A7943EA02336A7943EA8213AA791343EB
:1022D000454E3361B36903F00043EA7943EA826310
:1022E0002A7A43EA02636A7A43EA0243AA7A43EA11
:1022F0000223EA7A1343B36100F0C8FBB26B82F4A5
:10230000006303F440635340B36300F0C3FB336ADC
:1023100023F00F036A7B02B1082423432C7B43EA9A
:1023200084031343304A13626B7B002B30D1916AD4
:102330002E4B0B40A97B43EA4113E97B43EA01138F
:10234000A97C43EAC10343F480339362264B9A6D20
:10235000274B9343FAD1244A02F580514FF0807302
:102360008B62136923F47003A87843EA0053136166
:102370004FF000438B612B7C1BB91E4B4FF08072DA
:102380009A626B7CBBB91B4B4FF480329A6212E0AD
:10239000022B17D0144A916A144B0B40A97B43EAD5
:1023A0004113297C43EA0163A97C43EAC103697CA8
:1023B00043EA01439362EB7C1BB10B4B0E4AC3F81B
:1023C000802070BD084C00232361A36100F05EFBF8
:1023D000626B82F4085303F47F435340636300F05D
:1023E00059FBD7E7009000400040004AC7FFFEFEBF
:1023F000030001000060004AF1A7FFFF014B93F9C1
:10240000000070470011002008B5002903DD0121FC
:10241000FFF706FC08BD0021FFF702FCFAE7000009
:10242000B0F5207F4AD02FD8B0F5007F3BD04ED8F2
:1024300010B1B0F5C07F26D110B54C1EFFF71AFCC5
:1024400000F048F8FFF754F9214B196F21F470415F
:1024500041EA04311967FEF711FF4FF04023D3F82A
:10246000843013F0100FF8D14FF04023D3F88410CC
:10247000C1F38111C1F10201FFF7C6FF00F032F88C
:10248000FFF7F2FD10BD7047B0F5607F0AD101394A
:102490000F4AD2F8803023F0300343EA0111C2F82A
:1024A0008010704770470139094AD2F8903023F004
:1024B000F85343EA0161C2F8901070470139044AA9
:1024C000136F23F4806343EA8121116770477047DB
:1024D0000080004008B502214FF42070FFF7A0FFF4
:1024E00008BD000008B54FF4C070FFF7E9FB054BCD
:1024F000984205D902214FF42070FFF791FF08BDE3
:102500000121F8E780F0FA0270B50C46B0F5807F43
:1025100000F094811FD9B0F5086F00F0108240F2EE
:102520008380B0F5286F00F0998240F2D180B0F539
:10253000306F40F0F880022900F0A282072940F0B5
:10254000A1820221874AD2F8903223F003030B4381
:10255000C2F89032E8E0802800F2E6802428C0F03B
:10256000E38024385C2800F2DF80DFE810F0990077
:102570009900990099009900DD008300DD00A80111
:10258000A500DD00DD00DD00DD00DD00DD00DD009B
:10259000DD00DD00DD00DD00A801DD00DD00DD0087
:1025A00069002D02DD00DD00DD00DD00DD00DD0065
:1025B000DD00DD00DD00DD00DD00DD00DD004302CB
:1025C0009900DD00DD00DD00D000DD00DD00B80099
:1025D0007702FE01E500E500DD00DD00DD00DD0045
:1025E000DD00DD00DD00DD00DD00DD00DD00DD0003
:1025F000DD00DD00DD00DD00DD00DD00DD00DD00F3
:10260000DD00DD00DD00DD00DD00DD00DD00DD00E2
:10261000DD00DD00DD00DD00DD00DD00DD00DD00D2
:10262000DD00DD00DD00F100B0F5C06F00F0478196
:1026300019D9B0F5E06F00F0C781B0F5F06F38D16F
:102640000A2C00F054810B2C00F05381092C00F06F
:102650004C810021434AD2F8603123F003030B433D
:10266000C2F8603160E0B0F5A06F00F07E81B0F597
:10267000B06F12D1072C00F0C7800F2C00F0C6807D
:10268000022C00F0BF800021364AD2F8803123F0BE
:1026900003030B43C2F8803146E0B0F5806F43D1AD
:1026A000023C052C00F2B480DFE804F0B8B4BCBEF4
:1026B000BAB6B0F5D06F37D1093C052C00F21B81BA
:1026C000DFE814F02301290125011901190127016F
:1026D000B0F5186F00F08E81B0F5206F14D1023C78
:1026E0000E2C00F29D81DFE814F0B7019B019B01E5
:1026F0009B019B01B1019B019B019B019B019B01E4
:102700009B019B01B301B501B0F5106F0CD1093CE1
:10271000052C00F20281DFE814F00A0110010C011F
:10272000000100010E0100D270BDB0F5386F00F05D
:10273000C680B0F5406FF7D1023C052C00F2328123
:10274000DFE814F03C013E013001400130013A0164
:102750008B1E062B08D8DFE803F04F3D0752070712
:102760004C0000BF0080004000252E4601210220C1
:1027700000F0F8F9FFF77EFAFFF7ACFEFEF7B8FFBE
:10278000AC4A136F23F0070333431367FEF776FD5C
:102790004FF04023D3F8843013F0100FF8D14FF0EE
:1027A0004023D3F88410C1F38111C1F10201FFF776
:1027B0002BFE0121002000F01FFAFFF793FEFFF728
:1027C00053FC002DB0D1032CAED19B4B4FF4803283
:1027D0009A62A9E7994B4FF480125A66984B9D6A0A
:1027E000C5F3006503F580534FF480329A620326E7
:1027F000BCE700250426B9E700250126B6E7002539
:102800000226B3E702213FE703213DE701213BE731
:1028100000210AE0022108E0042106E0032104E08F
:10282000052102E0062100E00121824AD2F8203190
:1028300023F007030B43C2F8203175E70C2924D09D
:102840001FD8A1F10904E4B2022C3FF66DAF794B19
:10285000596E03F580534FF480325A66794A536AB1
:1028600043F00103536211F4803F03D1764B4FF4E0
:1028700080325A664FF0E022136923F0040313619B
:1028800052E710297FF450AFE1E76A4B596E03F528
:1028900080534FF480325A666A4A536A23F0010328
:1028A000536211F4803F03D1674B4FF480325A6674
:1028B0004FF0E022136943F00403136134E70A2C5C
:1028C0000FD00B2C0FD0092C09D00021594AD2F877
:1028D000403123F003030B43C2F8403124E70221C7
:1028E000F4E70121F2E70321F0E70221B2E601213A
:1028F000B0E60321AEE600214E4AD2F8003223F0C2
:1029000007030B43C2F800320EE70221F4E703216C
:10291000F2E70421F0E70121EEE70021454AD2F871
:10292000083223F007030B43C2F80832FCE6022109
:10293000F4E70321F2E70421F0E70121EEE708299B
:102940000FD009290FD0032909D00021394AD2F824
:10295000003123F003030B43C2F80031E4E6012108
:10296000F4E70321F2E70221F0E7073C0A2C07D83D
:10297000DFE804F010061412060606060606160026
:1029800000212C4AD2F8203223F007030B43C2F86F
:102990002032C9E60221F4E70321F2E70421F0E73F
:1029A0000121EEE70021234AD2F8283123F0070362
:1029B0000B43C2F82831B7E60421F4E70321F2E71C
:1029C0000221F0E70121EEE70A2C0FD00B2C0FD0EB
:1029D000092C09D00021174AD2F8403223F0030312
:1029E0000B43C2F840329FE60221F4E70121F2E7EF
:1029F0000321F0E70A2C0FD00B2C0FD0092C09D0A3
:102A000000210C4AD2F8503223F003030B43C2F8E2
:102A1000503289E60221F4E70121F2E70321F0E7D1
:102A20000021044AD2F8603223F007030B43C2F8B6
:102A3000603279E6008000400060004A009000406B
:102A40000040004A00C0074000A000400421E8E721
:102A50000121E6E70221E4E70321E2E7102C0BD095
:102A6000142C0BD10221084AD2F8703223F0030350
:102A70000B43C2F8703257E60121F4E70021F2E778
:102A800001215FE500215DE500800040EFF310804B
:102A900072B6704700B962B67047302383F311886D
:102AA0007047002383F311887047EFF311803023C0
:102AB00083F31188704780F311887047EFF3108318
:102AC00013F0010F05D1EFF311832F2B03D8002052
:102AD000704701207047012070474FF04022536F2C
:102AE00023F44073417843EA0123536770477047EA
:102AF0007047000010B50446094A136943F0040307
:102B0000136104F087F8FFF7F2FF30BFFFF7F0FF23
:102B100004F096F804B110BDFEF7B0FBFBE700BF70
:102B200000ED00E010B50446074A136943F00403C2
:102B3000136104F06FF830BF04F082F804B110BDE7
:102B4000FEF79CFBFBE700BF00ED00E0704770471D
:102B50004FF04022D36E23F0300301790B43D3664C
:102B600070477047F8B504464FF04023D3F88430DF
:102B700013F0100FF8D14FF04023D3F88430C3F393
:102B800081139C4231D0FEF75FFB0646012C12D028
:102B9000FFF77CFF05464FF0402707F500534FF045
:102BA00000725A662046FFF7DCFF621E4FF4806316
:102BB00093403B6707E00121FFF726FCE8E74FF071
:102BC0004023D3F884304FF040235B6E13F0007F36
:102BD00006D14FF04023D3F8843013F0200FEED00D
:102BE0002846FFF757FF022C00D0F8BD00213046E1
:102BF000FFF70AFCF9E7000010B50C46034650B198
:102C0000094A127812B1094A934208D92146022092
:102C1000FFF7A8FF10BDFEF717FB0346F0E72146BC
:102C20000120FFF79FFFF5E7941F0020005A620282
:102C300008B50278034B1A7001210020FFF7DCFF72
:102C400008BD00BF941F00201B4B4FF000425A6686
:102C500003F50B235A6C02F001024AF6CD311964D8
:102C600090B9164B5B6B13F0010FFAD1134B5B68F5
:102C700013F0010F1BD0124B012159600F4B1B6B3E
:102C800013F0010FFAD012E00C4B1B6B13F0080F7E
:102C9000FAD10A4B03F500512020886203F58053D6
:102CA00001215960054B9B6A13F0200FFAD012B135
:102CB000024B044A1A6470470090004000400940EB
:102CC000006009403254FFFF10B5194B4FF000422D
:102CD0005A6603F50B235C6C04F001044AF6CD320E
:102CE0001A6443785B0043F001034FF04022D36342
:102CF000104B5B6B13F00B0FFAD10E4A536823F4A1
:102D0000F873817843EA01135360C178437943EA49
:102D1000012393600179837943EA012313610078E9
:102D2000FFF792FF14B1034B034A1A64012010BD50
:102D300000900040004009403254FFFF10B40F28BB
:102D400000D90F20124B5C6E03F580534FF0004208
:102D50005A6603F50B235A6C02F001024AF6CD3194
:102D600019640C4B5B6B13F0800FFAD109490B6AA5
:102D700023F00F03184308620AB1074A0A64002CC3
:102D800003DB064B4FF000425A665DF8044B704778
:102D900000800040004009403254FFFF00A0004086
:102DA00010B4134B5C6E03F580534FF000425A662B
:102DB00003F50B235A6C02F001024AF6CD31196477
:102DC0000C4B5B6B13F0800FFAD10A490B6A23F4AA
:102DD000F85343EA002008620AB1074A0A64002C4B
:102DE00003DB064B4FF000425A665DF8044B704718
:102DF00000800040004009403254FFFF00A0004026
:102E0000084B98420AD0084B984209D003F58043FA
:102E1000984201D0002070475820704756207047D4
:102E2000572070470000014B00000A40436813F030
:102E3000010F19D0836813F0010F03D0036913F059
:102E4000010F09D00A238363436D13F0500FFBD1A8
:102E5000836C13F0030FFBD100F5005301225A607D
:102E6000436813F0020FFBD1042307E000F5805301
:102E700004221A6100F500531A610B46591E002BFB
:102E8000F4D1202303610023C360836041F2020276
:102E9000426183614FF4A0224262C3610362836294
:102EA000C3624363036500F500520249D1640363C2
:102EB000704700BFFF3F0D030A46F1B100F5805394
:102EC0000121596002F00F01436DC3F30B03002B86
:102ED000FAD18163436D13F07803FBD112F0010F37
:102EE00000D0012312F0040F01D043F00203826CE2
:102EF00002F003029A42FAD17047436813F0010FBF
:102F0000FAD0836813F0010F03D0036913F0010FA7
:102F100009D00A238363436D13F0500FFBD1836CF8
:102F200013F0030FFBD100F5005301225A604368F0
:102F300013F0020FFBD17047836C13F0800FFBD0AE
:102F4000C06BC0B27047836C13F0400FFBD041647C
:102F50007047836C13F0400FFBD04164836C13F017
:102F6000800FFBD0C06B80B27047000038B50446BC
:102F700015460846E1B1A36813F0010F4ED0626810
:102F8000B0FBF5F0013812F001023BD0636D13F095
:102F9000280FFBD1A36C13F0030F0FD1A36C13F018
:102FA000010F2BD1A36C13F0020F29D1002106E0F1
:102FB0002046FFF725FFFEF783FEDCE70521636867
:102FC00013F0010F1FD0A36813F0010F03D0236982
:102FD00013F0010F09D00A23A363636D13F0500FA0
:102FE000FBD1A36C13F0030FFBD104F500530125B3
:102FF0005D60636813F0020FFBD104E00921DEE796
:103000000621DCE70021236923F07F4343EA0060C7
:1030100020610AB32046FFF74FFF1DE06368A368F5
:1030200003F0E003402B1DD017D9602B1ED0802B5E
:1030300012D10123400105FB03F3B0FBF3F020386C
:103040000B4B03EAC000636D13F0010FFBD120634B
:10305000636D13F0010FFBD138BD2BB1202BFBD1D9
:103060000823E7E70623E5E71023E3E70423E1E786
:10307000F8FF7F0070B504460D461646436823B13D
:10308000636DC3F30B03002BFAD12046FFF7CEFE8E
:10309000636923F44C5323F00F036A7B1343EA89DB
:1030A00013432A8A13436361A36823F0804323F008
:1030B000E2032A7B13432A7E13436A691343A36006
:1030C000AB681BB9A36843F00043A360EA69002A18
:1030D00074D0A368127A43EA8253A360A368EA69B2
:1030E000927A43EA4243A360A368EA69928802F4B1
:1030F000C0421343A360A368EA69527843EA82039B
:10310000A360A368EA69527B43EAC203A360A36891
:10311000EA69927B43EA0213A360A368EA699278A2
:1031200043EA8223A360EA699179D3795B0243EA97
:103130008123E360EB691B78012B01D0032B03D1C2
:10314000E36843F00403E360EB691B78023BDBB206
:10315000012B4DD9474B9C4267D0474B9C4266D0D0
:1031600003F580439C425ED04FF0FF3303F5937329
:103170005B0103F1804303F5703302225A60EB696F
:103180005A7A04F580539A62EB695B7A1BB1E36863
:1031900043F40063E360EB69DB7A7BB1E36843F4FB
:1031A0000043E360334B9C4243D0EB691B7B03F04D
:1031B0000F03324A1367324B9C4241D03EB196F81E
:1031C0002030002B42D004F5805301221A620521E1
:1031D0002046FFF771FEAA68002A46D129782046CA
:1031E000FFF76AFEA36CDB4313F4405FFAD170BDB6
:1031F000204B9C4213D0204B9C4212D003F58043BD
:103200009C420AD04FF0FF33A6335B0103F18043A9
:1032100003F5703302225A60B1E70223F4E700237A
:10322000F2E70123F0E70223A0E700239EE7012352
:103230009CE7EB691B7B03F00F03104A5366B4E76E
:10324000EB691B7B03F00F03D367B7E7E36923F058
:10325000090396F82220134396F82120134343F0E4
:10326000010304F58052D361B1E769682046FFF796
:103270007DFEB3E70000014B00000A4000900340D0
:1032800000400A4008B500231A46FFF7F3FE08BDC8
:1032900008B500231A46FFF7EDFE08BD70B50446D9
:1032A0000D460E69436823B1636DC3F30B03002B16
:1032B000FAD12046FFF7BAFD236923F087036A7B22
:1032C0001343AA7B134343F0800323611EB3236996
:1032D00023F0F8032A69117F43EAC113117943EA05
:1032E0004113517A43EA011311780B43D27B43EA2D
:1032F00082132361E36823F0F04323F470232A69E7
:1033000051690B4391690B43117B43EA8123527B43
:1033100043EAC233E360A36823F00303EA7B134369
:1033200043F00103A3603EB3A3682A69528802F404
:10333000C0421343A360A3682A69527943EA8223F7
:10334000A360636A23F4772323F4EE6329698A79FF
:10335000120102F070021343CA79120202F4E06211
:1033600013430A7A120302F4E04213434A7F120421
:1033700002F4702213436362636923F00F032A7B14
:1033800013436361D6B12B695B89A3612B695A7BB7
:1033900042B1284A944224D0274B9C4227D0274B45
:1033A0009C422BD02B69DA7B42B1224A94422CD02A
:1033B000214B9C422FD0214B9C4233D0AA68696894
:1033C0002046FFF7D3FD05212046FFF775FD636D0D
:1033D0002B78A363636DA36CDB4313F4405FFAD1D6
:1033E00070BD9B7B03F00F03154A5366D4E72B692E
:1033F0009B7B03F00F03124A1367D0E72B699B7B7B
:1034000003F00F030E4AD367CCE71B7C03F00F03D6
:103410000B4A1366CCE72B691B7C03F00F03084AA9
:10342000D366C8E72B691B7C03F00F03044A93673C
:10343000C4E700BF0000014B00000A4000400A4002
:103440000090034008B5FFF729FF08BD2DE9F84FAC
:1034500004460E461F4690463AB183B301228A4085
:1034600000EB400109012C4B5A50072E2FD804EBDA
:1034700044094FEA091909F10409DFF8A4A0B300CF
:103480000F2505FA03FB08FA03F5FFF7FFFA59F8D1
:103490000A305D4005EA0B055D4049F80A50FFF728
:1034A000F9FAB8F1000F08D16FB3012101FA06F65D
:1034B00004EB44042401184B1E51BDE8F88F01228F
:1034C0008A4000EB40010901144B5A50CDE704EB50
:1034D00044052D010C35DFF84890A6F108039B0048
:1034E0000F2202FA03FA08FA03FBFFF7CFFA55F8A6
:1034F00009308BEA030202EA0A025A4045F8092021
:10350000FFF7C8FACDE7012101FA06F604EB4404FF
:103510002401024B1E51D0E740D0034040E003405D
:1035200030C00340064B4FF480329A6603F51C33DB
:1035300041F67132DA6303F500530122DA60704715
:1035400000900040074B41F67132DA6303F50052F8
:103550000121D1600022DA63A3F518334FF48032E1
:103560009A66704700000340024B4FF400321A671E
:10357000704700BF005000404FF04023D3F8940044
:103580007047436813B9416070475B685A68012A05
:10359000FBD159607047836813B9816070475B68DD
:1035A0005A68012AFBD159607047C369032B05D8BB
:1035B0009A1C00EB820251600133C3617047C269FB
:1035C000042A1DD84FF098431B6C13F4801FF9D0C8
:1035D000043292004FF098431A6502681A604268FC
:1035E0001A6082681A600023C2699A4208D99A1C3C
:1035F00000EB820251684FF0984211600133F3E70B
:1036000070470000074B4FF480325A6603F5E623FB
:103610009B69C3F38512827003F03F0242701B0B5B
:103620000370704700900040436813F0010F00D111
:10363000704710B50446FFF738FA636A13F0010FBC
:1036400001D10123E360FFF736FA10BD0A4B9B68F6
:1036500013F0020FFAD1084B5B6813F0020FF5D19B
:10366000054BDB69002BF1D1034B03F5805101229F
:103670004A601A61704700BF00800A400A4B5B68CD
:10368000012B00D07047084B5B6813F0010F03D08B
:10369000054BDB69002BF6D1034B02221A6103F5BF
:1036A000005301225A60EDE700800A4038B5054614
:1036B000134B9B6813F0020FFAD1114B5B6813F0A8
:1036C000020FF5D10E4BDC69002CF1D15B68012BA8
:1036D00005D02B7803B10124094BDC6038BDFFF71E
:1036E000CDFF074B9B6813F0020FFAD1044B5B68C8
:1036F00013F0020FF5D1024BDB69002BF1D1E8E7A3
:1037000000800A40D8B90B78D3B101234A6812B1BE
:10371000127843EAC2034A78A2B1022213438A68AC
:1037200012B1127843EA82138A786AB104221343F1
:10373000CA6812B1127843EA4223044A936470477C
:103740000023E3E70022E9E70022F0E700800A40D7
:1037500008B9014B5964704700900A4008B9014B01
:103760005964704700A00A4008B9014B19647047BA
:1037700000A00A4010B9024B186C70470020704737
:1037800000800A4048B911B1012903D07047044BA9
:10379000D86C7047024B186D70470020704700BF0F
:1037A00000800A4040B911B1012903D07047034B92
:1037B000DA647047014B1A65704700BF00800A4009
:1037C00038B504460FF0FBFA064DA446BCE80F00DE
:1037D0000FC5BCE80F000FC59CE8030085E8030097
:1037E000002038BD981F002047F6FF739A4275D01D
:1037F000042975D870B53C4B03EBC10090F802C0AA
:10380000604613F83130012B22D0374B03EBC10354
:103810005C68002C66D0B4F90050954204DBB4F922
:103820000250954200DC1546A388FF2B2BD028269A
:10383000C8230022AE465B1B93FBF6F313442A4ACF
:1038400002EBC1014D78691E994231D319462FE030
:10385000254B03EBC103D878A0EB0C000025A84250
:103860000ED9431BA0EB53031F4C04EBC104646847
:1038700034F91340944201DC1D46F0E7581EEEE790
:103880006044C0B229E0B4F90630B4F908600122FE
:10389000D0E703F5FA73154AA2FB03239B094A1CE0
:1038A000954210D904EBC206B6889E420BD311464E
:1038B00004EBC1029368B2F9062002FB0E33002B21
:1038C000E7DA0023E5E704EBC1018A889A4200D3D6
:1038D0001A46624500D31046C0B270BDFF20704743
:1038E000002070470020F8E7981F0020D34D621099
:1038F00004296DD8394B13F83130012B23D010B582
:10390000364B03EBC1035C68002C63D014F1040C4C
:1039100062D0324B03EBC1039B7893422BD22F4BE7
:1039200003EBC103DB78934228D92C4B03EBC10195
:1039300091F801E00EF1FF3E5FFA8EFEA388FF2BA7
:103940001FD0002321E0254B03EBC103DB7893421A
:1039500000D21A46214800EBC1008078121AD2B278
:103960001B1A9A4200DD00221C4B03EBC1014B687D
:1039700033F912007047B4F9020010BDB4F9000029
:10398000FBE7012301E00133DBB2734505D2591C8B
:103990003CF8310091B28842F5D24FF47A7101FBC4
:1039A00002F20CEBC30CDCF80430D31ABCF9022091
:1039B00002EBD27103EB610393FBF2F3B4F9000065
:1039C0009842DADBB4F902009842D6DC18B2D4E7A8
:1039D000034870470248D0E70148CEE7981F00200F
:1039E0000080FFFF08B50348FFF7EAFE01200FF053
:1039F00043FA08BD08E501080020704700487047F9
:103A0000041100202D2822D8DFE800F01721212101
:103A10002121212121212121212121212121212196
:103A2000212121212121212121211B21212321218A
:103A300021211D212121211F2119074870470748F5
:103A4000704707487047074870470748704707485E
:103A500070470748704700BF04DD01089CDB010880
:103A6000B0DB0108D8DB0108F0DB010864DB0108EA
:103A700074DB01087047002070470020704710B4C5
:103A80008468C3680B4454F82310084610F8023BBE
:103A9000497803EB012313605DF8044B7047000085
:103AA00010B504464FF42F72002117F052FB80230B
:103AB000C4F88C300023C4F89030C4F8943084F8F3
:103AC0009830054A626001222272C4F8AC3204F1D7
:103AD0009C00FDF757FC10BD10DC010810B5034633
:103AE0000846D3F8A0202AB1D3F8A41090470024A8
:103AF000204610BD184600F0D5FD04460028F7D03A
:103B0000FFF780FF0146024801F03FF9F0E700BFF0
:103B100088D1010838B504460123037200F1090574
:103B2000284617F0A3FC00B938BD204600F05AFF24
:103B300029462046FFF7D2FF204600F05EFEF3E75D
:103B4000F8B5067816B100263046F8BD0546FFF7F1
:103B500094FF0028F8D101232B702B7A0BB937463C
:103B600016E000232B726968194801F00EF9F6E798
:103B700001F0EFF8044614E02846FFF77BFFE1B2BE
:103B8000284600F073FF0646B4F1FF3F0ED06EB931
:103B9000D5F8B442B4F1FF3FEAD04FF0FF33C5F897
:103BA000B432B4F1FF3FE7D10127EDE71EB900239E
:103BB0002B703E46C8E72846FFF7ACFF2B7A002B58
:103BC000F5D06968024801F0E0F800232B72EEE7B7
:103BD00014DC010838B504460D46FFF761FF6B6839
:103BE000C4F8B032A968204600F016FC4FF0FF334D
:103BF000C4F8B4322046FFF73EFF38BD10B5044686
:103C0000D0F8B432B3F1FF3F09D0D4F8B432B3F1F5
:103C1000FF3F09D194F8B83243B9012005E001F023
:103C200098F8C4F8B402F0E7002010BD0020FCE7CB
:103C300008B5FFF785FF08BD1038072801D8012017
:103C4000704700207047A0F11003072B00D8D8B2AE
:103C500070470000F8B506460D4617460B78302B26
:103C60000DD04FF0000C15F80C30002B4ED0394C15
:103C70001B5D13F0040F6AD00CF1010CF3E74B78D5
:103C8000782B04D0582B0CD04FF0000CEBE702221D
:103C9000AB5C43B12F495B5C13F0440F55D001324C
:103CA000F6E70222F4E7724206F0030302F0030291
:103CB00058BF5342032B1AD1284617F0D7FB831E57
:103CC000013609D4B410B3EBA60F07D1A878372872
:103CD0008CBF002001203BE00336F3E7284617F0B5
:103CE000C5FB02388442D4BF0020012030E02846C2
:103CF00017F0BCFB831E3246002E05DBB3EBA20F90
:103D0000D4BF0120002023E0F21CF7E70A220021A3
:103D1000284617F0E9FC02460C46202E11D02FB1A0
:103D200051EA000302D0421E61F100040123B340B6
:103D3000013B1340002C08BF93420CBF0120002020
:103D400006E0B1FA81F0400902E0002000E0002026
:103D5000F8BD00BFB921020808B50B782D2B04D09F
:103D600000220138FFF776FF08BD01221144013817
:103D7000FFF770FFF8E7000003787B2B1CD14FF0B2
:103D8000000C0123C25C7D2A0ED00E49515C11F05B
:103D9000440F03D00CF1010C0133F3E7202A01D0CA
:103DA000002070470133EDE71844437833B91CF025
:103DB000010F05D101207047002070470020704797
:103DC00000207047B921020808B5072826D8DFE887
:103DD00000F0060B1015191D0421012008BD00225A
:103DE0000820FFF737FFF9E700221020FFF732FF26
:103DF000F4E700222020FFF72DFFEFE70820FFF770
:103E0000ABFFEBE71020FFF7A7FFE7E72020FFF766
:103E1000A3FFE3E70846FFF7AFFFDFE70020DDE79A
:103E20002DE9F04383B00C4617461D460A9EDDF887
:103E30002C8021282BD8DFE800F0112D445A7188FE
:103E40009EA22A2A2A2A2A2A2A2A2A2A2A2A2A2AE6
:103E50002A2A2A2A2A2A2A2A2A2A2AD30022114648
:103E6000204617F0BDFCD8F80030C0B245F823005A
:103E7000D8F80030326805EB830347F82230D8F8D1
:103E800000300133C8F8003033680133336003B0C9
:103E9000BDE8F08300221146204617F0A1FCD8F8B7
:103EA000003080B245F82300D8F80030326805EBC6
:103EB000830347F82230D8F800300133C8F80030C7
:103EC000E2E700221146204617F08AFCD8F80030BD
:103ED00045F82300D8F80030326805EB830347F833
:103EE0002230D8F800300133C8F80030CCE7002287
:103EF0001146204617F058FB40B2D8F8003045F87C
:103F00002300D8F80030326805EB830347F82230ED
:103F1000D8F800300133C8F80030B5E70022114668
:103F2000204617F041FB00B2D8F8003045F82300D6
:103F3000D8F80030326805EB830347F82230D8F810
:103F400000300133C8F800309EE7002211462046B9
:103F500017F02AFBD8F8003045F82300D8F80020E5
:103F6000336805EB820547F82350D8F80030013359
:103F7000C8F8003088E7336847F8231084E74FF02B
:103F800000098DF80690C846012512E0013510E0C1
:103F90008DF8053008F101081022002101A817F062
:103FA00003FB09F10203E05409F101091FFA89F941
:103FB0000135635D7D2B09D0202BE7D018F0010F70
:103FC000E6D18DF8043008F10108F1E784F800909B
:103FD0004FEA192984F80190336847F8234053E7E2
:103FE000336847F823104FE72DE9F04F87B09B4621
:103FF0000023059304938B4500F38A8080468A460C
:1040000017461C461E46994602E04FF0010901344E
:1040100018F80400FF280CD02028F6D0212805D05D
:10402000FFF70AFE0028F2D00646F0E74FF001093C
:10403000EDE705465C44B9F1000F06D0013C54455C
:1040400068DC0024A146029443E03EB1013C5445A3
:1040500062DC0024CDF80890A1463AE0A2455DD18B
:1040600000240296A14634E008EB09035B78FF2B9D
:104070000ED02B2049E0039B43445B78FF2B4FD1AC
:104080000123029304E009F10109354600E0062509
:10409000029B93B957F824102846FFF795FE002895
:1040A00042D004AB019305AB0093119B109A57F8D3
:1040B00024102846FFF7B4FE0AE004AB019305ABD9
:1040C0000093119B109A57F824102120FFF7A8FEA7
:1040D0000134544518DA5C45D9DBCDF80C9018F85A
:1040E0000960202EC0D0212EC5D03046FFF7A4FD98
:1040F0000028C8D0039B43445B78FF2B12D1304685
:10410000FFF7A1FD0546C3E7002007B0BDE8F08F2B
:104110002120FAE72B20F8E72B20F6E72B20F4E705
:104120002B20F2E72B20F0E72620EEE7212816D8F7
:1041300021283AD8DFE800F0113B191B1D1F21236D
:1041400039393939393939392527292B2D2F313347
:104150003939393939393939353718487047FE28EE
:1041600027D0FF2827D116487047164870471648B1
:1041700070471648704716487047164870471648EB
:1041800070471648704716487047164870471648DB
:1041900070471648704716487047164870471648CB
:1041A00070471648704716487047164870471648BB
:1041B0007047164870471348704700BFC4DC0108B9
:1041C000D4DC010828DC010830DC010838DC0108F7
:1041D00040DC010848DC010850DC010854DC01081F
:1041E00060DC01086CDC010878DC010880DC010877
:1041F0008CDC010898DC0108A4DC0108ACDC0108B7
:10420000B8DC010818DC010820DC0108CCDC01085E
:1042100008B5FDF70BF908BD2DE9F04784B08146DC
:104220008A4690461D460C9F0D9E04460EE0186877
:104230000F9B03930E9B0293019600972B464246D9
:104240000121FFF7E9FF044618E00C342068A8B10B
:1042500033682A68934211DA57F82310FFF7D8FF22
:104260000028F2D133680133336063681A7BFE2A79
:10427000DDD001230E9A137088F8003098F80030D2
:104280005BB90F9B1B7843B9BAF1000F09D001232A
:104290000F9A137088F800304C46204604B0BDE8F1
:1042A000F0870024F9E7000070B506460D4617F0C8
:1042B000DDF80446304600F068FD03E0034800F0F6
:1042C00064FD0134AC42F9D370BD00BFA8D1010830
:1042D0002DE9F84F044602213248FFF7E5FF1E2181
:1042E0002068FFF7E1FF6368586800F04EFD2E4834
:1042F00000F04BFD63681A7BFD2A01D9BDE8F88FF9
:1043000003F10C09D3F808A0504617F0AFF8804627
:104310004FF0FF34002510E02B2000F02AFD36E09E
:1043200000F027FD01341AF804001F2801D044458D
:10433000F6DB1D4800F029FD0135AB4619F8056094
:10434000FF2EDBD03046FFF7F1FE0746B8F1000F35
:1043500000DD0134202EEFD0124E02213046FFF74F
:10436000A3FF1E213046FFF79FFF104800F00DFD10
:104370000F49384617F070F800B90E4F39460E480D
:1043800000F003FDCB449BF80130202BC4D00B4838
:1043900000F0FBFCB8F1000FCBDD1AF804301F2B46
:1043A000C7D0C0E704DD010830D40108DCDC010817
:1043B000B8DC0108D8DC010814DC0108E0DC0108E5
:1043C00038B50546002402E0FFF782FF013404EB14
:1043D000440305EB830055F8233023B1037A002B07
:1043E000F2D00134F3E738BD10B539B1084612B147
:1043F000FFF76EFF10BDFFF7E3FFFBE7D0F89C402F
:1044000000E02468002CF5D0A0680028F9D0FFF760
:10441000D7FFF6E77047704759B10A790AB1002013
:10442000704710B501240C719C30FCF7AEFF20469C
:1044300010BD0020704700002DE9F04F95B0814677
:10444000039104929A461E9F00F109031C460693AD
:10445000184617F00BF805900023CAF800303B60AF
:104460000CAA0BA9204600F0B8FC28B10023029347
:10447000029815B0BDE8F08F0C9816F0F7FFCAF857
:104480000000D9F89CB000231C4602939846B4E083
:104490003B6801333B60013409EB04035B7A202B5A
:1044A000F6D0002410E0D9F894203B68D21ACAF85C
:1044B0000020296814AB03EB880353F8200C16F096
:1044C000DDFF019080B1013404EB440306EB83056A
:1044D00056F82330002B64D00B9B434561DB2B7ACD
:1044E000002BE0D00134EFE7286816F0BFFF8446C8
:1044F00069680A7BFE2A18D0D9F8943038681B1AEC
:1045000063452FDDFE2ADED10B9B013B4345DAD10B
:104510000D680794CDF82080CDF824B0019C029E50
:10452000DDF80C80DDF810B049E00B9B013B434502
:10453000E2D00E6814AB03EB880353F8200C16F09E
:1045400095FF421C3B6813443B6001E001333B6034
:104550003B6809EB0302527A002AF7D008F1010800
:10456000019CB1E7039816F081FF0190286816F0CE
:104570007DFF019B03447B2B0ED8029B01330293EA
:104580002A680499039D2846FCF73DFF204A0499B8
:104590002846FCF738FF96E71E4A04990398FCF773
:1045A00032FF069B059A1EE059464046FCF72BFF5A
:1045B000174A59464046FCF726FF0136013404EB02
:1045C000440355F82320002AEED1079CDDF8208013
:1045D000DDF824B00296059B3B600023CAF800304A
:1045E000DFE70133013A002A05DD19780029F8D107
:1045F00020211970F5E7DBF800B0BBF1000F3FF4A4
:1046000037AFDBF80860002E7FF446AFF3E700BF5A
:10461000A8D10108E4DC01082DE9F04786B0044682
:104620000F4616461D46DDF83890DDF83C80002325
:104630008DF817302B6089F8003088F800302B682F
:1046400052F823101648FFF7E3FD40B92B680133F9
:104650002B604FF0010AD4F89C40002003E04FF09B
:10466000000AF8E7246894B1A0680028FAD0CDF8D1
:104670000C80CDF80890019500963B460DF117028D
:104680000021FFF7C9FD9DF81730002BEAD0BAF1E1
:10469000000F02D0012388F8003006B0BDE8F08793
:1046A000ECDC0108F0B5A3B0054608461AAA19A922
:1046B00000F093FB044610B1204623B0F0BD002368
:1046C0008DF80B300DF10B0301930DF10A030093EC
:1046D00003AB1AAA19A92846FFF79EFF9DF80B30D5
:1046E00013BB40B3466806F10C0711AB019309AB4D
:1046F0000093039B1AAA19993846FFF775FC0446E4
:104700000028D9D10495199B059309AB0693039B07
:104710000793089704A8FFF77DFE336804A898471D
:1047200004A8FFF778FEC7E79DF80A20014628464F
:10473000FFF75AFEC0E72D24BEE770B505460024FA
:10474000264600E0013405F1AC0016F08FFEA042D1
:1047500007D92B1993F8AC301BB10A2BF2D10136D3
:10476000F0E7304670BDF8B500230B601360D0F859
:10477000AC320BB90020F8BD07460E461546AC30EA
:1047800016F074FE50B30121002301E00133013122
:10479000D7F8AC228A4213D9B3F5007FF7D2346838
:1047A000013434602C6801342C60FA1892F8AC2083
:1047B0000A2AEBD00133EFE72A6801322A6001337D
:1047C000B3F5007F08D2FA1892F8AC200A2A07D075
:1047D000002AF1D10120CEE70120CCE70020CAE772
:1047E0000120C8E708B50844407A00F0C2FA08BDC5
:1047F00008B5082000F0BDFA08BD10B50446D0F891
:104800008C200021093016F0A4FC0023C4F890305D
:10481000C4F8943010BD000070B5ADF5447D044679
:104820000021A4917C22A5A816F093FCA3AB0093D1
:10483000A2AB8022A4A92046FFF7FEFD012804D0E8
:10484000012842DC0DF5447D70BDA4A816F00EFED3
:104850000546A299431AA39A0A4408322244013217
:10486000A4A8014404E011F8010B02F8010B013B7C
:10487000002BF8DC00231370D4F890600AE0D4F821
:1048800090102046FFF7AEFFD4F890300133C4F803
:1048900090300136A29AA39B1344B342EFDCAD1AC9
:1048A000D4F894302B44C4F89430D4F890302B448E
:1048B000C4F89030A4AB9C1804E014F8010B00F08D
:1048C00058FA013D002DF8DCBCE78022002102A847
:1048D00016F03FFC4FF40072002122A816F039FCBC
:1048E0000125002300E00133C4AA1A4412F8802CE9
:1048F0003AB1202AF7D15A1C22A941F825200135C6
:10490000F1E722AA42F82530A4A816F0AFFD002155
:1049100014E0013222AB53F82230834208D00B441A
:10492000C4AE334413F8803C6345F2D0002300E06A
:1049300001235BB102AB03F801C001318D4208DBFA
:10494000C4AB0B4413F880CC0022E3E702AB002297
:104950005A54D4F890500AE0D4F890102046FFF74B
:1049600041FFD4F890300133C4F890300135A29B58
:10497000AB42F1DC04F10903184AA4A9184800F07D
:1049800004FA02A816F072FDA29AA39BD11808316E
:104990002144013102AB9D18821A0EE015F8013B4B
:1049A00001F8013BD4F890300133C4F89030D4F8CA
:1049B00094300133C4F89430013A002AEEDC00232D
:1049C0000B70A29C02AB1D19041B04E015F8010B2F
:1049D00000F0CFF9013C002CF8DC33E710DC0108D3
:1049E000F4DC0108F0B583B004460EE02046FFF782
:1049F000A4FEC4F8AC0201AA69462046FFF7B3FE44
:104A0000009B2344002283F8AC2004F109063046C1
:104A100016F02CFD451C04F1AC07384616F026FDB7
:104A2000C0F500708542E1D8304616F01FFD451CE8
:104A30003D44384616F01AFD421C3946284616F009
:104A40006EFB304616F012FD02463146384616F02F
:104A500059FB304616F00AFD20440A2380F8AC309A
:104A60000023C4F8AC3203B0F0BD00002DE9F843D8
:104A700004460D46D0F89060D0F8947000F1090813
:104A800090F89830012B0AD0012B0ED9022B00F0A0
:104A9000C680032B00F0D2800020BDE8F8830A29ED
:104AA000F2D1002084F89800F7E71B2D29D00D2DB6
:104AB0002CD0002384F89830082D2BD07F2D68D07F
:104AC0000D2D00F088800A2D00F08580092D00F062
:104AD0008F80D4F88C30013BBB4240F3E280BE4271
:104AE000C0F28B8008F806500136C4F89060D4F804
:104AF00094300133C4F89430284600F03AF900208D
:104B0000CBE7022384F898300020C6E7012384F81D
:104B10009830D1E7002E01DDBE420CD0002E01DD21
:104B2000BE4217DB002E00F0BA80C4F89060C4F8D3
:104B300094700020B1E7082000F01BF9202000F05D
:104B400018F9082000F015F9013E002308F8063096
:104B5000013FEAE706F1FF39082000F00AF908EB07
:104B60000905A7EB090208EB0601284616F0D7FA5B
:104B7000002308F8073029464C4800F006F9013FA9
:104B80003D4602E0FFF734FE013D4D45FADC4E465E
:104B9000CBE7002F01DDBE4201DB00207DE708EB03
:104BA0000605711CBA1B4144284616F0B8FA0023CA
:104BB00008F8073029463E4800F0E7F803E00820EF
:104BC00000F0D7F8013FB742F9DCD4F89430013B4C
:104BD000C4F89430E1E70D2000F0CBF80A2000F093
:104BE000C8F80023C4F89030C4F89430012054E78A
:104BF0002046FFF711FE00204FE7701C08EB060966
:104C0000BA1B4946404416F08AFA484600F0BDF8FF
:104C100002E0FFF7EDFD013FB742FADA62E75B2DF4
:104C200004D1032384F89830002036E7002384F869
:104C3000983029462046FFF719FF2EE7002384F815
:104C40009830413D032D2ED8DFE805F002080F1EF5
:104C50000121204600F02EF800201EE74FF0FF3122
:104C6000204600F027F8002017E7BE4201DB0020B5
:104C700013E731462046FFF7B5FDD4F890300133F5
:104C8000C4F89030002008E7002E01DC002004E783
:104C9000013EC4F89060FFF7ABFD0020FDE6002068
:104CA000FBE60020F9E60020F7E600BF00DD010882
:104CB00008DD010830B583B005460C46FFF73DFD21
:104CC000B4F1FF3F0FD0012C2DD1D5F8AC32834287
:104CD00029D20133C5F8AC320123D5F8AC42B4B1C6
:104CE000F3B1002413E0D5F8AC3223B1013BC5F891
:104CF000AC320123F1E70023EFE7082000F039F898
:104D0000202000F036F8082000F033F8013405F1D7
:104D1000090016F0ABFBA042EFD82846FFF76DFD67
:104D2000D5F8AC320BB903B030BD01AA69462846AC
:104D3000FFF719FD0028F6D0009C06E02B1993F828
:104D4000AC102846FFF792FE0134019BA342F5D830
:104D5000E9E700B583B00DF10701002000F0B7FBD3
:104D600020B99DF8070003B05DF804FB4FF0FF3059
:104D7000F9E710B50446C1B2002000F095FB08B970
:104D8000204610BD4FF0FF30FBE70FB400B583B0F5
:104D900004A951F8040B019104F078FB002003B042
:104DA0005DF804EB04B0704708B50B4601F1010C47
:104DB00000EB0C0110F80CC0BCF1220F07D0BCF1C5
:104DC0007B0F04D0BCF15C0F01D0002004E0D21AAC
:104DD000184416F0A4F9012008BD2DE9F843054652
:104DE0008846914616F042FB0646002400E0013456
:104DF0002A192B5D202BFAD0C9F800200123C8F80E
:104E0000003030E07B2B14D0D8F8003003F1804321
:104E1000013B621C2A4449F823202227012C06D991
:104E20002B1913F8013C202B01D0002B49D1013460
:104E300004E07D27F2E70134A64246D928192B5D0C
:104E4000BB4209D05C2BF6D1324621462846FFF7FB
:104E5000ABFFC0B3013EEEE74378202B00D0BBBBD5
:104E6000222F21D00134A64229D92A192B5D7B2B70
:104E7000C8D0222BC6D05C2B19D0202BF2D1002316
:104E80001370631CB342EDD2EA18EB5C202BE9D01F
:104E9000D8F80030072B1FDC49F82320D8F8003061
:104EA0000133C8F80030DDE700230370DAE732464B
:104EB00021462846FFF778FF60B1013ED2E7002087
:104EC00004E0212002E0212000E02120BDE8F88359
:104ED0002120FBE72120F9E71E20F7E700B583B08A
:104EE000094B93E803000090ADF80410090C8DF80D
:104EF00006106846FDF7E8FE0920FDF71FFF0020B9
:104F000003B05DF804FB00BF0CDD010810B582B0F2
:104F10004FF04022536F43F0010353670024009485
:104F20008DF804406846FDF713FE204602B010BD20
:104F300030B587B001AC1A4D0FCD0FC42B6823607C
:104F4000184BD3F84C3113F4002F10D1154BD3F874
:104F50005041E4B2B4F1FF3F13D08DF80E40FDF79D
:104F60004DFA24180FD4FF2C0EDDFF240CE04FF077
:104F7000FF340D4B1B884FF6FF729342EAD01C465C
:104F8000E8E78C24E9E700248DF80D400748FCF79A
:104F900091F901A8FDF76CF9002007B030BD00BF02
:104FA00014DD01080080E00F0001E00FC01753027C
:104FB0006FF0040307E003F00F010A4A0A4450218E
:104FC000117601335BB24B2B09DC002BF3DB03F1D1
:104FD000604202F56142502182F80013F1E700209F
:104FE000704700BFFCEC00E008B500F087F808BD92
:104FF00010B501F0C1FF044608B1204610BD02F013
:105000003FF94FF4167100FB01F101F5742101F233
:105010003F210A4BA3FB0131890C094B1960002386
:1050200008E0084A42F82310074802680A44026070
:105030000133DBB2092BF4D9DFE700BF83DE1B436A
:1050400004200020D41F0020D01F00207047000043
:1050500008B5044B01221A7002F0EAF8024B1860FE
:1050600008BD00BFCC1F002000200020184B1B787B
:1050700003B9704770B502F0DBF8164B1B68C01A15
:10508000154B186000B90120134B1860134C23789E
:10509000134D55F82320111A124E3268521A3260FD
:1050A00045F8230009321049A1FB0202D2080F483B
:1050B00002600133DBB22370A1FB0312D20802EBC2
:1050C0008202A3EB42032370014B00221A7070BDD1
:1050D000CC1F002000200020C81F0020FC1F002043
:1050E000D41F0020D01F0020CDCCCCCC0420002029
:1050F000014B1868704700BF042000200B49202393
:1051000081F82D330A4B4FF480125A66094B03F590
:105110000050094A426702674FF40050C1F8840109
:10512000486003F580535A67704700BF00E100E014
:10513000009000400040004A010000A0024603E049
:105140000023184663B95AB1064B9B6D13F0010F4B
:10515000F6D0054B1B780BB10023F2E70123F0E7F3
:10516000704700BF0040004A1C200020F8B5974B54
:105170001C6F9E6A06F080769D6A05F4803514F0F7
:10518000010365D0924A1367924B1B78002B58D0CD
:10519000904B00221A70904B1B78012B4BD88B4BF5
:1051A00003F500524FF48031916203F580534FF0C4
:1051B00080729A62854B9B6D13F4803FFAD1834ACB
:1051C000D36A23F47063854909680B43D3629369FA
:1051D00023F47F0323F47F43814909680B4381490A
:1051E00009680B439361136923F47F6323F00F0372
:1051F0007D4909680B437D4909680B431361936935
:1052000023F0FF037A4909680B4393614EB9704B51
:105210004FF080729A624DB1764B4FF480329A62B1
:1052200016E0744B4FF080729A62F4E7684B4FF4CB
:1052300080329A620CE0FFF709FF6F4B01221A706F
:1052400006E0FFF713FF01F0FBFB634B00221A702F
:1052500014F000527BD05D4B03F5005CCCF870205D
:105260005C4A012111705C490A7801320A70DA6ADD
:1052700002F4706059490860996901F47F41584807
:105280000160986900F47F00564F38609F69FFB253
:10529000DFF85CE1CEF800701F6907F47C67DFF887
:1052A00048E1CEF800701F6907F03F07DFF83CE1E6
:1052B000CEF800704FF48037CCF8287003F5805397
:1052C0004FF080779F624FF000479F623F4B9B6D8E
:1052D00013F4803FFAD13D4B03F500574FF0004CDB
:1052E000C7F828C022F4706242F40072DA62B1F5A5
:1052F000C84F02D8B0F5C80F0CD9344A936923F4CB
:105300007F0323F47F433D49096843EA012343EACD
:10531000014393612D490B6923F47F6323F00F034D
:10532000374A1268900843EA920343EA80130B61FC
:105330008B6923F0FF031A438A615EB9244B4FF057
:1053400080729A625DB12B4B4FF480329A62002CCE
:105350000ADBF8BD274B4FF080729A62F2E71C4BD4
:105360004FF480329A62F2E704F00044184B1C6755
:10537000214B1B78002BECD0144B03F500524FF45B
:105380008031916203F580534FF080729A620F4B27
:105390009B6D13F4803FFAD1164B4FF000429A6197
:1053A00056B903F580534FF080729A624DB1114B9C
:1053B0004FF480329A62CCE70E4B4FF080729A62C3
:1053C000F4E7034B4FF480329A62C2E70040004A90
:1053D0000060004A1C2000201D200020202000200A
:1053E00014200020182000200C2000201020002075
:1053F000082000200050004A1E200020101100202C
:105400000C11002008B5FFF7B1FE08BD10B5044629
:10541000FDF73CFB024B1C60FDF73CFB002010BD80
:105420002420002010B5FDF731FB034B1C68FDF76D
:1054300031FB204610BD00BF2420002070B50C4673
:105440001546034638B153B15E6856B12A46214627
:105450001868B04770BDFFF7E5FF0346F3E7232068
:10546000F8E72320F6E72DE9F04182B00E46174613
:105470001C46054670B18CB195B1D5F80880B8F1DD
:10548000000F0FD023463A4631462868C04702B085
:10549000BDE8F081FFF7C6FF0546ECE701ACEBE79E
:1054A0002320F4E72320F2E700B583B08DF807103E
:1054B00001220DF10701FFF7C1FF03B05DF804FB06
:1054C00008B50B4601461846FFF7EEFF08BD08B5C4
:1054D00000230122FFF7C7FF08BD00000EB410B57E
:1054E00083B005AB53F8044B0193014660B1019BB7
:1054F0002246084803F0DAFF002809DD002003B047
:10550000BDE8104003B07047FFF78CFF0146EEE79F
:105510003720F4E7C154000829B1036B03F5805329
:1055200001221A657047036B03F5005301221A65C7
:10553000036B03F50053DA647047036B03F5805384
:1055400004221A6570470000012900D9704710B580
:10555000064B1C68583C05E00521206BFDF7ACFCB0
:10556000A46D583C14F1580FF6D110BD282000202E
:1055700038B50446236B9B6C13F0400FFAD0002320
:105580001A46A16B94F83600FDF760FF00231A4617
:10559000216C94F83C00FDF759FF94F8543013F057
:1055A000010F16D194F8543013F0020F19D10021D5
:1055B000206BFDF781FC0021A08EFCF763FB0F4DF3
:1055C00004F158012846FBF7E4FE2B688BB100205C
:1055D00038BD00231A46A16C94F84400FDF736FF4D
:1055E000E0E700231A46216D94F84C00FDF72EFFEA
:1055F000DDE7034801F002F9E9E700BF28200020B9
:105600002C20002008B5006BFDF79DFC002008BD94
:10561000F0B58BB016461C46109D002306930793E9
:1056200008930993637993B10123049303937A4B0D
:1056300002937A4B01937A4B00937A4B0A462946A0
:1056400000F098FA074620B138460BB0F0BD0223AF
:10565000EBE7E388AB86A3692B64237D85F83C30B8
:105660002369AB63237B85F83630236AAB64237FE1
:1056700085F84430A36A2B6594F8243085F84C30C3
:1056800023682B6301213A20FCF7FCFA0123042252
:105690002169207BFDF7DAFE01230222A169207D2A
:1056A000FDF7D4FE0023337085F854300121E088E3
:1056B000FCF7E8FA6379002B31D101213620FCF7A1
:1056C000E1FA0A21E088FCF71FFF31462068FDF768
:1056D000DFFDA268544B263203EB421210215160C9
:1056E000217B2069A26841EA004103EB4212C2F823
:1056F000DC14227DA069A16842EA004203EB411359
:10570000C3F8D42423791BB18DF8183006ABF361AC
:105710002379032B7ED8DFE803F05C1B4C54052172
:105720004FF44060FCF7F0FEE388562B0AD0314678
:105730002068FDF7A7FD95F8543043F0040385F881
:105740005430C6E711214FF4A060FCF7DDFEEEE710
:1057500095F8543043F0010385F8543000260023B7
:105760000222216A207FFDF771FE227F216AA36851
:1057700042EA01425B0103F1804303F5703341F2D9
:10578000CC415A503EBB236803F500530422DA642F
:10579000236803F580531A6505212068FDF78CFB0B
:1057A000224B1B688BB305F158012048FBF7EDFD38
:1057B0004AE795F8543043F0020385F85430012647
:1057C000E0E795F8543043F0030385F854300126A0
:1057D000C5E70026D6E700230422A16A94F8240036
:1057E000FDF734FEA368104AA63302EB43130221EF
:1057F000596094F82430A06AA16843EA004302EBA0
:10580000411241F2D0415350BDE70949094800F027
:10581000E5FFC8E7232717E7715500083B55000847
:10582000195500080556000800C003402820002034
:10583000141100202C20002010B50446026B136DBB
:10584000D26C134013F0040F0ED1236BDA6C12F0FC
:10585000010F08D003F500530122DA64236B9B6C1F
:1058600013F0200F16D110BD00F024FA28B9236BD5
:1058700003F5005304221A65E7E7206BFDF75CFB94
:105880000146204600F026FA236B03F5005304225C
:10589000DA64DAE7204600F05DFAE4E700207047BA
:1058A000FEE74FF400534B60002070470020704724
:1058B00000B583B00020019001ABFFF7D4FD019843
:1058C00010B103B05DF804FB4FF0FF30F9E710B5FD
:1058D00014460020FFF7B2FD204610BD08B5044B6A
:1058E0001868002302221946806815F0F1FC08BDF3
:1058F00020120020034690F82A204AB190F82E008A
:10590000022801D001207047012283F82E20704721
:105910000120704780F82410704790F824007047E9
:1059200090F82B00704770B504460D46FDF7BDF8A2
:10593000A6699EB1E2692369D35C2B7023690133A8
:105940002361226A93420CD0A369013BA361FDF756
:10595000B2F8A36820469847304670BDFDF7ABF813
:10596000FAE700232361EFE72DE9F84304460F46E9
:10597000154690F82460FDF798F894F82A309BB902
:10598000FDF799F84EBB4FF00108AE4239D294F8BA
:105990002630002BF9D02368397820469847804676
:1059A00098BB01370136F0E7FDF785F894F82D90A4
:1059B000FDF76CF880460121484600F0BBFE4046EA
:1059C000FDF768F8FDF771F8002384F82A30D7E76F
:1059D00023680D21204698470BE000264FF0010870
:1059E000AE420ED294F82630002BF9D03B780A2B29
:1059F000EED0236817F8011B2046984780460136F1
:105A0000EEE763680121204698474046BDE8F883E9
:105A100008B5FFF7A9FF002008BD2DE9F04182B0CD
:105A200007460E4690461D4600232B6003E00136D4
:105A30002C6801342C602B68434505D2314638462A
:105A4000FFF771FF0028F2D197F827302BB12B68B0
:105A500083B1002002B0BDE8F08111238DF807303A
:105A600001220DF107013846FFF7D2FF012387F825
:105A70002730ECE71B20EDE770B5044690F82B309B
:105A80000A4601B113B102B983B970BD90F82C6018
:105A9000FCF7FCFF05460121304600F04BFE28468E
:105AA000FCF7F8FF012384F82B30EEE794F82C6024
:105AB000FCF7ECFF05460021304600F03BFE28468F
:105AC000FCF7E8FF002384F82B30DEE738B5044606
:105AD0000568FFF7A7FC844245D095F92830002BD4
