S00C0000504952534E2E7333375C
S315080000000010002039140008F16E0008F56E00088B
S31508000010D5710008F96E0008016F0008351400084C
S31508000020351400083514000835140008351400087E
S31508000030056F000835140008351400083514000843
S31508000040351400083514000835140008351400085E
S31508000050351400083514000835140008351400084E
S31508000060351400083514000835140008351400083E
S3150800007035140008D9120008C912000835140008FA
S31508000080351400083514000835140008351400081E
S31508000090351400083514000835140008351400080E
S315080000A03514000835140008511B0008291B0008E0
S315080000B035140008351400086D8D01084D970108A0
S315080000C00597010801970108358F01084997010826
S315080000D009970108219701080D970108AD970108AE
S315080000E08D970108351400083514000835140008E2
S315080000F0351400085D610008351400083514000839
S315080001003514000835140008F10B000835140008EA
S31508000110351400083514000835140008351400088D
S31508000120351400083514000835140008351400087D
S31508000130351400083514000835140008351400086D
S31508000140351400083514000835140008351400085D
S3150800015035140008351400083F840008457901085D
S315080001603514000835140008755C01087B5C010825
S3150800017010B5054C237833B9044B13B1044800E095
S3150800018000BF0123237010BDB0140020000000003A
S315080001907C32020808B5034B1BB10349034800E04B
S315080001A000BF08BD00000000B41400207C3202081D
S315080001B0A3F5803A704700BF174B002B08BF134BB7
S315080001C09D46FFF7F5FF00218B460F461348144A54
S315080001D0121A1AF082FA0E4B002B00D098470D4BD4
S315080001E0002B00D098470020002104000D000D4880
S315080001F0002802D00C4800E000BF1AF00BFA2000D5
S31508000200290000F0C1FE1AF0F1F900BF000008004D
S31508000210000000000000000000100020B0140020BC
S31508000220FC3E0020000000000000000038B504462F
S315080002300EF0DBF8A04201D8012038BD05460320A0
S3150800024001F0AAF80028F8D001F0C6F801F0C5F8C0
S315080002502B46224603490448006805F0EBFF0020B8
S31508000260EBE700BFD0D801088818002030B583B066
S3150800027004468368C26853F822301D782846FFF77B
S31508000280D5FF08B903B030BD1B480FF0A7FA062200
S31508000290002168461AF021FA184B1B88ADF802307F
S315080002A0ADF804506368E2689B1A012B1FDDA3684A
S315080002B0013253F822301B88ADF800300CF07EFA74
S315080002C06A464FF6FF7103200CF084FB04460320B0
S315080002D001F062F80028D5D001F07EF801F07DF82B
S315080002E022460749074B186805F0A4FFCAE740F2FB
S315080002F0FF13ADF80030E1E79C100020CC14002075
S3150800030008D901088818002030B583B004468368E8
S31508000310C26853F822301D782846FFF787FF08B9C8
S3150800032003B030BD1A480FF059FA06220021684674
S315080003301AF0D3F9174B1B88ADF80230ADF8045004
S315080003406368E2689B1A012B1DDDA368013253F826
S3150800035022301B88ADF800306A464FF6FF7104203C
S315080003600CF038FB0446032001F016F80028D7D015
S3150800037001F032F801F031F822460749074B1868B0
S3150800038005F058FFCCE740F2FF13ADF80030E3E77D
S315080003909C100020CC14002028D9010888180020B9
S315080003A030B583B004468368C26853F822301D7896
S315080003B02846FFF73BFF08B903B030BD1A480FF0CF
S315080003C00DFA0622002168461AF087F9174B1B8892
S315080003D0ADF80230ADF804506368E2689B1A012B49
S315080003E01DDDA368013253F822301B88ADF80030B2
S315080003F06A464FF6FF7102200CF0ECFA0446032019
S3150800040000F0CAFF0028D7D000F0E6FF00F0E5FFAD
S3150800041022460749074B186805F00CFFCCE740F25F
S31508000420FF13ADF80030E3E79C100020CC14002041
S315080004303CD901088818002030B583B08368C268A3
S3150800044053F822301C780023019343689B1A012B2A
S3150800045019DD01AA012104F0A8F901469DF8040056
S315080004600CF092F9054680B1022000F095FF60B1C4
S3150800047000F0B2FF00F0B1FF2A460649064B18689D
S3150800048005F0D8FE01E00CF099F920460CF038F991
S3150800049003B030BD58D901088818002010B50346A6
S315080004A08168C26851F82200B0F900001A4C208011
S315080004B05B689B1A012B0FDD013251F8223093F944
S315080004C00010003918BF01210DF080FFA0B90320E4
S315080004D000F062FF10B910BD0021F5E700F07CFFBF
S315080004E000F07BFF0D4B1C680DF07BFF02460C49A4
S315080004F0204605F09FFEEEE7012000F04DFF00289C
S31508000500E9D000F069FF00F068FF0649034B186858
S3150800051005F090FEDFE700BFCC1400208818002005
S31508000520BCD90108D0D9010810B586B000210591BB
S3150800053005AA04F03AF9059A102A06D0032000F015
S315080005402BFF002862D106B010BD014601A81AF09B
S315080005509DF801A80FF042F90446002847D1032068
S3150800056000F01AFF78B100F037FF00F036FF2D498A
S315080005702D4B186805F05EFE05E0032000F00CFF21
S31508000580C0B90134E4B20F2C22D80F2CF5D00320C1
S3150800059000F002FF0028F4D000F01EFF00F01DFF57
S315080005A006AB234413F8142C20491F4B186805F092
S315080005B041FEE6E700F010FF00F00FFF06AB23440C
S315080005C013F8142C1A49184B186805F033FED8E7A7
S315080005D0032000F0E1FE0028B5D000F0FDFE00F093
S315080005E0FCFE1449104B186805F024FEABE7012001
S315080005F000F0D2FE0028A6D000F0EEFE00F0EDFED8
S315080006000D49094B186805F015FE9CE700F0E4FE55
S3150800061000F0E3FE10220949034B186805F00AFEAC
S3150800062091E700BFE8D901088818002004DA010814
S31508000630FCD901080CDA010810DA01082CDA0108DD
S3150800064008B58368C26853F822301A88094B1A809D
S31508000650032000F0A1FE00B908BD00F0BDFE00F0C1
S31508000660BCFE044B1A880449044B186805F0E2FDE1
S31508000670F2E700BFAC10002054DA01088818002001
S3150800068008B5024B18680AF0AFF808BDD414002064
S31508000690F0B587B06C4B1B7813F0020F3ED06B4C4D
S315080006A013F0010F3CD0694D13F0040F3AD0674E92
S315080006B0032000F071FE002836D1032000F06CFEFE
S315080006C000283BD1032000F067FE002843D1032011
S315080006D000F062FE00284CD1032000F05DFE0028E1
S315080006E053D1032000F058FE00286BD1032000F0F8
S315080006F053FE002872D1032000F04EFE002879D15F
S31508000700032000F049FE002840F08280032000F014
S3150800071043FE002840F08A8007B0F0BD4C4CBFE786
S315080007204B4DC1E74A4EC3E700F056FE00F055FEB2
S315080007304849494B186805F07DFDBEE700F04CFEB8
S3150800074000F04BFE454B9A6CDB6C45494248006805
S3150800075005F070FDB6E700F03FFE00F03EFE3E4BAA
S315080007601F6809F069FE02463E49384605F062FDF3
S31508000770ADE700F031FE00F030FE3B4B1A783B49FE
S31508000780354B186805F056FDA6E700F025FE00F083
S3150800079024FE374A53791179D078977892F801C0B0
S315080007A092F800E0CDF814E0CDF810C00397029057
S315080007B0019100939379D2792E492748006805F06C
S315080007C039FD8EE700F008FE00F007FE2A4B1A886E
S315080007D02A49214B186805F02DFD87E700F0FCFD36
S315080007E000F0FBFD264B1A8826491B4B186805F0B6
S315080007F021FD80E700F0F0FD00F0EFFD164B1F68C5
S315080008000DF0F1FD02462049384605F013FD77E75D
S3150800081000F0E2FD00F0E1FD0F4B1F680DF0E1FD71
S3150800082002461A49384605F005FD6FE700F0D4FD83
S3150800083000F0D3FD00962B46224615490648006867
S3150800084005F0F8FC68E700BFAE1000207CD9010867
S3150800085070D9010870DA0108881800200080E00FB6
S3150800086078DA010894DA0108D2350020B0DA0108EE
S31508000870F7350020CCDA010894110020F0DA0108D7
S31508000880981100200CDB010828DB010840DB010871
S3150800089058DB010830B583B08368C26853F8223044
S315080008A01C7801A920460FF09FF988B9032000F0AB
S315080008B073FD08B903B030BD00F08EFD00F08DFD64
S315080008C0019B22460B490C48006805F0B3FCF1E78A
S315080008D00546012000F060FD0028EBD000F07CFD05
S315080008E000F07BFD2A460549034B186805F0A2FC73
S315080008F0E0E700BF90DB010888180020ACDB0108A0
S3150800090070B58268C36852F823100C78013352F820
S3150800091023301D78294620460EF0CAFE80B90320EA
S3150800092000F03AFD00B970BD00F056FD00F055FD27
S315080009302B4622460B490C48006805F07BFCF2E77B
S315080009400646012000F028FD0028ECD000F044FD02
S3150800095000F043FD32460549034B186805F06AFC6A
S31508000960E1E700BFD0DB01088818002000DC010899
S3150800097008B50BF0B9FB08BD70B582B08368C268CC
S3150800098053F822301B78134A137013F0020F0ED057
S31508000990114C13F0010F0CD00F4D13F0040F0AD0B1
S315080009A00D4E032000F0F8FC38B902B070BD0B4CB0
S315080009B0EFE70A4DF1E7094EF3E700F00DFD00F009
S315080009C00CFD00962B46224605490648006805F0A8
S315080009D031FCEAE7AE1000207CD9010870D901087D
S315080009E030DC01088818002008B506F0D9F808BDDB
S315080009F0F0B595B07349744808F0F6F8032000F08E
S31508000A00CBFC002840F0B2800BF01CFB0446032008
S31508000A1000F0C2FC002840F0B3800BF065FB6B4881
S31508000A200EF0DCFE0446032000F0B6FC002840F079
S31508000A30B2800622002112A819F04FFE0023ADF855
S31508000A404A300B23ADF84C3040F2FF13ADF848306E
S31508000A5012AA4FF6FF7104200BF0BCFF04460320D0
S31508000A6000F09AFC002840F0A180012008F092FAD4
S31508000A7000240F94109411940DF1140C544D0FCDBD
S31508000A80ACE80F000FCDACE80F0095E803008CE842
S31508000A9003000394049403278DF80E7001258DF83E
S31508000AA008508DF809408DF80A408DF80B40294604
S31508000AB03B2001F0DDFB4FF42C524FF42851204621
S31508000AC003F0D2FB8C222146204603F0D5FB2946AB
S31508000AD02A2001F0CDFB8DF817404FF49663089352
S31508000AE08DF815403B4E9DF841300093234622462B
S31508000AF03949304603F04AF907908DF810708DF899
S31508000B000E708DF8135010238DF809308DF80850A3
S31508000B1005AA0FA9304603F05FF902AA03A93046D1
S31508000B2003F0BFF806F500532C4A5A62B36A43F439
S31508000B300073B3622A4B4FF48022C3F884215A60AB
S31508000B4002F0E4FA06462146284606F09FFC30469F
S31508000B5002F0E0FA02F0DAFA04462946022006F024
S31508000B6095FC204602F0D6FA15B0F0BD00F034FC2C
S31508000B7000F033FC1B491C4B186805F05BFB43E788
S31508000B8000F02AFC00F029FC22461849164B186882
S31508000B9005F050FB41E700F01FFC00F01EFC224662
S31508000BA01249114B186805F045FB42E700F014FCA2
S31508000BB000F013FC22460D490B4B186805F03AFB6A
S31508000BC053E700BFA50C0008D41400209C10002091
S31508000BD08CDC01080040004940420F008F330F802B
S31508000BE000E100E068DC01088818002074DC0108D0
S31508000BF030B583B0174C6D461749284603F0ACFA52
S31508000C0095E8030084E8030024684FF4966303FB21
S31508000C1004F4124BA3FB0434A409032000F0BCFB24
S31508000C2068B9220E0E4B1A70220C5A70220A9A7054
S31508000C30DC700C4B4FF400725A6203B030BD00F002
S31508000C40CBFB00F0CAFB22460749084B186805F09B
S31508000C50F1FAE6E7D814002000400049D34D6210A7
S31508000C60D014002000600049B4DC01088818002070
S31508000C7000B585B000F03FFD012802D005B05DF84B
S31508000C8004FB01218DF80C10054B1B78019303AB6F
S31508000C9000930B460022104609F0E0FBEEE700BF82
S31508000CA0AE10002000B583B009F0CEFB30B90C4B6E
S31508000CB01B6800221A7003B05DF804FB094B1988FB
S31508000CC0074B186809F09BFD074B1B780193074BE8
S31508000CD00093042300220121104609F0BFFBEAE72E
S31508000CE0D4140020AC100020AE100020D014002030
S31508000CF00120704738B50379012B00D038BD054669
S31508000D00032000F049FB08B900240CE000F064FB5E
S31508000D1000F063FB6A881549154B186805F08AFACE
S31508000D20F2E70134E4B2AB79A34210D9032000F00C
S31508000D3033FB0028F5D000F04FFB00F04EFBAB6804
S31508000D401A5D0C490A4B186805F074FAE9E703209E
S31508000D5000F022FB0028D1D000F03EFB00F03DFB5E
S31508000D600549034B186805F065FAC7E7B8DC0108BA
S31508000D7088180020D0DC010858DD010870470000FB
S31508000D8010B582B0A0F19003062B67D8DFE803F010
S31508000D90042A396666485700032000F0FDFA58B958
S31508000DA0032000F0F9FA88B9474B1988474B1868A9
S31508000DB009F025FD02B010BD00F00EFB00F00DFB9A
S31508000DC04349444B186805F035FAE9E700F004FB97
S31508000DD000F003FB404B1A8840493E4B186805F063
S31508000DE029FAE1E7032000F0D7FA0028E2D000F05C
S31508000DF0F3FA00F0F2FA3A49364B186805F01AFA8F
S31508000E00D8E7012000F0C8FA0028D3D000F0E4FAA9
S31508000E1000F0E3FA33492F4B186805F00BFAC9E7D7
S31508000E20012000F0B9FA0028C4D000F0D5FA00F085
S31508000E30D4FA2D49274B186805F0FCF9BAE70320C0
S31508000E4000F0AAFA0028B5D000F0C6FA00F0C5FAF4
S31508000E502649204B186805F0EDF9ABE70446032050
S31508000E6000F09AFA28BB06220021684619F035FCDC
S31508000E700023ADF802300B23ADF8043040F2FF131F
S31508000E80ADF800306A464FF6FF7104200BF0A2FD5C
S31508000E900446032000F080FA00288BD000F09CFA64
S31508000EA000F09BFA224612490A4B186805F0C2F967
S31508000EB080E700F091FA00F090FA22460D49054BBA
S31508000EC0186805F0B7F9CEE7AC100020D414002056
S31508000ED0D4DC01088818002094110020E0DC010801
S31508000EE008DD010818DD010838DD01085CDD0108A8
S31508000EF074DC010878DD01087047000010B580B180
S31508000F000446012000F048FA00B910BD00F064FA62
S31508000F1000F063FA22460A490A4B186805F08AF96E
S31508000F20F3E7032000F038FA0028EED000F054FA70
S31508000F3000F053FA0449034B186805F07BF9E4E717
S31508000F4090DD010888180020B8DD0108F0B583B0E7
S31508000F5004460D4616461F46032000F01DFA08B93A
S31508000F6003B0F0BD00F038FA00F037FA01970096A2
S31508000F702B46224602490348006805F05BF9EFE76D
S31508000F80D0DD01088818002008B507F07BFA07F0BD
S31508000F9085FA06F021FBFAE708B5024B1B6803B190
S31508000FA0984708BD1415002008B5024B5B6803B1C5
S31508000FB0984708BD1415002008B5024B9B6803B175
S31508000FC0984708BD1415002008B5024BDB6803B125
S31508000FD0984708BD1415002008B5024B1B6903B1D4
S31508000FE0984708BD1415002008B5024B5B6903B184
S31508000FF0984708BD141500207047704708B507F0D4
S31508001000B5FF08BD7047704770477047704770470F
S31508001010704770477047704770477047704770470A
S31508001020704770477047704708B500214FF0FF308A
S315080010300DF0C6FA08BD00207047002070477047BB
S315080010407047000030B585B0094C2268094B1A6014
S31508001050094D0A4B2B600A4B019305F08FF8029055
S315080010602B68039301A9206803F04AFC05B030BD3C
S31508001070CC1000200422002000220020C0100020EE
S315080010804CE9010808B5024B186803F04DFC08BD89
S31508001090CC10002038B505F071F80446064D2B68CB
S315080010A0D3F8B00205F05EF8286803F057FC20462E
S315080010B005F058F838BD00BFCC10002008B503214C
S315080010C0802001F061FD03214FF4806001F05CFD92
S315080010D009214FF4C06001F057FD09214FF4F06073
S315080010E001F052FD09213E2001F04EFD09212D2077
S315080010F001F04AFD0921512001F046FD002008BDF6
S3150800110010B5294B5A6E02F4803203F580514FF41C
S3150800111080304866586E4FF000434B66234B596C37
S3150800112001F001014AF6CD341C64204B5B6B13F0C9
S31508001130010FFAD11E4B01245C601C4B1B6B13F08C
S31508001140010FFAD01B4BD3F8083613F0020F03D160
S31508001150174B4FF48024DC6511B1144B16491964FA
S31508001160002803DB154B4FF0004159661AB9134B9B
S315080011704FF480325A6604F0C7FD00F055F904F0C2
S3150800118043FD04F0DDFD04F069FD04F0A7FDFFF75B
S3150800119095FF04F051FD00F03FF905F0CDFC00F095
S315080011A0EBFC06F041F910BD008000400040094004
S315080011B00060094000C007403254FFFF00A000400D
S315080011C008B500F05BFC00F035F800F0D5F800F043
S315080011D0DBF808BD08B503F09BFA07F0E5FC07F055
S315080011E0F3FC07F041FD08BD08B500F0F7F808BDA7
S315080011F0704708B5FFF74EFF08BD08B507F012FDA2
S3150800120007F016FD08BD704708B500F059F808BD87
S3150800121008B500F0FFF806F05BFD04F095FD05F053
S3150800122009FA07F08BFF05F01DFFFFF7EDFFFFF743
S3150800123009FF08BD08B501213A2001F019F802484E
S3150800124000F010FB08BD00BFD010002010B59AB002
S31508001250174C0DF1480CA646BEE80F00ACE80F0087
S315080012609EE80F008CE80F002C22002107A819F031
S3150800127034FA104B079301238DF821305722ADF825
S315080012802220099309230B930A230D930DF10C0CC5
S3150800129004F120030FCB8CE80F00074B009307AB34
S315080012A012AA6146054805F05FF81AB010BD00BFDE
S315080012B064E9010800000A40E817002064180020C5
S315080012C008B5FFF7C3FF08BD08B5024B186805F057
S315080012D05FF908BD6418002008B5024B186805F0C8
S315080012E057F908BD6418002008B5024B1A6A186831
S315080012F0904708BD641800200120704701207047F8
S3150800130038B5FFF7BFFE044607F0D2FC054600B124
S31508001310254605F0FFFB044600B12C46FFF7ECFF17
S3150800132000B1204638BD38B506F026FA0446FFF760
S31508001330DBFF042811D0022811D0002505F0ECFBAC
S3150800134004280FD002280FD0FFF7D8FF04280FD0A3
S3150800135002280BD06DB100240BE00125EEE700252D
S315080013600124EBE70125EFE70124EDE70124F1E786
S315080013700024204638BD000008B5024800F0B4F93C
S3150800138008BD00BF94E9010808B5024800F0EAFA6A
S3150800139008BD00BFACE9010803460B4A107828B11E
S315080013A00A4A12789A4202D2002000E00120084A2E
S315080013B012783AB1074A127842FA03F313F0010F8A
S315080013C000D10020704700BFEF100020F010002069
S315080013D08C180020F11000207047704708B5084B9C
S315080013E001221A70074B00221A70074B04221A7042
S315080013F0064B1F221A7004F0C1FE054B186008BD83
S31508001400EF1000208C180020F0100020F1100020AA
S31508001410881800200F20704708B501213A2000F0EF
S3150800142027FFFFF70DFE08BD08B501213A2000F099
S315080014301FFF08BDFEE7000008B500F013F8064BCD
S31508001440064A03E052F8041B43F8041B04498B427E
S31508001450F8D3FEF7B1FE00BF9C10002084320208C4
S31508001460B0140020044B054A9A60D3F8882042F449
S315080014707002C3F88820704700ED00E000000008FD
S31508001480014B1868704700BFF810002008B5094BD3
S315080014901B6F03F00703022B04D0032B05D0012B87
S315080014A006D0FEE7FFF7ECFF03E0034B186800E001
S315080014B0024808BD00800040FC100020002D3101C4
S315080014C008B5FFF7E3FF054B1B6FC3F3033301337F
S315080014D0B0FBF3F0024B186008BD00BF0080004067
S315080014E0F41000200048704700B4C404014B186883
S315080014F0704700BFFC10002008B5064B1860064B65
S315080015001B6F03F00703032B00D008BDFFF7D8FFB6
S31508001510FBE700BFFC100020008000400020704759
S3150800152000487047002D31014FF094439868C0F386
S3150800153004400C2808D8DFE800F009070707070762
S3150800154022181A071C1E2000002070474FF09443EB
S315080015509B6803F04073B3F1807F12D0B3F1007F2C
S3150800156011D003B1704709487047094870470948C0
S31508001570704709487047094870470948704709483D
S315080015807047094870470948ECE700BF00093D0065
S315080015900024F400C0EA210180BA8C010048E80161
S315080015A0005A6202405DC60080841E0040420F0059
S315080015B04FF4004070474FF47A707047014B186833
S315080015C0704700BF001100200023036070470368BE
S315080015D00B600160704700E01846036823B18B4230
S315080015E0FAD10B68036070477047D0B18446C2B120
S315080015F0B9B10020137883B100B501F1FF3E8645E5
S3150800160006D90CF8013B013201301378002BF4D1CE
S3150800161000238CF800305DF804FB00238CF80030BA
S3150800162070477047034640B1002001E0013301309E
S315080016301A781AB18842F9D370470020704708B55E
S315080016404FF0FF31FFF7EEFF08BD80B170B50C46CD
S315080016501546064622B119B1FFF7F1FF844200D8B4
S3150800166070BD2A46211A3044FFF7BFFFF8E77047D6
S31508001670F0B18446F1B110B409E004F120030FE09B
S315080016802030181A18D1BCB10CF1010C01319CF8A4
S3150800169000400B4BE35C03F00303012BEDD023461C
S315080016A00878074A825C02F00302012AE9D1E7E7D3
S315080016B001207047012070475DF8044B704700BF52
S315080016C02D3002080346064A10680344054A934229
S315080016D002D8034A136070474FF0FF30704700BFC7
S315080016E0041100200000012008B543680BB1984793
S315080016F008BD2220FCE708B543690BB1984708BD29
S31508001700FF20FCE70A681378022B00D1704710B552
S3150800171008461379517903EB43031B011433064C2E
S315080017201B59CB4013F0010F0CBF01230023137084
S31508001730FFF79EFA10BD00BF30C0034030B583B036
S315080017400546046801213A2000F092FD0023012293
S315080017506179207902F07AF92379627903EB4303F8
S315080017601B0114330F495B58D34013F0010F0CBF0C
S31508001770012300232370A379022B02D0002003B093
S3150800178030BD00F07BF92A460749607900F09EF9DA
S3150800179002466179207901230193009302F0C2F889
S315080017A0ECE700BF30C00340051700080368187847
S315080017B07047000002681378022B12D0137951790A
S315080017C003EB43031B01143312481B58CB4003F0A9
S315080017D0010003469179012904D011B980F001006E
S315080017E0107070475188490089B20B4343F47F4310
S315080017F043F0C0034FF6E0718B4205D04FF6DF7118
S315080018008B4204D05380704701211170F6E70021FE
S315080018101170F7E730C0034008B503681A78022A42
S3150800182000D008BD00225A80FFF788FFF9E710B5F7
S3150800183082B004682378022B04D0A379022B03D044
S315080018400223237002B010BD0021607900F02EF942
S31508001850617920790023019300930A4602F062F821
S31508001860EEE70000F0B585B005460368B3F1964F7C
S3150800187014D03A4A93424BD12F20012100F0F8FCAC
S3150800188001230A226979287902F0E0F801230A225D
S31508001890E979A87902F0DAF800261FE02E20ECE7AD
S315080018A02B796A79012707FA02F22D4C03EB4303D9
S315080018B004EB031303F501531A60642007F044F997
S315080018C02B796A79974003EB430304EB031404F579
S315080018D082542760642007F037F90136082EDFDDC9
S315080018E02B68B3F1964F15D02A681C4B9A4222D022
S315080018F001238DF800308DF80130EB680293AB6850
S3150800190001932B7C8DF80C306946286802F05AF949
S3150800191005B0F0BD124B0322C3F8382569792A7938
S3150800192042EA0142C3F83C25E979AA7942EA01422A
S31508001930C3F84025D8E7A3F530330322C3F8482572
S3150800194069792A7942EA0142C3F84C25E979AA79E4
S3150800195042EA0142C3F85025CAE700BF00800640A4
S3150800196000C0034008B543680068984708BD10B52D
S31508001970044601213A2000F07BFCA378B3FA83F3EE
S315080019805B0904226178207802F060F8002010BD17
S3150800199083784BB9037842780121914003EB4303DE
S315080019A01B01064AD15070470378427801219140BD
S315080019B003EB43031B01024AD150704740E0034042
S315080019C040D0034083784BB903784278012191408F
S315080019D003EB43031B01064AD1507047037842784C
S315080019E00121914003EB43031B01024AD150704782
S315080019F040D0034040E003400378427801219140FB
S31508001A0003EB43031B01014AD150704740F00340E2
S31508001A1002460378407803EB43031B01103305495C
S31508001A205B58C34003F0010093780BB980F00100BE
S31508001A30704700BF30C0034038B5044600E0A847E9
S31508001A40CCB194FAA4F3B3FA83F00122824024EAD3
S31508001A500204094A02EB00125568002DF0D0064A26
S31508001A6002EB0012127B002AE9D0034A02EB0013AC
S31508001A709968A847E4E738BD9018002008B51A20E9
S31508001A8001F06CFB28B1084B4FF08062C3F8802147
S31508001A901A601B2001F062FB28B1034B4FF000626D
S31508001AA0C3F880211A6008BD00E100E038B5054694
S31508001AB00C4601F03AFB044B03EB05135C6000226D
S31508001AC01A7301F038FB38BD90180020F8B50546A2
S31508001AD00F46164601F029FB05F0FC0C104BD3F80F
S31508001AE024140023032B0CD8EC1804F0030444EA4E
S31508001AF00C0421FA04F212F0010F03D00133DBB211
S31508001B00F0E7FF24FF2C06D0064B03EB04135F60B7
S31508001B109E6001221A7301F00EFB2046F8BD00BF35
S31508001B2000C003409018002008B5084BD3F82404D9
S31508001B30D3F82024104000F0553020F0502003F54B
S31508001B400053C3F82004FFF777FF08BD00C0034021
S31508001B5008B5084BD3F82404D3F82024104000F025
S31508001B60AA3020F0A02003F50053C3F82004FFF79D
S31508001B7063FF08BD00C0034008B5034B1968034B53
S31508001B8018680FF073FC08BD0C110020081100201E
S31508001B90B0F1FF3F01D010B97047024870470248BC
S31508001BA0704700BF21E000F024E000F08908002318
S31508001BB001E0043001338B4205D20268B2F1FF3FDF
S31508001BC0F7D00020704701207047704738B50446A3
S31508001BD01BF06EFEFFF7DCFF054650B9074B9B6806
S31508001BE00A3303F01F03012199402046FFF7DEFF61
S31508001BF008B1284638BD024DFBE700BF0080E00F5C
S31508001C000EE000F0F8B505460E46940022461BF095
S31508001C1057FEFFF7BDFF074608B13846F8BD22460E
S31508001C203146284618F022FD0028F6D0004FF4E782
S31508001C3010E000F008B50346084613F0030F02D17A
S31508001C4011F0030F0AD09200194618F01FFD002064
S31508001C5008BD53F8041B40F8041B013A002AF8D1C2
S31508001C60F5E7000010B582B0044601A802F060FB53
S31508001C709DF8063023800122E2700020A070054BF3
S31508001C809B680A3303F01F0302FA03F3636002B08A
S31508001C9010BD00BF0080E00F08B502F077FA08BD56
S31508001CA008B502F063FA002008BD000008B501F087
S31508001CB02DFA014B186008BD2021002008B5024BFB
S31508001CC0186801F027FA08BD2021002008B50A4641
S31508001CD04118013905F02AFA08BD0000024B4FF4F5
S31508001CE080321A67704700BF0090004038B5054635
S31508001CF00C46FFF7CBFB05B128600CB10D2323700A
S31508001D0038BD000038B505460C46164BD3F82031C9
S31508001D1003F00703013B052B20D8DFE803F0030B8C
S31508001D20130F171BFFF7ACFB052305B1286004B199
S31508001D30237038BDFFF7DAFB0323F6E7FFF7F4FB5A
S31508001D400723F2E7FFF7ECFB0223EEE7FFF798FB22
S31508001D500623EAE7FFF7CAFB0423E6E7002318464B
S31508001D60E3E700BF0080004038B505460C46114B36
S31508001D70D3F8283103F00703013B032B17D8DFE814
S31508001D8003F0020E120AFFF77BFB052305B1286054
S31508001D9004B1237038BDFFF7C7FB0723F6E7FFF743
S31508001DA0A5FB0323F2E7FFF7BBFB0223EEE70023BD
S31508001DB01846EBE70080004030B583B005460C4670
S31508001DC000230193114BD3F8803103F00303022B50
S31508001DD016D0032B0FD0012B07D000230DB1019A83
S31508001DE02A6004B1237003B030BD002101A8FFF7B3
S31508001DF089FF0F23F2E7FFF797FB01900723EDE72B
S31508001E00FFF78EFB01900223E8E700BF0080004041
S31508001E1038B505460C460C4BD3F8903203F003034D
S31508001E20012B05D0022B07D1FFF77EFB072305E020
S31508001E30FFF776FB022301E00023184605B1286068
S31508001E4004B1237038BD00BF0080004030B583B0B0
S31508001E5005460C4600230193144BD3F8203203F0B1
S31508001E600703013B032B1ED8DFE803F0020E131805
S31508001E70002101A8FFF778FF11230DB1019A2A6006
S31508001E8004B1237003B030BDFFF74EFB0190072362
S31508001E90F3E7FFF78DFB01900A23EEE7FFF78EFBCA
S31508001EA001900923E9E70023E7E700BF0080004027
S31508001EB038B505460C460F4BD3F8403103F00303FB
S31508001EC0022B0ED0032B10D0012B06D00023184668
S31508001ED005B1286004B1237038BDFFF769FB0A23F2
S31508001EE0F6E7FFF76BFB0923F2E7FFF764FB0B2323
S31508001EF0EEE700BF0080004030B583B005460C46CB
S31508001F00002301934FF0E0231B6913F0040F0ED052
S31508001F10FFF7D6FA01900C238DF803300DB1019B1B
S31508001F202B6014B19DF80330237003B030BD0DF15A
S31508001F30030101A8FFF7BCFFF0E7000030B583B046
S31508001F4005460C4600230193144BD3F8603203F080
S31508001F500703013B032B1FD8DFE803F0020E191411
S31508001F60002101A8FFF7CEFE0F230DB1019A2A60C2
S31508001F7004B1237003B030BD002101A8FFF798FF14
S31508001F801023F2E7FFF7D0FA01900723EDE7FFF7F2
S31508001F90C7FA01900223E8E70023E6E7008000403D
S31508001FA030B583B005460C46002301930C4BD3F895
S31508001FB0703203F00303012B09D0022B0DD1142331
S31508001FC00DB1019A2A6004B1237003B030BD002117
S31508001FD001A8FFF76DFF1023F2E70023F0E700BF23
S31508001FE00080004038B505460C46124BD3F800323F
S31508001FF003F00703013B032B18D8DFE803F0020AB6
S315080020000E12FFF7D5FA0A2305B1286004B123702A
S3150800201038BDFFF7D3FA0923F6E7FFF7CCFA0B2307
S31508002020F2E7FFF74DFA800A0E23EDE7002318467C
S31508002030EAE700BF0080004038B505460C46124B5B
S31508002040D3F8083203F00703013B032B18D8DFE85F
S3150800205003F0020A0E12FFF7ABFA0A2305B128604D
S3150800206004B1237038BDFFF7A9FA0923F6E7FFF78D
S31508002070A2FA0B23F2E7FFF723FA800A0E23EDE70D
S3150800208000231846EAE700BF0080004038B5054639
S315080020900C460F4BD3F8403203F00303022B0ED045
S315080020A0032B10D0012B06D00023184605B1286053
S315080020B004B1237038BDFFF77BFA0A23F6E7FFF76A
S315080020C07DFA0923F2E7FFF776FA0B23EEE700BF5E
S315080020D00080004038B505460C460F4BD3F8503201
S315080020E003F00303022B12D0032B08D0012B0AD0CE
S315080020F00023184605B1286004B1237038BDFFF7E0
S315080021005AFA0B23F6E7FFF753FA0A23F2E7FFF723
S3150800211055FA0923EEE700BF0080004038B50546AA
S315080021200C460F4BD3F8603103F00303022B0ED095
S31508002130032B10D0012B06D00023184605B12860C2
S3150800214004B1237038BDFFF733FA0A23F6E7FFF721
S3150800215035FA0923F2E7FFF72EFA0B23EEE700BF5D
S315080021600080004038B505460C46104BD3F80001F0
S3150800217000F00300032815D8DFE800F002080C1069
S31508002180012305B1286004B1237038BDFFF7AEF905
S315080021900323F6E7FFF712FA0923F2E7FFF7BEF97A
S315080021A00823EEE700231846EBE700BF008000404F
S315080021B0B0F5207F20D00ED8B0F5007F16D020D8F5
S315080021C010B1B0F5C07F04D10F4B186FC0F30330C0
S315080021D018E0002016E0B0F5607F05D10A4BD3F869
S315080021E08000C0F301100DE000200BE0064BD3F889
S315080021F09000C0F3046005E0034B186FC0F380201D
S3150800220000E00020013070470080004038B50546E0
S315080022100C46104B4FF480329A660020FFF7C8FF31
S3150800222005FB00F00C4BDA6902F4803241F6713195
S31508002230D9635B6823F440130849884201D9002C06
S3150800224005DD05494B600AB10022CA6338BD43F46F
S315080022508013F6E70090004000000340005A62022F
S3150800226008B5FFF73FF90021FFF7D0FF08BD0000CA
S31508002270430905D0012B0ED0022B0ED0002200E018
S31508002280002200F01F0051B102F58052012303FA23
S3150800229000F010607047034AF3E7034AF1E702F5D6
S315080022A00052F3E7648000406880004010B582B0B1
S315080022B0002301930093B0F5807F00F20781B0F503
S315080022C0807F00F27581DFE810F04C01730173011D
S315080022D07301730173017301730173017301730150
S315080022E07301730173017301730173017301730140
S315080022F07301730173017301730173017301730130
S31508002300730173017301730173014C0185014C015B
S3150800231085019D019D019D019D019D018501A201EA
S315080023203D01AC0123013D0185018501850173014C
S31508002330730173017301730173017301AC018501A4
S3150800234085018501C001B10185017301730173011E
S3150800235073017301730173017301730173017301CF
S315080023607301B6019D014C014C014C016D013D0103
S315080023703D016201BB0156017C017C0173017301B9
S31508002380730173017301730173017301730173019F
S31508002390730173017301730173017301730173018F
S315080023A0730173017301730173017301730173017F
S315080023B0730173017301730173017301730173016F
S315080023C07301730173017301730181017301730151
S315080023D0730173017301730173017301730173014F
S315080023E0730173017301730173017301730173013F
S315080023F0730173017301730173017301730173012F
S31508002400730173017301730173017301730173011E
S31508002410730173017301730173017301730173010E
S3150800242073017301730173017301730173017301FE
S3150800243073017301730173017301730173017301EE
S3150800244073017301730173017301730173017301DE
S3150800245073017301730173017301730173017301CE
S3150800246073017301730173017301730173017301BE
S3150800247073017301730173017301730173017301AE
S31508002480730173017301730173017301730173019E
S31508002490730173017301730173017301730173018E
S315080024A0730173017301730173017301730173017E
S315080024B0730173017301730173017301730173016E
S315080024C073017301730173017301A701B0F5E06F1E
S315080024D000F0AC800CD9B0F5286F00F0B1804FD968
S315080024E0B0F5306F63D1002101A8FFF791FC5FE0DA
S315080024F0B0F5607F79D010D9B0F5B06F00F087805D
S3150800250033D9B0F5C06F00F08C80B0F5D06F4FD1DD
S31508002510002101A8FFF766FD4AE0B0F5007F0AD161
S31508002520FEF7B4FF04464FF40070FFF741FEB4FB14
S31508002530F0F401943CE011D9B0F5207F4AD0B0F50B
S31508002540407F35D1FEF7BCFF04464FF42070FFF7F5
S315080025502FFEB4FBF0F46408019429E0B0F5C07FBF
S3150800256026D1FEF7ADFF019022E0B0F5806F49D085
S31508002570B0F5A06F1CD1002101A8FFF767FC17E092
S31508002580B0F5186F57D007D9B0F5206F10D10021D4
S3150800259001A8FFF7D3FC0BE0B0F5F06F55D0B0F506
S315080025A0106F05D1002101A8FFF746FD00E002D211
S315080025B0019802B010BDB0F5386F32D0B0F5406F53
S315080025C0F6D1002101A8FFF7CFFBF1E7FEF75EFF82
S315080025D00190EDE7FEF774FF04464FF42070FFF70D
S315080025E0E7FDB4FBF0F40194E2E700216846FFF743
S315080025F07DFB009C4FF46070FFF7DAFDB4FBF0F446
S315080026000194D5E7002101A8FFF77CFBD0E700215C
S3150800261001A8FFF7D1FBCBE7002101A8FFF76CFC67
S31508002620C6E7002101A8FFF743FCC1E7002101A87E
S31508002630FFF72CFDBCE7002101A8FFF74BFDB7E724
S31508002640002101A8FFF7ACFCB2E7002101A8FFF7BB
S3150800265065FDADE708B58020FFF728FE034B9842D5
S3150800266003D8034B4FF480321A6708BD005A62023A
S3150800267000A0004000B583B000238DF80730B0F500
S31508002680807F00F0BE8013D9B0F5086F00F0C580D2
S3150800269046D9B0F5286F00F0D88070D9B0F5306FFC
S315080026A040F082800DF107010020FFF7B1FB7CE0C6
S315080026B080287AD8242878D324385C2875D8DFE887
S315080026C000F04F4F4F4F4F744674A6587474747485
S315080026D074747474747474A67474743AB874747470
S315080026E074747474747474747474BE4F7474746D7E
S315080026F0747464C4B27F7F747474747474747474F8
S31508002700747474747474747474747474747474747B
S3150800271074747474747474747474747474748500CE
S31508002720B0F5C06F73D00CD9B0F5E06F00F08180BA
S31508002730B0F5F06F1AD10DF107010020FFF7EEFC96
S3150800274033E0B0F5A06F6ED0B0F5B06F05D10DF1DE
S3150800275007010020FFF730FB27E0B0F5806F24D192
S315080027600DF107010020FFF7CDFA1EE0B0F5D06F96
S315080027701BD10DF107010020FFF734FC15E0B0F579
S31508002780186F5CD0B0F5206F05D10DF10701002058
S31508002790FFF7D4FB09E0B0F5106F06D10DF107017C
S315080027A00020FFF749FC00E004D29DF8070003B0BB
S315080027B05DF804FBB0F5386F29D0B0F5406FF4D159
S315080027C00DF107010020FFF7CFFAEEE7224B1B6F4A
S315080027D003F00703013B032BE7D8DFE803F00E02FB
S315080027E0060A05238DF80730DFE703238DF807303F
S315080027F0DBE708238DF80730D7E702238DF8073083
S31508002800D3E70DF107010020FFF776FBCDE70DF1C1
S3150800281007010020FFF74CFBC7E70DF10701002071
S31508002820FFF7A0FCC1E70DF107010020FFF70EFB3B
S31508002830BBE70DF107010020FFF728FCB5E70DF10E
S3150800284007010020FFF746FCAFE70DF1070100205E
S31508002850FFF7A6FBA9E700BF0080004070B5054654
S315080028608020FFF707FF032800F0A180584B4FF49C
S3150800287080125A66574B45F60E02C3F8802003F5B8
S3150800288080524FF0A061916203F500534FF48032F5
S315080028909A62504B9C6D14F48034FAD12A786B787E
S315080028A01B0543EA0263EA7843EA02432A7943EAC4
S315080028B002336A7943EA8213AA791343454E336190
S315080028C0B36903F00043EA7943EA82632A7A43EA62
S315080028D002636A7A43EA0243AA7A43EA0223EA7A55
S315080028E01343B36100F012FCB26B82F4006303F485
S315080028F040635340B36300F00DFC336A23F00F03C3
S315080029006A7B02B1082423432C7B43EA84031343DE
S31508002910304A13626B7B002B30D1916A2E4B0B40E9
S31508002920A97B43EA4113E97B43EA0113A97C43EAFD
S31508002930C10343F480339362264B9A6D274B934326
S31508002940FAD1244A02F580514FF080738B621369DD
S3150800295023F47003A87843EA005313614FF0004349
S315080029608B612B7C1BB91E4B4FF080729A626B7C75
S31508002970BBB91B4B4FF480329A6212E0022B17D078
S31508002980144A916A144B0B40A97B43EA4113297CEC
S3150800299043EA0163A97C43EAC103697C43EA01432C
S315080029A09362EB7C1BB10B4B0E4AC3F8802070BDBB
S315080029B0084C00232361A36100F0A8FB626B82F434
S315080029C0085303F47F435340636300F0A3FBD7E740
S315080029D0009000400040004AC7FFFEFE03000100C9
S315080029E00060004AF1A7FFFF014B93F9000070470A
S315080029F02C11002010B443784F2B28BF4F231A46BA
S31508002A001C4B4FF40001596603F5B8334FF4D15106
S31508002A10596203F5805102244C6003F500530121E5
S31508002A205960154B1B6913F4803FFAD1037842EAC3
S31508002A300323114A53618178C3781B0143EA0123B2
S31508002A40017943EA410341790B4393608179C3795C
S31508002A501B0143EA4113017A43EA4103417A0B43D6
S31508002A605360837A1BB113466FF4D1525A625DF8EC
S31508002A70044B70470090004000000240014B18804C
S31508002A80704700BF2E11002008B5002903DD01217B
S31508002A90FFF7BCFB08BD0021FFF7B8FBFAE700000B
S31508002AA0B0F5207F4AD02FD8B0F5007F3BD04ED85E
S31508002AB010B1B0F5C07F26D110B54C1EFFF7D0FB7C
S31508002AC000F048F8FFF70AF9214B196F21F4704115
S31508002AD041EA04311967FEF7F3FC4FF04023D3F8B7
S31508002AE0843013F0100FF8D14FF04023D3F8841038
S31508002AF0C1F38111C1F10201FFF7C6FF00F032F8F8
S31508002B00FFF7A8FD10BD7047B0F5607F0AD10139FF
S31508002B100F4AD2F8803023F0300343EA0111C2F895
S31508002B208010704770470139094AD2F8903023F06F
S31508002B30F85343EA0161C2F8901070470139044A14
S31508002B40136F23F4806343EA812111677047704746
S31508002B500080004008B502214FF42070FFF7A0FF5F
S31508002B6008BD000008B54FF4C070FFF79FFB054B82
S31508002B70984205D902214FF42070FFF791FF08BD4E
S31508002B800121F8E780F0FA0270B50C46B0F5807FAF
S31508002B9000F094811FD9B0F5086F00F0108240F25A
S31508002BA08380B0F5286F00F0998240F2D180B0F5A5
S31508002BB0306F40F0F880022900F0A282072940F021
S31508002BC0A1820221874AD2F8903223F003030B43ED
S31508002BD0C2F89032E8E0802800F2E6802428C0F0A7
S31508002BE0E38024385C2800F2DF80DFE810F09900E3
S31508002BF09900990099009900DD008300DD00A8017D
S31508002C00A500DD00DD00DD00DD00DD00DD00DD0006
S31508002C10DD00DD00DD00DD00A801DD00DD00DD00F2
S31508002C2069002D02DD00DD00DD00DD00DD00DD00D0
S31508002C30DD00DD00DD00DD00DD00DD00DD00430236
S31508002C409900DD00DD00DD00D000DD00DD00B80004
S31508002C507702FE01E500E500DD00DD00DD00DD00B0
S31508002C60DD00DD00DD00DD00DD00DD00DD00DD006E
S31508002C70DD00DD00DD00DD00DD00DD00DD00DD005E
S31508002C80DD00DD00DD00DD00DD00DD00DD00DD004E
S31508002C90DD00DD00DD00DD00DD00DD00DD00DD003E
S31508002CA0DD00DD00DD00F100B0F5C06F00F0478102
S31508002CB019D9B0F5E06F00F0C781B0F5F06F38D1DB
S31508002CC00A2C00F054810B2C00F05381092C00F0DB
S31508002CD04C810021434AD2F8603123F003030B43A9
S31508002CE0C2F8603160E0B0F5A06F00F07E81B0F503
S31508002CF0B06F12D1072C00F0C7800F2C00F0C680E9
S31508002D00022C00F0BF800021364AD2F8803123F029
S31508002D1003030B43C2F8803146E0B0F5806F43D118
S31508002D20023C052C00F2B480DFE804F0B8B4BCBE5F
S31508002D30BAB6B0F5D06F37D1093C052C00F21B8125
S31508002D40DFE814F0230129012501190119012701DA
S31508002D50B0F5186F00F08E81B0F5206F14D1023CE3
S31508002D600E2C00F29D81DFE814F0B7019B019B0150
S31508002D709B019B01B1019B019B019B019B019B014F
S31508002D809B019B01B301B501B0F5106F0CD1093C4D
S31508002D90052C00F20281DFE814F00A0110010C018B
S31508002DA0000100010E0100D270BDB0F5386F00F0C9
S31508002DB0C680B0F5406FF7D1023C052C00F232818F
S31508002DC0DFE814F03C013E013001400130013A01D0
S31508002DD08B1E062B08D8DFE803F04F3D075207077E
S31508002DE04C0000BF0080004000252E46012102202D
S31508002DF000F008FAFFF734FAFFF7ACFEFEF76EFFAD
S31508002E00AC4A136F23F0070333431367FEF758FBE7
S31508002E104FF04023D3F8843013F0100FF8D14FF059
S31508002E204023D3F88410C1F38111C1F10201FFF7E1
S31508002E302BFE0121002000F02FFAFFF793FEFFF783
S31508002E4009FC002DB0D1032CAED19B4B4FF4803238
S31508002E509A62A9E7994B4FF480125A66984B9D6A75
S31508002E60C5F3006503F580534FF480329A62032652
S31508002E70BCE700250426B9E700250126B6E70025A4
S31508002E800226B3E702213FE703213DE701213BE79D
S31508002E9000210AE0022108E0042106E0032104E0FB
S31508002EA0052102E0062100E00121824AD2F82031FC
S31508002EB023F007030B43C2F8203175E70C2924D009
S31508002EC01FD8A1F10904E4B2022C3FF66DAF794B85
S31508002ED0596E03F580534FF480325A66794A536A1D
S31508002EE043F00103536211F4803F03D1764B4FF44C
S31508002EF080325A664FF0E022136923F00403136107
S31508002F0052E710297FF450AFE1E76A4B596E03F593
S31508002F1080534FF480325A666A4A536A23F0010393
S31508002F20536211F4803F03D1674B4FF480325A66DF
S31508002F304FF0E022136943F00403136134E70A2CC7
S31508002F400FD00B2C0FD0092C09D00021594AD2F8E2
S31508002F50403123F003030B43C2F8403124E7022132
S31508002F60F4E70121F2E70321F0E70221B2E60121A5
S31508002F70B0E60321AEE600214E4AD2F8003223F02D
S31508002F8007030B43C2F800320EE70221F4E70321D8
S31508002F90F2E70421F0E70121EEE70021454AD2F8DD
S31508002FA0083223F007030B43C2F80832FCE6022175
S31508002FB0F4E70321F2E70421F0E70121EEE7082907
S31508002FC00FD009290FD0032909D00021394AD2F890
S31508002FD0003123F003030B43C2F80031E4E6012174
S31508002FE0F4E70321F2E70221F0E7073C0A2C07D8A9
S31508002FF0DFE804F010061412060606060606160092
S3150800300000212C4AD2F8203223F007030B43C2F8DA
S315080030102032C9E60221F4E70321F2E70421F0E7AA
S315080030200121EEE70021234AD2F8283123F00703CD
S315080030300B43C2F82831B7E60421F4E70321F2E787
S315080030400221F0E70121EEE70A2C0FD00B2C0FD056
S31508003050092C09D00021174AD2F8403223F003037D
S315080030600B43C2F840329FE60221F4E70121F2E75A
S315080030700321F0E70A2C0FD00B2C0FD0092C09D00E
S3150800308000210C4AD2F8503223F003030B43C2F84E
S31508003090503289E60221F4E70121F2E70321F0E73D
S315080030A00021044AD2F8603223F007030B43C2F822
S315080030B0603279E6008000400060004A00900040D7
S315080030C00040004A00C0074000A000400421E8E78D
S315080030D00121E6E70221E4E70321E2E7102C0BD001
S315080030E0142C0BD10221084AD2F8703223F00303BC
S315080030F00B43C2F8703257E60121F4E70021F2E7E4
S3150800310001215FE500215DE500800040EFF31080B6
S3150800311072B6704700B962B67047302383F31188D8
S315080031207047002383F311887047EFF3118030232B
S3150800313083F31188704780F311887047EFF3108383
S3150800314013F0010F05D1EFF311832F2B03D80020BD
S315080031507047012070470120704700004209064B5E
S3150800316053F8223000F01F0023FA00F080F0010027
S3150800317000F00100704700BF00E100E04FF0402278
S31508003180536F23F44073417843EA0123536770472A
S315080031907047704710B50446094A136943F004039B
S315080031A0136104F0E3FBFFF7F3FF30BFFFF7F1FF0E
S315080031B004F0F2FB04B110BDFEF782F9FBE700BF8D
S315080031C000ED00E010B50446074A136943F004030E
S315080031D0136104F0CBFB30BF04F0DEFB04B110BD75
S315080031E0FEF76EF9FBE700BF00ED00E07047704799
S315080031F04FF04022D36E23F0300301790B43D36698
S3150800320070477047F8B504464FF04023D3F884302A
S3150800321013F0100FF8D14FF04023D3F88430C3F3DE
S3150800322081139C4231D0FEF731F90646012C12D0A3
S31508003230FFF76CFF05464FF0402707F500534FF0A0
S3150800324000725A662046FFF7DCFF621E4FF4806361
S3150800325093403B6707E00121FFF716FCE8E74FF0CC
S315080032604023D3F884304FF040235B6E13F0007F81
S3150800327006D14FF04023D3F8843013F0200FEED058
S315080032802846FFF747FF022C00D0F8BD002130463C
S31508003290FFF7FAFBF9E7000010B50C46034650B1F4
S315080032A0094A127812B1094A934208D921460220DE
S315080032B0FFF7A8FF10BDFEF7E9F80346F0E7214639
S315080032C00120FFF79FFFF5E7D4210020005A62028C
S315080032D008B50278034B1A7001210020FFF7DCFFBE
S315080032E008BD00BFD42100201B4B4FF000425A6690
S315080032F003F50B235A6C02F001024AF6CD31196424
S3150800330090B9164B5B6B13F0010FFAD1134B5B6840
S3150800331013F0010F1BD0124B012159600F4B1B6B89
S3150800332013F0010FFAD012E00C4B1B6B13F0080FC9
S31508003330FAD10A4B03F500512020886203F5805321
S3150800334001215960054B9B6A13F0200FFAD012B180
S31508003350024B044A1A647047009000400040094036
S31508003360006009403254FFFF10B5194B4FF0004278
S315080033705A6603F50B235C6C04F001044AF6CD3259
S315080033801A6443785B0043F001034FF04022D3638D
S31508003390104B5B6B13F00B0FFAD10E4A536823F4EC
S315080033A0F873817843EA01135360C178437943EA95
S315080033B0012393600179837943EA01231361007835
S315080033C0FFF792FF14B1034B034A1A64012010BD9C
S315080033D000900040004009403254FFFF10B40F2807
S315080033E000D90F20124B5C6E03F580534FF0004254
S315080033F05A6603F50B235A6C02F001024AF6CD31E0
S3150800340019640C4B5B6B13F0800FFAD109490B6AF0
S3150800341023F00F03184308620AB1074A0A64002C0E
S3150800342003DB064B4FF000425A665DF8044B7047C3
S3150800343000800040004009403254FFFF00A00040D1
S3150800344010B4134B5C6E03F580534FF000425A6676
S3150800345003F50B235A6C02F001024AF6CD311964C2
S315080034600C4B5B6B13F0800FFAD10A490B6A23F4F5
S31508003470F85343EA002008620AB1074A0A64002C96
S3150800348003DB064B4FF000425A665DF8044B704763
S3150800349000800040004009403254FFFF00A0004071
S315080034A0084B98420AD0084B984209D003F5804346
S315080034B0984201D000207047582070475620704720
S315080034C0572070470000014B00000A40436813F07C
S315080034D0010F19D0836813F0010F03D0036913F0A5
S315080034E0010F09D00A238363436D13F0500FFBD1F4
S315080034F0836C13F0030FFBD100F5005301225A60C9
S31508003500436813F0020FFBD1042307E000F580534C
S3150800351004221A6100F500531A610B46591E002B46
S31508003520F4D1202303610023C360836041F20202C1
S31508003530426183614FF4A0224262C36103628362DF
S31508003540C3624363036500F500520249D16403630D
S31508003550704700BFFF3F0D030A46F1B100F58053DF
S315080035600121596002F00F01436DC3F30B03002BD1
S31508003570FAD18163436D13F07803FBD112F0010F82
S3150800358000D0012312F0040F01D043F00203826C2D
S3150800359002F003029A42FAD17047436813F0010F0A
S315080035A0FAD0836813F0010F03D0036913F0010FF3
S315080035B009D00A238363436D13F0500FFBD1836C44
S315080035C013F0030FFBD100F5005301225A6043683C
S315080035D013F0020FFBD17047836C13F0800FFBD0FA
S315080035E0C06BC0B27047836C13F0400FFBD04164C8
S315080035F07047000038B5044615460846E1B1A36889
S3150800360013F0010F4ED06268B0FBF5F0013812F0E6
S3150800361001023BD0636D13F0280FFBD1A36C13F0A6
S31508003620030F0FD1A36C13F0010F2BD1A36C13F06A
S31508003630020F29D1002106E02046FFF731FFFEF7E9
S3150800364035FEDCE70521636813F0010F1FD0A36878
S3150800365013F0010F03D0236913F0010F09D00A23D1
S31508003660A363636D13F0500FFBD1A36C13F0030F24
S31508003670FBD104F5005301255D60636813F0020F62
S31508003680FBD104E00921DEE70621DCE700212369F6
S3150800369023F07F4343EA006020610AB32046FFF720
S315080036A05BFF1DE06368A36803F0E003402B1DD0B1
S315080036B017D9602B1ED0802B12D10123400105FBA0
S315080036C003F3B0FBF3F020380B4B03EAC000636D3D
S315080036D013F0010FFBD12063636D13F0010FFBD1CB
S315080036E038BD2BB1202BFBD10823E7E70623E5E7F6
S315080036F01023E3E70423E1E7F8FF7F0070B50446EB
S315080037000D461646436823B1636DC3F30B03002BBE
S31508003710FAD12046FFF7DAFE636923F44C5323F007
S315080037200F036A7B1343EA8913432A8A13436361A7
S31508003730A36823F0804323F0E2032A7B13432A7EFF
S3150800374013436A691343A360AB681BB9A36843F0C4
S315080037500043A360EA69002A74D0A368127A43EA90
S315080037608253A360A368EA69927A43EA4243A36054
S31508003770A368EA69928802F4C0421343A360A36867
S31508003780EA69527843EA8203A360A368EA69527B2E
S3150800379043EAC203A360A368EA69927B43EA021379
S315080037A0A360A368EA69927843EA8223A360EA6978
S315080037B09179D3795B0243EA8123E360EB691B784D
S315080037C0012B01D0032B03D1E36843F00403E36024
S315080037D0EB691B78023BDBB2012B4DD9474B9C4268
S315080037E067D0474B9C4266D003F580439C425ED027
S315080037F04FF0FF3303F593735B0103F1804303F541
S31508003800703302225A60EB695A7A04F580539A6239
S31508003810EB695B7A1BB1E36843F40063E360EB6929
S31508003820DB7A7BB1E36843F40043E360334B9C42A5
S3150800383043D0EB691B7B03F00F03324A1367324B05
S315080038409C4241D03EB196F82030002B42D004F578
S31508003850805301221A6205212046FFF77DFEAA68D9
S31508003860002A46D129782046FFF776FEA36CDB436B
S3150800387013F4405FFAD170BD204B9C4213D0204B05
S315080038809C4212D003F580439C420AD04FF0FF3386
S31508003890A6335B0103F1804303F5703302225A60B5
S315080038A0B1E70223F4E70023F2E70123F0E7022356
S315080038B0A0E700239EE701239CE7EB691B7B03F047
S315080038C00F03104A5366B4E7EB691B7B03F00F033B
S315080038D0D367B7E7E36923F0090396F82220134371
S315080038E096F82120134343F0010304F58052D3616F
S315080038F0B1E769682046FFF77DFEB3E70000014B94
S3150800390000000A400090034000400A4008B5002322
S315080039101A46FFF7F3FE08BD08B500231A46FFF757
S31508003920EDFE08BD2DE9F84F0C4615461E469DF8D6
S3150800393028809DF82C70072A44D84FEA8209032369
S3150800394003FA09FA00FA09F9FFF7E0FB384AD2F850
S31508003950001489EA010303EA0A034B40C2F800345B
S31508003960FFF7D8FB4FF0000A072D43D8A9004FF000
S31508003970030909FA01F904F003048C40FFF7C6FBB2
S315080039802B4BD3F80824544004EA09045440C3F8DE
S315080039900844FFF7BFFB002E44D0264A0123AB405C
S315080039A01360B8F1000F3FD0234A1360012202FAD0
S315080039B005F5224AC2F82054C7B3A2F6DC321360D2
S315080039C0BDE8F88FA2F1080A4FEA8A09032303FA29
S315080039D009FB00FA09F9FFF799FB154AD2F804140E
S315080039E089EA010303EA0B034B40C2F80434FFF7E4
S315080039F091FBB9E74FEA8A0A4FF0030909FA0AF96F
S31508003A0004F0030404FA0AF4FFF780FB084BD3F822
S31508003A100C24544004EA09045440C3F80C44FFF744
S31508003A2079FBB8E7064AB9E7064ABEE7064AC6E793
S31508003A3000C0034010D4034014D4034000E0034000
S31508003A4010E4034014E4034024E403402DE9F84F4E
S31508003A5004460E461F4690463AB183B301228A4071
S31508003A6000EB400109012C4B5A50072E2FD804EBC6
S31508003A7044094FEA091909F10409DFF8A4A0B300BB
S31508003A800F2505FA03FB08FA03F5FFF73FFB59F87C
S31508003A900A305D4005EA0B055D4049F80A50FFF714
S31508003AA039FBB8F1000F08D16FB3012101FA06F608
S31508003AB004EB44042401184B1E51BDE8F88F01227B
S31508003AC08A4000EB40010901144B5A50CDE704EB3C
S31508003AD044052D010C35DFF84890A6F108039B0034
S31508003AE00F2202FA03FA08FA03FBFFF70FFB55F851
S31508003AF009308BEA030202EA0A025A4045F809200D
S31508003B00FFF708FBCDE7012101FA06F604EB4404AA
S31508003B102401024B1E51D0E740D0034040E0034049
S31508003B2030C0034002B970472DE9F04105460C46FE
S31508003B30174603F00308836823F4407383604FEA4B
S31508003B400826FFF7E3FAAB685E4006F440765E4067
S31508003B50AE60FFF7DFFA2CB9B5F1964F19D0124BC4
S31508003B609D421BD0AB68114B13F8083003FB07F2D4
S31508003B706AB1A4EBC7031344013BB3FBF2F3013B61
S31508003B80AA6812F0020F01D003B90123AB61BDE8A0
S31508003B90F0812E20FEF78AFB0446E3E72F20FEF786
S31508003BA085FB0446DEE700BF00800640E8E9010819
S31508003BB0043021B100F5805001230360704700F5F9
S31508003BC00050F9E738B504460D460023036400F5AE
S31508003BD000530C4ADA6300F108034A7872B903F510
S31508003BE0805302221A602B7BAA6869682046FFF771
S31508003BF099FF29782046FFF7DBFF38BD03F5005308
S31508003C00EFE700BFFFFF1F00436913F0807FFBD17A
S31508003C1000F5005001234360024B5B6813F0020F66
S31508003C20FAD170470040004900F5805001234360EF
S31508003C307047022A09D9033AD2B2022A04D821F0D7
S31508003C40FF03036001717047704721F07F4311F449
S31508003C50000201D04FF07F4213430360090E017141
S31508003C60704770B505460C46466806F00106FFF72C
S31508003C70DBFF2378627843EA0223A278120402F46F
S31508003C8080321343E27832B14FF400321343C5F859
S31508003C90983016B170BD0022F8E72846FFF7B4FF42
S31508003CA0F8E770B505460C461646FFF7ADFF2378CC
S31508003CB003F0070362786AB308221343A278120155
S31508003CC002F070021343E27832B34FF48072134362
S31508003CD02B67EB6A23F48B3323F480732279120261
S31508003CE002F4E06213436279120302F4805213432A
S31508003CF0A2799AB14FF480321343EB6231462846D3
S31508003D00FFF7AFFF2846FFF78FFFE3790BB10123D3
S31508003D10EB6070BD0022D0E70022D8E70022EBE76F
S31508003D2008B50B4669B103F5742303F23F23094826
S31508003D30A0FB0330800C01387F2828BF7F20C0B243
S31508003D4008BD2A20FEF7B2FA03460028EBD1012364
S31508003D50E9E700BF83DE1B4310B50B4C8C4228BF36
S31508003D600C4610465AB12044431EB3FBF4F0A34256
S31508003D7000D30138032800D90320C0B210BD2A2079
S31508003D80FEF794FAEFE700BF005A620210B5BBB916
S31508003D900F4C8C4200D30C46A2B19DF808000130A6
S31508003DA0B2FBF0F22244013AB2FBF4F0A24200D38D
S31508003DB0013840F2FF33984228BF1846C0B210BDFA
S31508003DC0044CE6E72A20FEF771FA0246E5E700BF4B
S31508003DD080969800404B4C002DE9F04383B0054689
S31508003DE00C4616460022D049FFF7B6FF94F8058020
S31508003DF0404500D980462846FFF706FF207910B3CC
S31508003E00E3781B0103F03003000400F4FE000343CB
S31508003E104FEA087202F0E042134322780AB143F0EF
S31508003E20020362780AB143F00403A2780AB143F0A8
S31508003E300803AB60E3882B612289638943EA02435E
S31508003E402B620024C7E000212846FFF769FFD7E761
S31508003E50B649D4E0B64BD3F88031002F40F0B48091
S31508003E6005EB04139B6CC3F302335A1E012A23D9AC
S31508003E70032B00F01781042B00F02081AC4AD2F8FE
S31508003E8084311B0CD2F88C21121402EB420207EE85
S31508003E90102AB8EEC77A15E0A54BD3F88031DCE7CF
S31508003EA0A34BD3F88431D8E7A14BD3F88431D4E7B0
S31508003EB09F4BD3F88031D0E79D4BD3F880319BB226
S31508003EC09FED9C7A23F4C042920413F4004F40F00D
S31508003ED0028105EB04118F6CC7F38207791C012751
S31508003EE08F40022F00F0FA80DFF844C2DCF8901108
S31508003EF009B207EE901AF8EEE77A37EEC77A07EEB8
S31508003F00907AF8EEE76AF6EE007A66EEA76A87EE2A
S31508003F10266ADCF8881109B207EE901AF8EEE77AF5
S31508003F2037EE867A04EB840106EB8101D1ED037A3C
S31508003F30F8EE677A9FED806AC7EE866AB7EE046A7E
S31508003F40C6EE267A67EE877AB1EE007A67EE877A4A
S31508003F5007EE107AB8EEC77A9FED786AC6EE076A5A
S31508003F609FED777A26EE877A77EE877AB2F1004F59
S31508003F700FD007EE103AB8EEC77ADFED726A27EE71
S31508003F80267ADFED716A77EEA67A67EE277A77EEFC
S31508003F90E67AF5EEC07AF1EE10FA40F3AA80F1EE71
S31508003FA0677AB6EE007A77EEC77AFDEEE77A17EE0D
S31508003FB0903AB3F5003FC0F2A5806FEA52426FEA25
S31508003FC04242631D1B01EA50C0F30900631D05EB5D
S31508003FD00313586001345D4B9D4200F09D80002319
S31508003FE09C4280F09B8004EB840306EB830216F860
S31508003FF02370D2F80890002F7FF42AAF5449CDF8E1
S3150800400000803B4600222846FFF7C0FE5FFA89F982
S31508004010484538BF484605EB0412936C4D4919408C
S3150800402007F003030B4304EB840106EB810191F8C7
S3150800403001C04FEA8C0C0CF01C0C43EA0C0391F8F7
S3150800404002C04FEA0C3C0CF4E04C43EA0C0391F82E
S3150800405003C04FEA0C4C0CF4E02C43EA0C0391F82D
S3150800406010C04FEA4C5C0CF4600C43EA0C03097967
S31508004070090701F040510B439364936CC3F3023371
S31508004080013B042B3FF614AF01A252F823F000BF00
S31508004090553E0008553E0008993E0008A13E000816
S315080040A0A93E0008224AD2F880311B0CD2F88C218E
S315080040B0121407EE102AB8EEC77A03E71C4AD2F89C
S315080040C084319BB2D2F88C211214520007EE102AC2
S315080040D0B8EEC77AF6E642F00042FAE61449D1F895
S315080040E08C1109B207EE901AF8EEE77A37EE877A5E
S315080040F018E7B6EE007A77EE677AFDEEE77A17EEFE
S31508004100903A56E713F5003F02DA42F4003258E7D0
S31508004110C3F311031A4354E7022361E72846FFF75E
S3150800412083FD03B0BDE8F083005A6202404B4C00A1
S315080041300080E00F0000000000007A440000804381
S3150800414000002044000000380000004900400049F3
S3150800415080969800E08F18CF10B504460A6F496F0D
S3150800416002F00702FFF765FD204610BD064B4FF427
S3150800417080329A6603F51C3341F67132DA6303F529
S3150800418000530122DA60704700900040074B41F661
S315080041907132DA6303F500520121D1600022DA6335
S315080041A0A3F518334FF480329A667047000003402F
S315080041B0013831281AD8DFE800F027191919191912
S315080041C01919191919251919191919191919191945
S315080041D0191919191919191919191B1D1F2119192D
S315080041E019191919191919191919192300207047B4
S315080041F00120704702207047042070470520704749
S315080042000620704707207047032070470C2801D006
S3150800421008467047022903D00329F9D10121F7E797
S315080042200021F5E770B50446C2F3062602F0070238
S3150800423041B942EA062242F440220634094B43F8C1
S31508004240242070BD11463046FFF7E0FF054630468C
S31508004250FFF7AEFF45EA00251234024B43F8245017
S31508004260EFE700BF0080034008B589B292B20A435F
S315080042700021FFF7D7FF08BD22F0030303F18043AF
S3150800428003F5603322B109B9186070470002186057
S3150800429070470000024B4FF400321A67704700BFA0
S315080042A0005000404FF04023D3F89400704743680D
S315080042B013B9416070475B685A68012AFBD1596097
S315080042C07047836813B9816070475B685A68012A2A
S315080042D0FBD159607047C369032B05D89A1C00EBBC
S315080042E0820251600133C3617047C269042A1DD82E
S315080042F04FF098431B6C13F4801FF9D004329200D8
S315080043004FF098431A6502681A6042681A60826814
S315080043101A600023C2699A4208D99A1C00EB8202E5
S3150800432051684FF0984211600133F3E77047000077
S31508004330074B4FF480325A6603F5E6239B69C3F3AD
S315080043408512827003F03F0242701B0B03707047A0
S3150800435000900040436813F0010F00D1704710B574
S315080043600446FEF7E2FE636A13F0010F01D101234A
S31508004370E360FEF7E0FE10BD0A4B9B6813F0020FE0
S31508004380FAD1084B5B6813F0020FF5D1054BDB69D0
S31508004390002BF1D1034B03F5805101224A601A61C3
S315080043A0704700BF00800A400A4B5B68012B00D0AB
S315080043B07047084B5B6813F0010F03D0054BDB69A8
S315080043C0002BF6D1034B02221A6103F50053012292
S315080043D05A60EDE700800A4038B50546134B9B68DE
S315080043E013F0020FFAD1114B5B6813F0020FF5D1E7
S315080043F00E4BDC69002CF1D15B68012B05D02B78BC
S3150800440003B10124094BDC6038BDFFF7CDFF074B2C
S315080044109B6813F0020FFAD1044B5B6813F0020F86
S31508004420F5D1024BDB69002BF1D1E8E700800A40A1
S31508004430D8B90B78D3B101234A6812B1127843EA86
S31508004440C2034A78A2B1022213438A6812B11278CB
S3150800445043EA82138A786AB104221343CA6812B1FE
S31508004460127843EA4223044A936470470023E3E739
S315080044700022E9E70022F0E700800A4008B9014B6C
S315080044805964704700900A4008B9014B596470474F
S3150800449000A00A4008B9014B1964704700A00A40F9
S315080044A010B9024B186C70470020704700800A400C
S315080044B048B911B1012903D07047044BD86C70472D
S315080044C0024B186D70470020704700BF00800A40F5
S315080044D040B911B1012903D07047034BDA6470471C
S315080044E0014B1A65704700BF00800A4038B504467C
S315080044F00EF07CF9064DA446BCE80F000FC5BCE8D3
S315080045000F000FC59CE8030085E80300002038BDAE
S31508004510D821002047F6FF739A4275D0042975D82A
S3150800452070B53C4B03EBC10090F802C0604613F827
S315080045303130012B22D0374B03EBC1035C68002CCA
S3150800454066D0B4F90050954204DBB4F9025095429E
S3150800455000DC1546A388FF2B2BD02826C82300226B
S31508004560AE465B1B93FBF6F313442A4A02EBC101E2
S315080045704D78691E994231D319462FE0254B03EB36
S31508004580C103D878A0EB0C000025A8420ED9431B1E
S31508004590A0EB53031F4C04EBC104646834F91340C1
S315080045A0944201DC1D46F0E7581EEEE76044C0B2AF
S315080045B029E0B4F90630B4F908600122D0E703F51A
S315080045C0FA73154AA2FB03239B094A1C954210D984
S315080045D004EBC206B6889E420BD3114604EBC10211
S315080045E09368B2F9062002FB0E33002BE7DA0023A4
S315080045F0E5E704EBC1018A889A4200D31A46624568
S3150800460000D31046C0B270BDFF2070470020704727
S315080046100020F8E7D8210020D34D621004296DD870
S31508004620394B13F83130012B23D010B5364B03EB39
S31508004630C1035C68002C63D014F1040C62D0324BC1
S3150800464003EBC1039B7893422BD22F4B03EBC10399
S31508004650DB78934228D92C4B03EBC10191F801E092
S315080046600EF1FF3E5FFA8EFEA388FF2B1FD00023B4
S3150800467021E0254B03EBC103DB78934200D21A46AF
S31508004680214800EBC1008078121AD2B21B1A9A424E
S3150800469000DD00221C4B03EBC1014B6833F9120005
S315080046A07047B4F9020010BDB4F90000FBE7012316
S315080046B001E00133DBB2734505D2591C3CF83100E1
S315080046C091B28842F5D24FF47A7101FB02F20CEBF3
S315080046D0C30CDCF80430D31ABCF9022002EBD27101
S315080046E003EB610393FBF2F3B4F900009842DADBBB
S315080046F0B4F902009842D6DC18B2D4E703487047EA
S315080047000248D0E70148CEE7D82100200080FFFF05
S3150800471008B50348FFF7EAFE01200EF0C3F808BD06
S31508004720ECE9010800207047004870473011002066
S315080047302D2822D8DFE800F0172121212121212167
S31508004740212121212121212121212121212121214B
S315080047502121212121211B212123212121211D2143
S315080047602121211F21190748704707487047074824
S315080047707047074870470748704707487047074813
S31508004780704700BF0CED0108A4EB0108B8EB01085F
S31508004790E0EB0108F8EB01086CEB01087CEB01087B
S315080047A07047002070470020704710B48468C368BB
S315080047B00B4454F82310084610F8023B497803EBDB
S315080047C0012313605DF8044B7047000010B50446DA
S315080047D04FF42F72002115F080FF8023C4F88C3027
S315080047E00023C4F89030C4F8943084F89830054A09
S315080047F0626001222272C4F8AC3204F19C00FCF714
S31508004800E3FE10BD18EC010810B503460846D3F8B8
S31508004810A0202AB1D3F8A41090470024204610BD42
S31508004820184600F0D5FD04460028F7D0FFF780FFAC
S315080048300146024801F03FF9F0E700BF8CDB0108AA
S3150800484038B504460123037200F10905284616F017
S31508004850D1F800B938BD204600F05AFF294620464F
S31508004860FFF7D2FF204600F05EFEF3E7F8B50678BC
S3150800487016B100263046F8BD0546FFF794FF002816
S31508004880F8D101232B702B7A0BB9374616E0002393
S315080048902B726968194801F00EF9F6E701F0EFF88E
S315080048A0044614E02846FFF77BFFE1B2284600F0ED
S315080048B073FF0646B4F1FF3F0ED06EB9D5F8B44281
S315080048C0B4F1FF3FEAD04FF0FF33C5F8B432B4F184
S315080048D0FF3FE7D10127EDE71EB900232B703E46BF
S315080048E0C8E72846FFF7ACFF2B7A002BF5D0696896
S315080048F0024801F0E0F800232B72EEE71CEC0108F1
S3150800490038B504460D46FFF761FF6B68C4F8B03248
S31508004910A968204600F016FC4FF0FF33C4F8B432FD
S315080049202046FFF73EFF38BD10B50446D0F8B4322E
S31508004930B3F1FF3F09D0D4F8B432B3F1FF3F09D140
S3150800494094F8B83243B9012005E001F098F8C4F8A4
S31508004950B402F0E7002010BD0020FCE708B5FFF719
S3150800496085FF08BD1038072801D8012070470020A8
S315080049707047A0F11003072B00D8D8B27047000083
S31508004980F8B506460D4617460B78302B0DD04FF076
S31508004990000C15F80C30002B4ED0394C1B5D13F06B
S315080049A0040F6AD00CF1010CF3E74B78782B04D08E
S315080049B0582B0CD04FF0000CEBE70222AB5C43B14E
S315080049C02F495B5C13F0440F55D00132F6E70222FB
S315080049D0F4E7724206F0030302F0030258BF53429B
S315080049E0032B1AD1284616F005F8831E013609D47A
S315080049F0B410B3EBA60F07D1A87837288CBF0020D0
S31508004A0001203BE00336F3E7284615F0F3FF0238AA
S31508004A108442D4BF0020012030E0284615F0EAFF82
S31508004A20831E3246002E05DBB3EBA20FD4BF01204E
S31508004A30002023E0F21CF7E70A220021284616F098
S31508004A4017F902460C46202E11D02FB151EA000361
S31508004A5002D0421E61F100040123B340013B13401A
S31508004A60002C08BF93420CBF0120002006E0B1FAD3
S31508004A7081F0400902E0002000E00020F8BD00BFF8
S31508004A802D30020808B50B782D2B04D000220138EA
S31508004A90FFF776FF08BD012211440138FFF770FFC2
S31508004AA0F8E7000003787B2B1CD14FF0000C01239C
S31508004AB0C25C7D2A0ED00E49515C11F0440F03D01A
S31508004AC00CF1010C0133F3E7202A01D000207047CE
S31508004AD00133EDE71844437833B91CF0010F05D1CB
S31508004AE0012070470020704700207047002070475B
S31508004AF02D30020808B5072826D8DFE800F0060B8F
S31508004B001015191D0421012008BD00220820FFF7F1
S31508004B1037FFF9E700221020FFF732FFF4E70022FB
S31508004B202020FFF72DFFEFE70820FFF7ABFFEBE7A5
S31508004B301020FFF7A7FFE7E72020FFF7A3FFE3E72B
S31508004B400846FFF7AFFFDFE70020DDE72DE9F04372
S31508004B5083B00C4617461D460A9EDDF82C80212890
S31508004B602BD8DFE800F0112D445A71889EA22A2A14
S31508004B702A2A2A2A2A2A2A2A2A2A2A2A2A2A2A2A87
S31508004B802A2A2A2A2A2A2AD300221146204616F039
S31508004B90EBF8D8F80030C0B245F82300D8F8003052
S31508004BA0326805EB830347F82230D8F80030013322
S31508004BB0C8F8003033680133336003B0BDE8F083CA
S31508004BC000221146204616F0CFF8D8F8003080B2F9
S31508004BD045F82300D8F80030326805EB830347F818
S31508004BE02230D8F800300133C8F80030E2E7002256
S31508004BF01146204616F0B8F8D8F8003045F82300D4
S31508004C00D8F80030326805EB830347F82230D8F825
S31508004C1000300133C8F80030CCE7002211462046A0
S31508004C2015F086FF40B2D8F8003045F82300D8F8CA
S31508004C300030326805EB830347F82230D8F8003095
S31508004C400133C8F80030B5E700221146204615F0B2
S31508004C506FFF00B2D8F8003045F82300D8F80030C6
S31508004C60326805EB830347F82230D8F80030013361
S31508004C70C8F800309EE700221146204615F058FF76
S31508004C80D8F8003045F82300D8F80020336805EB3B
S31508004C90820547F82350D8F800300133C8F80030A9
S31508004CA088E7336847F8231084E74FF000098DF842
S31508004CB00690C846012512E0013510E08DF805304A
S31508004CC008F101081022002101A815F031FF09F1A9
S31508004CD00203E05409F101091FFA89F90135635DF8
S31508004CE07D2B09D0202BE7D018F0010FE6D18DF8DF
S31508004CF0043008F10108F1E784F800904FEA192911
S31508004D0084F80190336847F8234053E7336847F837
S31508004D1023104FE72DE9F04F87B09B4600230593F4
S31508004D2004938B4500F38A8080468A4617461C46BC
S31508004D301E46994602E04FF00109013418F80400AE
S31508004D40FF280CD02028F6D0212805D0FFF70AFE28
S31508004D500028F2D00646F0E74FF00109EDE70546D0
S31508004D605C44B9F1000F06D0013C544568DC0024C8
S31508004D70A146029443E03EB1013C544562DC00245E
S31508004D80CDF80890A1463AE0A2455DD100240296E6
S31508004D90A14634E008EB09035B78FF2B0ED02B20E5
S31508004DA049E0039B43445B78FF2B4FD101230293D1
S31508004DB004E009F10109354600E00625029B93B98E
S31508004DC057F824102846FFF795FE002842D004AB72
S31508004DD0019305AB0093119B109A57F824102846A7
S31508004DE0FFF7B4FE0AE004AB019305AB0093119BF1
S31508004DF0109A57F824102120FFF7A8FE01345445CD
S31508004E0018DA5C45D9DBCDF80C9018F80960202E25
S31508004E10C0D0212EC5D03046FFF7A4FD0028C8D043
S31508004E20039B43445B78FF2B12D13046FFF7A1FD65
S31508004E300546C3E7002007B0BDE8F08F2120FAE752
S31508004E402B20F8E72B20F6E72B20F4E72B20F2E7B8
S31508004E502B20F0E72620EEE7212816D821283AD875
S31508004E60DFE800F0113B191B1D1F21233939393999
S31508004E70393939392527292B2D2F313339393939FC
S31508004E8039393939353718487047FE2827D0FF2869
S31508004E9027D116487047164870471648704716486F
S31508004EA070471648704716487047164870471648A0
S31508004EB07047164870471648704716487047164890
S31508004EC07047164870471648704716487047164880
S31508004ED07047164870471648704716487047164870
S31508004EE070471348704700BFCCEC0108DCEC01089A
S31508004EF030EC010838EC010840EC010848EC0108E0
S31508004F0050EC010858EC01085CEC010868EC010853
S31508004F1074EC010880EC010888EC010894EC01089F
S31508004F20A0EC0108ACEC0108B4EC0108C0EC0108DF
S31508004F3020EC010828EC0108D4EC010808B5FCF7B8
S31508004F4097FB08BD2DE9F04784B081468A4690460E
S31508004F501D460C9F0D9E04460EE018680F9B039392
S31508004F600E9B0293019600972B4642460121FFF7B6
S31508004F70E9FF044618E00C342068A8B133682A68AB
S31508004F80934211DA57F82310FFF7D8FF0028F2D119
S31508004F9033680133336063681A7BFE2ADDD0012348
S31508004FA00E9A137088F8003098F800305BB90F9B9A
S31508004FB01B7843B9BAF1000F09D001230F9A137071
S31508004FC088F800304C46204604B0BDE8F087002437
S31508004FD0F9E7000070B506460D4615F00BFD0446C8
S31508004FE0304600F068FD03E0034800F064FD013434
S31508004FF0AC42F9D370BD00BF08DA01082DE9F84FB5
S31508005000044602213248FFF7E5FF1E212068FFF714
S31508005010E1FF6368586800F04EFD2E4800F04BFD2E
S3150800502063681A7BFD2A01D9BDE8F88F03F10C09DC
S31508005030D3F808A0504615F0DDFC80464FF0FF3443
S31508005040002510E02B2000F02AFD36E000F027FDB1
S3150800505001341AF804001F2801D04445F6DB1D4820
S3150800506000F029FD0135AB4619F80560FF2EDBD0A7
S315080050703046FFF7F1FE0746B8F1000F00DD0134B0
S31508005080202EEFD0124E02213046FFF7A3FF1E2135
S315080050903046FFF79FFF104800F00DFD0F493846D0
S315080050A015F09EFC00B90E4F39460E4800F003FD78
S315080050B0CB449BF80130202BC4D00B4800F0FBFCF6
S315080050C0B8F1000FCBDD1AF804301F2BC7D0C0E7A4
S315080050D00CED010858DD0108E4EC0108C0EC0108F4
S315080050E0E0EC01081CEC0108E8EC010838B50546B7
S315080050F0002402E0FFF782FF013404EB440305EBCA
S31508005100830055F8233023B1037A002BF2D00134FB
S31508005110F3E738BD10B539B1084612B1FFF76EFF8F
S3150800512010BDFFF7E3FFFBE7D0F89C4000E02468DA
S31508005130002CF5D0A0680028F9D0FFF7D7FFF6E7CE
S315080051407047704759B10A790AB10020704710B5FF
S3150800515001240C719C30FCF73AFA204610BD002059
S31508005160704700002DE9F04F95B0814603910492EF
S315080051709A461E9F00F109031C460693184615F029
S3150800518039FC05900023CAF800303B600CAA0BA92D
S31508005190204600F0B8FC28B100230293029815B007
S315080051A0BDE8F08F0C9815F025FCCAF80000D9F870
S315080051B09CB000231C4602939846B4E03B68013332
S315080051C03B60013409EB04035B7A202BF6D00024FC
S315080051D010E0D9F894203B68D21ACAF8002029684A
S315080051E014AB03EB880353F8200C15F00BFC019065
S315080051F080B1013404EB440306EB830556F82330EB
S31508005200002B64D00B9B434561DB2B7A002BE0D047
S315080052100134EFE7286815F0EDFB844669680A7BD8
S31508005220FE2A18D0D9F8943038681B1A63452FDD42
S31508005230FE2ADED10B9B013B4345DAD10D68079464
S31508005240CDF82080CDF824B0019C029EDDF80C80B4
S31508005250DDF810B049E00B9B013B4345E2D00E68F0
S3150800526014AB03EB880353F8200C15F0C3FB421C60
S315080052703B6813443B6001E001333B603B6809EB44
S315080052800302527A002AF7D008F10108019CB1E717
S31508005290039815F0AFFB0190286815F0ABFB019B4E
S315080052A003447B2B0ED8029B013302932A68049988
S315080052B0039D2846FCF7C9F9204A04992846FCF7B5
S315080052C0C4F996E71E4A04990398FCF7BEF9069BAB
S315080052D0059A1EE059464046FCF7B7F9174A59465B
S315080052E04046FCF7B2F90136013404EB440355F89D
S315080052F02320002AEED1079CDDF82080DDF824B0B3
S315080053000296059B3B600023CAF80030DFE70133AD
S31508005310013A002A05DD19780029F8D120211970EB
S31508005320F5E7DBF800B0BBF1000F3FF437AFDBF869
S315080053300860002E7FF446AFF3E700BF08DA0108DD
S31508005340ECEC01082DE9F04786B004460F461646F0
S315080053501D46DDF83890DDF83C8000238DF81730BF
S315080053602B6089F8003088F800302B6852F8231033
S315080053701648FFF7E3FD40B92B6801332B604FF061
S31508005380010AD4F89C40002003E04FF0000AF8E731
S31508005390246894B1A0680028FAD0CDF80C80CDF81E
S315080053A00890019500963B460DF117020021FFF77C
S315080053B0C9FD9DF81730002BEAD0BAF1000F02D0CC
S315080053C0012388F8003006B0BDE8F087F4EC010840
S315080053D0F0B5A3B0054608461AAA19A900F093FB2A
S315080053E0044610B1204623B0F0BD00238DF80B30DB
S315080053F00DF10B0301930DF10A03009303AB1AAAEF
S3150800540019A92846FFF79EFF9DF80B3013BB40B33A
S31508005410466806F10C0711AB019309AB0093039B91
S315080054201AAA19993846FFF775FC04460028D9D1F7
S315080054300495199B059309AB0693039B0793089755
S3150800544004A8FFF77DFE336804A8984704A8FFF769
S3150800545078FEC7E79DF80A2001462846FFF75AFE58
S31508005460C0E72D24BEE770B505460024264600E0B1
S31508005470013405F1AC0015F0BDFAA04207D92B1985
S3150800548093F8AC301BB10A2BF2D10136F0E730465F
S3150800549070BDF8B500230B601360D0F8AC320BB9B9
S315080054A00020F8BD07460E461546AC3015F0A2FAA0
S315080054B050B30121002301E001330131D7F8AC22B2
S315080054C08A4213D9B3F5007FF7D2346801343460C1
S315080054D02C6801342C60FA1892F8AC200A2AEBD012
S315080054E00133EFE72A6801322A600133B3F5007FFA
S315080054F008D2FA1892F8AC200A2A07D0002AF1D165
S315080055000120CEE70120CCE70020CAE70120C8E742
