S00C0000504952534E2E7333375C
S315080000000010002065180008516F0008556F000899
S3150800001055720008596F0008616F000861180008DA
S3150800002061180008611800086118000861180008BE
S31508000030656F000861180008611800086118000853
S31508000040611800086118000861180008611800089E
S31508000050611800086118000861180008611800088E
S3150800006061180008611800086118000831170008AF
S3150800007021170008611800086118000861180008AF
S315080000806118000861180008B90D00086118000811
S31508000090611800086118000861180008611800084E
S315080000A06118000861180008910C0008611800081A
S315080000B06118000861180008F58D0108D597010830
S315080000C08D97010889970108BD8F0108D197010806
S315080000D091970108A997010895970108359801088D
S315080000E015980108611800086118000861180008C9
S315080000F0611800086D610008611800086118000899
S315080001006118000861180008190C00086118000831
S3150800011061180008611800086118000861180008CD
S3150800012061180008611800086118000861180008BD
S3150800013061180008611800086118000861180008AD
S31508000140611800086118000861180008611800089D
S315080001506118000861180008F3840008CD790108C1
S315080001606118000861180008FD5C0108035D0108B4
S3150800017010B5054C237833B9044B13B1044800E095
S3150800018000BF0123237010BD881400200000000062
S315080001903432020808B5034B1BB10349034800E093
S315080001A000BF08BD000000008C140020343202088D
S315080001B0A3F5803A704700BF174B002B08BF134BB7
S315080001C09D46FFF7F5FF00218B460F461348144A54
S315080001D0121A1AF0C6FA0E4B002B00D098470D4B90
S315080001E0002B00D098470020002104000D000D4880
S315080001F0002802D00C4800E000BF1AF04FFA200091
S31508000200290001F00FF91AF035FA00BF00000800BE
S3150800021000000000000000000010002088140020E4
S31508000220E43C0020000000000000000038B5044649
S315080002300EF01FF9A04201D8012038BD054603205B
S3150800024001F0D0FA0028F8D001F0ECFA01F0EBFA48
S315080002502B46224603490448006805F0F5FF0020AE
S31508000260EBE700BF58D901087018002030B583B0F5
S315080002700446C268836853F822301D782846FFF77B
S31508000280D5FF08B903B030BD1A480FF0EBFA0622BD
S31508000290002168461AF065FA174B1B88ADF802303C
S315080002A0ADF80450E26863689B1A012B1FDD013222
S315080002B0A36853F822301B88ADF800300CF0C2FA58
S315080002C06A464FF6FF7103200CF0C8FB044603206C
S315080002D001F088FA0028D5D001F0A4FA01F0A3FAB3
S315080002E022460649064B186805F0AEFFCAE740F2F3
S315080002F0FF13E1E79C100020A414002090D9010800
S315080003007018002030B583B00446C268836853F875
S3150800031022301D782846FFF789FF08B903B030BD9B
S3150800032019480FF09FFA0622002168461AF019FAB2
S31508000330164B1B88ADF80230ADF80450E2686368C6
S315080003409B1A012B1DDD0132A36853F822301B8846
S31508000350ADF800306A464FF6FF7104200CF07EFBBC
S315080003600446032001F03EFA0028D7D001F05AFAD5
S3150800037001F059FA22460649064B186805F064FF4B
S31508000380CCE740F2FF13E3E79C100020A4140020FA
S31508000390B0D901087018002030B583B00446C26889
S315080003A0836853F822301D782846FFF73FFF08B9BF
S315080003B003B030BD19480FF055FA062200216846E9
S315080003C01AF0CFF9164B1B88ADF80230ADF8045079
S315080003D0E26863689B1A012B1DDD0132A36853F896
S315080003E022301B88ADF800306A464FF6FF710220AE
S315080003F00CF034FB0446032001F0F4F90028D7D0AA
S3150800040001F010FA01F00FFA22460649064B186861
S3150800041005F01AFFCCE740F2FF13E3E79C10002033
S31508000420A4140020C4D901087018002030B583B080
S31508000430C268836853F822301C7800230193436806
S315080004409B1A012B19DD01AA012104F020F90146A6
S315080004509DF804000CF0DCF9054680B1022001F095
S31508000460C1F960B101F0DEF901F0DDF92A46064965
S31508000470064B186805F0E8FE01E00CF0E3F92046A3
S315080004800CF082F903B030BDE0D9010870180020DD
S3150800049010B503468168C26851F82200B0F9000019
S315080004A01A4C20805B689B1A012B10DD4FEA820CE0
S315080004B061444B6893F90010003918BF01210DF00B
S315080004C0C9FFA0B9032001F08DF910B910BD0021AC
S315080004D0F5E701F0A7F901F0A6F90D4B1C680DF038
S315080004E0C4FF02460B49204605F0AEFEEEE70120A2
S315080004F001F078F90028E9D001F094F901F093F9B0
S315080005000549034B186805F09FFEDFE7A414002091
S315080005107018002044DA010858DA01082DE9F0417C
S3150800052086B00021059105AA04F0B1F8059B102BA9
S3150800053007D0032001F056F9002862D106B0BDE8BD
S31508000540F0811022014601A81AF0E4F801A80FF07C
S3150800055089F9002846D1032001F044F938B901ACDD
S315080005600DF113050326DFF8C8802B4F2BE001F0A9
S3150800057059F901F058F92949274B186805F064FE1E
S31508000580EDE7032001F02EF970B9032001F02AF9EE
S315080005900028D3D001F046F901F045F920491E4B51
S315080005A0186805F051FEC9E701F03CF901F03BF97E
S315080005B09DF813201B49184B186805F045FEE4E71B
S315080005C00134A542DDD0304601F00CF90028F7D0F9
S315080005D001F028F901F027F922784146386805F034
S315080005E033FEEDE7012001F0FDF80028A6D001F062
S315080005F019F901F018F90C49074B186805F024FE9B
S315080006009CE701F00FF901F00EF910220749024B99
S31508000610186805F019FE91E77018002070DA0108CD
S3150800062094DA010884DA010898DA0108B4DA0108CC
S315080006308CDA010808B5C268836853F822301A882C
S31508000640094B1A80032001F0CDF800B908BD01F066
S31508000650E9F801F0E8F8044B1A880449044B1868CD
S3150800066005F0F2FDF2E700BFAC100020DCDA010865
S315080006707018002008B5024B18680AF0F9F808BD8A
S31508000680A8140020F0B587B0684B197811F0020F4E
S31508000690674C684B08BF1C4611F0010F644D08BF34
S315080006A01D4611F0040F624E08BF1E46032001F0D6
S315080006B099F800282ED1032001F094F8002833D1A8
S315080006C0032001F08FF800283BD1032001F08AF8B7
S315080006D0002844D1032001F085F800284BD10320D7
S315080006E001F080F800285FD1032001F07BF800288C
S315080006F066D1032001F076F800286DD1032001F0B9
S3150800070071F8002876D1032001F06CF800287FD113
S3150800071007B0F0BD01F086F801F085F84649474B69
S31508000720186805F091FDC6E701F07CF801F07BF842
S31508000730434B9A6CDB6C43494048006805F084FDDE
S31508000740BEE701F06FF801F06EF83C4B1F6809F040
S31508000750B7FE02463C49384605F076FDB5E701F096
S3150800076061F801F060F8394B1A783949334B186843
S3150800077005F06AFDAEE701F055F801F054F8354A80
S31508000780137805935378049393780393D378029355
S3150800079013790193537900939379D2792E4927488F
S315080007A0006805F051FD9AE701F03CF801F03BF8C6
S315080007B02A4B1A882A49214B186805F045FD93E704
S315080007C001F030F801F02FF8264B1A8826491B4B02
S315080007D0186805F039FD8CE701F024F801F023F8D4
S315080007E0164B1F680DF043FE02462049384605F0B1
S315080007F02BFD83E701F016F801F015F80F4B1F687B
S315080008000DF033FE02461A49384605F01DFD7AE713
S3150800081001F008F801F007F800962B46224615491C
S315080008200648006805F010FD72E700BFAE1000200C
S31508000830F8D9010800DA0108F8DA0108701800206A
S315080008400080E00F00DB01081CDB0108BA3300203A
S3150800085038DB0108DF33002054DB01087C11002057
S3150800086078DB01088011002094DB0108B0DB010861
S31508000870C8DB0108E0DB010830B583B0C2688368CD
S3150800088053F822301C7801A920460FF0F1F988B9EF
S31508000890032000F0A7FF08B903B030BD00F0C2FF7F
S315080008A000F0C1FF019B22460B490C48006805F081
S315080008B0CBFCF1E70546012000F094FF0028EBD0B9
S315080008C000F0B0FF00F0AFFF2A460549034B186851
S315080008D005F0BAFCE0E700BF18DC01087018002034
S315080008E034DC010870B58368C26853F822100C78A6
S315080008F003EB82035B681D78294620460EF01CFF31
S3150800090080B9032000F06EFF00B970BD00F08AFFC1
S3150800091000F089FF2B4622460B490C48006805F073
S3150800092093FCF2E70646012000F05CFF0028ECD0B5
S3150800093000F078FF00F077FF32460549034B186848
S3150800094005F082FCE1E700BF58DC010870180020BA
S3150800095088DC010808B50BF00BFC08BD70B582B041
S31508000960C268836853F822301978134B197011F04E
S31508000970020F124C124B08BF1C4611F0010F0F4B09
S315080009800F4D18BF1D4611F0040F0D4E18BF1E4619
S31508000990032000F027FF08B902B070BD00F042FF3F
S315080009A000F041FF00962B46224606490648006895
S315080009B005F04AFCF0E700BFAE100020F8D90108A0
S315080009C000DA0108B8DC01087018002008B506F03E
S315080009D0F9F808BD10B582B00024384801F0A3F82C
S315080009E03749384808F03AF9032000F0FBFEC8BB3F
S315080009F044B14FF4FA74204607F028FB0BF066FB67
S31508000A000028F8D1642007F021FB032000F0EAFE55
S31508000A1090BB2D4C20460EF025FF0028FAD1032066
S31508000A2000F0E0FE98BB06220021684619F099FE00
S31508000A300023ADF802300B23ADF8043040F2FF1363
S31508000A40ADF800306A464FF6FF7104200CF006F840
S31508000A500446032000F0C6FE20BB012008F0C6FAB3
S31508000A6002B010BD00F0DEFE00F0DDFE1749184B9F
S31508000A70186805F0E9FBBBE700F0D4FE00F0D3FEEA
S31508000A8000221449124B186805F0DEFBC1E700F096
S31508000A90C9FE00F0C8FE00220E490D4B186805F085
S31508000AA0D3FBC0E700F0BEFE00F0BDFE22460949B2
S31508000AB0074B186805F0C8FBCFE700BF3CEA0108FA
S31508000AC0A50E0008A81400209C100020F0DC0108E0
S31508000AD070180020FCDC0108F0B593B000240F94D0
S31508000AE0109411940DF1140C334D0FCDACE80F0092
S31508000AF00FCDACE80F0095E803008CE803000394DB
S31508000B00049403278DF80E7001268DF808608DF879
S31508000B1009408DF80A408DF80B4031463B2001F01C
S31508000B20EFFB4FF42C524FF42851204603F050FBAC
S31508000B308C222146204603F052FB31462A2001F03A
S31508000B40DFFB8DF817404FF4966308938DF8154030
S31508000B501A4D9DF8413000932346224618492846E7
S31508000B6003F0DCF807908DF810708DF80E708DF88C
S31508000B70136010238DF809308DF8086005AA0FA9AF
S31508000B80284603F0F3F802AA03A9284603F053F807
S31508000B9005F500530B4A5A62AB6A43F40073AB621D
S31508000BA0094B4FF48022C3F88421702183F81A1365
S31508000BB05A6013B0F0BD00BF14DD010800400049BB
S31508000BC040420F008F330F8000E100E008B5012195
S31508000BD03A2001F095FB01231A460521022002F06E
S31508000BE049FF00214FF4000002F0B2FF084B4FF412
S31508000BF00002C3F82424C3F82C24064B4FF0806265
S31508000C00C3F88021502183F81A131A6008BD00BF63
S31508000C1000C0034000E100E030B583B0154C6D46D6
S31508000C201549284603F04CFA95E8030084E80300C2
S31508000C3023684FF4966202FB03F3104AA2FB0323D0
S31508000C409B090F4A5360032000F0CCFD28B90D4BD1
S31508000C504FF400725A6203B030BD00F0E3FD00F0B5
S31508000C60E2FD074B5A680849084B186805F0ECFA84
S31508000C70EDE700BFAC14002000400049D34D6210D8
S31508000C80B4140020006000493CDD010870180020FB
S31508000C9010B584B03D4BD3F820240392039A03F58C
S31508000CA00053C3F82024039A394B134013B1394B28
S31508000CB0DB7B4BB1039A364B13401BB1354BDB7BC1
S31508000CC0002B4CD104B010BD324AD37B0133DBB2C2
S31508000CD0D373314800F027FF032000F083FD80BB63
S31508000CE001242E4B1C700B214FF4F06001F0F4FF29
S31508000CF021463D2001F004FB21463C2001F000FB83
S31508000D00274A6B4607CA83E807008DF808408DF81E
S31508000D100940184601F02EF801F0AEF840F62821F1
S31508000D20002001F099F81F4B02229A611E4B4022BF
S31508000D3083F812234FF480221A60204601F058F8EF
S31508000D40C0E700F06FFD00F06EFD184B1C6809F057
S31508000D5043FB02461649204605F076FAC0E70D4AD7
S31508000D60D37B0133DBB2D373032000F03BFD10B90C
S31508000D7001F082F8A6E700F055FD00F054FD0D4994
S31508000D800A4B186805F060FAF2E700BF00C0034096
S31508000D9020008000B414002024EA0108C4140020AE
S31508000DA088DE01080050064000E100E070180020C7
S31508000DB040DD010850DD010808B5324B4FF080626E
S31508000DC0C3F88021C3F88020BFF34F8FBFF36F8F1E
S31508000DD02D4BDB7B5BB301F04FF840F2145100203A
S31508000DE001F03AF8294B03F58052022191615A69BC
S31508000DF003F500535A61234B4FF480221A600120F1
S31508000E0000F0F6FF224B01221A70032000F0EAFCDC
S31508000E1018B91D4B0022DA7308BD00F003FD00F077
S31508000E2002FD1C491C4B186805F00EFAF1E701F0A3
S31508000E3023F840F62821002001F00EF8114B4FF454
S31508000E408022C3F88020BFF34F8FBFF36F8F002037
S31508000E5000F0CEFF114B02225A61032000F0C2FCBB
S31508000E6030B9084B4FF08062C3F880211A60D3E787
S31508000E7000F0D8FC00F0D7FC0949074B186805F0C4
S31508000E80E3F9EEE700E100E0B41400200040064074
S31508000E90A614002058DD01087018002000600640DE
S31508000EA064DD010808B509F013FB20B9084B1B6877
S31508000EB000221A7008BD074800F035FE00F028FA2F
S31508000EC0054B1988024B186809F0DDFCF2E700BFEC
S31508000ED0A81400203CEA0108AC1000200120704745
S31508000EE010B50446034800F01EFE204600F058FAE6
S31508000EF010BD00BF3CEA010808B5034800F018FE1B
S31508000F00024800F015FE08BD24EA01083CEA01087B
S31508000F1010B5A0F19003062B00F2B480DFE803F0C9
S31508000F2004466DB2B27C8B00032000F05BFC38BB34
S31508000F30032000F057FC68BB674B1878674B198885
S31508000F40674B89221A7005225A7000225A60187255
S31508000F505A81998101219973DA73624B1988624B18
S31508000F60186809F090FCFFF7B7FDFFF72FFE5F48FA
S31508000F7000F0D9FD00F046F95D4800F0D4FD10BD3B
S31508000F8000F050FC00F04FFC5A495B4B186805F01E
S31508000F905BF9CDE700F046FC00F045FC4F4B1A889C
S31508000FA05649554B186805F04FF9C5E7504800F003
S31508000FB0C4FD4E4800F0C1FD032000F013FC90B9B3
S31508000FC000F006F90446032000F00CFC0028D6D0F1
S31508000FD000F028FC00F027FC22464949464B1868D1
S31508000FE005F032F9CBE700F01DFC00F01CFC454982
S31508000FF0414B186805F028F9E2E7012000F0F2FBFA
S315080010000028BCD000F00EFC00F00DFC3E493A4B1F
S31508001010186805F019F9B2E7012000F0E3FB00288B
S31508001020ADD000F0FFFB00F0FEFB3849324B1868E4
S3150800103005F00AF9A3E72E4800F07FFD2B4800F0DB
S315080010407CFD032000F0CEFB90B900F0C1F8044601
S31508001050032000F0C7FB002891D000F0E3FB00F066
S31508001060E2FB22462649244B186805F0EDF886E788
S3150800107000F0D8FB00F0D7FB22491F4B186805F093
S31508001080E3F8E2E704461A4800F057FD174800F06F
S3150800109054FD032000F0A6FB98B900F099F8044621
S315080010A0032000F09FFB00283FF469AF00F0BAFB6D
S315080010B000F0B9FB224612490F4B186805F0C4F830
S315080010C05DE700F0AFFB00F0AEFB224610490A4B85
S315080010D0186805F0B9F8E0E7BA3300207C1100205B
S315080010E0B4140020AC100020A81400203CEA010823
S315080010F024EA010868DD01087018002074DD01087B
S31508001100FCDC01089CDD0108B8DD0108D8DD010812
S31508001110FCDD010808B5094B1B781BB9084B1B7881
S3150800112033B908BD00F0B2F8044B00221A70F8E78C
S3150800113000F0CCF8024B00221A70F2E7C414002023
S31508001140A614002010B580B10446012000F04AFB21
S3150800115000B910BD00F066FB00F065FB22460A499F
S315080011600A4B186805F070F8F3E7032000F03AFB1D
S315080011700028EED000F056FB00F055FB0449034B5F
S31508001180186805F061F8E4E714DE01087018002015
S315080011903CDE0108F0B583B004460D4616461F46E8
S315080011A0032000F01FFB08B903B0F0BD00F03AFBBE
S315080011B000F039FB019700962B4622460249034860
S315080011C0006805F041F8EFE754DE010870180020C2
S315080011D000B583B006220021684619F0C2FA00233A
S315080011E0ADF802300B23ADF8043040F2FF13ADF82A
S315080011F000306A464FF6FF7104200BF02FFC03B04F
S315080012005DF804FB00B587B000228DF808201D4B59
S3150800121019788DF8091059788DF80A105968090E49
S315080012208DF80B105968090C8DF80C105968090AC5
S315080012308DF80D1059688DF80E10197A8DF80F1063
S315080012405989C1F307218DF8101059898DF81110A5
S315080012509989C1F307218DF8121099898DF8131011
S31508001260997B8DF814105889074B1B78019302ABAC
S3150800127000930D23012180B209F034F907B05DF817
S3150800128004FB00BFB4140020AE10002000B585B0E2
S315080012909A238DF80C3000228DF80D208DF80E203B
S315080012A0084B59788DF80F105889074B1B7801930E
S315080012B003AB00930423012180B209F013F905B0AA
S315080012C05DF804FBB4140020AE10002000B585B00C
S315080012D09A238DF80C3001218DF80D100A4BDA7B14
S315080012E08DF80E205A788DF80F205889074B1B78F1
S315080012F0019303AB00930423002280B209F0F2F8AD
S3150800130005B05DF804FB00BFB4140020AE10002041
S3150800131000B585B001218DF80810104B5A68120ED9
S315080013208DF809205A68120C8DF80A205A68120A94
S315080013308DF80B205A688DF80C205A788DF80D20F8
S315080013405889074B1B78019302AB009306230022AA
S3150800135080B209F0C7F805B05DF804FBB4140020A4
S31508001360AE10002000B585B09C238DF80C308DF8A2
S315080013700D00094B5A788DF80E205889074B1B78B3
S31508001380019303AB009303230022012180B209F0E5
S31508001390A9F805B05DF804FBB4140020AE100020CF
S315080013A008B51F4B9B7BDBB202799A4206D01C4BD1
S315080013B05B899BB242889A4200D008BD826813783E
S315080013C09B2B04D0FF2BF8D1FFF71CFFF5E75378CA
S315080013D02BB1012B1CD00020FFF7C4FFEDE7937853
S315080013E0052B03D0062B0AD00020F5E70C4B5878BE
S315080013F0C0B2053818BF012005225A70ECE7084B21
S315080014005878C0B2063818BF012006225A70E3E79A
S31508001410002190780DF01EF8B0FA80F04009DBE75D
S31508001420B414002008B507F083F807F08DF806F025
S31508001430BBF8FAE708B5024B1B6803B1984708BD25
S31508001440FC14002008B5024B5B6803B1984708BD39
S31508001450FC14002008B5024B9B6803B1984708BDE9
S31508001460FC14002008B5024BDB6803B1984708BD99
S31508001470FC14002008B5024B1B6903B1984708BD48
S31508001480FC14002008B5024B5B6903B1984708BDF8
S31508001490FC1400207047704708B507F093FD08BD97
S315080014A07047704770477047704770477047704776
S315080014B07047704770477047704770477047704766
S315080014C07047704708B500214FF0FF300DF0BCF8A3
S315080014D008BD0020704700207047704730B585B0BA
S315080014E0094C2268094B1A60094D0A4B2B600A4BB6
S315080014F0019304F04BFE02902B68039301A9206820
S3150800150003F096F905B030BDCC100020EC1F002082
S31508001510E81F0020C0100020DCE9010808B5024BCE
S31508001520186803F099F908BDCC10002038B504F006
S315080015302DFE0446064D2B68D3F8B00204F01AFEB9
S31508001540286803F0A0F9204604F014FE38BD00BF51
S31508001550CC10002008B50321802001F0BDFB032133
S315080015604FF4806001F0B8FB0A214FF4C06001F027
S31508001570B3FB0A214FF4F06001F0AEFB0A213E20CE
S3150800158001F0AAFB0A212D2001F0A6FB0A21512011
S3150800159001F0A2FB002008BD10B5264B596E01F4D8
S315080015A0803103F580524FF4803050665C6E4FF000
S315080015B000435366204B586C00F001004AF6CD32C2
S315080015C01A641A46536B13F0010FFBD11B4B012209
S315080015D05A60194A136B13F0010FFBD0184BD3F856
S315080015E0083613F0020F03D1144B4FF48022DA6544
S315080015F010B1114B134A1A64002C03DB124B4FF03F
S3150800160000425A6619B9104B4FF480325A6604F0F4
S3150800161083FB04F023FB04F09FFB04F049FBFFF770
S3150800162099FF04F033FB05F097FA00F0F1FA05F09C
S31508001630B5FE10BD0080004000400940006009402A
S3150800164000C007403254FFFF00A0004008B500F074
S31508001650BDF808BD08B506F065FB04F081FB04F08B
S31508001660F3FF07F09BFD05F029FD00F055F8FFF79D
S3150800167035FF08BD08B502F0F5FF07F0CFFA07F009
S31508001680DDFA07F02BFB08BD08B500F0CDF808BD5C
S31508001690704708B5FFF74AFF08BD08B507F0FCFA1A
S315080016A007F000FB08BD704710B59AB0164C0DF14F
S315080016B0480CA646BEE80F00ACE80F009EE80F00EF
S315080016C08CE80F002822002108A819F04AF80F4BC9
S315080016D0079301238DF821305623ADF822300623CF
S315080016E00B9307230D930DF10C0C04F120030FCB7C
S315080016F08CE80F00064B009307AB12AA6146054813
S3150800170004F03EFE1AB010BDF4E901080000014BD2
S31508001710D01700204C18002008B5FFF7C5FF08BDF4
S3150800172008B5024B186804F03DFF08BD4C180020A8
S3150800173008B5024B186804F035FF08BD4C180020A0
S3150800174008B5024B1A6A1868904708BD4C1800205D
S31508001750012070470120704710B5FFF7DFFE0446E9
S3150800176007F0E0FA002808BF044605F0E3F9002868
S3150800177008BF0446FFF7ECFF002818BF204610BD37
S3150800178038B506F021F80446FFF7DAFF042816D024
S315080017900025022808BF012405F0CEF9042810D038
S315080017A0022808BF0124FFF7D5FF04280BD002281A
S315080017B008BF0124002D18BF0024204638BD012586
S315080017C0EAE70125EFE70024F7E7000008B5034834
S315080017D000F0A4F9024800F0A1F908BD24EA0108BE
S315080017E03CEA010802460B4B1B788BB10A4B1B7867
S315080017F0834234BF00200120084B1B783BB1084BBD
S315080018001B7843FA02F212F0010F08BF0020704756
S315080018100120F1E7D7100020D81000207418002006
S31508001820D91000207047704708B5084B01221A7076
S31508001830074B00221A70074B04221A70064B1F2208
S315080018401A7004F0A3FC054B186008BDD7100020D9
S3150800185074180020D8100020D91000207018002015
S31508001860FEE7000008B500F019F8094A094B9A4244
S315080018700CD2581E801A20F003000430064B184478
S3150800188053F8041B42F8041B8342F9D1FEF794FC73
S315080018909C100020881400203C320208044B054A9C
S315080018A09A60D3F8882042F47002C3F888207047FB
S315080018B000ED00E000000008014B1868704700BF03
S315080018C0E0100020094B1B6F03F00703022B04D01E
S315080018D0032B05D0012B06D0FEE7054B1868704789
S315080018E0044B186870470448704700BF00800040E2
S315080018F0E0100020E4100020002D310108B5FFF7A4
S31508001900E1FF054B1B6FC3F303330133B0FBF3F061
S31508001910024B186008BD00BF00800040DC100020A4
S315080019200048704700B4C404014B1868704700BFEC
S31508001930E410002008B5064B1860064B1B6F03F031
S315080019400703032B00D008BDFFF7D8FFFBE700BF4E
S31508001950E4100020008000400020704700487047CF
S31508001960002D31014FF094439868C0F304400C28C9
S3150800197024D8DFE800F009232323232307191B2390
S315080019801D1F2100104870474FF094439B6803F0D1
S315080019904073B3F1807F13D0B3F1007F12D00B4AA6
S315080019A0002B08BF1046704709487047094870471A
S315080019B0094870470948704709487047002070472A
S315080019C00848704708487047405DC60000093D0052
S315080019D00024F400C0EA210180BA8C010048E8011D
S315080019E0005A620280841E0040420F004FF40040F5
S315080019F070474FF47A707047014B1868704700BFFC
S31508001A00E810002000230360704703680B6001603C
S31508001A10704703682BB1994204D018461B68002BFF
S31508001A20F9D170470B6803607047034680B17AB1F5
S31508001A3071B1107850B1013908D0194403F8010B77
S31508001A4012F8010F10B19942F8D10B4600221A700C
S31508001A50704770B1037873B179B101440346C0F198
S31508001A60010C0CEB030013F8012F3AB18B42F8D1A5
S31508001A70704700207047002070470846704708B531
S31508001A804FF0FF31FFF7E5FF08BD80B170B50C4692
S31508001A901546064622B119B1FFF7F1FF844200D870
S31508001AA070BD2A46211A3044FFF7BFFFF8E7704792
S31508001AB0F0B110B58646E9B100F1FF3E01F1FF3CF1
S31508001AC00D4C1EF8011F0B5D03F00303012B0CBF21
S31508001AD001F120030B461CF8010F025D02F0030218
S31508001AE0012A08BF2030181A01D10029E9D110BDF2
S31508001AF0012070470120FAE7E52F02080346054A48
S31508001B0010680344044A93429ABF024A13604FF08E
S31508001B10FF307047EC1000200000012008B543682C
S31508001B200068984708BD08B583680068984708BDE7
S31508001B3008B5C3680068984708BD08B50369006812
S31508001B40984708BD10B5044601213A2000F0D8FB95
S31508001B50A378B3FA83F35B0904226178207801F04D
S31508001B6089FF002010BD000083784BB903784278BE
S31508001B700121914003EB43031B01064AD1507047EC
S31508001B80037842780121914003EB43031B01024A83
S31508001B90D150704740E0034040D0034083784BB9AA
S31508001BA0037842780121914003EB43031B01064A5F
S31508001BB0D1507047037842780121914003EB4303E3
S31508001BC01B01024AD150704740D0034040E0034011
S31508001BD0037842780121914003EB43031B01014A34
S31508001BE0D150704740F003400246037803EB4303A5
S31508001BF01B01103305495B584078C34003F00100C8
S31508001C0093780BB980F00100704700BF30C00340DD
S31508001C1008B5034B1968034B18680FF06BFC08BD31
S31508001C20F4100020F01000207047000010B504469C
S31508001C301BF08AFEB0F1FF3F1BD0E0B90F4B9B6843
S31508001C400A3303F01F03012202FA03F39908032B50
S31508001C500BD9201F002350F8042FB2F1FF3F06D1FD
S31508001C6001339942F7D8002006E0002004E0044832
S31508001C7002E0044800E0044810BD00BF0080E00F01
S31508001C800EE000F021E000F024E000F008B503467D
S31508001C900846194311F0030F05D09200194618F0AB
S31508001CA039FD002008BD002AFBD0011F53F8040B9C
S31508001CB041F8040F013AF9D1F3E7000010B582B0F4
S31508001CC0044601A802F0ECFA9DF8063023800122AA
S31508001CD0E2700020A070054B9B680A3303F01F03CF
S31508001CE002FA03F3636002B010BD00BF0080E00F84
S31508001CF008B502F0FFF908BD08B502F0EBF90020B7
S31508001D0008BD000070B505460E46940022461BF035
S31508001D1013FEB0F1FF3F0AD058B92246314628468D
S31508001D2018F0E8FC0028044808BF002002E0034831
S31508001D3000E0034870BD00BF10E000F021E000F0AD
S31508001D4024E000F008B501F081FA014B186008BDDF
S31508001D50081F002008B5024B186801F07BFA08BD79
S31508001D60081F002008B50A460139014405F020FA83
S31508001D7008BD00004268B2FA82F2C2F11F011A4B8E
S31508001D805B682BB1184B5A6812B19A6A002AFAD1C5
S31508001D90164B01225A60144A536813F00203FBD10A
S31508001DA0027A002A0CBF9C464FF0020C427842EA9F
S31508001DB0011242EA0C020C498A60427A002A18BFCC
S31508001DC00223827A13434B6201F580520123536042
S31508001DD0037843B10B465A6812B19A6A002AFAD1B7
S31508001DE0014B0122DA607047004006400060064059
S31508001DF0164B5B6843B930B1144B5B683BB9144B5F
S31508001E0001225A6070477047104B5B682BB10F4B25
S31508001E105A6812B19A6A002AFAD10028EFD10B4BF8
S31508001E205A6812B19A6A002AFAD1084B0222DA6075
S31508001E305A6812B19A6A002AFAD1064B01225A60E8
S31508001E40024A536813F0020FFBD170470040064060
S31508001E500050064000600640064A936A13F0100FC9
S31508001E60FBD1044B19631A46936A13F0100FFBD182
S31508001E70704700BF00400640094B5A6812B19A6A7B
S31508001E80002AFAD1064B0222DA6000221A625A6840
S31508001E9012B19A6A002AFAD1014B0122DA60704718
S31508001EA00040064038B505460C46164BD3F8203197
S31508001EB003F00703013B052B20D8DFE803F0030BEB
S31508001EC0130F171BFFF7F8FC052305B1286004B1AB
S31508001ED0237038BDFFF728FD0323F6E7FFF742FD19
S31508001EE00723F2E7FFF73AFD0223EEE7FFF7E4FCE4
S31508001EF00623EAE7FFF718FD0423E6E7002318465A
S31508001F00E3E700BF0080004038B505460C46114B94
S31508001F10D3F8283103F00703013B032B17D8DFE872
S31508001F2003F0020E120AFFF7C7FC052305B1286065
S31508001F3004B1237038BDFFF715FD0723F6E7FFF751
S31508001F40F3FC0323F2E7FFF709FD0223EEE700237C
S31508001F501846EBE70080004030B583B005460C46CE
S31508001F6000230193114BD3F8803103F00303022BAE
S31508001F7016D0032B0FD0012B07D000230DB1019AE1
S31508001F802A6004B1237003B030BD002101A8FFF711
S31508001F9089FF0F23F2E7FFF7E5FC01900723EDE73A
S31508001FA0FFF7DCFC01900223E8E700BF0080004051
S31508001FB030B583B005460C4600230193144BD3F87D
S31508001FC0203203F00703013B032B1ED8DFE803F09A
S31508001FD0020E1318002101A8FFF796FF11230DB171
S31508001FE0019A2A6004B1237003B030BDFFF7BAFC2A
S31508001FF001900723F3E7FFF7F9FC01900A23EEE7C0
S31508002000FFF7FAFC01900923E9E70023E7E700BF99
S315080020100080004038B505460C460F4BD3F84031D2
S3150800202003F00303022B0ED0032B10D0012B06D08E
S315080020300023184605B1286004B1237038BDFFF7A0
S31508002040D5FC0A23F6E7FFF7D7FC0923F2E7FFF7E3
S31508002050D0FC0B23EEE700BF0080004030B583B00C
S3150800206005460C4600230193144BD3F8603203F05F
S315080020700703013B032B1FD8DFE803F0020E1914F0
S31508002080002101A8FFF70EFF0F230DB1019A2A6060
S3150800209004B1237003B030BD002101A8FFF7BAFFD1
S315080020A01023F2E7FFF75EFC01900723EDE7FFF741
S315080020B055FC01900223E8E70023E6E7008000408C
S315080020C038B505460C46124BD3F8003203F0070321
S315080020D0013B032B18D8DFE803F0020A0E12FFF7BC
S315080020E085FC0A2305B1286004B1237038BDFFF7C3
S315080020F083FC0923F6E7FFF77CFC0B23F2E7FFF7DF
S31508002100FDFB800A0E23EDE700231846EAE700BF29
S315080021100080004038B505460C46124BD3F8083205
S3150800212003F00703013B032B18D8DFE803F0020A84
S315080021300E12FFF75BFC0A2305B1286004B1237071
S3150800214038BDFFF759FC0923F6E7FFF752FC0B23C6
S31508002150F2E7FFF7D3FB800A0E23EDE700231846C4
S31508002160EAE700BF0080004038B505460C460F4B2D
S31508002170D3F8403203F00303022B0ED0032B10D002
S31508002180012B06D00023184605B1286004B1237038
S3150800219038BDFFF72BFC0A23F6E7FFF72DFC0923CA
S315080021A0F2E7FFF726FC0B23EEE700BF00800040AE
S315080021B038B505460C460F4BD3F8503203F00303E7
S315080021C0022B12D0032B08D0012B0AD00023184665
S315080021D005B1286004B1237038BDFFF70AFC0B234C
S315080021E0F6E7FFF703FC0A23F2E7FFF705FC0923E6
S315080021F0EEE700BF0080004038B505460C460F4B99
S31508002200D3F8603103F00303022B0ED0032B10D052
S31508002210012B06D00023184605B1286004B12370A7
S3150800222038BDFFF7E3FB0A23F6E7FFF7E5FB0923CB
S31508002230F2E7FFF7DEFB0B23EEE700BF0080004066
S31508002240B0F5207F20D00ED8B0F5007F16D020D864
S3150800225020B1B0F5C07F18BF00201BD10E4B186FF8
S31508002260C0F3033016E0B0F5607F05D10A4BD3F80A
S315080022708000C0F301100DE000200BE0064BD3F8F8
S315080022809000C0F3046005E0034B186FC0F380208C
S3150800229000E00020013070470080004038B5044651
S315080022A00D46104B4FF480329A660020FFF7C8FFA0
S315080022B00D4BDA6902F4803241F67131D9635B68F5
S315080022C023F4401304FB00F00849884203D9002D83
S315080022D0D8BF43F4801304494B600AB10022CA638D
S315080022E038BD00BF0090004000000340005A62025B
S315080022F008B5FFF715FB0021FFF7D0FF08BD000062
S31508002300430906D0012B0FD0022B0A4B18BF002316
S3150800231000E0002300F01F0041B103F580530122BD
S3150800232002FA00F018607047034BF3E703F5005311
S31508002330F5E700BF688000406480004010B584B0AF
S3150800234000230393B0F5807F00F20781B0F5807F04
S3150800235000F27E81DFE810F055017C017C017C01EA
S315080023607C017C017C017C017C017C017C017C0177
S315080023707C017C017C017C017C017C017C017C0167
S315080023807C017C017C017C017C017C017C017C0157
S315080023907C017C017C017C0155018E0155018E0171
S315080023A0A401A401A401A401A4018E01A901460166
S315080023B0C2012C0146018E018E018E017C017C0131
S315080023C07C017C017C017C017C01C2018E018E01AD
S315080023D08E01E801C7018E017C017C017C017C012C
S315080023E07C017C017C017C017C017C017C017C01F7
S315080023F0CC01A40155015501550176014601460156
S315080024006B01D1015F01850185017C017C017C019D
S315080024107C017C017C017C017C017C017C017C01C6
S315080024207C017C017C017C017C017C017C017C01B6
S315080024307C017C017C017C017C017C017C017C01A6
S315080024407C017C017C017C017C017C017C017C0196
S315080024507C017C017C017C018A017C017C017C0178
S315080024607C017C017C017C017C017C017C017C0176
S315080024707C017C017C017C017C017C017C017C0166
S315080024807C017C017C017C017C017C017C017C0156
S315080024907C017C017C017C017C017C017C017C0146
S315080024A07C017C017C017C017C017C017C017C0136
S315080024B07C017C017C017C017C017C017C017C0126
S315080024C07C017C017C017C017C017C017C017C0116
S315080024D07C017C017C017C017C017C017C017C0106
S315080024E07C017C017C017C017C017C017C017C01F6
S315080024F07C017C017C017C017C017C017C017C01E6
S315080025007C017C017C017C017C017C017C017C01D5
S315080025107C017C017C017C017C017C017C017C01C5
S315080025207C017C017C017C017C017C017C017C01B5
S315080025307C017C017C017C017C017C017C017C01A5
S315080025407C017C017C017C017C017C017C017C0195
S315080025507C017C017C017C01AE01B0F5E06F00F0E6
S31508002560C28015D9B0F5286F00F0C78058D9B0F5E4
S31508002570306F6CD16F4BD3F8903203F00303012B05
S3150800258000F0CC80022B40F0CC80FFF7EBF9C9E0D5
S31508002590B0F5607F79D010D9B0F5B06F00F08580BE
S315080025A033D9B0F5C06F00F09980B0F5D06F4FD130
S315080025B0002103A8FFF784FD4AE0B0F5007F0AD1A1
S315080025C0FFF780F904464FF40070FFF739FEB4FBB5
S315080025D0F0F403943CE011D9B0F5207F4AD0B0F569
S315080025E0407F35D1FFF78AF904464FF42070FFF78C
S315080025F027FEB4FBF0F46408039429E0B0F5C07F25
S3150800260026D1FFF77BF9039022E0B0F5806F47D01B
S31508002610B0F5A06F1CD1002103A8FFF7C9FC17E08D
S31508002620B0F5186F64D007D9B0F5206F10D1002126
S3150800263003A8FFF713FD0BE0B0F5F06F74D0B0F503
S31508002640106F05D1002103A8FFF764FD00E002D250
S31508002650039804B010BDB0F5386F3FD0B0F5406FA1
S31508002660F6D1002103A8FFF74FFCF1E7FFF72AF997
S315080026700390EDE7FFF742F904464FF42070FFF7A1
S31508002680DFFDB4FBF0F40394E2E7FFF71BF9044619
S315080026904FF46070FFF7D4FDB4FBF0F40394D7E76A
S315080026A0002103A8FFF7FEFBD2E7002103A8FFF7E6
S315080026B053FCCDE7002302934FF0E0231B6913F088
S315080026C0040F05D0FFF71AF90290029B0393BFE7A0
S315080026D00DF1070102A8FFF79DFCF6E7002103A804
S315080026E0FFF798FCB4E7002103A8FFF73DFDAFE725
S315080026F0002103A8FFF75CFDAAE7002302930D4B10
S31508002700D3F8703203F00303012B02D0029B039324
S315080027109EE7002102A8FFF77DFCF7E7FFF71EF901
S3150800272000E00020039093E7002103A8FFF764FD6B
S315080027308EE700BF0080004008B58020FFF7FEFD49
S31508002740034B984203D8034B4FF480321A6708BDEF
S31508002750005A620200A0004000B585B000238DF83B
S315080027600F30B0F5807F00F0FD801ED9B0F5086FF8
S3150800277000F0168140F28280B0F5286F00F04281A1
S3150800278040F2AD80B0F5306F40F0BF809C4BD3F877
S31508002790903203F00303012B00F04A81022B40F02C
S315080027A04B81FFF7DFF8072347E1A0F124039BB22B
S315080027B05C2B00F2AB8024385C2800F2A780DFE8A7
S315080027C010F07F007F007F007F007F00A500760065
S315080027D0A500E9008800A500A500A500A500A5009C
S315080027E0A500A500A500A500A500A500E900A5006F
S315080027F0A500A50069001201A500A500A500A50071
S31508002800A500A500A500A500A500A500A500A50092
S31508002810A50018017F00A500A500A5009E00A5003B
S31508002820A500950021010C01B000B000A500A50087
S31508002830A500A500A500A500A500A500A500A50062
S31508002840A500A500A500A500A500A500A500A50052
S31508002850A500A500A500A500A500A500A500A50042
S31508002860A500A500A500A500A500A500A500A50032
S31508002870A500A500A500A500A500B600B0F5C06F87
S3150800288000F088800CD9B0F5E06F00F0AC80B0F5A8
S31508002890F06F1BD10DF10F010020FFF7ADFC35E0FD
S315080028A0B0F5A06F00F09980B0F5B06F05D10DF1C5
S315080028B00F010020FFF750FB28E0B0F5806F25D107
S315080028C00DF10F010020FFF7EDFA1FE0B0F5D06F0C
S315080028D01CD10DF10F010020FFF7F2FB16E0B0F551
S315080028E0186F00F08680B0F5206F05D10DF10F0145
S315080028F00020FFF7B3FB09E0B0F5106F06D10DF124
S315080029000F010020FFF706FC00E004D29DF80F0037
S3150800291005B05DF804FBB0F5386F3BD0B0F5406FF5
S31508002920F4D10DF10F010020FFF7EEFAEEE7344B74
S315080029301B6F03F00703013B032BE7D8DFE803F01F
S315080029400E02060A05238DF80F30DFE703238DF8FC
S315080029500F30DBE708238DF80F30D7E702238DF811
S315080029600F30D3E7002302934FF0E0231B6913F0DF
S31508002970040F09D0FEF7C2FF0C238DF807309DF827
S3150800298007308DF80F30C1E70DF1070102A8FFF7F0
S3150800299041FBF4E70DF10F010020FFF73BFBB5E71C
S315080029A0174BD3F8003103F00303032B03D8DFE8F2
S315080029B003F01004080C00230CE0FEF7B5FF032310
S315080029C008E0FFF719F8092304E0FEF7C5FF082316
S315080029D000E001238DF80F3098E70DF10F01002074
S315080029E0FFF7E6FA92E70DF10F010020FFF7BCFBAF
S315080029F08CE70DF10F010020FFF7DAFB86E700BF31
S31508002A0000800040002302930D4BD3F8703203F088
S31508002A100303012B06D0022B14BF002314238DF8C1
S31508002A200F3073E7002102A8FFF7F4FA1023F6E740
S31508002A30FEF794FF022300E000238DF80F3065E7C8
S31508002A400080004070B505468020FFF785FE032804
S31508002A5000F0A180584B4FF480125A66574B45F642
S31508002A600E02C3F8802003F580524FF0A0619162F0
S31508002A7003F500534FF480329A62504A946D14F469
S31508002A808034FBD12A786B781B0543EA0263AA795E
S31508002A901343EA7843EA02432A7943EA02336A7916
S31508002AA043EA8213454E3361B36903F00043EA7A79
S31508002AB01343EA7943EA82632A7A43EA02636A7A23
S31508002AC043EA0243AA7A43EA0223B36100F0BEFB53
S31508002AD0B36B23F4406343F40063B36300F0BAFBBB
S31508002AE0326A22F00F026B7B002B18BF0824297B61
S31508002AF0134343EA8103234333626B7B002B31D1B3
S31508002B003146B06AAA7BAB7CDB0043EA42132C4A07
S31508002B1002401343EA7B43EA021343F48033B36269
S31508002B20284A8B6D32EA0303FBD1244A02F5805109
S31508002B304FF080738B621369A87823F4700343EA15
S31508002B40005313614FF000438B612B7C1BB91E4B5E
S31508002B504FF080729A626B7CBBB91B4B4FF4803284
S31508002B609A6212E0022B17D01449886AAA7B2B7C3A
S31508002B701B0643EA4213124A02401343AA7C43EA5D
S31508002B80C2036A7C43EA02438B62EB7C1BB10B4BA4
S31508002B900E4AC3F8802070BD084C00232361A36148
S31508002BA000F054FB636B23F47F4343F408536363D9
S31508002BB000F050FBD8E700BF009000400040004AF4
S31508002BC0C7FFFEFE030001000060004AF1A7FFFFF1
S31508002BD0014B93F9000070471411002008B500292D
S31508002BE0CCBF01210021FFF759FB08BD10B50C46E3
S31508002BF0B0F5207F4AD030D8B0F5007F3BD02BD82F
S31508002C0010B1B0F5C07F27D1FFF772FB00F04AF884
S31508002C10234A02F580534FF480311967136F611EFA
S31508002C2023F4704343EA01311167FEF767FE4FF05C
S31508002C304022D2F8843013F0100FFAD14FF0402317
S31508002C40D3F88410C1F38111C1F10201FFF7C6FF61
S31508002C5000F030F8FFF770FD10BDB0F5607FFBD1CE
S31508002C600F4AD2F88030013923F0300343EA0111C4
S31508002C70C2F88010F0E70A4AD2F89030013923F0FA
S31508002C80F85343EA0161C2F89010E5E7044A136F66
S31508002C90013923F4806343EA81211167DCE700BF29
S31508002CA00080004008B502214FF42070FFF79EFF10
S31508002CB008BD000008B54FF4C070FFF73FFB054993
S31508002CC088428CBF022101214FF42070FFF78EFF46
S31508002CD008BD00BF80F0FA0270B50C46B0F5807FDB
S31508002CE000F094811FD9B0F5086F00F00D8240F20C
S31508002CF08380B0F5286F00F0938240F2D180B0F55A
S31508002D00306F40F0F880022900F09B82072914BF33
S31508002D1000210221884AD2F8903223F003030B439C
S31508002D20C2F89032E8E0A0F124039BB25C2B00F2D3
S31508002D30E38024385C2800F2DF80DFE810F0990091
S31508002D409900990099009900DD008300DD00A8012B
S31508002D50A500DD00DD00DD00DD00DD00DD00DD00B5
S31508002D60DD00DD00DD00DD00A801DD00DD00DD00A1
S31508002D7069002902DD00DD00DD00DD00DD00DD0083
S31508002D80DD00DD00DD00DD00DD00DD00DD003E02EA
S31508002D909900DD00DD00DD00D000DD00DD00B800B3
S31508002DA07102FA01E500E500DD00DD00DD00DD0069
S31508002DB0DD00DD00DD00DD00DD00DD00DD00DD001D
S31508002DC0DD00DD00DD00DD00DD00DD00DD00DD000D
S31508002DD0DD00DD00DD00DD00DD00DD00DD00DD00FD
S31508002DE0DD00DD00DD00DD00DD00DD00DD00DD00ED
S31508002DF0DD00DD00DD00F100B0F5C06F00F04781B1
S31508002E0019D9B0F5E06F00F0C381B0F5F06F38D18D
S31508002E100A2C00F051810B2C00F05081092C14BFAC
S31508002E2000210221444AD2F8603123F003030B4300
S31508002E30C2F8603160E0B0F5A06F00F07A81B0F5B5
S31508002E40B06F12D1072C00F0C7800F2C00F0C68097
S31508002E50022C14BF00210221374AD2F8803123F010
S31508002E6003030B43C2F8803146E0B0F5806F43D1C7
S31508002E70023C052C00F2C880DFE804F0C0BCC4B2EE
S31508002E80C2BEB0F5D06F37D1093C052C00F22081BF
S31508002E90DFE814F0180116011A011E011E011C01B3
S31508002EA0B0F5186F00F08981B0F5206F14D1023C97
S31508002EB00E2C00F2AB81DFE814F09501A901A901F7
S31508002EC0A901A9019701A901A901A901A901A901B6
S31508002ED0A901A90199019B01B0F5106F0CD1093C14
S31508002EE0052C00F20781DFE814F0FF00FD00010160
S31508002EF005010501030100D270BDB0F5386F00F079
S31508002F00C680B0F5406FF7D1023C052C00F2368139
S31508002F10DFE814F03001320134012C0134012E01AE
S31508002F208B1E062B1FD8DFE803F01B091E041E1E86
S31508002F3018000025022618E000800040AD4B4FF42B
S31508002F4080125A66AC4B9D6AC5F3006503F580533B
S31508002F504FF480329A62032607E00025042604E02F
S31508002F600025012601E000252E460121022000F059
S31508002F70D7F9FFF7BDF9FFF795FEA04A02F580538A
S31508002F804FF480311967136F23F007033343136730
S31508002F90FEF7B4FC4FF04022D2F8843013F0100F3D
S31508002FA0FAD14FF04023D3F88410C1F38111C1F14F
S31508002FB00201FFF713FE0121002000F011FAFFF7C6
S31508002FC079FEFFF7B9FB002D96D1032C94D18C4BD3
S31508002FD04FF480329A628FE703213DE701213BE7F0
S31508002FE00121864AD2F8203123F007030B43C2F8A1
S31508002FF0203181E70221F4E70421F2E70321F0E713
S315080030000521EEE70621ECE70021EAE70C2924D0A2
S315080030101FD8A1F10904E4B2022C3FF66DAF774B35
S31508003020596E03F580534FF480325A66754A536ACF
S3150800303043F00103536211F4803F03D1724B4FF4FE
S3150800304080325A664FF0E022136923F004031361B5
S3150800305052E710297FF450AFE1E7684B596E03F544
S3150800306080534FF480325A66664A536A23F0010346
S31508003070536211F4803F03D1634B4FF480325A6692
S315080030804FF0E022136943F00403136134E70A2C76
S315080030900ED00B2C0ED0092C14BF00210221574A42
S315080030A0D2F8403123F003030B43C2F8403123E73B
S315080030B00121F4E70321F2E70121B3E60321B1E692
S315080030C0012106E0022104E0032102E0042100E0D8
S315080030D000214A4AD2F8003223F007030B43C2F80C
S315080030E0003209E7012106E0022104E0032102E09B
S315080030F0042100E00021414AD2F8083223F00703F0
S315080031000B43C2F80832F7E608290ED009290ED073
S31508003110032914BF00240124384AD2F8003123F0C9
S3150800312003031C43C2F80041E6E60324F4E702243D
S31508003130F2E7073C0A2C0FD8DFE804F0080E0C0A61
S315080031400E0E0E0E0E0E0600012106E0022104E008
S31508003150032102E0042100E00021284AD2F82032A7
S3150800316023F007030B43C2F82032C5E6012106E027
S31508003170042104E0032102E0022100E000211F4AA5
S31508003180D2F8283123F007030B43C2F82831B3E6F7
S315080031900A2C0ED00B2C0ED0092C14BF00210221AC
S315080031A0164AD2F8403223F003030B43C2F84032E2
S315080031B0A2E60121F4E70321F2E70A2C0ED00B2C34
S315080031C00ED0092C14BF002102210C4AD2F8503225
S315080031D023F003030B43C2F850328DE60121F4E7CE
S315080031E00321F2E7032112E0042110E001210EE099
S315080031F002210CE0009000400040004A0080004098
S315080032000060004A00C0074000A0004000210E4AA6
S31508003210D2F8603223F007030B43C2F860326BE63C
S31508003220102C0CD0142C14BF00210221064AD2F807
S31508003230703223F003030B43C2F870325CE60121B7
S31508003240F4E7012166E500BF00800040EFF3108037
S3150800325072B6704700B962B67047302383F3118897
S315080032607047002383F311887047EFF311803023EA
S3150800327083F31188704780F311887047EFF3108342
S3150800328013F0010F06D1EFF311802F2894BF002009
S3150800329001207047012070474FF04022536F417854
S315080032A023F4407343EA0123536770477047704716
S315080032B010B50446094A136943F00403136104F080
S315080032C07DFBFFF7F3FF30BFFFF7F1FF04F08CFB40
S315080032D004B110BDFEF712FBFBE700BF00ED00E0EE
S315080032E010B50446074A136943F00403136104F052
S315080032F065FB30BF04F078FB04B110BDFEF7FEFA9B
S31508003300FBE700BF00ED00E0704770474FF0402232
S31508003310D36E23F0300301790B43D36670477047A9
S31508003320F8B504464FF04022D2F8843013F0100F57
S31508003330FAD14FF04023D3F88430C3F381139C426B
S315080033402CD0FEF7BFFA0646012C28D0FFF77EFFE1
S3150800335005464FF0402707F500534FF000725A66AE
S315080033602046FFF7DCFF621E4FF4806393403B67FD
S315080033707B6E13F0007F0CD14FF04023D3F88420E6
S3150800338012F0200F05D1D3F884205A6E12F0007F70
S31508003390F4D02846FFF75EFF022C1BD0F8BD0121AA
S315080033A0FFF71CFCFFF752FF05464FF0402707F5CD
S315080033B000534FF000725A660120FFF7B0FF4FF432
S315080033C080633B677B6E13F0007FD5D02846FFF7F6
S315080033D041FFE3E700213046FFF700FCDEE7000087
S315080033E010B50C46034650B1094A127812B1094A7B
S315080033F0934208D921460220FFF792FF10BDFEF737
S3150800340061FA0346F0E721460120FFF789FFF5E751
S31508003410BC1F0020005A620208B50278034B1A70D6
S3150800342001210020FFF7DCFF08BD00BFBC1F0020FC
S315080034301B4B4FF000425A6603F50B23596C01F0FB
S3150800344001014AF6CD321A64B8B11A46136B13F065
S31508003450080FFBD1134B03F500522020906203F5A9
S31508003460805301225A600F4A936A13F0200FFBD04B
S3150800347011B10C4B0C4A1A6470470A4A536B13F085
S31508003480010FFBD1074B5B6813F0010FF0D0074B18
S3150800349001225A60034A136B13F0010FFBD0E7E7CA
S315080034A000900040004009403254FFFF0060094088
S315080034B010B51A4B4FF000425A6603F50B235C6CA5
S315080034C004F001044AF6CD321A6443785B0043F0EF
S315080034D001034FF04022D36302F51022536B13F019
S315080034E00B0FFBD10E4A5368817823F4F87343EA2D
S315080034F001135360C178437943EA01239360017944
S31508003500837943EA012313610078FFF791FF14B129
S31508003510034B044A1A64012010BD00BF0090004006
S31508003520004009403254FFFF10B40F2828BF0F206F
S31508003530134B5C6E03F580534FF000425A6603F551
S315080035400B23596C01F001014AF6CD321A641A466A
S31508003550536B13F0800FFBD10A4A136A23F00F034B
S315080035601843106211B11346074A1A64002C03DB8C
S31508003570064B4FF000425A665DF8044B704700BF91
S3150800358000800040004009403254FFFF00A0004080
S3150800359010B4144B5C6E03F580534FF000425A6624
S315080035A003F50B23596C01F001014AF6CD321A6472
S315080035B01A46536B13F0800FFBD10B4A136A23F498
S315080035C0F85343EA0020106211B11346074A1A64F9
S315080035D0002C03DB064B4FF000425A665DF8044B9D
S315080035E0704700BF00800040004009403254FFFF8A
S315080035F000A00040436813F0010F22D100F5805166
S3150800360004230B6100F5005213610B6113610B6112
S3150800361013610B611361202303610023C360836078
S3150800362041F20201416183614FF4A0214162C36105
S3150800363003628362C362436303650F49D16403630C
S315080036407047836813F0010F03D0036913F0010F65
S3150800365009D00A238363436D13F0500FFBD1836CA3
S3150800366013F0030FFBD100F5005301225A6043689B
S3150800367013F0020FFBD1C1E7FF3F0D038C46E1B102
S3150800368000F5805301225A6001F00F02436DC3F31F
S315080036900B03002BFAD18263436D13F0780FFBD12D
S315080036A00CF001021CF0040F18BF42F00202836CF2
S315080036B003F003039342FAD17047436813F0010FEE
S315080036C0FAD0836813F0010F03D0036913F0010FD2
S315080036D009D00A238363436D13F0500FFBD1836C23
S315080036E013F0030FFBD100F5005301225A6043681B
S315080036F013F0020FFBD17047836C13F0800FFBD0D9
S31508003700C06BC0B27047836C13F0400FFBD04164A6
S315080037107047000038B5044615460846E9B1A3685F
S3150800372013F0010F56D06368B0FBF5F0013813F0BB
S31508003730010F7AD0636D13F0280FFBD1A36C13F039
S31508003740030F1CD1A36C13F0010F41D1A36C13F026
S31508003750020F0CBF0021062112E0374B9C420AD00B
S31508003760364B9C4209D0364884420CBF582000206C
S31508003770FEF7E4FDD3E75620FAE75720F8E70521D8
S31508003780636813F0010F19D0A36813F0010F03D073
S31508003790236913F0010F09D00A23A363636D13F09D
S315080037A0500FFBD1A36C13F0030FFBD104F50053A4
S315080037B001225A60636813F0020FFBD1236923F0D4
S315080037C07F4343EA006020612046FFF757FF25E064
S315080037D00921D5E76368A36803F0E003402B1ED0F0
S315080037E005D9602B1FD0802B18D1012304E0C3B163
S315080037F0202B08BF082311D1400105FB03F3B0FBBA
S31508003800F3F020380F4B03EAC000636D13F0010F85
S31508003810FBD12063636D13F0010FFBD138BD06237E
S31508003820EAE71023E8E70423E6E7236923F07F4362
S3150800383043EA00602061F1E70000014B00000A40FE
S3150800384000400A40F8FF7F0070B504460D4616464C
S31508003850436823B1636DC3F30B03002BFAD12046EB
S31508003860FFF7C8FE62696B7BE9890B43298A0B431C
S3150800387022F44C5222F00F0213436361A2682B7B99
S31508003880297E0B4322F0804222F0E20213436A6942
S315080038901343A360AB681BB9A36843F00043A36056
S315080038A0EA69002A6DD0A368127A43EA8253A360B4
S315080038B0A368EA69927A43EA4243A360A268EB697D
S315080038C09B8803F4C0431343A360A368EA6952784C
S315080038D043EA8203A360A368EA69527B43EAC20308
S315080038E0A360A368EA69927B43EA0213A360A3680C
S315080038F0EA69927843EA8223A360EA699179D379DF
S315080039005B0243EA8123E360EB691B7803F0FD035E
S31508003910012B50D0EB691B78023BDBB2012B4FD948
S31508003920484B9C4263D0484B9C4262D003F5804387
S315080039309C420CBF02234FF0FF335B01434A1A44F3
S3150800394002235360EB695A7A04F580539A62EB694D
S315080039505B7A1BB1E36843F40063E360EB69DB7AE7
S315080039607BB1E36843F40043E360364B9C4242D0A4
S31508003970EB691B7B03F00F03354A1367354B9C42F3
S3150800398045D03EB196F82030002B46D004F580533A
S3150800399001221A6205212046FFF770FEAA68002A4E
S315080039A04AD129782046FFF769FEA36CDB4313F456
S315080039B0405FFAD170BDE36843F00403E360A9E70A
S315080039C0204B9C420FD0204B9C420ED003F58043DF
S315080039D09C420CBF02234FF0FF335B011E4A1A4478
S315080039E002235360AEE70023F7E70123F5E7002338
S315080039F0A3E70123A1E7EB691B7B03F00F03144A36
S31508003A005366EB691B7B03F00F031367B9E7EB6992
S31508003A101B7B03F00F03D367B3E7E26996F82230FE
S31508003A2096F821100B4322F00902134343F00103D1
S31508003A3004F58052D361ADE769682046FFF76AFE50
S31508003A40AFE700BF0000014B00000A40C0E4034096
S31508003A500090034000400A40C0D4034008B5002344
S31508003A601A46FFF7F1FE08BD08B500231A46FFF708
S31508003A70EBFE08BD2DE9F84F04460D461E46904656
S31508003A803AB183B301228A4000EB400109012D4B6C
S31508003A905A50072D2FD804EB44073F010437DFF8A7
S31508003AA0AC904FEA850B08FA0BFAFFF7CFFB57F8ED
S31508003AB009200F2303FA0BF38AEA020A03EA0A0328
S31508003AC0534047F80930FFF7C5FBB8F1000F08D196
S31508003AD076B3012101FA05F504EB44042401194BD8
S31508003AE01D51BDE8F88F01228A4000EB400109010B
S31508003AF0154B5A50CDE704EB44073F010C37DFF866
S31508003B004C90A5F108034FEA830B08FA0BFAFFF766
S31508003B109DFB57F809200F2303FA0BF38AEA020ADA
S31508003B2003EA0A03534047F80930FFF793FBCCE74B
S31508003B30012101FA05F504EB44042401024B1D5149
S31508003B40CFE700BF40D0034040E0034030C0034009
S31508003B50124BD3F8302422EA0002C3F83024D3F8F3
S31508003B60302401401143C3F83014D3F82C240243FF
S31508003B70C3F82C244FF04023DB6E03F03003202BD0
S31508003B8007D04FF04022D36E23F0300343F01003E2
S31508003B90D366034BC3F82004704700BF00C0034038
S31508003BA000E00340436913F0807FFBD100F5005025
S31508003BB001234360024A536813F0020FFBD1704792
S31508003BC00040004910B4022A08D90023033AD2B2A9
S31508003BD0022A0CD821F0FF04CBB208E021F07F447A
S31508003BE011F4000318BF4FF07F431C430B0E04600B
S31508003BF003715DF8044B704710B5446800F58053AF
S31508003C0001225A604A780B7843EA02238A7812041A
S31508003C1002F480321343CA78002A14BF4FF40032E4
S31508003C2000221343C0F8983014F0010F00D010BDDD
S31508003C30FFF7B8FFFBE770B505460C461646FFF7D3
S31508003C40B1FF237803F007026378002B14BF08211D
S31508003C500021A3781B0103F0700313430B43E2789A
S31508003C60002A14BF4FF48072002213432B67EA6AB6
S31508003C7023791B0203F4E0636179090301F4805197
S31508003C800B4322F48B3222F480721343A279002A62
S31508003C9014BF4FF4803200221343EB6231462846A4
S31508003CA0FFF7AAFF05F5805301225A60E37903B1AD
S31508003CB0EA6070BD08B5084669B100F5742000F2DF
S31508003CC03F20084BA3FB0030800C01387F2828BF13
S31508003CD07F20C0B208BD2A20FEF730FB012838BF76
S31508003CE00120EAE783DE1B4310B50B4C8C4228BF44
S31508003CF00C46104662B1631E0344B3FBF4F0A342BC
S31508003D0028BF00F1FF30032828BF0320C0B210BD2A
S31508003D102A20FEF713FBEEE7005A620210B5114897
S31508003D20114C002B08BF04468C4228BF0C4610468F
S31508003D309AB19DF808300133B0FBF3F0631E0344D3
S31508003D40B3FBF4F0A34228BF00F1FF3040F2FF3383
S31508003D50984228BF1846C0B210BD2A20FEF7EEFAD0
S31508003D60E7E700BF80969800404B4C002DE9F04FDE
S31508003D702DED048B85B080460D4614460022C449B5
S31508003D80FFF7B2FF95F805A0824538BF82465FFA6D
S31508003D908AFA4046FFF706FF287978B3EB781B01C5
S31508003DA003F030034FEA0A7202F0E04213430004BC
S31508003DB000F4FE0003432A780AB143F002036A7846
S31508003DC00AB143F00403AA780AB143F00803C8F815
S31508003DD00830EB88C8F810302A896B8943EA024311
S31508003DE0C8F820300026DFF8D4B29FEDAA9ADFED96
S31508003DF0AA8A9FEDAA8ADFEDAA9ABDE0002140466D
S31508003E00FFF758FFCAE7A74BD3F88031B9F1000F7F
S31508003E1040F0AB80330103F1924303F580439B6C7A
S31508003E20C3F302335A1E012A23D9032B00F0B180AB
S31508003E30042B00F0BA809B4BD3F88421120CD3F8DC
S31508003E408C311B1403EB430307EE903AB8EEE77A7E
S31508003E5015E0944BD3F88031D8E7924BD3F88431E8
S31508003E60D4E7904BD3F88431D0E78E4BD3F8803122
S31508003E70CCE78C4BD3F8802192B29FED8B7A22F453
S31508003E80C0439B0412F4004F18BF43F000433101AE
S31508003E9001F1924101F58041896CC1F3820101313A
S31508003EA0012505FA01F1022900F08C807D4FD7F82B
S31508003EB090512DB207EE905AF8EEE77A77EEC77A68
S31508003EC006EE901AFAEEEF6A87EEA67AD7F88851C8
S31508003ED02DB207EE905AF8EEE77A77EE877A039DC9
S31508003EE095ED037AB8EE477A87EE096AB7EE047A53
S31508003EF0C7EE066A66EEA77AF1EE006A67EEA66A6C
S31508003F0007EE901AB8EEE77AC8EE877A67EE887AEF
S31508003F1077EEA67AB3F1004F0DD007EE102AB8EE69
S31508003F20C77A27EE297ADFED616A77EEA67A67EE19
S31508003F30277A77EEE67AF5EEC07AF1EE10FACCBF7C
S31508003F40BEEE007AB6EE007A77EE677AFDEEE77A8D
S31508003F5017EE902AB2F5003F3FDB6FEA53436FEA4C
S31508003F604343721D120152498B50C0F309003201B6
S31508003F70504B9850013614344D4B984536D008F5B9
S31508003F8080580123C8F8043005B0BDEC048BBDE8A1
S31508003F90F08F444BD3F88021120CD3F88C311B14C4
S31508003FA007EE903AB8EEE77A69E73E4BD3F88421F4
S31508003FB092B2D3F88C311B145B0007EE903AB8EE38
S31508003FC0E77A5CE7374DD5F88C512DB207EE905A53
S31508003FD0F8EEE77A77EE877A81E712F5003FB2BF07
S31508003FE043F40033C2F311021343BAE7022EC6D0D4
S31508003FF0039494F80090A5682D4FCDF800A04B4681
S3150800400000222D49914518BF59463846FFF786FEC6
S31508004010EDB2A84238BF284607EB0617BA6C09F076
S31508004020030322F0435222F41D1222F4405222F0D6
S315080040301F0213436278920002F01C021343A2780F
S31508004040120302F4E0421343E278120402F4E02277
S315080040501343227C520502F46002134322791207A5
S3150800406002F040521343BB64BB6CC3F30233013BFB
S31508004070042B3FF6FAAE01A252F823F0073E0008D9
S31508004080073E0008533E00085B3E0008633E0008F2
S31508004090005A620200007A4400008043000020446F
S315080040A0000000380080E00F000000000000004912
S315080040B0004000495440004980969800404B4C0007
S315080040C010B504460A6F496F02F00702FFF77AFD3A
S315080040D0204610BD064B4FF480329A6603F51C3312
S315080040E041F67132DA6303F500530122DA6070474C
S315080040F000900040074B41F67132DA6303F500522F
S315080041000121D1600022DA63A3F518334FF4803217
S315080041109A667047000003400138312828D8DFE83E
S3150800412000F019272727272727272727272527277F
S315080041302727272727272727272727272727272701
S3150800414027271B1D1F212727272727272727272715
S31508004150272727230320704701207047022070472E
S3150800416004207047052070470620704707207047CF
S31508004170002070470C2801D008467047022903D052
S31508004180032908BF0121F7E70021F5E770B50446C2
S31508004190C2F3062602F0070241B942EA062242F4B1
S315080041A040220634094B43F8242070BD1146304698
S315080041B0FFF7E0FF05463046FFF7AEFF45EA002564
S315080041C01234024B43F82450EFE700BF0080034047
S315080041D008B50A4392B20021FFF7D8FF08BD52B1CD
S315080041E022F0030303F1804303F5603309B918602D
S315080041F07047000218607047024B4FF400321A6786
S31508004200704700BF005000404FF04023D3F8940099
S315080042107047436843B15A68012A03D05B685A68F5
S31508004220012AFBD15960704741607047836843B1E2
S315080042305A68012A03D05B685A68012AFBD159607B
S31508004240704781607047C369032B04D800EB83026B
S31508004250D1600133C3617047C16904291FD84FF083
S315080042609842136C13F4801FFBD0043189004FF079
S315080042709843196502681A6042681A6082681A606B
S31508004280C36963B100F10C0200234FF0984C52F851
S31508004290041BCCF800100133C1699942F7D870475E
S315080042A0074B4FF480325A6603F5E6239B69C3F33E
S315080042B08512827003F03F0242701B0B0370704731
S315080042C000900040436813F0010F00D1704710B505
S315080042D00446FEF7CAFF636A13F0010F04BF012301
S315080042E0E360FEF7C8FF10BD094A936813F0020F92
S315080042F0FBD1536813F0020FF7D1D369002BF4D121
S31508004300034B03F5805101224A601A61704700BFCA
S3150800431000800A400A4B5B68012B00D07047084BA7
S315080043205A6812F0010F02D0DA69002AF8D1044B54
S3150800433002221A6103F5005301225A60EEE700BF14
S3150800434000800A4010B50446114A936813F0020F1C
S31508004350FBD1536813F0020FF7D1D369002BF4D1C0
S315080043600B4B5B68012B03D02278094BDA6010BD32
S31508004370FFF7D0FF064A936813F0020FFBD1536884
S3150800438013F0020FF7D1D369002BF4D1ECE700BF85
S3150800439000800A40E8B90B784A6812B1127843EAF5
S315080043A0C2034A78002A14BF0222002213438A68ED
S315080043B012B1127843EA82138A78002A14BF0422BB
S315080043C000221343CA6812B1127843EA4223014A0B
S315080043D09364704700800A4008B9014B59647047D6
S315080043E000900A4008B9014B5964704700A00A407A
S315080043F008B9014B1964704700A00A4010B9024B6E
S31508004400186C70470020704700800A4048B911B1FF
S31508004410012903D07047044BD86C7047024B186DBE
S3150800442070470020704700BF00800A4040B911B1AC
S31508004430012903D07047034BDA647047014B1A65AC
S31508004440704700BF00800A4038B504460EF012FADD
S31508004450064DA446BCE80F000FC5BCE80F000FC503
S315080044609CE8030085E80300002038BDC01F002033
S3150800447047F6FF739A4273D0042973D8F0B53B4BBD
S3150800448003EBC100847813F83130012B49D0374B40
S3150800449003EBC1035E68002E66D0B6F9003093427E
S315080044A004DBB6F902309342B8BF1346B288FF2A36
S315080044B050D04FF0280EC82200251F462B4800EB87
S315080044C0C10191F801C0D21A92FBFEF22A440CF1FE
S315080044D0FF339A4228BF1A4606EBC201244D084606
S315080044E0B1F906E08B6807FB0E3323EAE37303F59D
S315080044F0FA73A5FB03E39B0996460132944503D953
S31508004500083180899842EAD206EBCE06B6F804C08E
S315080045109C4528BF9C46A44538BFA4465FFA8CF044
S31508004520F0BD90F803E0AEEB040C002305460BE063
S31508004530ACEB0301ACEB5101686830F9110090420D
S31508004540CCBF01F1FF3C0B469C45F1D8A4445FFA69
S315080045508CF0E5E7B6F90620B6F908E00125ACE7E0
S31508004560FF207047002070470020D9E7C01F0020B1
S31508004570D34D621004296CD830B5384B13F8313056
S31508004580012B49D0354B03EBC1035C68002C62D084
S31508004590324B03EBC1039B78934254D22F4B03EB68
S315080045A0C103DB78934251D9251D2C4B03EBC1017E
S315080045B091F801C00CF1FF3C5FFA8CFCA188FF2939
S315080045C014BF002101210B468C450BD904EBC10110
S315080045D01FFA82FE8889704504D30133DBB208319D
S315080045E09C45F7D805EBC301B1F902004FF47A737D
S315080045F002FB03F34A689B1A00EBD07203EB6203D3
S3150800460093FBF0F3B4F9000098421EDBB4F90200FC
S3150800461098421ADC18B218E0104B03EBC103D8789D
S315080046209C78904294BFC4EB0003C4EB0203DBB250
S31508004630001B8342C8BF0023084A02EBC1014A682F
S3150800464032F9130001E0B4F9020030BDB4F90000F4
S31508004650FBE7034870470248F7E700BFC01F002082
S315080046600080FFFF08B50348FFF7EEFE01200EF0B5
S315080046705DF908BD78EA01080020704700487047D0
S315080046801811002070470020704700207047C36843
S315080046901944836853F82100417810F8023B03EB6C
S315080046A0012313607047000010B504464FF42F72BB
S315080046B0002116F056F88023C4F88C300023C4F87D
S315080046C09030C4F8943084F89830054A6260012224
S315080046D02272C4F8AC3204F19C00FDF793F910BDC0
S315080046E0D0EB010810B503460846D3F8A0202AB136
S315080046F0D3F8A41090470024204610BD184600F0B1
S315080047003BFE04460028F7D02D2825D8DFE800F020
S315080047102624242424242424242424242424242449
S3150800472024242424242424242424242424241E2441
S315080047302417242424242024242424222419084940
S3150800474000E00849084801F0C7F9D5E70749F9E73D
S315080047500749F7E70749F5E70749F3E70749F1E79F
S3150800476058EC0108E4EB010814DC0108F8EB010831
S3150800477020EC010838EC0108D4EB010870ED0108BB
S3150800478038B504460123037200F10905284616F0D8
S3150800479075F900B938BD204600F0C8FF29462046FD
S315080047A0FFF7A0FF204600F0B6FEF3E7F8B5067857
S315080047B016B100263046F8BD0446FFF766FF002806
S315080047C0F8D101232370237A13B94FF0FF3710E08D
S315080047D0002323726168154801F07EF9F5E7C4F8ED
S315080047E0B4722046FFF74EFFE9B2204600F0E2FF1A
S315080047F070B9D4F8B452B5F1FF3FF0D101F050F9D1
S315080048000546B0F1FF3FECD1012600232370D1E71E
S315080048102046FFF7B5FF237A0BB91E46F5E7616810
S31508004820024801F059F900232372EEE780EC0108EB
S3150800483038B504460D46FFF737FF6B68C4F8B03243
S31508004840A968204600F029FC4FF0FF33C4F8B432BB
S315080048502046FFF718FF38BDD0F8B432B3F1FF3F52
S3150800486001D00020704710B5044601F019F9C4F8C4
S31508004870B402B0F1FF3F04D194F8B80280F0010009
S3150800488010BD0020FCE708B5FFF790FF08BD000043
S31508004890F8B506460D4617460B78302B25D04BB192
S315080048A0AC46374C1B5D13F0040F66D01CF8013F6D
S315080048B0002BF7D10A220021284616F01DFA0246D7
S315080048C00C46202E53D02FB151EA000302D0421EC7
S315080048D061F100040123B340013B1340002C08BFDB
S315080048E093420CBF0120002048E04A7802F0DF021C
S315080048F0582AD5D18B784BB18A1C21495B5C13F0B9
S31508004900440F38D012F8013F002BF7D1724206F057
S31508004910030302F0030258BF5342032B19D128465A
S3150800492016F0ACF8013648BF0336B410831EB3EB55
S31508004930A60F05D1A87837288CBF002001201DE0D6
S31508004940284616F09BF802388442D4BF002001207E
S3150800495014E0284616F092F8831E3246002EB8BF99
S31508004960F21CB3EBA20FD4BF0120002006E0B1FA77
S3150800497081F0400902E0002000E00020F8BD00BFF9
S31508004980E52F020808B50B782D2B06BF01228918DA
S3150800499000220138FFF77CFF08BD000003787B2B57
S315080049A023D143787D2B24D010B500F1010E4FF0AA
S315080049B0020C0022154C0AE0202B01D0002010BD65
S315080049C01EF8013F0CF101017D2B06D08C46195DBE
S315080049D011F0440FF0D00132F2E76044437833B95E
S315080049E082F0010000F00100E9E70020704700208E
S315080049F0E5E700224FF0010C6044437823B982F0C2
S31508004A00010000F00100704700207047E52F0208FA
S31508004A1008B5072805D8DFE800F0060B1015191D9C
S31508004A20252100201FE000220820FFF731FF1AE0A9
S31508004A3000221020FFF72CFF15E000222020FFF7A8
S31508004A4027FF10E00820FFF79DFF0CE01020FFF776
S31508004A5099FF08E02020FFF795FF04E00846FFF7D6
S31508004A609DFF00E0012008BD2DE9F04F83B00C46FC
S31508004A7016461D460C9FDDF8348021282BD8DFE822
S31508004A8000F0112D445A71889EA22A2A2A2A2A2A17
S31508004A902A2A2A2A2A2A2A2A2A2A2A2A2A2A2A2A68
S31508004AA02A2A2ADB00221146204616F0A1F9D8F850
S31508004AB00030C0B245F823003A68D8F8003005EB54
S31508004AC0830346F82230D8F800300133C8F800309E
S31508004AD03B6801333B6003B0BDE8F08F0022114606
S31508004AE0204616F085F9D8F8003080B245F823003C
S31508004AF03A68D8F8003005EB830346F82230D8F830
S31508004B0000300133C8F80030E2E70022114620469B
S31508004B1016F06EF9D8F8003045F823003A68D8F848
S31508004B20003005EB830346F82230D8F8003001330D
S31508004B30C8F80030CCE700221146204616F03CF8AB
S31508004B40D8F8003040B245F823003A68D8F8003063
S31508004B5005EB830346F82230D8F800300133C8F84D
S31508004B600030B5E700221146204616F025F8D8F899
S31508004B70003000B245F823003A68D8F8003005EB53
S31508004B80830346F82230D8F800300133C8F80030DD
S31508004B909EE700221146204616F00EF8D8F8003097
S31508004BA045F823003B68D8F8002005EB820546F84F
S31508004BB02350D8F800300133C8F8003088E73B683E
S31508004BC046F8231084E700238DF806304B787D2BB2
S31508004BD026D002254FF00008C1464FF0100BC246FA
S31508004BE014E08DF8053008F101085A46514601A827
S31508004BF015F0E2FF04EB0903987009F101091FFAA1
S31508004C0089F90135631E5B5D7D2B0BD0202BF8D00F
S31508004C1018F0010FE5D18DF8043008F10108F0E726
S31508004C204FF0000984F800904FEA192984F801909A
S31508004C303B6846F823404BE73B6846F8231047E7AE
S31508004C402DE9F04F85B099460023039302938945D1
S31508004C507CDC8246884615460378FF2B29D000243B
S31508004C60224601273E1A05E03A46311810F8013F58
S31508004C70FF2B09D0A3F12001C9B20129F4D9103BB1
S31508004C80072B98BF0124F0E7494462B10139414531
S31508004C905EDCB8F1000FD8BF002054DD0024A3461F
S31508004CA02746FF2624E02CB101394145F1DD2B20AA
S31508004CB049E049464145ECD02B2044E00AEB0B037A
S31508004CC05B78FF2B2CD02B203DE052445378FF2BEA
S31508004CD040D102AB019303AB00930F9B0E9A296850
S31508004CE02120FFF7C1FE012701340435A04529D04C
S31508004CF0A14514DC5A461AF80B30202BDED0212B9E
S31508004D00E3D0A3F11001072905D852445278FF2AA7
S31508004D1022D1CEB204E00BF1010B1E4600E00626B6
S31508004D20002FD6D129683046FFF772FEB0B102AB24
S31508004D30019303AB00930F9B0E9A29683046FFF741
S31508004D4093FED1E7002005B0BDE8F08F2120FAE7F1
S31508004D502B20F8E72B20F6E72B20F4E72620F2E7AE
S31508004D602DE9F04784B080468A4691460C9F0D9EF1
S31508004D700068444668B11D4633682A68934208DAD3
S31508004D8057F82310FCF794FE98B154F80C0F002836
S31508004D90F2D199F80030C3B90F9B1B78ABB9BAF1B9
S31508004DA0000F24D001230F9A137089F80030444667
S31508004DB00BE033680133336063681A7BFE2A08D038
S31508004DC001230E9A137089F80030204604B0BDE816
S31508004DD0F08718680F9B03930E9B02930196009722
S31508004DE02B464A460121FFF7BBFF0446D1E70024BC
S31508004DF0EBE7000070B506460D4615F03FFE044683
S31508004E00304600F069FEAC4206D2044E304600F049
S31508004E1063FE0134A542F9D170BD00BF90DA0108DE
S31508004E202DE9F84F044602217748FFF7E3FF1E21D4
S31508004E302068FFF7DFFF6368586800F04DFE734887
S31508004E4000F04AFE65682B7BFD2B01D9BDE8F88F7B
S31508004E50D5F808B0584615F011FE07462B7BFF2BF0
S31508004E60F4D00C354FF0FF36DFF89C9112E0684C11
S31508004E7005E0FE2B00F09580FF2B57D1654C002FDF
S31508004E8040F39A800136202B40F0968015F8013FB2
S31508004E90FF2BDBD0212BECD8212B63D801A252F8AB
S31508004EA023F000BFB14F00089B4F00086F4E000863
S31508004EB09F4F0008314F0008354F0008394F00084A
S31508004EC03D4F0008654F0008654F0008654F00080C
S31508004ED0654F0008654F0008654F0008654F0008D4
S31508004EE0654F0008414F0008454F0008494F000824
S31508004EF04D4F0008514F0008554F0008594F0008FC
S31508004F005D4F0008654F0008654F0008654F0008AB
S31508004F10654F0008654F0008654F0008654F000893
S31508004F20654F0008A74F0008614F00083A4C40E05B
S31508004F303A4CA4E73A4CA2E73A4CA0E73A4C9EE72B
S31508004F403A4C9CE73A4C9AE73A4C98E73A4C96E73B
S31508004F503A4C94E73A4C92E73A4C90E73A4C8EE74B
S31508004F603A4C8CE7002F01DD2B4C8BE72A4C8AE75D
S31508004F702B2000F0A5FD38E0BE4241DA07EB0B0A0C
S31508004F80CBF1010800F09CFD08EB040614F8010FAC
S31508004F901F2835D05445F5D132E02D4C6FE72D4CFE
S31508004FA06DE72D4C6BE7002F7FF770AF2B4C69E749
S31508004FB02B4C002F3FF766AF02214846FFF71AFF32
S31508004FC01E214846FFF716FF264800F085FD1F49B3
S31508004FD0204615F049FD2449002818BF21462348D4
S31508004FE000F07AFD6B78202BC2D0214800F074FDC2
S31508004FF0002F05DD0BEB06041BF806001F28BBD1A6
S31508005000024800F069FD41E770ED0108F8DD010886
S31508005010A4EC01083CED010884EC010824ED010824
S315080050201CED010814ED010810ED010804ED010856
S31508005030F8EC0108ECEC0108E4EC0108D8EC0108EE
S31508005040CCEC0108C0EC0108B8EC0108ACEC01088E
S3150800505034ED01082CED01089CEC01088CEC0108E4
S3150800506040ED010848ED010898EC010880EC0108BC
S315080050704CED010838B50446036823B938BD0C342D
S31508005080EB68002BFAD02546237A002BF7D1204669
S31508005090FFF7C6FEF3E77047704759B10A790AB1B8
S315080050A00020704710B501240C719C30FCF7ADFC4C
S315080050B0204610BD002070472DE9F04F91B081467B
S315080050C0029104929A461A9F00F10904204615F0A7
S315080050D0D5FC03900023CAF800303B6008AA07A94C
S315080050E0204600F021FD28B100230193019811B054
S315080050F0BDE8F08F089815F0C1FCCAF80000D9F889
S315080051009CB0BBF1000F00F0DF8000231C46019322
S315080051109846B9E0D9F894203B68D21ACAF8002014
S31508005120296810AB03EB880353F8200C15F0AEFC86
S31508005130834690B1013404EB440306EB830556F825
S315080051402330002B00F08580079B4345C0F28480FE
S315080051502B7A002BDED00134EDE7286815F08EFC9B
S315080051606B681A7BFE2A21D0D9F894303A689B1AC4
S315080051708342DFDC029815F081FC8346286815F027
S315080051807DFC8344BBF17B0F5BD8019B0133019304
S315080051902A68DDF810B05946029D2846FCF775FCCA
S315080051A04B4A59462846FCF770FCC3E7079A013A6A
S315080051B0424529D1D9F894203968521A9042D9DA49
S315080051C0DDF800B01D682A68C2B10094CDF81480D5
S315080051D0019C029EDDF8108041463046FCF755FCDE
S315080051E03B4A41463046FCF750FC013455F80C2F33
S315080051F0002AF1D1DDF814800194009C039B3B60E2
S315080052000023CAF8003029E01E6810AB03EB8803B8
S3150800521053F8200C15F032FC3B68013303443B601D
S3150800522009EB0302527A42B90A334B440599CA1864
S315080052303A6013F8012B002AF9D008F101085C46F8
S3150800524079E7DDF800B0234A04990298FCF71DFCBB
S3150800525004E0DDF800B001E0DDF800B0039A002AAA
S315080052600CDD09F108039918202001E0994205D0C0
S3150800527013F8012F002AF9D11870F7E7DBF800B008
S31508005280BBF1000F3FF432AFDBF80850002DF5D024
S3150800529009EB04035B7A202B08D10A344C443B689B
S315080052A001333B6014F8013B202BF8D02B6800240F
S315080052B0002BD3D02E4600246FF00803A3EB090376
S315080052C00593CDF800B03FE7002301930EE700BF32
S315080052D090DA010850ED01082DE9F04F87B0044631
S315080052E00F4616461D46DDF84090DDF8448000233B
S315080052F08DF817302B6089F8003088F800302B6855
S3150800530052F823101B48FCF7D3FB50BB2B6801331C
S315080053102B60D4F89C4014B34FF0010B4FF0000AF1
S3150800532001E0246894B1A0680028FAD0CDF80C8072
S31508005330CDF80890019500963B460DF117025146A7
S31508005340FFF70EFD9DF81730002BEAD0BBF1000FD2
S3150800535002D0012388F8003007B0BDE8F08F204658
S31508005360F7E7D4F89C404FF0000B002CD6D1204626
S31508005370F2E700BF58ED0108F0B5A3B005460846A8
S315080053801AAA19A900F0D0FB044610B1204623B08A
S31508005390F0BD00238DF80B300DF10B0301930DF1D1
S315080053A00A03009303AB1AAA19A92846FFF794FF24
S315080053B09DF80B301BBB002838D0466806F10C0751
S315080053C011AB019309AB0093039B1AAA19993846A6
S315080053D0FFF736FC04460028D8D10495199B059397
S315080053E009AB0693039B0793089704A8FFF753FE98
S315080053F0336804A8984704A8FFF74EFEC6E740B1ED
S315080054009DF80A3013B1FFF70BFDBFE7FFF732FE31
S31508005410BCE7D5F89C501DB9B8E72D68002DB5D066
S31508005420A8680028F9D0FFF725FEF6E72D24ADE792
S31508005430F8B500F1AB04002700F1AC066FF0AA0539
S315080054402D1A02E00A2B08BF0137304615F016FB65
S315080054502B19984203D914F8013F002BF2D138468C
S31508005460F8BD00230B601360D0F8AC320BB90020EE
S31508005470704770B505460E461446AC3015F0FEFA70
S31508005480002840D0D5F8AC32012B98BF4FF0000C5D
S3150800549023D901214FF0000C06E00CF1010C013173
S315080054A0D5F8AC328B4215D9BCF5007FF7D20CF192
S315080054B0AC022A443368013333602368013323601E
S315080054C012F8013B0A2BE8D00CF1010CBCF5007F61
S315080054D0F0D1E4E7BCF5007F17D20CF1AC032B44FE
S315080054E0C5F1FF2505F57F05543513F8012B0A2A62
S315080054F00DD072B1226801322260EA18B2F5007F37
S31508005500F3D3012000E0002070BD0120FCE7012054
