S00C0000504952534E2E7333375C
S3150800000000100020B9140008996E00089D6E0008BB
S315080000107D710008A16E0008A96E0008B5140008D5
S31508000020B5140008B5140008B5140008B51400087E
S31508000030AD6E0008B5140008B5140008B51400081C
S31508000040B5140008B5140008B5140008B51400085E
S31508000050B5140008B5140008B5140008B51400084E
S31508000060B5140008B5140008B5140008B51400083E
S31508000070B51400085913000849130008B5140008F8
S31508000080B5140008B5140008B5140008B51400081E
S31508000090B5140008B5140008B5140008B51400080E
S315080000A0B5140008B5140008DD1B0008B51B0008C8
S315080000B0B5140008B51400081D8D0108FD96010841
S315080000C0B5960108B1960108E58E0108F99601086A
S315080000D0B9960108D1960108BD9601085D970108F1
S315080000E03D970108B5140008B5140008B5140008B2
S315080000F0B514000805610008B5140008B514000811
S31508000100B5140008B5140008E10B0008B51400087A
S31508000110B5140008B5140008B5140008B51400088D
S31508000120B5140008B5140008B5140008B51400087D
S31508000130B5140008B5140008B5140008B51400086D
S31508000140B5140008B5140008B5140008B51400085D
S31508000150B5140008B5140008E7830008F578010807
S31508000160B5140008B5140008255C01082B5C0108C5
S3150800017010B5054C237833B9044B13B1044800E095
S3150800018000BF0123237010BDB0140020000000003A
S315080001903C32020808B5034B1BB10349034800E08B
S315080001A000BF08BD00000000B41400203C3202085D
S315080001B0A3F5803A704700BF174B002B08BF134BB7
S315080001C09D46FFF7F5FF00218B460F461348144A54
S315080001D0121A1AF05AFA0E4B002B00D098470D4BFC
S315080001E0002B00D098470020002104000D000D4880
S315080001F0002802D00C4800E000BF1AF0E3F92000FE
S31508000200290000F001FF1AF0C9F900BF0000080034
S31508000210000000000000000000100020B0140020BC
S31508000220043F0020000000000000000038B5044626
S315080002300EF0B3F8A04201D8012038BD05460320C8
S3150800024001F0EAF80028F8D001F006F901F005F9FE
S315080002502B46224603490448006805F0BFFF0020E4
S31508000260EBE700BF80D801089018002030B583B0AE
S3150800027004468368C26853F822301D782846FFF77B
S31508000280D5FF08B903B030BD1B480FF07FFA062228
S31508000290002168461AF0F9F9184B1B88ADF80230A8
S315080002A0ADF804506368E2689B1A012B1FDDA3684A
S315080002B0013253F822301B88ADF800300CF056FA9C
S315080002C06A464FF6FF7103200CF05CFB04460320D8
S315080002D001F0A2F80028D5D001F0BEF801F0BDF86B
S315080002E022460749074B186805F078FFCAE740F227
S315080002F0FF13ADF80030E1E79C100020CC14002075
S31508000300B8D801089018002030B583B00446836831
S31508000310C26853F822301D782846FFF787FF08B9C8
S3150800032003B030BD1A480FF031FA0622002168469C
S315080003301AF0ABF9174B1B88ADF80230ADF804502C
S315080003406368E2689B1A012B1DDDA368013253F826
S3150800035022301B88ADF800306A464FF6FF7104203C
S315080003600CF010FB0446032001F056F80028D7D0FD
S3150800037001F072F801F071F822460749074B186830
S3150800038005F02CFFCCE740F2FF13ADF80030E3E7A9
S315080003909C100020CC140020D8D801089018002002
S315080003A030B583B004468368C26853F822301D7896
S315080003B02846FFF73BFF08B903B030BD1A480FF0CF
S315080003C0E5F90622002168461AF05FF9174B1B88E3
S315080003D0ADF80230ADF804506368E2689B1A012B49
S315080003E01DDDA368013253F822301B88ADF80030B2
S315080003F06A464FF6FF7102200CF0C4FA0446032041
S3150800040001F00AF80028D7D001F026F801F025F8FF
S3150800041022460749074B186805F0E0FECCE740F28C
S31508000420FF13ADF80030E3E79C100020CC14002041
S31508000430ECD801089018002030B583B08368C268EC
S3150800044053F822301C780023019343689B1A012B2A
S3150800045019DD01AA012104F07CF901469DF8040082
S315080004600CF06AF9054680B1022000F0D5FF60B1AC
S3150800047000F0F2FF00F0F1FF2A460649064B18681D
S3150800048005F0ACFE01E00CF071F920460CF010F90D
S3150800049003B030BD08D901089018002010B50346EE
S315080004A08168C26851F82200B0F900001A4C208011
S315080004B05B689B1A012B0FDD013251F8223093F944
S315080004C00010003918BF01210DF058FFA0B903200C
S315080004D000F0A2FF10B910BD0021F5E700F0BCFF3F
S315080004E000F0BBFF0D4B1C680DF053FF02460C498C
S315080004F0204605F073FEEEE7012000F08DFF002888
S31508000500E9D000F0A9FF00F0A8FF0649034B1868D8
S3150800051005F064FEDFE700BFCC1400209018002029
S315080005206CD9010880D9010810B586B0002105915B
S3150800053005AA04F00EF9059A102A06D0032000F041
S315080005406BFF002862D106B010BD014601A81AF05B
S3150800055075F801A80FF01AF90446002847D10320B8
S3150800056000F05AFF78B100F077FF00F076FF2D49CA
S315080005702D4B186805F032FE05E0032000F04CFF0D
S31508000580C0B90134E4B20F2C22D80F2CF5D00320C1
S3150800059000F042FF0028F4D000F05EFF00F05DFF97
S315080005A006AB234413F8142C20491F4B186805F092
S315080005B015FEE6E700F050FF00F04FFF06AB2344B8
S315080005C013F8142C1A49184B186805F007FED8E7D3
S315080005D0032000F021FF0028B5D000F03DFF00F011
S315080005E03CFF1449104B186805F0F8FDABE70120ED
S315080005F000F012FF0028A6D000F02EFF00F02DFF15
S315080006000D49094B186805F0E9FD9CE700F024FF41
S3150800061000F023FF10220949034B186805F0DEFD98
S3150800062091E700BF98D9010890180020B4D90108AD
S31508000630ACD90108BCD90108C0D90108DCD9010820
S3150800064008B58368C26853F822301A88094B1A809D
S31508000650032000F0E1FE00B908BD00F0FDFE00F041
S31508000660FCFE044B1A880449044B186805F0B6FDCD
S31508000670F2E700BFAC10002004DA01089018002049
S3150800068008B5024B18680AF087F808BDD41400208C
S31508000690F0B587B06C4B1B7813F0020F3ED06B4C4D
S315080006A013F0010F3CD0694D13F0040F3AD0674E92
S315080006B0032000F0B1FE002836D1032000F0ACFE7E
S315080006C000283BD1032000F0A7FE002843D10320D1
S315080006D000F0A2FE00284CD1032000F09DFE002861
S315080006E053D1032000F098FE00286BD1032000F0B8
S315080006F093FE002872D1032000F08EFE002879D1DF
S31508000700032000F089FE002840F08280032000F0D4
S3150800071083FE002840F08A8007B0F0BD4C4CBFE746
S315080007204B4DC1E74A4EC3E700F096FE00F095FE32
S315080007304849494B186805F051FDBEE700F08CFEA4
S3150800074000F08BFE454B9A6CDB6C454942480068C5
S3150800075005F044FDB6E700F07FFE00F07EFE3E4B56
S315080007601F6809F041FE02463E49384605F036FD47
S31508000770ADE700F071FE00F070FE3B4B1A783B497E
S31508000780354B186805F02AFDA6E700F065FE00F06F
S3150800079064FE374A53791179D078977892F801C070
S315080007A092F800E0CDF814E0CDF810C00397029057
S315080007B0019100939379D2792E492748006805F06C
S315080007C00DFD8EE700F048FE00F047FE2A4B1A881A
S315080007D02A49214B186805F001FD87E700F03CFE21
S315080007E000F03BFE264B1A8826491B4B186805F075
S315080007F0F5FC80E700F030FE00F02FFE164B1F6870
S315080008000DF0C9FD02462049384605F0E7FC77E7B2
S3150800081000F022FE00F021FE0F4B1F680DF0B9FD17
S3150800082002461A49384605F0D9FC6FE700F014FE6F
S3150800083000F013FE00962B46224615490648006826
S3150800084005F0CCFC68E700BFAE1000202CD90108E3
S3150800085020D9010820DA0108901800200080E00F4E
S3150800086028DA010844DA0108DA35002060DA0108D6
S31508000870FF3500207CDA010894110020A0DA01086F
S3150800088098110020BCDA0108D8DA0108F0DA010864
S3150800089008DB010830B583B08368C26853F8223094
S315080008A01C7801A920460FF077F988B9032000F0D3
S315080008B0B3FD08B903B030BD00F0CEFD00F0CDFDA4
S315080008C0019B22460B490C48006805F087FCF1E7B6
S315080008D00546012000F0A0FD0028EBD000F0BCFD85
S315080008E000F0BBFD2A460549034B186805F076FC5F
S315080008F0E0E700BF40DB0108901800205CDB010838
S3150800090070B58268C36852F823100C78013352F820
S3150800091023301D78294620460EF0A2FE80B9032012
S3150800092000F07AFD00B970BD00F096FD00F095FD67
S315080009302B4622460B490C48006805F04FFCF2E7A7
S315080009400646012000F068FD0028ECD000F084FD82
S3150800095000F083FD32460549034B186805F03EFC56
S31508000960E1E700BF80DB010890180020B0DB010832
S3150800097008B50BF091FB08BD70B582B08368C268F4
S3150800098053F822301B78134A137013F0020F0ED057
S31508000990114C13F0010F0CD00F4D13F0040F0AD0B1
S315080009A00D4E032000F038FD38B902B070BD0B4C6F
S315080009B0EFE70A4DF1E7094EF3E700F04DFD00F0C9
S315080009C04CFD00962B46224605490648006805F068
S315080009D005FCEAE7AE1000202CD9010820D9010849
S315080009E0E0DB01089018002008B506F0ADF808BD50
S315080009F0F0B595B06E496F4808F0CEF8032000F0C0
S31508000A000BFD002840F0A8800BF0F4FA04460320FA
S31508000A1000F002FD002840F0A9800BF03DFB664877
S31508000A200EF0B4FE0446032000F0F6FC002840F061
S31508000A30A8800622002112A819F027FE0023ADF887
S31508000A404A300B23ADF84C3040F2FF13ADF848306E
S31508000A5012AA4FF6FF7104200BF094FF04460320F8
S31508000A6000F0DAFC002840F09780012008F06AFAC6
S31508000A7000240F94109411940DF1140C4F4D0FCDC2
S31508000A80ACE80F000FCDACE80F0095E803008CE842
S31508000A9003000394049403278DF80E7001268DF83D
S31508000AA008608DF809408DF80A408DF80B403146EC
S31508000AB02A2001F023FC02214FF4B06002F0AAF8C4
S31508000AC03F4D22463F49284603F08CF98DF84100F0
S31508000AD08DF83F408DF8177040F6E44308938DF87B
S31508000AE015400090234622463749284603F094F9D4
S31508000AF0079010238DF809308DF8086005AA0FA90C
S31508000B00284603F0AFF902AA03A9284603F00FF90D
S31508000B1005F500532D4A5A62AB6A43F40073AB627B
S31508000B202B4B4FF48022C3F884215A6002F034FB21
S31508000B3005462146304606F07DFC284602F030FB85
S31508000B4002F02AFB04463146022006F073FC2046D2
S31508000B5002F026FB15B0F0BD00F07EFC00F07DFC2F
S31508000B601C491D4B186805F039FB4DE700F074FC6D
S31508000B7000F073FC22461949174B186805F02EFB3E
S31508000B804BE700F069FC00F068FC22461349124B5B
S31508000B90186805F023FB4CE700F05EFC00F05DFCEE
S31508000BA022460E490C4B186805F018FB5DE700BF96
S31508000BB0B50C0008D41400209C1000203CDC010869
S31508000BC000400049002D310140420F008F330F804D
S31508000BD000E100E018DC01089018002024DC010878
S31508000BE030B583B01E4C6D461E49284603F0FAFA06
S31508000BF095E8030084E80300236840F6E44000FB18
S31508000C0003F31948A0FB03201B1A00EB5300C00A84
S31508000C1018F0D8FF154BC3E90001032000F0FCFBD0
S31508000C2090B90F4A1168090E114B19701168090C11
S31508000C3059701168090A99701268DA700D4B4FF4E9
S31508000C4000725A6203B030BD00F006FC00F005FCE5
S31508000C5022680949094B186805F0C0FAE1E700BFA0
S31508000C60D81400200040004901011000E0140020BB
S31508000C70D01400200060004964DC010890180020A8
S31508000C8000B585B000F077FD012802D005B05DF803
S31508000C9004FB01218DF80C10054B1B78019303AB5F
S31508000CA000930B460022104609F0B0FBEEE700BFA2
S31508000CB0AE10002000B583B009F09EFB30B9154B85
S31508000CC01B6800221A7003B05DF804FB124B1988E2
S31508000CD0104B186809F06BFD032000F09DFB70B9F6
S31508000CE00E4B1B7801930E4B00930423002201211F
S31508000CF0104609F08BFB0B4B0122DA60E3E700F0A4
S31508000D00ABFB00F0AAFB0849084B186805F066FA21
S31508000D10E6E700BFD4140020AC100020AE10002077
S31508000D20D01400200040004968DC01089018002013
S31508000D300120704738B50379012B00D038BD054628
S31508000D40032000F069FB08B900240CE000F084FBDE
S31508000D5000F083FB6A881549154B186805F03EFABA
S31508000D60F2E70134E4B2AB79A34210D9032000F0CC
S31508000D7053FB0028F5D000F06FFB00F06EFBAB6864
S31508000D801A5D0C490A4B186805F028FAE9E70320AA
S31508000D9000F042FB0028D1D000F05EFB00F05DFBBE
S31508000DA00549034B186805F019FAC7E770DC01080E
S31508000DB09018002088DC01081CDD010800B970477E
S31508000DC010B50446032000F027FB00B910BD00F05B
S31508000DD043FB00F042FB22460249034B186805F024
S31508000DE0FDF9F3E78CDC01089018002010B582B0F5
S31508000DF0A0F19003062B67D8DFE803F0042A3966CA
S31508000E0066485700032000F007FB58B9032000F096
S31508000E1003FB88B9474B1988474B186809F0C7FC84
S31508000E2002B010BD00F018FB00F017FB4349444B15
S31508000E30186805F0D3F9E9E700F00EFB00F00DFBA2
S31508000E40404B1A8840493E4B186805F0C7F9E1E758
S31508000E50032000F0E1FA0028E2D000F0FDFA00F0E5
S31508000E60FCFA3A49364B186805F0B8F9D8E7012074
S31508000E7000F0D2FA0028D3D000F0EEFA00F0EDFA2E
S31508000E8033492F4B186805F0A9F9C9E7012000F086
S31508000E90C3FA0028C4D000F0DFFA00F0DEFA2D49C4
S31508000EA0274B186805F09AF9BAE7032000F0B4FA58
S31508000EB00028B5D000F0D0FA00F0CFFA2649204B2A
S31508000EC0186805F08BF9ABE70446032000F0A4FA8E
S31508000ED028BB06220021684619F0D7FB0023ADF887
S31508000EE002300B23ADF8043040F2FF13ADF80030A2
S31508000EF06A464FF6FF7104200BF044FD04460320B2
S31508000F0000F08AFA00288BD000F0A6FA00F0A5FABD
S31508000F10224612490A4B186805F060F980E700F086
S31508000F209BFA00F09AFA22460D49054B186805F017
S31508000F3055F9CEE7AC100020D414002098DC01083F
S31508000F409018002094110020A4DC0108CCDC0108CC
S31508000F50DCDC0108FCDC010820DD010824DC0108D2
S31508000F603CDD010808B509F047FA00B108BD02489A
S31508000F7000F03DFDFAE700BF70E9010810B580B141
S31508000F800446012000F048FA00B910BD00F064FAE2
S31508000F9000F063FA22460A490A4B186805F01EF95A
S31508000FA0F3E7032000F038FA0028EED000F054FAF0
S31508000FB000F053FA0449034B186805F00FF9E4E703
S31508000FC054DD0108901800207CDD0108F0B583B0D7
S31508000FD004460D4616461F46032000F01DFA08B9BA
S31508000FE003B0F0BD00F038FA00F037FA0197009622
S31508000FF02B46224602490348006805F0EFF8EFE75A
S3150800100094DD01089018002008B507F00FFA07F0DC
S3150800101019FA06F0B5FAFAE708B5024B1B6803B1E8
S31508001020984708BD1C15002008B5024B5B6803B13C
S31508001030984708BD1C15002008B5024B9B6803B1EC
S31508001040984708BD1C15002008B5024BDB6803B19C
S31508001050984708BD1C15002008B5024B1B6903B14B
S31508001060984708BD1C15002008B5024B5B6903B1FB
S31508001070984708BD1C1500207047704708B507F04B
S315080010804DFF08BD704770477047704770477047F7
S31508001090704770477047704770477047704770478A
S315080010A0704770477047704708B500214FF0FF300A
S315080010B00DF05EFA08BD00207047002070477047A3
S315080010C07047000030B585B0094C2268094B1A6094
S315080010D0094D0A4B2B600A4B019305F023F8029041
S315080010E02B68039301A9206803F0DEFB05B030BD29
S315080010F0CC1000200C22002008220020C01000205E
S3150800110010E9010808B5024B186803F0E1FB08BDB1
S31508001110CC10002038B505F005F80446064D2B68B6
S31508001120D3F8B00204F0F2FF286803F0EBFB204680
S3150800113004F0ECFF38BD00BFCC10002008B5032131
S31508001140802001F067FD03214FF4806001F062FD05
S3150800115009214FF4C06001F05DFD09214FF4F060EC
S3150800116001F058FD09213E2001F054FD09212D20EA
S3150800117001F050FD0921512001F04CFD002008BD69
S3150800118010B5294B5A6E02F4803203F580514FF49C
S3150800119080304866586E4FF000434B66234B596CB7
S315080011A001F001014AF6CD341C64204B5B6B13F049
S315080011B0010FFAD11E4B01245C601C4B1B6B13F00C
S315080011C0010FFAD01B4BD3F8083613F0020F03D1E0
S315080011D0174B4FF48024DC6511B1144B164919647A
S315080011E0002803DB154B4FF0004159661AB9134B1B
S315080011F04FF480325A6604F05BFD00F055F904F0AE
S31508001200D7FC04F071FD04F0FDFC04F03BFDFFF78C
S3150800121095FF04F0E5FC00F03FF905F061FC00F0ED
S31508001220F1FC06F0D5F810BD0080004000400940EA
S315080012300060094000C007403254FFFF00A000408C
S3150800124008B500F061FC00F035F800F0D5F800F0BC
S31508001250DBF808BD08B503F02FFA07F07DFC07F0A8
S315080012608BFC07F0D9FC08BD08B500F0F7F808BDF7
S31508001270704708B5FFF74EFF08BD08B507F0AAFC8A
S3150800128007F0AEFC08BD704708B500F059F808BD70
S3150800129008B500F0FFF806F0EFFC04F029FD05F0AC
S315080012A09DF907F023FF05F0B1FEFFF7EDFFFFF705
S315080012B009FF08BD08B501213A2001F01FF80248C8
S315080012C000F010FB08BD00BFD010002010B59AB082
S315080012D0174C0DF1480CA646BEE80F00ACE80F0007
S315080012E09EE80F008CE80F002C22002107A819F0B1
S315080012F0CCF9104B079301238DF821305722ADF80E
S315080013002220099309230B930A230D930DF10C0C44
S3150800131004F120030FCB8CE80F00074B009307ABB3
S3150800132012AA6146054804F0F3FF1AB010BD00BFC3
S3150800133028E9010800000A40F01700206C18002070
S3150800134008B5FFF7C3FF08BD08B5024B186805F0D6
S31508001350F3F808BD6C18002008B5024B186805F0AC
S31508001360EBF808BD6C18002008B5024B1A6A186815
S31508001370904708BD6C18002001207047012070476F
S3150800138038B5FFF7BFFE044607F06AFC054600B10C
S31508001390254605F093FB044600B12C46FFF7ECFF03
S315080013A000B1204638BD38B506F0BAF90446FFF74D
S315080013B0DBFF042811D0022811D0002505F080FB98
S315080013C004280FD002280FD0FFF7D8FF04280FD023
S315080013D002280BD06DB100240BE00125EEE70025AD
S315080013E00124EBE70125EFE70124EDE70124F1E706
S315080013F00024204638BD000008B5024800F0B4F9BC
S3150800140008BD00BF58E9010808B5024800F0EAFA25
S3150800141008BD00BF70E9010803460B4A107828B1D9
S315080014200A4A12789A4202D2002000E00120084AAD
S3150800143012783AB1074A127842FA03F313F0010F09
S3150800144000D10020704700BFEF100020F0100020E8
S3150800145094180020F11000207047704708B5084B13
S3150800146001221A70074B00221A70074B04221A70C1
S31508001470064B1F221A7004F055FE054B186008BD6E
S31508001480EF10002094180020F0100020F110002022
S31508001490901800200F20704708B501213A2000F067
S315080014A02DFFFFF70DFE08BD08B501213A2000F013
S315080014B025FF08BDFEE7000008B500F013F8064B47
S315080014C0064A03E052F8041B43F8041B04498B42FE
S315080014D0F8D3FEF771FE00BF9C10002044320208C4
S315080014E0B0140020044B054A9A60D3F8882042F4C9
S315080014F07002C3F88820704700ED00E0000000087D
S31508001500014B1868704700BFF810002008B5094B52
S315080015101B6F03F00703022B04D0032B05D0012B06
S3150800152006D0FEE7FFF7ECFF03E0034B186800E080
S31508001530024808BD00800040FC100020002D310143
S3150800154008B5FFF7E3FF054B1B6FC3F303330133FE
S31508001550B0FBF3F0024B186008BD00BF00800040E6
S31508001560F41000200048704700B4C404014B186802
S31508001570704700BFFC10002008B5064B1860064BE4
S315080015801B6F03F00703032B00D008BDFFF7D8FF36
S31508001590FBE700BFFC1000200080004000207047D9
S315080015A000487047002D31014FF094439868C0F306
S315080015B004400C2808D8DFE800F0090707070707E2
S315080015C022181A071C1E2000002070474FF094436B
S315080015D09B6803F04073B3F1807F12D0B3F1007FAC
S315080015E011D003B170470948704709487047094840
S315080015F070470948704709487047094870470948BD
S315080016007047094870470948ECE700BF00093D00E4
S315080016100024F400C0EA210180BA8C010048E801E0
S31508001620005A6202405DC60080841E0040420F00D8
S315080016304FF4004070474FF47A707047014B1868B2
S31508001640704700BF0011002000230360704703683D
S315080016500B600160704700E01846036823B18B42AF
S31508001660FAD10B68036070477047D0B18446C2B19F
S31508001670B9B10020137883B100B501F1FF3E864564
S3150800168006D90CF8013B013201301378002BF4D14E
S3150800169000238CF800305DF804FB00238CF800303A
S315080016A070477047034640B1002001E0013301301E
S315080016B01A781AB18842F9D370470020704708B5DE
S315080016C04FF0FF31FFF7EEFF08BD80B170B50C464D
S315080016D01546064622B119B1FFF7F1FF844200D834
S315080016E070BD2A46211A3044FFF7BFFFF8E7704756
S315080016F0F0B18446F1B110B409E004F120030FE01B
S315080017002030181A18D1BCB10CF1010C01319CF823
S3150800171000400B4BE35C03F00303012BEDD023469B
S315080017200878074A825C02F00302012AE9D1E7E752
S3150800173001207047012070475DF8044B704700BFD1
S31508001740ED2F02080346064A10680344054A9342E9
S3150800175002D8034A136070474FF0FF30704700BF46
S31508001760041100200000012008B543680BB1984712
S3150800177008BD2220FCE708B543690BB1984708BDA8
S31508001780FF20FCE70A681378022B00D1704710B5D2
S3150800179008461379517903EB43031B011433064CAE
S315080017A01B59CB4013F0010F0CBF01230023137004
S315080017B0FFF766FA10BD00BF30C0034030B583B0EE
S315080017C00546046801213A2000F098FD002301220D
S315080017D06179207902F080F92379627903EB430372
S315080017E01B0114330F495B58D34013F0010F0CBF8C
S315080017F0012300232370A379022B02D0002003B013
S3150800180030BD00F081F92A460749607900F0A4F94D
S3150800181002466179207901230193009302F0C8F802
S31508001820ECE700BF30C00340851700080368187846
S315080018307047000002681378022B12D01379517989
S3150800184003EB43031B01143312481B58CB4003F028
S31508001850010003469179012904D011B980F00100ED
S31508001860107070475188490089B20B4343F47F438F
S3150800187043F0C0034FF6E0718B4205D04FF6DF7197
S315080018808B4204D05380704701211170F6E700217E
S315080018901170F7E730C0034008B503681A78022AC2
S315080018A000D008BD00225A80FFF788FFF9E710B577
S315080018B082B004682378022B04D0A379022B03D0C4
S315080018C00223237002B010BD0021607900F034F9BC
S315080018D0617920790023019300930A4602F068F89B
S315080018E0EEE70000F0B585B005460368B3F1964FFC
S315080018F014D03A4A93424BD12F20012100F0FEFC26
S3150800190001230A226979287902F0E6F801230A22D6
S31508001910E979A87902F0E0F800261FE02E20ECE726
S315080019202B796A79012707FA02F22D4C03EB430358
S3150800193004EB031303F501531A60642007F0D8F883
S315080019402B796A79974003EB430304EB031404F5F8
S3150800195082542760642007F0CBF80136082EDFDDB5
S315080019602B68B3F1964F15D02A681C4B9A4222D0A1
S3150800197001238DF800308DF80130EB680293AB68CF
S3150800198001932B7C8DF80C306946286802F060F9C3
S3150800199005B0F0BD124B0322C3F8382569792A79B8
S315080019A042EA0142C3F83C25E979AA7942EA0142AA
S315080019B0C3F84025D8E7A3F530330322C3F84825F2
S315080019C069792A7942EA0142C3F84C25E979AA7964
S315080019D042EA0142C3F85025CAE700BF0080064024
S315080019E000C0034008B543680068984708BD08B5B5
S315080019F0C3680068984708BD10B5044601213A2017
S31508001A0000F07CFCA378B3FA83F35B0904226178BF
S31508001A10207802F061F8002010BD000083784BB9E9
S31508001A20037842780121914003EB43031B01064AE0
S31508001A30D1507047037842780121914003EB430364
S31508001A401B01024AD150704740E0034040D0034092
S31508001A5083784BB9037842780121914003EB43031D
S31508001A601B01064AD15070470378427801219140FC
S31508001A7003EB43031B01024AD150704740D0034091
S31508001A8040E00340037842780121914003EB430389
S31508001A901B01014AD150704740F0034002460378C3
S31508001AA0407803EB43031B01103305495B58C340D9
S31508001AB003F0010093780BB980F00100704700BF6E
S31508001AC030C0034038B5044600E0A847CCB194FAC4
S31508001AD0A4F3B3FA83F00122824024EA0204094AF5
S31508001AE002EB00125568002DF0D0064A02EB0012F0
S31508001AF0127B002AE9D0034A02EB00139968A8472B
S31508001B00E4E738BD9818002008B51A2001F06CFBE8
S31508001B1028B1084B4FF08062C3F880211A601B2059
S31508001B2001F062FB28B1034B4FF00062C3F8802135
S31508001B301A6008BD00E100E038B505460C4601F01C
S31508001B403AFB044B03EB05135C6000221A7301F0A1
S31508001B5038FB38BD98180020F8B505460F461646D6
S31508001B6001F029FB05F0FC0C104BD3F824140023D4
S31508001B70032B0CD8EC1804F0030444EA0C0421FAED
S31508001B8004F212F0010F03D00133DBB2F0E7FF24B1
S31508001B90FF2C06D0064B03EB04135F609E60012200
S31508001BA01A7301F00EFB2046F8BD00BF00C00340C3
S31508001BB09818002008B5084BD3F82404D3F8202435
S31508001BC0104000F0553020F0502003F50053C3F8BC
S31508001BD02004FFF777FF08BD00C0034008B5084B8F
S31508001BE0D3F82404D3F82024104000F0AA3020F0BB
S31508001BF0A02003F50053C3F82004FFF763FF08BDD0
S31508001C0000C0034008B5034B1968034B18680FF06A
S31508001C1005FC08BD0C11002008110020B0F1FF3F9B
S31508001C2001D010B97047024870470248704700BF94
S31508001C3021E000F024E000F08908002301E00430E8
S31508001C4001338B4205D20268B2F1FF3FF7D000207C
S31508001C50704701207047704738B504461BF000FEF0
S31508001C60FFF7DCFF054650B9074B9B680A3303F0BC
S31508001C701F03012199402046FFF7DEFF08B12846D9
S31508001C8038BD024DFBE700BF0080E00F0EE000F014
S31508001C90F8B505460E46940022461BF0E9FDFFF707
S31508001CA0BDFF074608B13846F8BD224631462846E4
S31508001CB018F0B4FC0028F6D0004FF4E710E000F066
S31508001CC008B50346084613F0030F02D111F0030FB7
S31508001CD00AD09200194618F0B1FC002008BD53F846
S31508001CE0041B40F8041B013A002AF8D1F5E7000066
S31508001CF010B582B0044601A802F0EEFA9DF8063047
S31508001D0023800122E2700020A070054B9B680A33ED
S31508001D1003F01F0302FA03F3636002B010BD00BFAD
S31508001D200080E00F08B502F077FA08BD08B502F0A2
S31508001D3063FA002008BD000008B501F02DFA014B32
S31508001D40186008BD2821002008B5024B186801F064
S31508001D5027FA08BD2821002008B50A464118013986
S31508001D6005F0B8F908BD0000024B4FF480321A6737
S31508001D70704700BF0090004038B505460C46FFF78F
S31508001D80C5FB05B128600CB10D23237038BD0000D2
S31508001D9038B505460C46164BD3F8203103F0070331
S31508001DA0013B052B20D8DFE803F0030B130F171BA5
S31508001DB0FFF7A6FB052305B1286004B1237038BDDB
S31508001DC0FFF7D4FB0323F6E7FFF7EEFB0723F2E75B
S31508001DD0FFF7E6FB0223EEE7FFF792FB0623EAE7A7
S31508001DE0FFF7C4FB0423E6E700231846E3E700BF32
S31508001DF00080004038B505460C46114BD3F828310B
S31508001E0003F00703013B032B17D8DFE803F0020EA4
S31508001E10120AFFF775FB052305B1286004B1237084
S31508001E2038BDFFF7C1FB0723F6E7FFF79FFB032340
S31508001E30F2E7FFF7B5FB0223EEE700231846EBE7C8
S31508001E400080004030B583B005460C460023019358
S31508001E50114BD3F8803103F00303022B16D0032B62
S31508001E600FD0012B07D000230DB1019A2A6004B1C7
S31508001E70237003B030BD002101A8FFF789FF0F23A7
S31508001E80F2E7FFF791FB01900723EDE7FFF788FBE1
S31508001E9001900223E8E700BF0080004038B50546F8
S31508001EA00C460C4BD3F8903203F00303012B05D0F4
S31508001EB0022B07D1FFF778FB072305E0FFF770FB36
S31508001EC0022301E00023184605B1286004B12370F7
S31508001ED038BD00BF0080004030B583B005460C46CB
S31508001EE000230193144BD3F8203203F00703013B78
S31508001EF0032B1ED8DFE803F0020E1318002101A8F1
S31508001F00FFF778FF11230DB1019A2A6004B12370F7
S31508001F1003B030BDFFF748FB01900723F3E7FFF74F
S31508001F2087FB01900A23EEE7FFF788FB0190092358
S31508001F30E9E70023E7E700BF0080004038B505461B
S31508001F400C460F4BD3F8403103F00303022B0ED097
S31508001F50032B10D0012B06D00023184605B12860A4
S31508001F6004B1237038BDFFF763FB0A23F6E7FFF7D2
S31508001F7065FB0923F2E7FFF75EFB0B23EEE700BFDD
S31508001F800080004030B583B005460C460023019317
S31508001F904FF0E0231B6913F0040F0ED0FFF7D0FAB9
S31508001FA001900C238DF803300DB1019B2B6014B101
S31508001FB09DF80330237003B030BD0DF1030101A86D
S31508001FC0FFF7BCFFF0E7000030B583B005460C46C6
S31508001FD000230193144BD3F8603203F00703013B47
S31508001FE0032B1FD8DFE803F0020E1914002101A8FD
S31508001FF0FFF7CEFE0F230DB1019A2A6004B12370B4
S3150800200003B030BD002101A8FFF798FF1023F2E7BF
S31508002010FFF7CAFA01900723EDE7FFF7C1FA019027
S315080020200223E8E70023E6E70080004030B583B0E6
S3150800203005460C46002301930C4BD3F8703203F087
S315080020400303012B09D0022B0DD114230DB1019ADC
S315080020502A6004B1237003B030BD002101A8FFF740
S315080020606DFF1023F2E70023F0E700BF0080004071
S3150800207038B505460C46124BD3F8003203F0070371
S31508002080013B032B18D8DFE803F0020A0E12FFF70C
S31508002090CFFA0A2305B1286004B1237038BDFFF7CB
S315080020A0CDFA0923F6E7FFF7C6FA0B23F2E7FFF79F
S315080020B047FA800A0E23EDE700231846EAE700BF31
S315080020C00080004038B505460C46124BD3F8083256
S315080020D003F00703013B032B18D8DFE803F0020AD5
S315080020E00E12FFF7A5FA0A2305B1286004B123707A
S315080020F038BDFFF7A3FA0923F6E7FFF79CFA0B2387
S31508002100F2E7FFF71DFA800A0E23EDE700231846CB
S31508002110EAE700BF0080004038B505460C460F4B7D
S31508002120D3F8403203F00303022B0ED0032B10D052
S31508002130012B06D00023184605B1286004B1237088
S3150800214038BDFFF775FA0A23F6E7FFF777FA09238A
S31508002150F2E7FFF770FA0B23EEE700BF00800040B6
S3150800216038B505460C460F4BD3F8503203F0030337
S31508002170022B12D0032B08D0012B0AD000231846B5
S3150800218005B1286004B1237038BDFFF754FA0B2354
S31508002190F6E7FFF74DFA0A23F2E7FFF74FFA0923A6
S315080021A0EEE700BF0080004038B505460C460F4BE9
S315080021B0D3F8603103F00303022B0ED0032B10D0A3
S315080021C0012B06D00023184605B1286004B12370F8
S315080021D038BDFFF72DFA0A23F6E7FFF72FFA09238A
S315080021E0F2E7FFF728FA0B23EEE700BF008000406E
S315080021F038B505460C46104BD3F8000100F003002D
S31508002200032815D8DFE800F002080C10012305B1F1
S31508002210286004B1237038BDFFF7A8F90323F6E751
S31508002220FFF70CFA0923F2E7FFF7B8F90823EEE7F8
S3150800223000231846EBE700BF00800040B0F5207F7A
S3150800224020D00ED8B0F5007F16D020D810B1B0F542
S31508002250C07F04D10F4B186FC0F3033018E000207D
S3150800226016E0B0F5607F05D10A4BD3F88000C0F3BD
S3150800227001100DE000200BE0064BD3F89000C0F3E8
S31508002280046005E0034B186FC0F3802000E00020CF
S31508002290013070470080004038B505460C46104BA3
S315080022A04FF480329A660020FFF7C8FF05FB00F05E
S315080022B00C4BDA6902F4803241F67131D9635B68F6
S315080022C023F440130849884201D9002C05DD054945
S315080022D04B600AB10022CA6338BD43F48013F6E79F
S315080022E00090004000000340005A620208B5FFF75C
S315080022F039F90021FFF7D0FF08BD0000430905D0D2
S31508002300012B0ED0022B0ED0002200E0002200F096
S315080023101F0051B102F58052012303FA00F0106044
S315080023207047034AF3E7034AF1E702F50052F3E779
S31508002330648000406880004010B582B00023019395
S315080023400093B0F5807F00F20781B0F5807F00F238
S315080023507581DFE810F04C01730173017301730195
S3150800236073017301730173017301730173017301BF
S3150800237073017301730173017301730173017301AF
S31508002380730173017301730173017301730173019F
S315080023907301730173014C0185014C0185019D018F
S315080023A09D019D019D019D018501A2013D01AC0193
S315080023B023013D01850185018501730173017301BF
S315080023C07301730173017301AC01850185018501F0
S315080023D0C001B101850173017301730173017301B2
S315080023E07301730173017301730173017301B601FC
S315080023F09D014C014C014C016D013D013D016201FD
S31508002400BB0156017C017C017301730173017301E1
S31508002410730173017301730173017301730173010E
S3150800242073017301730173017301730173017301FE
S3150800243073017301730173017301730173017301EE
S3150800244073017301730173017301730173017301DE
S3150800245073017301730181017301730173017301C0
S3150800246073017301730173017301730173017301BE
S3150800247073017301730173017301730173017301AE
S31508002480730173017301730173017301730173019E
S31508002490730173017301730173017301730173018E
S315080024A0730173017301730173017301730173017E
S315080024B0730173017301730173017301730173016E
S315080024C0730173017301730173017301730173015E
S315080024D0730173017301730173017301730173014E
S315080024E0730173017301730173017301730173013E
S315080024F0730173017301730173017301730173012E
S31508002500730173017301730173017301730173011D
S31508002510730173017301730173017301730173010D
S3150800252073017301730173017301730173017301FD
S3150800253073017301730173017301730173017301ED
S3150800254073017301730173017301730173017301DD
S31508002550730173017301A701B0F5E06F00F0AC8059
S315080025600CD9B0F5286F00F0B1804FD9B0F5306FAF
S3150800257063D1002101A8FFF791FC5FE0B0F5607F09
S3150800258079D010D9B0F5B06F00F0878033D9B0F59F
S31508002590C06F00F08C80B0F5D06F4FD1002101A834
S315080025A0FFF766FD4AE0B0F5007F0AD1FEF7AEFFF9
S315080025B004464FF40070FFF741FEB4FBF0F40194B3
S315080025C03CE011D9B0F5207F4AD0B0F5407F35D12F
S315080025D0FEF7B6FF04464FF42070FFF72FFEB4FB54
S315080025E0F0F46408019429E0B0F5C07F26D1FEF71F
S315080025F0A7FF019022E0B0F5806F49D0B0F5A06F33
S315080026001CD1002101A8FFF767FC17E0B0F5186F89
S3150800261057D007D9B0F5206F10D1002101A8FFF7D0
S31508002620D3FC0BE0B0F5F06F55D0B0F5106F05D1BF
S31508002630002101A8FFF746FD00E002D2019802B08A
S3150800264010BDB0F5386F32D0B0F5406FF6D1002125
S3150800265001A8FFF7CFFBF1E7FEF758FF0190EDE77A
S31508002660FEF76EFF04464FF42070FFF7E7FDB4FB54
S31508002670F0F40194E2E700216846FFF77DFB009C31
S315080026804FF46070FFF7DAFDB4FBF0F40194D5E778
S31508002690002101A8FFF77CFBD0E7002101A8FFF77E
S315080026A0D1FBCBE7002101A8FFF76CFCC6E70021A8
S315080026B001A8FFF743FCC1E7002101A8FFF72CFD9D
S315080026C0BCE7002101A8FFF74BFDB7E7002101A8E9
S315080026D0FFF7ACFCB2E7002101A8FFF765FDADE7FF
S315080026E008B58020FFF728FE034B984203D8034B12
S315080026F04FF480321A6708BD005A620200A00040F3
S3150800270000B583B000238DF80730B0F5807F00F060
S31508002710BE8013D9B0F5086F00F0C58046D9B0F56C
S31508002720286F00F0D88070D9B0F5306F40F08280FD
S315080027300DF107010020FFF7B1FB7CE080287AD86D
S31508002740242878D324385C2875D8DFE800F04F4F62
S315080027504F4F4F744674A6587474747474747474B2
S31508002760747474A67474743AB874747474747474DF
S31508002770747474747474BE4F7474746D747464C4AD
S31508002780B27F7F74747474747474747474747474A7
S3150800279074747474747474747474747474747474EB
S315080027A0747474747474747474748500B0F5C06F3A
S315080027B073D00CD9B0F5E06F00F08180B0F5F06FFA
S315080027C01AD10DF107010020FFF7EEFC33E0B0F552
S315080027D0A06F6ED0B0F5B06F05D10DF107010020DE
S315080027E0FFF730FB27E0B0F5806F24D10DF1070124
S315080027F00020FFF7CDFA1EE0B0F5D06F1BD10DF122
S3150800280007010020FFF734FC15E0B0F5186F5CD01F
S31508002810B0F5206F05D10DF107010020FFF7D4FBB5
S3150800282009E0B0F5106F06D10DF107010020FFF79A
S3150800283049FC00E004D29DF8070003B05DF804FBEC
S31508002840B0F5386F29D0B0F5406FF4D10DF1070116
S315080028500020FFF7CFFAEEE7224B1B6F03F00703C2
S31508002860013B032BE7D8DFE803F00E02060A05232F
S315080028708DF80730DFE703238DF80730DBE70823F9
S315080028808DF80730D7E702238DF80730D3E70DF127
S3150800289007010020FFF776FBCDE70DF107010020C1
S315080028A0FFF74CFBC7E70DF107010020FFF7A0FC77
S315080028B0C1E70DF107010020FFF70EFBBBE70DF19D
S315080028C007010020FFF728FCB5E70DF107010020F6
S315080028D0FFF746FCAFE70DF107010020FFF7A6FB5F
S315080028E0A9E700BF0080004070B505468020FFF7C5
S315080028F007FF032800F0A180584B4FF480125A6650
S31508002900574B45F60E02C3F8802003F580524FF068
S31508002910A061916203F500534FF480329A62504BDE
S315080029209C6D14F48034FAD12A786B781B0543EA37
S315080029300263EA7843EA02432A7943EA02336A7968
S3150800294043EA8213AA791343454E3361B36903F008
S315080029500043EA7943EA82632A7A43EA02636A7A97
S3150800296043EA0243AA7A43EA0223EA7A1343B361A3
S3150800297000F012FCB26B82F4006303F44063534028
S31508002980B36300F00DFC336A23F00F036A7B02B1D0
S31508002990082423432C7B43EA84031343304A1362F7
S315080029A06B7B002B30D1916A2E4B0B40A97B43EAF7
S315080029B04113E97B43EA0113A97C43EAC10343F4C3
S315080029C080339362264B9A6D274B9343FAD1244A58
S315080029D002F580514FF080738B62136923F47003FC
S315080029E0A87843EA005313614FF000438B612B7CB0
S315080029F01BB91E4B4FF080729A626B7CBBB91B4B9E
S31508002A004FF480329A6212E0022B17D0144A916A68
S31508002A10144B0B40A97B43EA4113297C43EA016323
S31508002A20A97C43EAC103697C43EA01439362EB7CD0
S31508002A301BB10B4B0E4AC3F8802070BD084C00230F
S31508002A402361A36100F0A8FB626B82F4085303F4C8
S31508002A507F435340636300F0A3FBD7E70090004031
S31508002A600040004AC7FFFEFE030001000060004A5E
S31508002A70F1A7FFFF014B93F9000070472C110020C6
S31508002A8010B443784F2B28BF4F231A461C4B4FF4DC
S31508002A900001596603F5B8334FF4D151596203F56D
S31508002AA0805102244C6003F5005301215960154BEF
S31508002AB01B6913F4803FFAD1037842EA0323114ACB
S31508002AC053618178C3781B0143EA0123017943EAFC
S31508002AD0410341790B4393608179C3791B0143EA2A
S31508002AE04113017A43EA4103417A0B435360837ADF
S31508002AF01BB113466FF4D1525A625DF8044B704706
S31508002B000090004000000240014B1880704700BF4B
S31508002B102E11002008B5002903DD0121FFF7BCFBB3
S31508002B2008BD0021FFF7B8FBFAE70000B0F5207FE3
S31508002B304AD02FD8B0F5007F3BD04ED810B1B0F5AB
S31508002B40C07F26D110B54C1EFFF7D0FB00F048F821
S31508002B50FFF70AF9214B196F21F4704141EA043154
S31508002B601967FEF7EDFC4FF04023D3F8843013F0D5
S31508002B70100FF8D14FF04023D3F88410C1F3811118
S31508002B80C1F10201FFF7C6FF00F032F8FFF7A8FD12
S31508002B9010BD7047B0F5607F0AD101390F4AD2F8E7
S31508002BA0803023F0300343EA0111C2F880107047E1
S31508002BB070470139094AD2F8903023F0F85343EAAE
S31508002BC00161C2F8901070470139044A136F23F463
S31508002BD0806343EA8121116770477047008000408F
S31508002BE008B502214FF42070FFF7A0FF08BD0000CA
S31508002BF008B54FF4C070FFF79FFB054B984205D9FF
S31508002C0002214FF42070FFF791FF08BD0121F8E774
S31508002C1080F0FA0270B50C46B0F5807F00F094811A
S31508002C201FD9B0F5086F00F0108240F28380B0F526
S31508002C30286F00F0998240F2D180B0F5306F40F0ED
S31508002C40F880022900F0A282072940F0A182022119
S31508002C50874AD2F8903223F003030B43C2F8903226
S31508002C60E8E0802800F2E6802428C0F0E3802438D3
S31508002C705C2800F2DF80DFE810F0990099009900DF
S31508002C8099009900DD008300DD00A801A500DD009C
S31508002C90DD00DD00DD00DD00DD00DD00DD00DD003E
S31508002CA0DD00DD00A801DD00DD00DD0069002D0284
S31508002CB0DD00DD00DD00DD00DD00DD00DD00DD001E
S31508002CC0DD00DD00DD00DD00DD0043029900DD00EA
S31508002CD0DD00DD00D000DD00DD00B8007702FE0172
S31508002CE0E500E500DD00DD00DD00DD00DD00DD00DE
S31508002CF0DD00DD00DD00DD00DD00DD00DD00DD00DE
S31508002D00DD00DD00DD00DD00DD00DD00DD00DD00CD
S31508002D10DD00DD00DD00DD00DD00DD00DD00DD00BD
S31508002D20DD00DD00DD00DD00DD00DD00DD00DD00AD
S31508002D30DD00F100B0F5C06F00F0478119D9B0F594
S31508002D40E06F00F0C781B0F5F06F38D10A2C00F0BB
S31508002D5054810B2C00F05381092C00F04C81002182
S31508002D60434AD2F8603123F003030B43C2F86031BB
S31508002D7060E0B0F5A06F00F07E81B0F5B06F12D1BB
S31508002D80072C00F0C7800F2C00F0C680022C00F03C
S31508002D90BF800021364AD2F8803123F003030B4363
S31508002DA0C2F8803146E0B0F5806F43D1023C052C6D
S31508002DB000F2B480DFE804F0B8B4BCBEBAB6B0F529
S31508002DC0D06F37D1093C052C00F21B81DFE814F0DF
S31508002DD0230129012501190119012701B0F5186FE9
S31508002DE000F08E81B0F5206F14D1023C0E2C00F253
S31508002DF09D81DFE814F0B7019B019B019B019B01B4
S31508002E00B1019B019B019B019B019B019B019B01BE
S31508002E10B301B501B0F5106F0CD1093C052C00F2D1
S31508002E200281DFE814F00A0110010C01000100011B
S31508002E300E0100D270BDB0F5386F00F0C680B0F54F
S31508002E40406FF7D1023C052C00F23281DFE814F01E
S31508002E503C013E013001400130013A018B1E062B30
S31508002E6008D8DFE803F04F3D075207074C0000BFBC
S31508002E700080004000252E460121022000F008FAB5
S31508002E80FFF734FAFFF7ACFEFEF76EFFAC4A136F96
S31508002E9023F0070333431367FEF752FB4FF0402333
S31508002EA0D3F8843013F0100FF8D14FF04023D3F83D
S31508002EB08410C1F38111C1F10201FFF72BFE012134
S31508002EC0002000F02FFAFFF793FEFFF709FC002D0C
S31508002ED0B0D1032CAED19B4B4FF480329A62A9E74E
S31508002EE0994B4FF480125A66984B9D6AC5F3006554
S31508002EF003F580534FF480329A620326BCE7002517
S31508002F000426B9E700250126B6E700250226B3E719
S31508002F1002213FE703213DE701213BE700210AE0C3
S31508002F20022108E0042106E0032104E0052102E06D
S31508002F30062100E00121824AD2F8203123F0070356
S31508002F400B43C2F8203175E70C2924D01FD8A1F10C
S31508002F500904E4B2022C3FF66DAF794B596E03F5BE
S31508002F6080534FF480325A66794A536A43F0010314
S31508002F70536211F4803F03D1764B4FF480325A6680
S31508002F804FF0E022136923F00403136152E7102976
S31508002F907FF450AFE1E76A4B596E03F580534FF45F
S31508002FA080325A666A4A536A23F00103536211F45F
S31508002FB0803F03D1674B4FF480325A664FF0E022C8
S31508002FC0136943F00403136134E70A2C0FD00B2C62
S31508002FD00FD0092C09D00021594AD2F8403123F0E4
S31508002FE003030B43C2F8403124E70221F4E7012129
S31508002FF0F2E70321F0E70221B2E60121B0E6032158
S31508003000AEE600214E4AD2F8003223F007030B43FE
S31508003010C2F800320EE70221F4E70321F2E70421A1
S31508003020F0E70121EEE70021454AD2F8083223F0FD
S3150800303007030B43C2F80832FCE60221F4E7032132
S31508003040F2E70421F0E70121EEE708290FD0092964
S315080030500FD0032909D00021394AD2F8003123F0CC
S3150800306003030B43C2F80031E4E60121F4E7032128
S31508003070F2E70221F0E7073C0A2C07D8DFE804F05C
S3150800308010061412060606060606160000212C4A25
S31508003090D2F8203223F007030B43C2F82032C9E6E0
S315080030A00221F4E70321F2E70421F0E70121EEE724
S315080030B00021234AD2F8283123F007030B43C2F82C
S315080030C02831B7E60421F4E70321F2E70221F0E705
S315080030D00121EEE70A2C0FD00B2C0FD0092C09D0B2
S315080030E00021174AD2F8403223F003030B43C2F8F3
S315080030F040329FE60221F4E70121F2E70321F0E7D7
S315080031000A2C0FD00B2C0FD0092C09D000210C4A01
S31508003110D2F8503223F003030B43C2F8503289E643
S315080031200221F4E70121F2E70321F0E70021044A2E
S31508003130D2F8603223F007030B43C2F8603279E60F
S31508003140008000400060004A009000400040004AAD
S3150800315000C0074000A000400421E8E70121E6E797
S315080031600221E4E70321E2E7102C0BD0142C0BD143
S315080031700221084AD2F8703223F003030B43C2F83F
S31508003180703257E60121F4E70021F2E701215FE5F5
S3150800319000215DE500800040EFF3108072B67047AD
S315080031A000B962B67047302383F31188704700234D
S315080031B083F311887047EFF31180302383F3118866
S315080031C0704780F311887047EFF3108313F0010FEF
S315080031D005D1EFF311832F2B03D800207047012068
S315080031E070470120704700004209064B53F8223009
S315080031F000F01F0023FA00F080F0010000F0010043
S31508003200704700BF00E100E04FF04022536F23F4FF
S315080032104073417843EA0123536770477047704704
S3150800322010B50446094A136943F00403136104F010
S3150800323071FBFFF7F3FF30BFFFF7F1FF04F080FBE8
S3150800324004B110BDFEF77CF9FBE700BF00ED00E016
S3150800325010B50446074A136943F00403136104F0E2
S3150800326059FB30BF04F06CFB04B110BDFEF768F9DA
S31508003270FBE700BF00ED00E0704770474FF04022C3
S31508003280D36E23F0300301790B43D366704770473A
S31508003290F8B504464FF04023D3F8843013F0100FE6
S315080032A0F8D14FF04023D3F88430C3F381139C42FE
S315080032B031D0FEF72BF90646012C12D0FFF76CFF2A
S315080032C005464FF0402707F500534FF000725A663F
S315080032D02046FFF7DCFF621E4FF4806393403B678E
S315080032E007E00121FFF716FCE8E74FF04023D3F883
S315080032F084304FF040235B6E13F0007F06D14FF009
S315080033004023D3F8843013F0200FEED02846FFF779
S3150800331047FF022C00D0F8BD00213046FFF7FAFB24
S31508003320F9E7000010B50C46034650B1094A127871
S3150800333012B1094A934208D921460220FFF7A8FF8D
S3150800334010BDFEF7E3F80346F0E721460120FFF734
S315080033509FFFF5E7DC210020005A620208B50278D3
S31508003360034B1A7001210020FFF7DCFF08BD00BFE0
S31508003370DC2100201B4B4FF000425A6603F50B2355
S315080033805A6C02F001024AF6CD31196490B9164B0F
S315080033905B6B13F0010FFAD1134B5B6813F0010F47
S315080033A01BD0124B012159600F4B1B6B13F0010FF9
S315080033B0FAD012E00C4B1B6B13F0080FFAD10A4B2C
S315080033C003F500512020886203F5805301215960D6
S315080033D0054B9B6A13F0200FFAD012B1024B044A30
S315080033E01A64704700900040004009400060094098
S315080033F03254FFFF10B5194B4FF000425A6603F5D9
S315080034000B235C6C04F001044AF6CD321A64437847
S315080034105B0043F001034FF04022D363104B5B6B14
S3150800342013F00B0FFAD10E4A536823F4F873817818
S3150800343043EA01135360C178437943EA0123936051
S315080034400179837943EA012313610078FFF792FF34
S3150800345014B1034B034A1A64012010BD00900040C2
S31508003460004009403254FFFF10B40F2800D90F203E
S31508003470124B5C6E03F580534FF000425A6603F513
S315080034800B235A6C02F001024AF6CD3119640C4B33
S315080034905B6B13F0800FFAD109490B6A23F00F030F
S315080034A0184308620AB1074A0A64002C03DB064B74
S315080034B04FF000425A665DF8044B704700800040A2
S315080034C0004009403254FFFF00A0004010B4134BDF
S315080034D05C6E03F580534FF000425A6603F50B23E2
S315080034E05A6C02F001024AF6CD3119640C4B5B6B3B
S315080034F013F0800FFAD10A490B6A23F4F85343EA0A
S31508003500002008620AB1074A0A64002C03DB064B4E
S315080035104FF000425A665DF8044B70470080004041
S31508003520004009403254FFFF00A00040084B984273
S315080035300AD0084B984209D003F58043984201D037
S31508003540002070475820704756207047572070470C
S315080035500000014B00000A40436813F0010F19D020
S31508003560836813F0010F03D0036913F0010F09D024
S315080035700A238363436D13F0500FFBD1836C13F05A
S31508003580030FFBD100F5005301225A60436813F07C
S31508003590020FFBD1042307E000F5805304221A61C9
S315080035A000F500531A610B46591E002BF4D120234F
S315080035B003610023C360836041F2020242618361B2
S315080035C04FF4A0224262C36103628362C36243630B
S315080035D0036500F500520249D1640363704700BFD2
S315080035E0FF3F0D030A46F1B100F5805301215960EA
S315080035F002F00F01436DC3F30B03002BFAD181636D
S31508003600436D13F07803FBD112F0010F00D00123AC
S3150800361012F0040F01D043F00203826C02F0030299
S315080036209A42FAD17047436813F0010FFAD08368BB
S3150800363013F0010F03D0036913F0010F09D00A2311
S315080036408363436D13F0500FFBD1836C13F0030FA4
S31508003650FBD100F5005301225A60436813F0020FAC
S31508003660FBD17047836C13F0800FFBD0C06BC0B2E0
S315080036707047836C13F0400FFBD04164704700001D
S3150800368038B5044615460846E1B1A36813F0010F9C
S315080036904ED06268B0FBF5F0013812F001023BD05B
S315080036A0636D13F0280FFBD1A36C13F0030F0FD132
S315080036B0A36C13F0010F2BD1A36C13F0020F29D1C1
S315080036C0002106E02046FFF731FFFEF735FEDCE76E
S315080036D00521636813F0010F1FD0A36813F0010FCB
S315080036E003D0236913F0010F09D00A23A363636D7E
S315080036F013F0500FFBD1A36C13F0030FFBD104F5A5
S31508003700005301255D60636813F0020FFBD104E0E6
S315080037100921DEE70621DCE70021236923F07F4340
S3150800372043EA006020610AB32046FFF75BFF1DE00D
S315080037306368A36803F0E003402B1DD017D9602BFC
S315080037401ED0802B12D10123400105FB03F3B0FBE9
S31508003750F3F020380B4B03EAC000636D13F0010F3A
S31508003760FBD12063636D13F0010FFBD138BD2BB17C
S31508003770202BFBD10823E7E70623E5E71023E3E739
S315080037800423E1E7F8FF7F0070B504460D461646A8
S31508003790436823B1636DC3F30B03002BFAD12046AC
S315080037A0FFF7DAFE636923F44C5323F00F036A7BB1
S315080037B01343EA8913432A8A13436361A36823F0F0
S315080037C0804323F0E2032A7B13432A7E13436A6964
S315080037D01343A360AB681BB9A36843F00043A36017
S315080037E0EA69002A74D0A368127A43EA8253A3606E
S315080037F0A368EA69927A43EA4243A360A368EA693E
S31508003800928802F4C0421343A360A368EA69527817
S3150800381043EA8203A360A368EA69527B43EAC203C8
S31508003820A360A368EA69927B43EA0213A360A368CC
S31508003830EA69927843EA8223A360EA699179D3799F
S315080038405B0243EA8123E360EB691B78012B01D015
S31508003850032B03D1E36843F00403E360EB691B78A9
S31508003860023BDBB2012B4DD9474B9C4267D0474BF5
S315080038709C4266D003F580439C425ED04FF0FF33EE
S3150800388003F593735B0103F1804303F5703302225A
S315080038905A60EB695A7A04F580539A62EB695B7A47
S315080038A01BB1E36843F40063E360EB69DB7A7BB141
S315080038B0E36843F40043E360334B9C4243D0EB692F
S315080038C01B7B03F00F03324A1367324B9C4241D0ED
S315080038D03EB196F82030002B42D004F580530122E1
S315080038E01A6205212046FFF77DFEAA68002A46D1FE
S315080038F029782046FFF776FEA36CDB4313F4405F76
S31508003900FAD170BD204B9C4213D0204B9C4212D05A
S3150800391003F580439C420AD04FF0FF33A6335B0180
S3150800392003F1804303F5703302225A60B1E702239C
S31508003930F4E70023F2E70123F0E70223A0E70023D8
S315080039409EE701239CE7EB691B7B03F00F03104AF4
S315080039505366B4E7EB691B7B03F00F03D367B7E73E
S31508003960E36923F0090396F82220134396F82120E9
S31508003970134343F0010304F58052D361B1E7696844
S315080039802046FFF77DFEB3E70000014B00000A4022
S315080039900090034000400A4008B500231A46FFF786
S315080039A0F3FE08BD08B500231A46FFF7EDFE08BD6D
S315080039B02DE9F84F0C4615461E469DF828809DF8B9
S315080039C02C70072A44D84FEA8209032303FA09FA16
S315080039D000FA09F9FFF7E0FB384AD2F8001489EA39
S315080039E0010303EA0A034B40C2F80034FFF7D8FB89
S315080039F04FF0000A072D43D8A9004FF0030909FA2A
S31508003A0001F904F003048C40FFF7C6FB2B4BD3F8EF
S31508003A100824544004EA09045440C3F80844FFF74C
S31508003A20BFFB002E44D0264A0123AB401360B8F1F1
S31508003A30000F3FD0234A1360012202FA05F5224AF5
S31508003A40C2F82054C7B3A2F6DC321360BDE8F88F7B
S31508003A50A2F1080A4FEA8A09032303FA09FB00FAC6
S31508003A6009F9FFF799FB154AD2F8041489EA010304
S31508003A7003EA0B034B40C2F80434FFF791FBB9E79E
S31508003A804FEA8A0A4FF0030909FA0AF904F003040F
S31508003A9004FA0AF4FFF780FB084BD3F80C245440C9
S31508003AA004EA09045440C3F80C44FFF779FBB8E765
S31508003AB0064AB9E7064ABEE7064AC6E700C0034013
S31508003AC010D4034014D4034000E0034010E403403C
S31508003AD014E4034024E403402DE9F84F04460E4657
S31508003AE01F4690463AB183B301228A4000EB400153
S31508003AF009012C4B5A50072E2FD804EB44094FEADC
S31508003B00091909F10409DFF8A4A0B3000F2505FA7D
S31508003B1003FB08FA03F5FFF73FFB59F80A305D4047
S31508003B2005EA0B055D4049F80A50FFF739FBB8F17D
S31508003B30000F08D16FB3012101FA06F604EB44041D
S31508003B402401184B1E51BDE8F88F01228A4000EB6C
S31508003B5040010901144B5A50CDE704EB44052D01E9
S31508003B600C35DFF84890A6F108039B000F2202FAED
S31508003B7003FA08FA03FBFFF70FFB55F809308BEA3F
S31508003B80030202EA0A025A4045F80920FFF708FB31
S31508003B90CDE7012101FA06F604EB44042401024BA1
S31508003BA01E51D0E740D0034040E0034030C00340F8
S31508003BB002B970472DE9F04105460C46174603F051
S31508003BC00308836823F4407383604FEA0826FFF7E7
S31508003BD0E3FAAB685E4006F440765E40AE60FFF7F7
S31508003BE0DFFA2CB9B5F1964F19D0124B9D421BD06E
S31508003BF0AB68114B13F8083003FB07F26AB1A4EB64
S31508003C00C7031344013BB3FBF2F3013BAA6812F066
S31508003C10020F01D003B90123AB61BDE8F0812E2064
S31508003C20FEF78AFB0446E3E72F20FEF785FB0446EA
S31508003C30DEE700BF00800640ACE90108043021B188
S31508003C4000F5805001230360704700F50050F9E73E
S31508003C5038B504460D460023036400F500530C4AA4
S31508003C60DA6300F108034A7872B903F58053022231
S31508003C701A602B7BAA6869682046FFF799FF29789E
S31508003C802046FFF7DBFF38BD03F50053EFE700BF1B
S31508003C90FFFF1F00436913F0807FFBD100F500503A
S31508003CA001234360024B5B6813F0020FFAD1704799
S31508003CB00040004900F58050012343607047022AFE
S31508003CC009D9033AD2B2022A04D821F0FF030360C5
S31508003CD001717047704721F07F4311F4000201D04B
S31508003CE04FF07F4213430360090E0171704770B5A8
S31508003CF005460C46466806F00106FFF7DBFF237803
S31508003D00627843EA0223A278120402F4803213434B
S31508003D10E27832B14FF400321343C5F8983016B141
S31508003D2070BD0022F8E72846FFF7B4FFF8E770B53C
S31508003D3005460C461646FFF7ADFF237803F0070342
S31508003D4062786AB308221343A278120102F070025D
S31508003D501343E27832B34FF4807213432B67EB6A4E
S31508003D6023F48B3323F480732279120202F4E0627F
S31508003D7013436279120302F480521343A2799AB16B
S31508003D804FF480321343EB6231462846FFF7AFFF04
S31508003D902846FFF78FFFE3790BB10123EB6070BD6F
S31508003DA00022D0E70022D8E70022EBE708B50B4649
S31508003DB069B103F5742303F23F230948A0FB0330D6
S31508003DC0800C01387F2828BF7F20C0B208BD2A2072
S31508003DD0FEF7B2FA03460028EBD10123E9E700BF54
S31508003DE083DE1B4310B50B4C8C4228BF0C4610468D
S31508003DF05AB12044431EB3FBF4F0A34200D3013862
S31508003E00032800D90320C0B210BD2A20FEF794FA71
S31508003E10EFE700BF005A620210B5BBB90F4C8C42DF
S31508003E2000D30C46A2B19DF808000130B2FBF0F2AF
S31508003E302244013AB2FBF4F0A24200D3013840F220
S31508003E40FF33984228BF1846C0B210BD044CE6E7B7
S31508003E502A20FEF771FA0246E5E700BF8096980029
S31508003E60404B4C002DE9F04383B005460C461646F8
S31508003E700022D049FFF7B6FF94F80580404500D9DF
S31508003E8080462846FFF706FF207910B3E3781B0122
S31508003E9003F03003000400F4FE0003434FEA0872FF
S31508003EA002F0E042134322780AB143F00203627833
S31508003EB00AB143F00403A2780AB143F00803AB60E1
S31508003EC0E3882B612289638943EA02432B62002433
S31508003ED0C7E000212846FFF769FFD7E7B649D4E0CF
S31508003EE0B64BD3F88031002F40F0B48005EB0413AD
S31508003EF09B6CC3F302335A1E012A23D9032B00F005
S31508003F001781042B00F02081AC4AD2F884311B0CAF
S31508003F10D2F88C21121402EB420207EE102AB8EEF0
S31508003F20C77A15E0A54BD3F88031DCE7A34BD3F865
S31508003F308431D8E7A14BD3F88431D4E79F4BD3F823
S31508003F408031D0E79D4BD3F880319BB29FED9C7AA8
S31508003F5023F4C042920413F4004F40F0028105EBAB
S31508003F6004118F6CC7F38207791C01278F40022F33
S31508003F7000F0FA80DFF844C2DCF8901109B207EEC7
S31508003F80901AF8EEE77A37EEC77A07EE907AF8EEE7
S31508003F90E76AF6EE007A66EEA76A87EE266ADCF826
S31508003FA0881109B207EE901AF8EEE77A37EE867AA4
S31508003FB004EB840106EB8101D1ED037AF8EE677A0A
S31508003FC09FED806AC7EE866AB7EE046AC6EE267A61
S31508003FD067EE877AB1EE007A67EE877A07EE107A8F
S31508003FE0B8EEC77A9FED786AC6EE076A9FED777ACC
S31508003FF026EE877A77EE877AB2F1004F0FD007EE72
S31508004000103AB8EEC77ADFED726A27EE267ADFED48
S31508004010716A77EEA67A67EE277A77EEE67AF5EE94
S31508004020C07AF1EE10FA40F3AA80F1EE677AB6EE9E
S31508004030007A77EEC77AFDEEE77A17EE903AB3F58F
S31508004040003FC0F2A5806FEA52426FEA4242631D02
S315080040501B01EA50C0F30900631D05EB0313586002
S3150800406001345D4B9D4200F09D8000239C4280F008
S315080040709B8004EB840306EB830216F82370D2F8C0
S315080040800890002F7FF42AAF5449CDF800803B46AC
S3150800409000222846FFF7C0FE5FFA89F9484538BF6F
S315080040A0484605EB0412936C4D49194007F0030383
S315080040B00B4304EB840106EB810191F801C04FEA3A
S315080040C08C0C0CF01C0C43EA0C0391F802C04FEA66
S315080040D00C3C0CF4E04C43EA0C0391F803C04FEA9D
S315080040E00C4C0CF4E02C43EA0C0391F810C04FEA90
S315080040F04C5C0CF4600C43EA0C030979090701F0DF
S3150800410040510B439364936CC3F30233013B042B76
S315080041103FF614AF01A252F823F000BFE13E0008B3
S31508004120E13E0008253F00082D3F0008353F0008FE
S31508004130224AD2F880311B0CD2F88C21121407EED1
S31508004140102AB8EEC77A03E71C4AD2F884319BB224
S31508004150D2F88C211214520007EE102AB8EEC77A4C
S31508004160F6E642F00042FAE61449D1F88C1109B293
S3150800417007EE901AF8EEE77A37EE877A18E7B6EE82
S31508004180007A77EE677AFDEEE77A17EE903A56E709
S3150800419013F5003F02DA42F4003258E7C3F311037D
S315080041A01A4354E7022361E72846FFF783FD03B065
S315080041B0BDE8F083005A6202404B4C000080E00FD5
S315080041C00000000000007A440000804300002044FC
S315080041D00000003800000049004000498096980019
S315080041E0E08F18CF10B504460A6F496F02F0070230
S315080041F0FFF765FD204610BD064B4FF480329A66E0
S3150800420003F51C3341F67132DA6303F500530122D4
S31508004210DA60704700900040074B41F67132DA6366
S3150800422003F500520121D1600022DA63A3F51833A1
S315080042304FF480329A66704700000340024B4FF4F1
S3150800424000321A67704700BF005000404FF0402305
S31508004250D3F894007047436813B9416070475B68A8
S315080042605A68012AFBD159607047836813B981607F
S3150800427070475B685A68012AFBD159607047C36961
S31508004280032B05D89A1C00EB820251600133C361E7
S315080042907047C269042A1DD84FF098431B6C13F463
S315080042A0801FF9D0043292004FF098431A650268CD
S315080042B01A6042681A6082681A600023C2699A42C4
S315080042C008D99A1C00EB820251684FF09842116097
S315080042D00133F3E770470000074B4FF480325A6604
S315080042E003F5E6239B69C3F38512827003F03F0248
S315080042F042701B0B0370704700900040436813F030
S31508004300010F00D1704710B50446FEF754FF636AE3
S3150800431013F0010F01D10123E360FEF752FF10BD30
S315080043200A4B9B6813F0020FFAD1084B5B6813F02F
S31508004330020FF5D1054BDB69002BF1D1034B03F5D1
S31508004340805101224A601A61704700BF00800A4006
S315080043500A4B5B68012B00D07047084B5B6813F06B
S31508004360010F03D0054BDB69002BF6D1034B022264
S315080043701A6103F5005301225A60EDE700800A40EE
S3150800438038B50546134B9B6813F0020FFAD1114B4B
S315080043905B6813F0020FF5D10E4BDC69002CF1D1E6
S315080043A05B68012B05D02B7803B10124094BDC602F
S315080043B038BDFFF7CDFF074B9B6813F0020FFAD104
S315080043C0044B5B6813F0020FF5D1024BDB69002B37
S315080043D0F1D1E8E700800A40D8B90B78D3B10123B8
S315080043E04A6812B1127843EAC2034A78A2B1022295
S315080043F013438A6812B1127843EA82138A786AB13B
S3150800440004221343CA6812B1127843EA4223044AC3
S31508004410936470470023E3E70022E9E70022F0E708
S3150800442000800A4008B9014B5964704700900A4059
S3150800443008B9014B5964704700A00A4008B9014BF6
S315080044401964704700A00A4010B9024B186C7047EF
S315080044500020704700800A4048B911B1012903D0ED
S315080044607047044BD86C7047024B186D7047002094
S31508004470704700BF00800A4040B911B1012903D036
S315080044807047034BDA647047014B1A65704700BFE3
S3150800449000800A4038B504460EF080F9064DA44659
S315080044A0BCE80F000FC5BCE80F000FC59CE8030069
S315080044B085E80300002038BDE021002047F6FF7399
S315080044C09A4275D0042975D870B53C4B03EBC100E8
S315080044D090F802C0604613F83130012B22D0374BD2
S315080044E003EBC1035C68002C66D0B4F90050954212
S315080044F004DBB4F90250954200DC1546A388FF2B6D
S315080045002BD02826C8230022AE465B1B93FBF6F366
S3150800451013442A4A02EBC1014D78691E994231D3E8
S3150800452019462FE0254B03EBC103D878A0EB0C0006
S315080045300025A8420ED9431BA0EB53031F4C04EBDE
S31508004540C104646834F91340944201DC1D46F0E75F
S31508004550581EEEE76044C0B229E0B4F90630B4F953
S3150800456008600122D0E703F5FA73154AA2FB032374
S315080045709B094A1C954210D904EBC206B6889E428E
S315080045800BD3114604EBC1029368B2F9062002FB6D
S315080045900E33002BE7DA0023E5E704EBC1018A882E
S315080045A09A4200D31A46624500D31046C0B270BD7F
S315080045B0FF207047002070470020F8E7E021002020
S315080045C0D34D621004296DD8394B13F83130012BBD
S315080045D023D010B5364B03EBC1035C68002C63D0BF
S315080045E014F1040C62D0324B03EBC1039B7893425F
S315080045F02BD22F4B03EBC103DB78934228D92C4BE4
S3150800460003EBC10191F801E00EF1FF3E5FFA8EFE61
S31508004610A388FF2B1FD0002321E0254B03EBC10302
S31508004620DB78934200D21A46214800EBC100807815
S31508004630121AD2B21B1A9A4200DD00221C4B03EB57
S31508004640C1014B6833F912007047B4F9020010BD76
S31508004650B4F90000FBE7012301E00133DBB273453F
S3150800466005D2591C3CF8310091B28842F5D24FF474
S315080046707A7101FB02F20CEBC30CDCF80430D31A96
S31508004680BCF9022002EBD27103EB610393FBF2F350
S31508004690B4F900009842DADBB4F902009842D6DC95
S315080046A018B2D4E7034870470248D0E70148CEE776
S315080046B0E02100200080FFFF08B50348FFF7EAFE67
S315080046C001200EF0C7F808BDB0E9010800207047C0
S315080046D000487047301100202D2822D8DFE800F066
S315080046E017212121212121212121212121212121B6
S315080046F021212121212121212121212121211B21A2
S315080047002123212121211D212121211F211907488A
S315080047107047074870470748704707487047074873
S315080047207047074870470748704700BFD0EC010834
S3150800473068EB01087CEB0108A4EB0108BCEB010857
S3150800474030EB010840EB0108704700207047002055
S31508004750704710B48468C3680B4454F8231008469D
S3150800476010F8023B497803EB012313605DF8044B0C
S315080047707047000010B504464FF42F72002115F05B
S3150800478084FF8023C4F88C300023C4F89030C4F822
S31508004790943084F89830054A626001222272C4F87F
S315080047A0AC3204F19C00FCF74FFF10BDDCEB0108AE
S315080047B010B503460846D3F8A0202AB1D3F8A410AA
S315080047C090470024204610BD184600F0D5FD044643
S315080047D00028F7D0FFF780FF0146024801F03FF9AD
S315080047E0F0E700BF3CDB010838B504460123037235
S315080047F000F10905284616F0D5F800B938BD204657
S3150800480000F05AFF29462046FFF7D2FF204600F05F
S315080048105EFEF3E7F8B5067816B100263046F8BD11
S315080048200546FFF794FF0028F8D101232B702B7A51
S315080048300BB9374616E000232B726968194801F050
S315080048400EF9F6E701F0EFF8044614E02846FFF7FC
S315080048507BFFE1B2284600F073FF0646B4F1FF3F3E
S315080048600ED06EB9D5F8B442B4F1FF3FEAD04FF096
S31508004870FF33C5F8B432B4F1FF3FE7D10127EDE7BE
S315080048801EB900232B703E46C8E72846FFF7ACFF43
S315080048902B7A002BF5D06968024801F0E0F800236E
S315080048A02B72EEE7E0EB010838B504460D46FFF734
S315080048B061FF6B68C4F8B032A968204600F016FCA0
S315080048C04FF0FF33C4F8B4322046FFF73EFF38BD39
S315080048D010B50446D0F8B432B3F1FF3F09D0D4F886
S315080048E0B432B3F1FF3F09D194F8B83243B9012085
S315080048F005E001F098F8C4F8B402F0E7002010BD0E
S315080049000020FCE708B5FFF785FF08BD1038072823
S3150800491001D80120704700207047A0F11003072B2B
S3150800492000D8D8B270470000F8B506460D461746B7
S315080049300B78302B0DD04FF0000C15F80C30002BEF
S315080049404ED0394C1B5D13F0040F6AD00CF1010CE4
S31508004950F3E74B78782B04D0582B0CD04FF0000C8B
S31508004960EBE70222AB5C43B12F495B5C13F0440FC3
S3150800497055D00132F6E70222F4E7724206F0030345
S3150800498002F0030258BF5342032B1AD1284616F0E9
S3150800499009F8831E013609D4B410B3EBA60F07D164
S315080049A0A87837288CBF002001203BE00336F3E7C0
S315080049B0284615F0F7FF02388442D4BF00200120AC
S315080049C030E0284615F0EEFF831E3246002E05DB42
S315080049D0B3EBA20FD4BF0120002023E0F21CF7E7B7
S315080049E00A220021284616F01BF902460C46202EFC
S315080049F011D02FB151EA000302D0421E61F1000422
S31508004A000123B340013B1340002C08BF93420CBF5F
S31508004A100120002006E0B1FA81F0400902E00020FA
S31508004A2000E00020F8BD00BFED2F020808B50B789E
S31508004A302D2B04D000220138FFF776FF08BD01228E
S31508004A4011440138FFF770FFF8E7000003787B2B65
S31508004A501CD14FF0000C0123C25C7D2A0ED00E49F2
S31508004A60515C11F0440F03D00CF1010C0133F3E74C
S31508004A70202A01D0002070470133EDE71844437817
S31508004A8033B91CF0010F05D101207047002070478B
S31508004A900020704700207047ED2F020808B5072848
S31508004AA026D8DFE800F0060B1015191D0421012091
S31508004AB008BD00220820FFF737FFF9E7002210207B
S31508004AC0FFF732FFF4E700222020FFF72DFFEFE77C
S31508004AD00820FFF7ABFFEBE71020FFF7A7FFE7E794
S31508004AE02020FFF7A3FFE3E70846FFF7AFFFDFE75E
S31508004AF00020DDE72DE9F04383B00C4617461D4636
S31508004B000A9EDDF82C8021282BD8DFE800F0112D2D
S31508004B10445A71889EA22A2A2A2A2A2A2A2A2A2A0C
S31508004B202A2A2A2A2A2A2A2A2A2A2A2A2A2A2AD32E
S31508004B3000221146204616F0EFF8D8F80030C0B229
S31508004B4045F82300D8F80030326805EB830347F8A8
S31508004B502230D8F800300133C8F800303368013302
S31508004B60336003B0BDE8F08300221146204616F0F4
S31508004B70D3F8D8F8003080B245F82300D8F80030CA
S31508004B80326805EB830347F82230D8F80030013342
S31508004B90C8F80030E2E700221146204616F0BCF8B5
S31508004BA0D8F8003045F82300D8F80030326805EB0D
S31508004BB0830347F82230D8F800300133C8F80030AC
S31508004BC0CCE700221146204615F08AFF40B2D8F8F5
S31508004BD0003045F82300D8F80030326805EB830327
S31508004BE047F82230D8F800300133C8F80030B5E766
S31508004BF000221146204615F073FF00B2D8F800309F
S31508004C0045F82300D8F80030326805EB830347F8E7
S31508004C102230D8F800300133C8F800309EE7002269
S31508004C201146204615F05CFFD8F8003045F82300F9
S31508004C30D8F80020336805EB820547F82350D8F8E2
S31508004C4000300133C8F8003088E7336847F8231086
S31508004C5084E74FF000098DF80690C846012512E052
S31508004C60013510E08DF8053008F101081022002101
S31508004C7001A815F035FF09F10203E05409F101090D
S31508004C801FFA89F90135635D7D2B09D0202BE7D002
S31508004C9018F0010FE6D18DF8043008F10108F1E7A4
S31508004CA084F800904FEA192984F80190336847F888
S31508004CB0234053E7336847F823104FE72DE9F04FB1
S31508004CC087B09B460023059304938B4500F38A809F
S31508004CD080468A4617461C461E46994602E04FF00D
S31508004CE00109013418F80400FF280CD02028F6D052
S31508004CF0212805D0FFF70AFE0028F2D00646F0E77D
S31508004D004FF00109EDE705465C44B9F1000F06D0FE
S31508004D10013C544568DC0024A146029443E03EB1B8
S31508004D20013C544562DC0024CDF80890A1463AE0DF
S31508004D30A2455DD100240296A14634E008EB09039A
S31508004D405B78FF2B0ED02B2049E0039B43445B780E
S31508004D50FF2B4FD10123029304E009F101093546DF
S31508004D6000E00625029B93B957F824102846FFF75A
S31508004D7095FE002842D004AB019305AB0093119B26
S31508004D80109A57F824102846FFF7B4FE0AE004AB39
S31508004D90019305AB0093119B109A57F82410212014
S31508004DA0FFF7A8FE0134544518DA5C45D9DBCDF87F
S31508004DB00C9018F80960202EC0D0212EC5D0304698
S31508004DC0FFF7A4FD0028C8D0039B43445B78FF2B5C
S31508004DD012D13046FFF7A1FD0546C3E7002007B00C
S31508004DE0BDE8F08F2120FAE72B20F8E72B20F6E71D
S31508004DF02B20F4E72B20F2E72B20F0E72620EEE71E
S31508004E00212816D821283AD8DFE800F0113B191BCB
S31508004E101D1F212339393939393939392527292B9C
S31508004E202D2F313339393939393939393537184820
S31508004E307047FE2827D0FF2827D1164870471648FE
S31508004E407047164870471648704716487047164800
S31508004E5070471648704716487047164870471648F0
S31508004E6070471648704716487047164870471648E0
S31508004E7070471648704716487047164870471648D0
S31508004E80704716487047164870471348704700BF62
S31508004E9090EC0108A0EC0108F4EB0108FCEB010812
S31508004EA004EC01080CEC010814EC01081CEC0108E0
S31508004EB020EC01082CEC010838EC010844EC010848
S31508004EC04CEC010858EC010864EC010870EC010888
S31508004ED078EC010884EC0108E4EB0108ECEB010826
S31508004EE098EC010808B5FCF703FC08BD2DE9F04766
S31508004EF084B081468A4690461D460C9F0D9E044600
S31508004F000EE018680F9B03930E9B02930196009779
S31508004F102B4642460121FFF7E9FF044618E00C3408
S31508004F202068A8B133682A68934211DA57F8231023
S31508004F30FFF7D8FF0028F2D133680133336063687E
S31508004F401A7BFE2ADDD001230E9A137088F80030EA
S31508004F5098F800305BB90F9B1B7843B9BAF1000F7C
S31508004F6009D001230F9A137088F800304C46204662
S31508004F7004B0BDE8F0870024F9E7000070B50646DE
S31508004F800D4615F00FFD0446304600F068FD03E0B7
S31508004F90034800F064FD0134AC42F9D370BD00BF8C
S31508004FA0B8D901082DE9F84F044602213248FFF71F
S31508004FB0E5FF1E212068FFF7E1FF6368586800F0E7
S31508004FC04EFD2E4800F04BFD63681A7BFD2A01D979
S31508004FD0BDE8F88F03F10C09D3F808A0504615F080
S31508004FE0E1FC80464FF0FF34002510E02B2000F04E
S31508004FF02AFD36E000F027FD01341AF804001F28C0
S3150800500001D04445F6DB1D4800F029FD0135AB46C5
S3150800501019F80560FF2EDBD03046FFF7F1FE07468C
S31508005020B8F1000F00DD0134202EEFD0124E022118
S315080050303046FFF7A3FF1E213046FFF79FFF1048B3
S3150800504000F00DFD0F49384615F0A2FC00B90E4FC9
S3150800505039460E4800F003FDCB449BF80130202B5F
S31508005060C4D00B4800F0FBFCB8F1000FCBDD1AF8F2
S3150800507004301F2BC7D0C0E7D0EC01081CDD01089F
S31508005080A8EC010884EC0108A4EC0108E0EB01088F
S31508005090ACEC010838B50546002402E0FFF782FFAC
S315080050A0013404EB440305EB830055F8233023B1A0
S315080050B0037A002BF2D00134F3E738BD10B539B1C5
S315080050C0084612B1FFF76EFF10BDFFF7E3FFFBE7D7
S315080050D0D0F89C4000E02468002CF5D0A068002891
S315080050E0F9D0FFF7D7FFF6E77047704759B10A7945
S315080050F00AB10020704710B501240C719C30FCF7EA
S31508005100A6FA204610BD0020704700002DE9F04F92
S3150800511095B08146039104929A461E9F00F10903B1
S315080051201C460693184615F03DFC05900023CAF860
S3150800513000303B600CAA0BA9204600F0B8FC28B149
S3150800514000230293029815B0BDE8F08F0C9815F06D
S3150800515029FCCAF80000D9F89CB000231C46029323
S315080051609846B4E03B6801333B60013409EB04031D
S315080051705B7A202BF6D0002410E0D9F894203B68FF
S31508005180D21ACAF80020296814AB03EB880353F82F
S31508005190200C15F00FFC019080B1013404EB440398
S315080051A006EB830556F82330002B64D00B9B43454A
S315080051B061DB2B7A002BE0D00134EFE7286815F085
S315080051C0F1FB844669680A7BFE2A18D0D9F8943020
S315080051D038681B1A63452FDDFE2ADED10B9B013B7F
S315080051E04345DAD10D680794CDF82080CDF824B070
S315080051F0019C029EDDF80C80DDF810B049E00B9B9F
S31508005200013B4345E2D00E6814AB03EB880353F821
S31508005210200C15F0C7FB421C3B6813443B6001E0B9
S3150800522001333B603B6809EB0302527A002AF7D048
S3150800523008F10108019CB1E7039815F0B3FB01904A
S31508005240286815F0AFFB019B03447B2B0ED8029B05
S31508005250013302932A680499039D2846FCF735FA18
S31508005260204A04992846FCF730FA96E71E4A04991C
S315080052700398FCF72AFA069B059A1EE0594640460B
S31508005280FCF723FA174A59464046FCF71EFA013638
S31508005290013404EB440355F82320002AEED1079C79
S315080052A0DDF82080DDF824B00296059B3B600023DC
S315080052B0CAF80030DFE70133013A002A05DD19781C
S315080052C00029F8D120211970F5E7DBF800B0BBF109
S315080052D0000F3FF437AFDBF80860002E7FF446AFC7
S315080052E0F3E700BFB8D90108B0EC01082DE9F0478B
S315080052F086B004460F4616461D46DDF83890DDF89A
S315080053003C8000238DF817302B6089F8003088F828
S3150800531000302B6852F823101648FFF7E3FD40B912
S315080053202B6801332B604FF0010AD4F89C4000200B
S3150800533003E04FF0000AF8E7246894B1A068002853
S31508005340FAD0CDF80C80CDF80890019500963B462A
S315080053500DF117020021FFF7C9FD9DF81730002B44
S31508005360EAD0BAF1000F02D0012388F8003006B05F
S31508005370BDE8F087B8EC0108F0B5A3B005460846C5
S315080053801AAA19A900F093FB044610B1204623B0C7
S31508005390F0BD00238DF80B300DF10B0301930DF1D1
S315080053A00A03009303AB1AAA19A92846FFF79EFF1A
S315080053B09DF80B3013BB40B3466806F10C0711ABDA
S315080053C0019309AB0093039B1AAA19993846FFF76C
S315080053D075FC04460028D9D10495199B059309AB99
S315080053E00693039B0793089704A8FFF77DFE336887
S315080053F004A8984704A8FFF778FEC7E79DF80A208F
S3150800540001462846FFF75AFEC0E72D24BEE770B5C9
S3150800541005460024264600E0013405F1AC0015F0E7
S31508005420C1FAA04207D92B1993F8AC301BB10A2B45
S31508005430F2D10136F0E7304670BDF8B500230B60AF
S315080054401360D0F8AC320BB90020F8BD07460E46FB
S315080054501546AC3015F0A6FA50B30121002301E039
S3150800546001330131D7F8AC228A4213D9B3F5007F4C
S31508005470F7D23468013434602C6801342C60FA1889
S3150800548092F8AC200A2AEBD00133EFE72A680132FA
S315080054902A600133B3F5007F08D2FA1892F8AC20D7
S315080054A00A2A07D0002AF1D10120CEE70120CCE74D
S315080054B00020CAE70120C8E708B50844407A00F08A
S315080054C0C2FA08BD08B5082000F0BDFA08BD10B537
S315080054D00446D0F88C200021093015F0D6F80023B0
S315080054E0C4F89030C4F8943010BD000070B5ADF51E
S315080054F0447D04460021A4917C22A5A815F0C5F890
S31508005500A3AB0093A2AB8022A4A92046FFF7FEFD19
