:020000040800F2
:1000000000100020951700080D70000811700008FE
:10001000F1720008157000081D70000891170008A3
:100020009117000891170008911700089117000810
:100030002170000891170008911700089117000817
:1000400091170008911700089117000891170008F0
:1000500091170008911700089117000891170008E0
:100060009117000891170008911700085D16000805
:100070004D16000891170008911700089117000805
:100080009117000891170008B90D00089117000892
:1000900091170008911700089117000891170008A0
:1000A0009117000891170008D50C00089117000857
:1000B0009117000891170008ED8E0108CD980108EE
:1000C0008598010881980108B5900108C998010830
:1000D00089980108A19801088D9801082D990108B7
:1000E0000D99010891170008911700089117000851
:1000F000911700087962000891170008911700080D
:1001000091170008911700085D0C0008911700086E
:10011000911700089117000891170008911700081F
:10012000911700089117000891170008911700080F
:1001300091170008911700089117000891170008FF
:1001400091170008911700089117000891170008EF
:100150009117000891170008B7850008C57A0108B3
:100160009117000891170008F55D0108FB5D010873
:1001700010B5054C237833B9044B13B1044800E0A3
:1001800000BF0123237010BDAC140020000000004C
:10019000CC33020808B5034B1BB10349034800E008
:1001A00000BF08BD00000000B0140020CC330208DE
:1001B000A3F5803A704700BF174B002B08BF134BC5
:1001C0009D46FFF7F5FF00218B460F461348144A62
:1001D000121A1AF042FB0E4B002B00D098470D4B21
:1001E000002B00D098470020002104000D000D488E
:1001F000002802D00C4800E000BF1AF0CBFA200023
:10020000290001F093F81AF0B1FA00BF00000800CD
:10021000000000000000000000100020AC140020CE
:10022000043D0020000000000000000038B5044636
:100230000EF09BF9A04201D8012038BD05460320ED
:1002400001F068FA0028F8D001F084FA01F083FA8E
:100250002B46224603490448006806F079F800203E
:10026000EBE700BF50DA01089018002030B583B0EA
:1002700004468368C26853F822301D782846FFF789
:10028000D5FF08B903B030BD1B480FF067FB06224D
:10029000002168461AF0E1FA184B1B88ADF80230CD
:1002A000ADF804506368E2689B1A012B1FDDA36858
:1002B000013253F822301B88ADF800300CF03EFBC1
:1002C0006A464FF6FF7103200CF044FC04460320FD
:1002D00001F020FA0028D5D001F03CFA01F03BFAF9
:1002E00022460749074B186806F032F8CAE740F281
:1002F000FF13ADF80030E1E79C100020C814002087
:1003000088DA01089018002030B583B0044683686D
:10031000C26853F822301D782846FFF787FF08B9D6
:1003200003B030BD1A480FF019FB062200216846C1
:100330001AF093FA174B1B88ADF80230ADF8045051
:100340006368E2689B1A012B1DDDA368013253F834
:1003500022301B88ADF800306A464FF6FF7104204A
:100360000CF0F8FB0446032001F0D4F90028D7D0A4
:1003700001F0F0F901F0EFF922460749074B186840
:1003800005F0E6FFCCE740F2FF13ADF80030E3E7FD
:100390009C100020C8140020A8DA01089018002042
:1003A00030B583B004468368C26853F822301D78A4
:1003B0002846FFF73BFF08B903B030BD1A480FF0DD
:1003C000CDFA0622002168461AF047FA174B1B881F
:1003D000ADF80230ADF804506368E2689B1A012B57
:1003E0001DDDA368013253F822301B88ADF80030C0
:1003F0006A464FF6FF7102200CF0ACFB0446032066
:1004000001F088F90028D7D001F0A4F901F0A3F990
:1004100022460749074B186805F09AFFCCE740F2DF
:10042000FF13ADF80030E3E79C100020C814002053
:10043000BCDA01089018002030B583B08368C26828
:1004400053F822301C780023019343689B1A012B38
:1004500019DD01AA012104F04CFA01469DF80400BF
:100460000CF052FA054680B1022001F053F960B158
:1004700001F070F901F06FF92A460649064B186839
:1004800005F066FF01E00CF059FA20460CF0F8F98F
:1004900003B030BDD8DA01089018002010B503462B
:1004A0008168C26851F82200B0F900001A4C20801F
:1004B0005B689B1A012B0FDD013251F8223093F952
:1004C0000010003918BF01210EF040F8A0B9032038
:1004D00001F020F910B910BD0021F5E701F03AF95B
:1004E00001F039F90D4B1C680EF03BF802460C493F
:1004F000204605F02DFFEEE7012001F00BF9002862
:10050000E9D001F027F901F026F90649034B1868F4
:1005100005F01EFFDFE700BFC81400209018002080
:100520003CDB010850DB010810B586B000210591C5
:1005300005AA04F0DEF9059A102A06D0032001F07E
:10054000E9F8002862D106B010BD014601A81AF0F2
:100550005DF901A80FF002FA0446002847D10320F4
:1005600001F0D8F878B101F0F5F801F0F4F82D4970
:100570002D4B186805F0ECFE05E0032001F0CAF8E9
:10058000C0B90134E4B20F2C22D80F2CF5D00320CF
:1005900001F0C0F80028F4D001F0DCF801F0DBF83D
:1005A00006AB234413F8142C20491F4B186805F0A0
:1005B000CFFEE6E701F0CEF801F0CDF806AB23441C
:1005C00013F8142C1A49184B186805F0C1FED8E727
:1005D000032001F09FF80028B5D001F0BBF801F02E
:1005E000BAF81449104B186805F0B2FEABE70120C9
:1005F00001F090F80028A6D001F0ACF801F0ABF8BB
:100600000D49094B186805F0A3FE9CE701F0A2F81C
:1006100001F0A1F810220949034B186805F098FE73
:1006200091E700BF68DB01089018002084DB010817
:100630007CDB01088CDB010890DB0108ACDB0108E6
:1006400008B58368C26853F822301A88094B1A80AB
:10065000032001F05FF800B908BD01F07BF801F05C
:100660007AF8044B1A880449044B186805F070FEA8
:10067000F2E700BFAC100020D4DB01089018002086
:1006800008B5024B18680AF06FF908BDCC140020B9
:10069000F0B587B06C4B1B7813F0020F3ED06B4C5B
:1006A00013F0010F3CD0694D13F0040F3AD0674EA0
:1006B000032001F02FF8002836D1032001F02AF89A
:1006C00000283BD1032001F025F8002843D1032066
:1006D00001F020F800284CD1032001F01BF800287D
:1006E00053D1032001F016F800286BD1032001F04C
:1006F00011F8002872D1032001F00CF8002879D1FC
:10070000032001F007F8002840F08280032001F068
:1007100001F8002840F08A8007B0F0BD4C4CBFE7DC
:100720004B4DC1E74A4EC3E701F014F801F013F84E
:100730004849494B186805F00BFEBEE701F00AF87E
:1007400001F009F8454B9A6CDB6C4549424800685A
:1007500005F0FEFDB6E700F0FDFF00F0FCFF3E4BAC
:100760001F6809F029FF02463E49384605F0F0FDB2
:10077000ADE700F0EFFF00F0EEFF3B4B1A783B498E
:10078000354B186805F0E4FDA6E700F0E3FF00F044
:10079000E2FF374A53791179D078977892F801C0FF
:1007A00092F800E0CDF814E0CDF810C00397029065
:1007B000019100939379D2792E492748006805F07A
:1007C000C7FD8EE700F0C6FF00F0C5FF2A4B1A8870
:1007D0002A49214B186805F0BBFD87E700F0BAFFF6
:1007E00000F0B9FF264B1A8826491B4B186805F004
:1007F000AFFD80E700F0AEFF00F0ADFF164B1F68C5
:100800000DF0B1FE02462049384605F0A1FD77E71C
:1008100000F0A0FF00F09FFF0F4B1F680DF0A1FE3E
:1008200002461A49384605F093FD6FE700F092FF43
:1008300000F091FF00962B462246154906480068B5
:1008400005F086FD68E700BFAE100020FCDA010865
:10085000F0DA0108F0DB0108901800200080E00FBA
:10086000F8DB010814DC0108DA33002030DC010871
:10087000FF3300204CDC01089011002070DC0108DF
:10088000941100208CDC0108A8DC0108C0DC010800
:10089000D8DC010830B583B08368C26853F82230D1
:1008A0001C7801A920460FF05FFA88B9032000F0F8
:1008B00031FF08B903B030BD00F04CFF00F04BFF32
:1008C000019B22460B490C48006805F041FDF1E709
:1008D0000546012000F01EFF0028EBD000F03AFF93
:1008E00000F039FF2A460549034B186805F030FD32
:1008F000E0E700BF10DD0108901800202CDD0108A2
:1009000070B58268C36852F823100C78013352F82E
:1009100023301D78294620460EF08AFF80B9032037
:1009200000F0F8FE00B970BD00F014FF00F013FFF6
:100930002B4622460B490C48006805F009FDF2E7FA
:100940000646012000F0E6FE0028ECD000F002FF91
:1009500000F001FF32460549034B186805F0F8FC2A
:10096000E1E700BF50DD01089018002080DD01089C
:1009700008B50BF079FC08BD70B582B08368C26819
:1009800053F822301B78134A137013F0020F0ED065
:10099000114C13F0010F0CD00F4D13F0040F0AD0BF
:1009A0000D4E032000F0B6FE38B902B070BD0B4CFE
:1009B000EFE70A4DF1E7094EF3E700F0CBFE00F058
:1009C000CAFE00962B46224605490648006805F0F7
:1009D000BFFCEAE7AE100020FCDA0108F0DA0108FB
:1009E000B0DD01089018002008B506F067F908BDD1
:1009F000F0B593B000240F94109411940DF1140CE1
:100A0000314D0FCDACE80F000FCDACE80F0095E8ED
:100A100003008CE803000394049403278DF80E7000
:100A200001268DF808608DF809408DF80A408DF890
:100A30000B4031463B2001F019FD4FF42C524FF48E
:100A40002851204603F0B4FC8C222146204603F0B6
:100A5000B7FC31462A2001F009FD8DF817404FF40C
:100A6000966308938DF81540184D9DF8413000931A
:100A7000234622461649284603F02CFA07908DF8A3
:100A800010708DF80E708DF8136010238DF80930FA
:100A90008DF8086005AA0FA9284603F041FA02AABA
:100AA00003A9284603F0A1F905F50053094A5A6243
:100AB000AB6A43F40073AB62074B4FF48022C3F878
:100AC00084215A6013B0F0BD0CDE010800400049DB
:100AD00040420F008F330F8000E100E000B583B08B
:100AE00001213A2001F0C2FC01231A46052102200F
:100AF00003F050F8012301930022009205221146D1
:100B0000022002F0B3FF044B4FF08062C3F8802153
:100B10001A6003B05DF804FB00E100E010B582B09C
:100B200000244049404808F01FF9032000F0F2FD7E
:100B300080B100F00FFE00F00EFE3C493C4B1868FF
:100B400005F006FC06E04FF4FA7007F0EBFA0BF044
:100B500039FB0446002CF6D1642007F0E3FA0320A9
:100B600000F0D8FD00283BD132480EF0F7FE0028F7
:100B7000FAD1032000F0CEFD00283CD1062200214E
:100B8000684619F06AFE0023ADF802300B23ADF879
:100B9000043040F2FF13ADF800306A464FF6FF71A3
:100BA00004200BF0D7FF0446032000F0B3FD68BB20
:100BB000012008F0AFFAFFF71BFF00214FF0FF30D4
:100BC0000DF0BEFDFFF78AFF02F054FB0446012141
:100BD000022006F0E9FC204602F050FB02B010BDF6
:100BE00000F0B8FD00F0B7FD22461349104B18681D
:100BF00005F0AEFBB8E700F0ADFD00F0ACFD22461D
:100C00000D490B4B186805F0A3FBB7E700F0A2FDF8
:100C100000F0A1FD22460849054B186805F098FB35
:100C2000C6E700BF150E0008CC140020E8DD01085F
:100C3000901800209C100020F4DD01080170427023
:100C400043609DF800300372BDF804304381BDF865
:100C5000083083819DF80C308373704730B583B0C2
:100C6000154C6D461549284603F01AFB95E803001C
:100C700084E8030023684FF4966202FB03F3104AF2
:100C8000A2FB03239B090F4A5360032000F042FD9F
:100C900028B90D4B4FF400725A6203B030BD00F01A
:100CA00059FD00F058FD074B5A680849084B186871
:100CB00005F04EFBEDE700BFD014002000400049D6
:100CC000D34D6210D81400200060004934DE0108C2
:100CD0009018002010B586B02E4BD3F8202403F5D1
:100CE0000053C3F8202412F0200F2CD10B214FF415
:100CF000F06001F0FDFF01213D2001F0B7FB012173
:100D00003C2001F0B3FB244A03AB07CA83E8070089
:100D100001248DF814408DF81540184601F038F87C
:100D200001F0C0F840F62821002001F0ABF81B4B81
:100D300002229A611A4B4FF480221A60204601F079
:100D40006DF806B010BD174800F001FF032000F059
:100D5000E1FCA0B99A238DF8083001218DF8091023
:100D6000114843788DF80A30104B1B78019302AB81
:100D7000009303230022408909F030FCB6E700F01D
:100D8000E9FC00F0E8FC0A490A4B186805F0E0FAB3
:100D9000E0E700BF00C0034080DF010800500640CC
:100DA00000E100E01CEB0108D8140020AE10002088
:100DB00038DE01089018002008B501F073F840F6FD
:100DC0002821002001F05EF80E4B4FF48022C3F87A
:100DD0008020BFF34F8FBFF36F8F002001F01EF80C
:100DE000094B02225A61032000F094FC00B908BDAF
:100DF00000F0B0FC00F0AFFC0449054B186805F0AA
:100E0000A7FAF4E700E100E00060064040DE0108D8
:100E10009018002000B585B009F0D6FB30B9174B0B
:100E20001B6800221A7005B05DF804FB144800F03E
:100E30008EFE01218DF80810124843681A0E8DF8B5
:100E400009201A0C8DF80A201A0A8DF80B208DF84B
:100E50000C3043788DF80D300B4B1B78019302ABAF
:100E6000009306230022408909F0B8FB074B19883C
:100E7000024B186809F083FDD5E700BFCC140020B1
:100E80001CEB0108D8140020AE100020AC1000208C
:100E90000120704730B585B005463C4800F057FE4C
:100EA0002B79012B01D005B030BD032000F032FCBE
:100EB000F0B9AB681A789B2A25D09C238DF80C30AA
:100EC000AB685B78324842789B1A18BF01238DF8D3
:100ED0000D308DF80E202F4B1B78019303AB009340
:100EE000032300220121408909F078FB00242AE035
:100EF00000F030FC00F02FFC6A882749274B186867
:100F000005F026FAD5E75B78052B10D0062BD4D157
:100F10001F4B06225A70224B4FF08062C3F880218B
:100F2000C3F88020BFF34F8FBFF36F8FC5E7184B17
:100F300005225A701A4B4FF08062C3F880211A6064
:100F4000BBE70134E4B2AB79A34210D9032000F02F
:100F5000E1FB0028F5D000F0FDFB00F0FCFBAB68E6
:100F60001A5D10490D4B186805F0F2F9E9E7032006
:100F700000F0D0FB002896D000F0ECFB00F0EBFB7B
:100F80000949064B186805F0E3F98CE734EB0108D2
:100F9000D8140020AE10002044DE01089018002074
:100FA00000E100E05CDE0108F0DE010808B503485E
:100FB00000F0D2FD024800F0CFFD08BD1CEB010897
:100FC00034EB010870B588B0A0F19003062B00F255
:100FD0000881DFE813F007007400AE000601060187
:100FE000BD00CC00032000F095FB002851D1032068
:100FF00000F090FB002856D1984C01260396984BA0
:101000001B88029300250195964B1B7800932B4675
:10101000052289212046FFF711FE934B1988934B37
:10102000186809F0ACFC8DF8105023788DF8113059
:1010300063788DF8123063681A0E8DF813201A0C3D
:101040008DF814201A0A8DF815208DF81630237AA1
:101050008DF8173063891A0A8DF818208DF8193029
:10106000A3891A0A8DF81A208DF81B30A37B8DF8FE
:101070001C307F4800F06BFD7E4B1B78019304AB66
:1010800000930D232A463146608909F0A7FA08B07B
:1010900070BD00F05FFB00F05EFB7749774B18688E
:1010A00005F056F9A3E700F055FB00F054FB6C4B3C
:1010B0001A887349714B186805F04AF99CE7714822
:1010C00000F045FD032000F025FBE8B906220021D1
:1010D00004A819F0C2FB0023ADF812300B23ADF8C1
:1010E000143040F2FF13ADF8103004AA4FF6FF7130
:1010F00004200BF02FFD0446032000F00BFB68B921
:10110000604800F029FDC2E700F024FB00F023FB5B
:101110005D495A4B186805F01BF9D7E700F01AFB38
:1011200000F019FB22465949544B186805F010F994
:10113000E6E7012000F0EEFA0028A8D000F00AFB54
:1011400000F009FB52494D4B186805F001F99EE784
:10115000012000F0DFFA002899D000F0FBFA00F03F
:10116000FAFA4C49454B186805F0F2F88FE7454804
:1011700000F0EDFC032000F0CDFAE8B906220021D2
:1011800004A819F06AFB0023ADF812300B23ADF868
:10119000143040F2FF13ADF8103004AA4FF6FF717F
:1011A00004200BF0D7FC0446032000F0B3FA68B922
:1011B000344800F0D1FC6AE700F0CCFA00F0CBFA3A
:1011C00031492E4B186805F0C3F8D7E700F0C2FA92
:1011D00000F0C1FA22462D49284B186805F0B8F8EE
:1011E000E6E70446274800F0B2FC032000F092FA3C
:1011F000E8B90622002104A819F02FFB0023ADF85E
:1012000012300B23ADF8143040F2FF13ADF810305C
:1012100004AA4FF6FF7104200BF09CFC0446032047
:1012200000F078FA70B9174800F096FC2FE700F04C
:1012300091FA00F090FA22461749104B186805F011
:1012400087F8D6E700F086FA00F085FA22460F49C3
:101250000A4B186805F07CF8E5E700BFD8140020B9
:1012600090110020DA330020AC100020CC140020B4
:101270001CEB0108AE10002060DE01089018002071
:101280006CDE010834EB010894DE0108F4DD01088E
:10129000B0DE0108D0DE0108F4DE0108704700006E
:1012A00010B580B10446012000F034FA00B910BD39
:1012B00000F050FA00F04FFA22460A490A4B18682B
:1012C00005F046F8F3E7032000F024FA0028EED0FA
:1012D00000F040FA00F03FFA0449034B186805F0AB
:1012E00037F8E4E70CDF01089018002034DF01082C
:1012F000F0B583B004460D4616461F46032000F0A5
:1013000009FA08B903B0F0BD00F024FA00F023FA9E
:10131000019700962B46224602490348006805F0D3
:1013200017F8EFE74CDF01089018002008B507F028
:1013300065F907F06FF906F0DDF9FAE708B5024B39
:101340001B6803B1984708BD1C15002008B5024B67
:101350005B6803B1984708BD1C15002008B5024B17
:101360009B6803B1984708BD1C15002008B5024BC7
:10137000DB6803B1984708BD1C15002008B5024B77
:101380001B6903B1984708BD1C15002008B5024B26
:101390005B6903B1984708BD1C1500207047704772
:1013A00008B507F0A3FE08BD704770477047704747
:1013B0007047704770477047704770477047704775
:1013C00070477047704770477047704708B50021F5
:1013D0004FF0FF300DF0B4F908BD00207047002039
:1013E0007047704730B585B0094C2268094B1A60C8
:1013F000094D0A4B2B600A4B019304F04DFF0290FC
:101400002B68039301A9206803F01EFB05B030BDD3
:10141000CC1000200C20002008200020C01000204C
:10142000D4EA010808B5024B186803F021FB08BD97
:10143000CC10002038B504F02FFF0446064D2B6871
:10144000D3F8B00204F01CFF286803F02BFB204601
:1014500004F016FF38BD00BFCC10002008B50321F2
:10146000802001F045FC03214FF4806001F040FC36
:101470000A214FF4C06001F03BFC0A214FF4F060F8
:1014800001F036FC0A213E2001F032FC0A212D2019
:1014900001F02EFC0A21512001F02AFC002008BD99
:1014A00010B5264B5A6E02F4803203F580514FF48A
:1014B00080304866586E4FF000434B66204B596CA5
:1014C00001F001014AF6CD341C641D4B5B6B13F037
:1014D000010FFAD11B4B01245C60194B1B6B13F0FD
:1014E000010FFAD0184BD3F8083613F0020F03D1CE
:1014F000144B4FF48024DC6511B1114B134919646E
:10150000002803DB124B4FF0004159661AB9104B0B
:101510004FF480325A6604F085FC04F019FC04F0A4
:101520009DFC04F03FFCFFF799FF04F029FC05F057
:1015300091FB00F07BFB06F005F810BD0080004039
:10154000004009400060094000C007403254FFFFDE
:1015500000A0004008B500F031F800F0CFF808BD59
:1015600008B503F079F907F0DFFB07F0EDFB07F0B2
:101570003BFC08BD08B500F0EFF808BD704708B5A2
:10158000FFF758FF08BD08B507F00CFC07F010FC8A
:1015900008BD704708B500F055F808BD08B506F05D
:1015A00027FC04F05FFC05F0D3F807F087FE05F098
:1015B000E7FDFFF7EFFFFFF715FF08BD08B50121B5
:1015C0003A2000F053FF024800F03CFA08BD00BF8B
:1015D000D010002010B59AB0164C0DF1480CA6465C
:1015E000BEE80F00ACE80F009EE80F008CE80F008B
:1015F0002C22002107A819F030F90F4B0793012383
:101600008DF821305623ADF8223006230B930723A3
:101610000D930DF10C0C04F120030FCB8CE80F009F
:10162000064B009307AB12AA6146054804F02AFF57
:101630001AB010BDECEA01080000014BF0170020C1
:101640006C18002008B5FFF7C5FF08BD08B5024BB0
:10165000186805F02BF808BD6C18002008B5024B7F
:10166000186805F023F808BD6C18002008B5024B77
:101670001A6A1868904708BD6C180020012070474E
:101680000120704738B5FFF7CDFE044607F0D0FBC8
:10169000054600B1254605F0CBFA044600B12C46BC
:1016A000FFF7ECFF00B1204638BD38B506F0F2F880
:1016B0000446FFF7DBFF042811D0022811D00025D3
:1016C00005F0B8FA04280FD002280FD0FFF7D8FF92
:1016D00004280FD002280BD06DB100240BE00125A7
:1016E000EEE700250124EBE70125EFE70124EDE714
:1016F0000124F1E70024204638BD000008B5034866
:1017000000F020FA024800F01DFA08BD1CEB0108A9
:1017100034EB010803460B4A107828B10A4A1278C4
:101720009A4202D2002000E00120084A12783AB121
:10173000074A127842FA03F313F0010F00D1002098
:10174000704700BFEB100020EC1000209418002020
:10175000ED1000207047704708B5084B01221A7041
:10176000074B00221A70074B04221A70064B1F22E7
:101770001A7004F091FD054B186008BDEB100020B5
:1017800094180020EC100020ED100020901800208C
:10179000FEE7000008B500F013F8064B064A03E028
:1017A00052F8041B43F8041B04498B42F8D3FEF79C
:1017B00003FD00BF9C100020D4330208AC140020AD
:1017C000044B054A9A60D3F8882042F47002C3F8AB
:1017D0008820704700ED00E000000008014B186809
:1017E000704700BFF410002008B5094B1B6F03F0D1
:1017F0000703022B04D0032B05D0012B06D0FEE7F4
:10180000FFF7ECFF03E0034B186800E0024808BD57
:1018100000800040F8100020002D310108B5FFF7CE
:10182000E3FF054B1B6FC3F303330133B0FBF3F04E
:10183000024B186008BD00BF00800040F01000207F
:101840000048704700B4C404014B1868704700BFDB
:10185000F810002008B5064B1860064B1B6F03F00C
:101860000703032B00D008BDFFF7D8FFFBE700BF3D
:10187000F8100020008000400020704700487047AA
:10188000002D31014FF094439868C0F304400C28B8
:1018900008D8DFE800F009070707070722181A072A
:1018A0001C1E2000002070474FF094439B6803F0FB
:1018B0004073B3F1807F12D0B3F1007F11D003B138
:1018C00070470948704709487047094870470948F8
:1018D00070470948704709487047094870470948E8
:1018E00070470948ECE700BF00093D000024F40000
:1018F000C0EA210180BA8C010048E801005A620266
:10190000405DC60080841E0040420F004FF400403E
:1019100070474FF47A707047014B1868704700BFEA
:10192000FC10002000230360704703680B60016017
:10193000704700E01846036823B18B42FAD10B6868
:10194000036070477047D0B18446C2B1B9B100207E
:10195000137883B100B501F1FF3E864506D90CF836
:10196000013B013201301378002BF4D100238CF8B5
:1019700000305DF804FB00238CF80030704770479E
:10198000034640B1002001E0013301301A781AB15A
:101990008842F9D370470020704708B54FF0FF31F7
:1019A000FFF7EEFF08BD80B170B50C461546064640
:1019B00022B119B1FFF7F1FF844200D870BD2A4669
:1019C000211A3044FFF7BFFFF8E77047F0B18446B3
:1019D000F1B110B409E004F120030FE02030181A2F
:1019E00018D1BCB10CF1010C01319CF800400B4B3B
:1019F000E35C03F00303012BEDD023460878074A8C
:101A0000825C02F00302012AE9D1E7E70120704776
:101A1000012070475DF8044B704700BF7D3102081C
:101A20000346064A10680344054A934202D8034A13
:101A3000136070474FF0FF30704700BF0011002067
:101A400000000120F0B585B005460368B3F1964F5C
:101A500014D03A4A93424BD12F20012100F006FDC9
:101A600001230A226979287902F094F801230A22D5
:101A7000E979A87902F08EF800261FE02E20ECE725
:101A80002B796A79012707FA02F22D4C03EB430305
:101A900004EB031303F501531A60642007F010F9F7
:101AA0002B796A79974003EB430304EB031404F5A5
:101AB00082542760642007F003F90136082EDFDD29
:101AC0002B68B3F1964F15D02A681C4B9A4222D04E
:101AD00001238DF800308DF80130EB680293AB687C
:101AE00001932B7C8DF80C306946286802F00EF9C2
:101AF00005B0F0BD124B0322C3F8382569792A7965
:101B000042EA0142C3F83C25E979AA7942EA014256
:101B1000C3F84025D8E7A3F530330322C3F848259E
:101B200069792A7942EA0142C3F84C25E979AA7910
:101B300042EA0142C3F85025CAE700BF00800640D0
:101B400000C0034008B543680068984708BD08B561
:101B500083680068984708BD08B5C368006898475F
:101B600008BD10B5044601213A2000F07FFCA3789F
:101B7000B3FA83F35B0904226178207802F00AF853
:101B8000002010BD83784BB9037842780121914041
:101B900003EB43031B01064AD15070470378427898
:101BA0000121914003EB43031B01024AD1507047CE
:101BB00040E0034040D0034083784BB9037842783B
:101BC0000121914003EB43031B01064AD1507047AA
:101BD000037842780121914003EB43031B01024A41
:101BE000D150704740D0034040E003400378427832
:101BF0000121914003EB43031B01014AD15070477F
:101C000040F0034002460378407803EB43031B0196
:101C1000103305495B58C34003F0010093780BB9BA
:101C200080F00100704700BF30C0034008B5034B8F
:101C30001968034B18680FF0D9FC08BD0811002083
:101C400004110020B0F1FF3F01D010B970470248E5
:101C500070470248704700BF21E000F024E000F028
:101C60008908002301E0043001338B4205D2026869
:101C7000B2F1FF3FF7D00020704701207047704756
:101C800038B504461BF0DCFEFFF7DCFF054650B913
:101C9000074B9B680A3303F01F030121994020463C
:101CA000FFF7DEFF08B1284638BD024DFBE700BF55
:101CB0000080E00F0EE000F0F8B505460E469400F7
:101CC00022461BF0B5FEFFF7BDFF074608B13846B8
:101CD000F8BD22463146284618F088FD0028F6D087
:101CE000004FF4E710E000F008B50346084613F093
:101CF000030F02D111F0030F0AD09200194618F019
:101D000085FD002008BD53F8041B40F8041B013A70
:101D1000002AF8D1F5E7000010B582B0044601A80A
:101D200002F0AAFB9DF8063023800122E270002019
:101D3000A070054B9B680A3303F01F0302FA03F3FC
:101D4000636002B010BD00BF0080E00F08B502F074
:101D5000C1FA08BD08B502F0ADFA002008BD0000C8
:101D600008B501F087FA014B186008BD281F002054
:101D700008B5024B186801F081FA08BD281F002041
:101D800008B50A464118013905F05EFA08BD0000A1
:101D90004368B3FA83F2C2F11F021E4B5B6833B192
:101DA0001C4B5B681BB11B4B9B6A002BF8D11A4B79
:101DB00001215960174B5B6813F00203FAD112013D
:101DC000017A09B302210A434178F9B101210A439A
:101DD00010498A60427ADAB10222817A01B1012384
:101DE00013430C4A536202F5805201235360037877
:101DF0004BB1084B5B681BB1064B9B6A002BF8D1BB
:101E0000044B0122DA6070471946DCE71946DEE729
:101E10001A46E2E70040064000600640164B5B6849
:101E20000BB9002827D0144B5B6833B1124B5B68A9
:101E30001BB1114B9B6A002BF8D118B10F4B01223B
:101E40005A6070470C4B5B681BB10B4B9B6A002BB5
:101E5000F8D1094B0222DA60074B5B681BB1064BD5
:101E60009B6A002BF8D1064B01225A60024B5B683B
:101E700013F0020FFAD170470040064000500640B0
:101E800000600640064B9B6A13F0100FFAD1044B1A
:101E90001963034B9B6A13F0100FFAD1704700BF10
:101EA000004006400B4B5B681BB10A4B9B6A002B42
:101EB000F8D1084B0222DA6000221A62054B5B68F7
:101EC0001BB1044B9B6A002BF8D1024B0122DA6054
:101ED000704700BF00400640024B4FF480321A6743
:101EE000704700BF0090004038B505460C46FFF72C
:101EF0007BFC05B128600CB10D23237038BD0000B8
:101F000038B505460C46164BD3F8203103F00703CD
:101F1000013B052B20D8DFE803F0030B130F171B41
:101F2000FFF75CFC052305B1286004B1237038BDC0
:101F3000FFF78AFC0323F6E7FFF7A4FC0723F2E789
:101F4000FFF79CFC0223EEE7FFF748FC0623EAE7D5
:101F5000FFF77AFC0423E6E700231846E3E700BF17
:101F60000080004038B505460C46114BD3F82831A7
:101F700003F00703013B032B17D8DFE803F0020E41
:101F8000120AFFF72BFC052305B1286004B123706A
:101F900038BDFFF777FC0723F6E7FFF755FC03236F
:101FA000F2E7FFF76BFC0223EEE700231846EBE7AE
:101FB0000080004030B583B005460C4600230193F5
:101FC000114BD3F8803103F00303022B16D0032BFF
:101FD0000FD0012B07D000230DB1019A2A6004B164
:101FE000237003B030BD002101A8FFF789FF0F2344
:101FF000F2E7FFF747FC01900723EDE7FFF73EFC10
:1020000001900223E8E700BF0080004038B5054694
:102010000C460C4BD3F8903203F00303012B05D090
:10202000022B07D1FFF72EFC072305E0FFF726FC64
:10203000022301E00023184605B1286004B1237093
:1020400038BD00BF0080004030B583B005460C4667
:1020500000230193144BD3F8203203F00703013B14
:10206000032B1ED8DFE803F0020E1318002101A88D
:10207000FFF778FF11230DB1019A2A6004B1237094
:1020800003B030BDFFF7FEFB01900723F3E7FFF736
:102090003DFC01900A23EEE7FFF73EFC0190092387
:1020A000E9E70023E7E700BF0080004038B50546B8
:1020B0000C460F4BD3F8403103F00303022B0ED034
:1020C000032B10D0012B06D00023184605B1286041
:1020D00004B1237038BDFFF719FC0A23F6E7FFF7B8
:1020E0001BFC0923F2E7FFF714FC0B23EEE700BF0C
:1020F0000080004030B583B005460C4600230193B4
:102100004FF0E0231B6913F0040F0ED0FFF786FB9E
:1021100001900C238DF803300DB1019B2B6014B19D
:102120009DF80330237003B030BD0DF1030101A809
:10213000FFF7BCFFF0E7000030B583B005460C4662
:1021400000230193144BD3F8603203F00703013BE3
:10215000032B1FD8DFE803F0020E1914002101A899
:10216000FFF7CEFE0F230DB1019A2A6004B1237050
:1021700003B030BD002101A8FFF798FF1023F2E75C
:10218000FFF780FB01900723EDE7FFF777FB019056
:102190000223E8E70023E6E70080004030B583B083
:1021A00005460C46002301930C4BD3F8703203F024
:1021B0000303012B09D0022B0DD114230DB1019A79
:1021C0002A6004B1237003B030BD002101A8FFF7DD
:1021D0006DFF1023F2E70023F0E700BF008000400E
:1021E00038B505460C46124BD3F8003203F007030E
:1021F000013B032B18D8DFE803F0020A0E12FFF7A9
:1022000085FB0A2305B1286004B1237038BDFFF7B0
:1022100083FB0923F6E7FFF77CFB0B23F2E7FFF7CD
:10222000FDFA800A0E23EDE700231846EAE700BF17
:102230000080004038B505460C46124BD3F80832F2
:1022400003F00703013B032B18D8DFE803F0020A71
:102250000E12FFF75BFB0A2305B1286004B123705F
:1022600038BDFFF759FB0923F6E7FFF752FB0B23B5
:10227000F2E7FFF7D3FA800A0E23EDE700231846B2
:10228000EAE700BF0080004038B505460C460F4B1A
:10229000D3F8403203F00303022B0ED0032B10D0EF
:1022A000012B06D00023184605B1286004B1237025
:1022B00038BDFFF72BFB0A23F6E7FFF72DFB0923B9
:1022C000F2E7FFF726FB0B23EEE700BF008000409C
:1022D00038B505460C460F4BD3F8503203F00303D4
:1022E000022B12D0032B08D0012B0AD00023184652
:1022F00005B1286004B1237038BDFFF70AFB0B233A
:10230000F6E7FFF703FB0A23F2E7FFF705FB0923D4
:10231000EEE700BF0080004038B505460C460F4B85
:10232000D3F8603103F00303022B0ED0032B10D03F
:10233000012B06D00023184605B1286004B1237094
:1023400038BDFFF7E3FA0A23F6E7FFF7E5FA0923BA
:10235000F2E7FFF7DEFA0B23EEE700BF0080004054
:1023600038B505460C46104BD3F8000100F00300C9
:10237000032815D8DFE800F002080C10012305B18E
:10238000286004B1237038BDFFF75EFA0323F6E737
:10239000FFF7C2FA0923F2E7FFF76EFA0823EEE728
:1023A00000231846EBE700BF00800040B0F5207F17
:1023B00020D00ED8B0F5007F16D020D810B1B0F5DF
:1023C000C07F04D10F4B186FC0F3033018E000201A
:1023D00016E0B0F5607F05D10A4BD3F88000C0F35A
:1023E00001100DE000200BE0064BD3F89000C0F385
:1023F000046005E0034B186FC0F3802000E000206C
:10240000013070470080004038B505460C46104B3F
:102410004FF480329A660020FFF7C8FF05FB00F0FA
:102420000C4BDA6902F4803241F67131D9635B6892
:1024300023F440130849884201D9002C05DD0549E1
:102440004B600AB10022CA6338BD43F48013F6E73B
:102450000090004000000340005A620208B5FFF7F8
:10246000EFF90021FFF7D0FF08BD0000430905D0B8
:10247000012B0ED0022B0ED0002200E0002200F033
:102480001F0051B102F58052012303FA00F01060E1
:102490007047034AF3E7034AF1E702F50052F3E716
:1024A000648000406880004010B582B00023019332
:1024B0000093B0F5807F00F20781B0F5807F00F2D5
:1024C0007581DFE810F04C01730173017301730132
:1024D000730173017301730173017301730173015C
:1024E000730173017301730173017301730173014C
:1024F000730173017301730173017301730173013C
:102500007301730173014C0185014C0185019D012B
:102510009D019D019D019D018501A2013D01AC012F
:1025200023013D018501850185017301730173015B
:102530007301730173017301AC018501850185018C
:10254000C001B1018501730173017301730173014E
:102550007301730173017301730173017301B60198
:102560009D014C014C014C016D013D013D01620199
:10257000BB0156017C017C0173017301730173017E
:1025800073017301730173017301730173017301AB
:10259000730173017301730173017301730173019B
:1025A000730173017301730173017301730173018B
:1025B000730173017301730173017301730173017B
:1025C000730173017301810173017301730173015D
:1025D000730173017301730173017301730173015B
:1025E000730173017301730173017301730173014B
:1025F000730173017301730173017301730173013B
:10260000730173017301730173017301730173012A
:10261000730173017301730173017301730173011A
:10262000730173017301730173017301730173010A
:1026300073017301730173017301730173017301FA
:1026400073017301730173017301730173017301EA
:1026500073017301730173017301730173017301DA
:1026600073017301730173017301730173017301CA
:1026700073017301730173017301730173017301BA
:1026800073017301730173017301730173017301AA
:10269000730173017301730173017301730173019A
:1026A000730173017301730173017301730173018A
:1026B000730173017301730173017301730173017A
:1026C000730173017301A701B0F5E06F00F0AC80F6
:1026D0000CD9B0F5286F00F0B1804FD9B0F5306F4C
:1026E00063D1002101A8FFF791FC5FE0B0F5607FA6
:1026F00079D010D9B0F5B06F00F0878033D9B0F53C
:10270000C06F00F08C80B0F5D06F4FD1002101A8D0
:10271000FFF766FD4AE0B0F5007F0AD1FFF764F8E5
:1027200004464FF40070FFF741FEB4FBF0F401944F
:102730003CE011D9B0F5207F4AD0B0F5407F35D1CB
:10274000FFF76CF804464FF42070FFF72FFEB4FB40
:10275000F0F46408019429E0B0F5C07F26D1FFF7BA
:102760005DF8019022E0B0F5806F49D0B0F5A06F20
:102770001CD1002101A8FFF767FC17E0B0F5186F26
:1027800057D007D9B0F5206F10D1002101A8FFF76D
:10279000D3FC0BE0B0F5F06F55D0B0F5106F05D15C
:1027A000002101A8FFF746FD00E002D2019802B027
:1027B00010BDB0F5386F32D0B0F5406FF6D10021C2
:1027C00001A8FFF7CFFBF1E7FFF70EF80190EDE767
:1027D000FFF724F804464FF42070FFF7E7FDB4FB41
:1027E000F0F40194E2E700216846FFF77DFB009CCE
:1027F0004FF46070FFF7DAFDB4FBF0F40194D5E715
:10280000002101A8FFF77CFBD0E7002101A8FFF71A
:10281000D1FBCBE7002101A8FFF76CFCC6E7002144
:1028200001A8FFF743FCC1E7002101A8FFF72CFD39
:10283000BCE7002101A8FFF74BFDB7E7002101A885
:10284000FFF7ACFCB2E7002101A8FFF765FDADE79B
:1028500008B58020FFF728FE034B984203D8034BAE
:102860004FF480321A6708BD005A620200A000408F
:1028700000B583B000238DF80730B0F5807F00F0FD
:10288000BE8013D9B0F5086F00F0C58046D9B0F509
:10289000286F00F0D88070D9B0F5306F40F082809A
:1028A0000DF107010020FFF7B1FB7CE080287AD80A
:1028B000242878D324385C2875D8DFE800F04F4FFF
:1028C0004F4F4F744674A65874747474747474744F
:1028D000747474A67474743AB8747474747474747C
:1028E000747474747474BE4F7474746D747464C44A
:1028F000B27F7F7474747474747474747474747444
:102900007474747474747474747474747474747487
:10291000747474747474747474748500B0F5C06FD6
:1029200073D00CD9B0F5E06F00F08180B0F5F06F96
:102930001AD10DF107010020FFF7EEFC33E0B0F5EE
:10294000A06F6ED0B0F5B06F05D10DF1070100207A
:10295000FFF730FB27E0B0F5806F24D10DF10701C0
:102960000020FFF7CDFA1EE0B0F5D06F1BD10DF1BE
:1029700007010020FFF734FC15E0B0F5186F5CD0BC
:10298000B0F5206F05D10DF107010020FFF7D4FB52
:1029900009E0B0F5106F06D10DF107010020FFF737
:1029A00049FC00E004D29DF8070003B05DF804FB89
:1029B000B0F5386F29D0B0F5406FF4D10DF10701B3
:1029C0000020FFF7CFFAEEE7224B1B6F03F007035F
:1029D000013B032BE7D8DFE803F00E02060A0523CC
:1029E0008DF80730DFE703238DF80730DBE7082396
:1029F0008DF80730D7E702238DF80730D3E70DF1C4
:102A000007010020FFF776FBCDE70DF1070100205D
:102A1000FFF74CFBC7E70DF107010020FFF7A0FC13
:102A2000C1E70DF107010020FFF70EFBBBE70DF139
:102A300007010020FFF728FCB5E70DF10701002092
:102A4000FFF746FCAFE70DF107010020FFF7A6FBFB
:102A5000A9E700BF0080004070B505468020FFF761
:102A600007FF032800F0A180584B4FF480125A66EC
:102A7000574B45F60E02C3F8802003F580524FF005
:102A8000A061916203F500534FF480329A62504B7B
:102A90009C6D14F48034FAD12A786B781B0543EAD4
:102AA0000263EA7843EA02432A7943EA02336A7905
:102AB00043EA8213AA791343454E3361B36903F0A5
:102AC0000043EA7943EA82632A7A43EA02636A7A34
:102AD00043EA0243AA7A43EA0223EA7A1343B36140
:102AE00000F0C8FBB26B82F4006303F44063534010
:102AF000B36300F0C3FB336A23F00F036A7B02B1B8
:102B0000082423432C7B43EA84031343304A136293
:102B10006B7B002B30D1916A2E4B0B40A97B43EA93
:102B20004113E97B43EA0113A97C43EAC10343F45F
:102B300080339362264B9A6D274B9343FAD1244AF4
:102B400002F580514FF080738B62136923F4700398
:102B5000A87843EA005313614FF000438B612B7C4C
:102B60001BB91E4B4FF080729A626B7CBBB91B4B3A
:102B70004FF480329A6212E0022B17D0144A916A05
:102B8000144B0B40A97B43EA4113297C43EA0163C0
:102B9000A97C43EAC103697C43EA01439362EB7C6D
:102BA0001BB10B4B0E4AC3F8802070BD084C0023AC
:102BB0002361A36100F05EFB626B82F4085303F4AF
:102BC0007F435340636300F059FBD7E70090004018
:102BD0000040004AC7FFFEFE030001000060004AFB
:102BE000F1A7FFFF014B93F9000070472811002067
:102BF00008B5002903DD0121FFF706FC08BD00210F
:102C0000FFF702FCFAE70000B0F5207F4AD02FD88A
:102C1000B0F5007F3BD04ED810B1B0F5C07F26D1C3
:102C200010B54C1EFFF71AFC00F048F8FFF754F9F6
:102C3000214B196F21F4704141EA04311967FEF705
:102C4000EDFD4FF04023D3F8843013F0100FF8D18E
:102C50004FF04023D3F88410C1F38111C1F1020178
:102C6000FFF7C6FF00F032F8FFF7F2FD10BD704726
:102C7000B0F5607F0AD101390F4AD2F8803023F0D5
:102C8000300343EA0111C2F88010704770470139E0
:102C9000094AD2F8903023F0F85343EA0161C2F8B0
:102CA000901070470139044A136F23F4806343EA9C
:102CB00081211167704770470080004008B50221EC
:102CC0004FF42070FFF7A0FF08BD000008B54FF4D7
:102CD000C070FFF7E9FB054B984205D902214FF47C
:102CE0002070FFF791FF08BD0121F8E780F0FA029C
:102CF00070B50C46B0F5807F00F094811FD9B0F517
:102D0000086F00F0108240F28380B0F5286F00F069
:102D1000998240F2D180B0F5306F40F0F8800229FE
:102D200000F0A282072940F0A1820221874AD2F84E
:102D3000903223F003030B43C2F89032E8E080287E
:102D400000F2E6802428C0F0E38024385C2800F2FA
:102D5000DF80DFE810F09900990099009900990050
:102D6000DD008300DD00A801A500DD00DD00DD0041
:102D7000DD00DD00DD00DD00DD00DD00DD00DD006B
:102D8000A801DD00DD00DD0069002D02DD00DD00B1
:102D9000DD00DD00DD00DD00DD00DD00DD00DD004B
:102DA000DD00DD00DD0043029900DD00DD00DD0017
:102DB000D000DD00DD00B8007702FE01E500E5008F
:102DC000DD00DD00DD00DD00DD00DD00DD00DD001B
:102DD000DD00DD00DD00DD00DD00DD00DD00DD000B
:102DE000DD00DD00DD00DD00DD00DD00DD00DD00FB
:102DF000DD00DD00DD00DD00DD00DD00DD00DD00EB
:102E0000DD00DD00DD00DD00DD00DD00DD00F100C6
:102E1000B0F5C06F00F0478119D9B0F5E06F00F050
:102E2000C781B0F5F06F38D10A2C00F054810B2C1B
:102E300000F05381092C00F04C810021434AD2F864
:102E4000603123F003030B43C2F8603160E0B0F55A
:102E5000A06F00F07E81B0F5B06F12D1072C00F0AA
:102E6000C7800F2C00F0C680022C00F0BF8000212C
:102E7000364AD2F8803123F003030B43C2F8803185
:102E800046E0B0F5806F43D1023C052C00F2B480DF
:102E9000DFE804F0B8B4BCBEBAB6B0F5D06F37D135
:102EA000093C052C00F21B81DFE814F02301290105
:102EB0002501190119012701B0F5186F00F08E8165
:102EC000B0F5206F14D1023C0E2C00F29D81DFE89A
:102ED00014F0B7019B019B019B019B01B1019B0178
:102EE0009B019B019B019B019B019B01B301B501D0
:102EF000B0F5106F0CD1093C052C00F20281DFE81F
:102F000014F00A0110010C01000100010E0100D2B1
:102F100070BDB0F5386F00F0C680B0F5406FF7D1E6
:102F2000023C052C00F23281DFE814F03C013E0146
:102F30003001400130013A018B1E062B08D8DFE832
:102F400003F04F3D075207074C0000BF00800040D0
:102F500000252E460121022000F0F8F9FFF77EFA45
:102F6000FFF7ACFEFEF7B8FFAC4A136F23F0070380
:102F700033431367FEF752FC4FF04023D3F88430FD
:102F800013F0100FF8D14FF04023D3F88410C1F3A1
:102F90008111C1F10201FFF72BFE0121002000F099
:102FA0001FFAFFF793FEFFF753FC002DB0D1032C5F
:102FB000AED19B4B4FF480329A62A9E7994B4FF404
:102FC00080125A66984B9D6AC5F3006503F58053DD
:102FD0004FF480329A620326BCE700250426B9E745
:102FE00000250126B6E700250226B3E702213FE7C8
:102FF00003213DE701213BE700210AE0022108E02F
:10300000042106E0032104E0052102E0062100E09E
:103010000121824AD2F8203123F007030B43C2F882
:10302000203175E70C2924D01FD8A1F10904E4B29E
:10303000022C3FF66DAF794B596E03F580534FF478
:1030400080325A66794A536A43F00103536211F49D
:10305000803F03D1764B4FF480325A664FF0E02226
:10306000136923F00403136152E710297FF450AF72
:10307000E1E76A4B596E03F580534FF480325A668C
:103080006A4A536A23F00103536211F4803F03D16B
:10309000674B4FF480325A664FF0E022136943F0D9
:1030A0000403136134E70A2C0FD00B2C0FD0092C2A
:1030B00009D00021594AD2F8403123F003030B43D1
:1030C000C2F8403124E70221F4E70121F2E70321AD
:1030D000F0E70221B2E60121B0E60321AEE60021CD
:1030E0004E4AD2F8003223F007030B43C2F80032F5
:1030F0000EE70221F4E70321F2E70421F0E70121C2
:10310000EEE70021454AD2F8083223F007030B43CB
:10311000C2F80832FCE60221F4E70321F2E70421B9
:10312000F0E70121EEE708290FD009290FD0032984
:1031300009D00021394AD2F8003123F003030B43B0
:10314000C2F80031E4E60121F4E70321F2E70221AD
:10315000F0E7073C0A2C07D8DFE804F01006141249
:10316000060606060606160000212C4AD2F8203272
:1031700023F007030B43C2F82032C9E60221F4E72B
:103180000321F2E70421F0E70121EEE70021234AC1
:10319000D2F8283123F007030B43C2F82831B7E6F1
:1031A0000421F4E70321F2E70221F0E70121EEE731
:1031B0000A2C0FD00B2C0FD0092C09D00021174A54
:1031C000D2F8403223F003030B43C2F840329FE6AB
:1031D0000221F4E70121F2E70321F0E70A2C0FD0E6
:1031E0000B2C0FD0092C09D000210C4AD2F85032F8
:1031F00023F003030B43C2F8503289E60221F4E7BF
:103200000121F2E70321F0E70021044AD2F86032FD
:1032100023F007030B43C2F8603279E600800040D8
:103220000060004A009000400040004A00C0074093
:1032300000A000400421E8E70121E6E70221E4E7DD
:103240000321E2E7102C0BD0142C0BD10221084AE9
:10325000D2F8703223F003030B43C2F8703257E602
:103260000121F4E70021F2E701215FE500215DE59E
:1032700000800040EFF3108072B6704700B962B66C
:103280007047302383F311887047002383F311883C
:103290007047EFF31180302383F31188704780F378
:1032A00011887047EFF3108313F0010F05D1EFF38E
:1032B00011832F2B03D80020704701207047012075
:1032C00070474FF04022536F23F44073417843EA34
:1032D00001235367704770477047000010B50446DC
:1032E000094A136943F00403136104F0CDFBFFF7AF
:1032F000F2FF30BFFFF7F0FF04F0DCFB04B110BDBC
:10330000FEF78CFAFBE700BF00ED00E010B50446C5
:10331000074A136943F00403136104F0B5FB30BF9F
:1033200004F0C8FB04B110BDFEF778FAFBE700BF5C
:1033300000ED00E0704770474FF04022D36E23F05D
:10334000300301790B43D36670477047F8B50446E4
:103350004FF04023D3F8843013F0100FF8D14FF022
:103360004023D3F88430C3F381139C4231D0FEF75D
:103370003BFA0646012C12D0FFF77CFF05464FF0C2
:10338000402707F500534FF000725A662046FFF7BA
:10339000DCFF621E4FF4806393403B6707E001212E
:1033A000FFF726FCE8E74FF04023D3F884304FF0D6
:1033B00040235B6E13F0007F06D14FF04023D3F81B
:1033C000843013F0200FEED02846FFF757FF022C71
:1033D00000D0F8BD00213046FFF70AFCF9E70000F5
:1033E00010B50C46034650B1094A127812B1094A89
:1033F000934208D921460220FFF7A8FF10BDFEF72F
:10340000F3F90346F0E721460120FFF79FFFF5E7B8
:10341000DC1F0020005A620208B50278034B1A70C4
:1034200001210020FFF7DCFF08BD00BFDC1F0020EA
:103430001B4B4FF000425A6603F50B235A6C02F007
:1034400001024AF6CD31196490B9164B5B6B13F04B
:10345000010FFAD1134B5B6813F0010F1BD0124B15
:10346000012159600F4B1B6B13F0010FFAD012E0D2
:103470000C4B1B6B13F0080FFAD10A4B03F50051EC
:103480002020886203F5805301215960054B9B6A17
:1034900013F0200FFAD012B1024B044A1A6470479D
:1034A0000090004000400940006009403254FFFF96
:1034B00010B5194B4FF000425A6603F50B235C6CB4
:1034C00004F001044AF6CD321A6443785B0043F0FD
:1034D00001034FF04022D363104B5B6B13F00B0FD3
:1034E000FAD10E4A536823F4F873817843EA011342
:1034F0005360C178437943EA01239360017983796A
:1035000043EA012313610078FFF792FF14B1034BE4
:10351000034A1A64012010BD009000400040094099
:103520003254FFFF10B40F2800D90F20124B5C6EED
:1035300003F580534FF000425A6603F50B235A6C93
:1035400002F001024AF6CD3119640C4B5B6B13F0AB
:10355000800FFAD109490B6A23F00F031843086260
:103560000AB1074A0A64002C03DB064B4FF0004205
:103570005A665DF8044B70470080004000400940E7
:103580003254FFFF00A0004010B4134B5C6E03F5F3
:1035900080534FF000425A6603F50B235A6C02F039
:1035A00001024AF6CD3119640C4B5B6B13F0800FAE
:1035B000FAD10A490B6A23F4F85343EA002008625F
:1035C0000AB1074A0A64002C03DB064B4FF00042A5
:1035D0005A665DF8044B7047008000400040094087
:1035E0003254FFFF00A00040084B98420AD0084B1D
:1035F000984209D003F58043984201D000207047DB
:103600005820704756207047572070470000014BE4
:1036100000000A40436813F0010F19D0836813F0CB
:10362000010F03D0036913F0010F09D00A2383634C
:10363000436D13F0500FFBD1836C13F0030FFBD1DC
:1036400000F5005301225A60436813F0020FFBD1CA
:10365000042307E000F5805304221A6100F50053AB
:103660001A610B46591E002BF4D12023036100235D
:10367000C360836041F20202426183614FF4A02281
:103680004262C36103628362C3624363036500F500
:1036900000520249D1640363704700BFFF3F0D032E
:1036A0000A46F1B100F580530121596002F00F0183
:1036B000436DC3F30B03002BFAD18163436D13F009
:1036C0007803FBD112F0010F00D0012312F0040F98
:1036D00001D043F00203826C02F003029A42FAD155
:1036E0007047436813F0010FFAD0836813F0010F9D
:1036F00003D0036913F0010F09D00A238363436DDC
:1037000013F0500FFBD1836C13F0030FFBD100F5C6
:10371000005301225A60436813F0020FFBD1704737
:10372000836C13F0800FFBD0C06BC0B27047836C0A
:1037300013F0400FFBD041647047000038B50446D9
:1037400015460846E1B1A36813F0010F4ED0626838
:10375000B0FBF5F0013812F001023BD0636D13F0BD
:10376000280FFBD1A36C13F0030F0FD1A36C13F040
:10377000010F2BD1A36C13F0020F29D1002106E019
:103780002046FFF731FFFEF78FFEDCE70521636877
:1037900013F0010F1FD0A36813F0010F03D02369AA
:1037A00013F0010F09D00A23A363636D13F0500FC8
:1037B000FBD1A36C13F0030FFBD104F500530125DB
:1037C0005D60636813F0020FFBD104E00921DEE7BE
:1037D0000621DCE70021236923F07F4343EA0060F0
:1037E00020610AB32046FFF75BFF1DE06368A36812
:1037F00003F0E003402B1DD017D9602B1ED0802B87
:1038000012D10123400105FB03F3B0FBF3F0203894
:103810000B4B03EAC000636D13F0010FFBD1206373
:10382000636D13F0010FFBD138BD2BB1202BFBD101
:103830000823E7E70623E5E71023E3E70423E1E7AE
:10384000F8FF7F0070B504460D461646436823B165
:10385000636DC3F30B03002BFAD12046FFF7DAFEAA
:10386000636923F44C5323F00F036A7B1343EA8903
:1038700013432A8A13436361A36823F0804323F030
:10388000E2032A7B13432A7E13436A691343A3602E
:10389000AB681BB9A36843F00043A360EA69002A40
:1038A00074D0A368127A43EA8253A360A368EA69DA
:1038B000927A43EA4243A360A368EA69928802F4D9
:1038C000C0421343A360A368EA69527843EA8203C3
:1038D000A360A368EA69527B43EAC203A360A368BA
:1038E000EA69927B43EA0213A360A368EA699278CB
:1038F00043EA8223A360EA699179D3795B0243EAC0
:103900008123E360EB691B78012B01D0032B03D1EA
:10391000E36843F00403E360EB691B78023BDBB22E
:10392000012B4DD9474B9C4267D0474B9C4266D0F8
:1039300003F580439C425ED04FF0FF3303F5937351
:103940005B0103F1804303F5703302225A60EB6997
:103950005A7A04F580539A62EB695B7A1BB1E3688B
:1039600043F40063E360EB69DB7A7BB1E36843F423
:103970000043E360334B9C4243D0EB691B7B03F075
:103980000F03324A1367324B9C4241D03EB196F846
:103990002030002B42D004F5805301221A62052109
:1039A0002046FFF77DFEAA68002A46D129782046E6
:1039B000FFF776FEA36CDB4313F4405FFAD170BDD2
:1039C000204B9C4213D0204B9C4212D003F58043E5
:1039D0009C420AD04FF0FF33A6335B0103F18043D2
:1039E00003F5703302225A60B1E70223F4E70023A3
:1039F000F2E70123F0E70223A0E700239EE701237B
:103A00009CE7EB691B7B03F00F03104A5366B4E796
:103A1000EB691B7B03F00F03D367B7E7E36923F080
:103A2000090396F82220134396F82120134343F00C
:103A3000010304F58052D361B1E769682046FFF7BE
:103A40007DFEB3E70000014B00000A4000900340F8
:103A500000400A4008B500231A46FFF7F3FE08BDF0
:103A600008B500231A46FFF7EDFE08BD2DE9F84F13
:103A70000C4615461E469DF828809DF82C70072A96
:103A800044D84FEA8209032303FA09FA00FA09F934
:103A9000FFF7F0FB384AD2F8001489EA010303EA81
:103AA0000A034B40C2F80034FFF7E8FB4FF0000A6E
:103AB000072D43D8A9004FF0030909FA01F904F0D2
:103AC00003048C40FFF7D6FB2B4BD3F8082454405B
:103AD00004EA09045440C3F80844FFF7CFFB002E62
:103AE00044D0264A0123AB401360B8F1000F3FD009
:103AF000234A1360012202FA05F5224AC2F8205433
:103B0000C7B3A2F6DC321360BDE8F88FA2F1080A51
:103B10004FEA8A09032303FA09FB00FA09F9FFF7C0
:103B2000A9FB154AD2F8041489EA010303EA0B033E
:103B30004B40C2F80434FFF7A1FBB9E74FEA8A0A09
:103B40004FF0030909FA0AF904F0030404FA0AF42D
:103B5000FFF790FB084BD3F80C24544004EA090407
:103B60005440C3F80C44FFF789FBB8E7064AB9E7AD
:103B7000064ABEE7064AC6E700C0034010D4034029
:103B800014D4034000E0034010E4034014E4034075
:103B900024E403402DE9F84F04460E461F469046A4
:103BA0003AB183B301228A4000EB400109012C4B5A
:103BB0005A50072E2FD804EB44094FEA091909F18E
:103BC0000409DFF8A4A0B3000F2505FA03FB08FAE7
:103BD00003F5FFF74FFB59F80A305D4005EA0B0586
:103BE0005D4049F80A50FFF749FBB8F1000F08D1D2
:103BF0006FB3012101FA06F604EB44042401184BCB
:103C00001E51BDE8F88F01228A4000EB40010901F6
:103C1000144B5A50CDE704EB44052D010C35DFF869
:103C20004890A6F108039B000F2202FA03FA08FA53
:103C300003FBFFF71FFB55F809308BEA030202EA8A
:103C40000A025A4045F80920FFF718FBCDE7012189
:103C500001FA06F604EB44042401024B1E51D0E79E
:103C600040D0034040E0034030C0034002B97047F9
:103C70002DE9F04105460C46174603F0030883681A
:103C800023F4407383604FEA0826FFF7F3FAAB682A
:103C90005E4006F440765E40AE60FFF7EFFA2CB966
:103CA000B5F1964F19D0124B9D421BD0AB68114B0A
:103CB00013F8083003FB07F26AB1A4EBC7031344FF
:103CC000013BB3FBF2F3013BAA6812F0020F01D0F3
:103CD00003B90123AB61BDE8F0812E20FEF7E4FBC0
:103CE0000446E3E72F20FEF7DFFB0446DEE700BFD4
:103CF0000080064070EB0108043021B100F58050CF
:103D000001230360704700F50050F9E738B5044619
:103D10000D460023036400F500530C4ADA6300F1FA
:103D200008034A7872B903F5805302221A602B7B8C
:103D3000AA6869682046FFF799FF29782046FFF7AF
:103D4000DBFF38BD03F50053EFE700BFFFFF1F00A7
:103D5000436913F0807FFBD100F5005001234360DD
:103D6000024B5B6813F0020FFAD170470040004924
:103D700000F58050012343607047022A09D9033AB5
:103D8000D2B2022A04D821F0FF0303600171704708
:103D9000704721F07F4311F4000201D04FF07F42C1
:103DA00013430360090E0171704770B505460C4658
:103DB000466806F00106FFF7DBFF2378627843EAE6
:103DC0000223A278120402F480321343E27832B163
:103DD0004FF400321343C5F8983016B170BD00227D
:103DE000F8E72846FFF7B4FFF8E770B505460C463C
:103DF0001646FFF7ADFF237803F0070362786AB336
:103E000008221343A278120102F070021343E278F1
:103E100032B34FF4807213432B67EB6A23F48B3376
:103E200023F480732279120202F4E0621343627970
:103E3000120302F480521343A2799AB14FF48032F4
:103E40001343EB6231462846FFF7AFFF2846FFF7E2
:103E50008FFFE3790BB10123EB6070BD0022D0E747
:103E60000022D8E70022EBE708B50B4669B103F55D
:103E7000742303F23F230948A0FB0330800C013870
:103E80007F2828BF7F20C0B208BD2A20FEF70CFB88
:103E900003460028EBD10123E9E700BF83DE1B4383
:103EA00010B50B4C8C4228BF0C4610465AB120442A
:103EB000431EB3FBF4F0A34200D30138032800D91A
:103EC0000320C0B210BD2A20FEF7EEFAEFE700BFD4
:103ED000005A620210B5BBB90F4C8C4200D30C469D
:103EE000A2B19DF808000130B2FBF0F22244013A81
:103EF000B2FBF4F0A24200D3013840F2FF33984203
:103F000028BF1846C0B210BD044CE6E72A20FEF7D1
:103F1000CBFA0246E5E700BF80969800404B4C0084
:103F20002DE9F04383B005460C4616460022D049E1
:103F3000FFF7B6FF94F80580404500D98046284633
:103F4000FFF706FF207910B3E3781B0103F030037D
:103F5000000400F4FE0003434FEA087202F0E0425E
:103F6000134322780AB143F0020362780AB143F0A6
:103F70000403A2780AB143F00803AB60E3882B6125
:103F80002289638943EA02432B620024C7E00021AF
:103F90002846FFF769FFD7E7B649D4E0B64BD3F818
:103FA0008031002F40F0B48005EB04139B6CC3F309
:103FB00002335A1E012A23D9032B00F01781042B48
:103FC00000F02081AC4AD2F884311B0CD2F88C214D
:103FD000121402EB420207EE102AB8EEC77A15E07F
:103FE000A54BD3F88031DCE7A34BD3F88431D8E775
:103FF000A14BD3F88431D4E79F4BD3F88031D0E77D
:104000009D4BD3F880319BB29FED9C7A23F4C04244
:10401000920413F4004F40F0028105EB04118F6C01
:10402000C7F38207791C01278F40022F00F0FA8026
:10403000DFF844C2DCF8901109B207EE901AF8EEEE
:10404000E77A37EEC77A07EE907AF8EEE76AF6EE8F
:10405000007A66EEA76A87EE266ADCF8881109B254
:1040600007EE901AF8EEE77A37EE867A04EB8401D1
:1040700006EB8101D1ED037AF8EE677A9FED806A55
:10408000C7EE866AB7EE046AC6EE267A67EE877ACE
:10409000B1EE007A67EE877A07EE107AB8EEC77A4B
:1040A0009FED786AC6EE076A9FED777A26EE877AEB
:1040B00077EE877AB2F1004F0FD007EE103AB8EEE4
:1040C000C77ADFED726A27EE267ADFED716A77EE46
:1040D000A67A67EE277A77EEE67AF5EEC07AF1EE09
:1040E00010FA40F3AA80F1EE677AB6EE007A77EE26
:1040F000C77AFDEEE77A17EE903AB3F5003FC0F2CB
:10410000A5806FEA52426FEA4242631D1B01EA50EA
:10411000C0F30900631D05EB0313586001345D4BC8
:104120009D4200F09D8000239C4280F09B8004EB28
:10413000840306EB830216F82370D2F80890002F50
:104140007FF42AAF5449CDF800803B460022284630
:10415000FFF7C0FE5FFA89F9484538BF484605EBCE
:104160000412936C4D49194007F003030B4304EB11
:10417000840106EB810191F801C04FEA8C0C0CF030
:104180001C0C43EA0C0391F802C04FEA0C3C0CF4FF
:10419000E04C43EA0C0391F803C04FEA0C4C0CF4DA
:1041A000E02C43EA0C0391F810C04FEA4C5C0CF48D
:1041B000600C43EA0C030979090701F040510B43F5
:1041C0009364936CC3F30233013B042B3FF614AFAB
:1041D00001A252F823F000BF9D3F00089D3F000858
:1041E000E13F0008E93F0008F13F0008224AD2F809
:1041F00080311B0CD2F88C21121407EE102AB8EE75
:10420000C77A03E71C4AD2F884319BB2D2F88C21DA
:104210001214520007EE102AB8EEC77AF6E642F002
:104220000042FAE61449D1F88C1109B207EE901A4F
:10423000F8EEE77A37EE877A18E7B6EE007A77EE8F
:10424000677AFDEEE77A17EE903A56E713F5003FEE
:1042500002DA42F4003258E7C3F311031A4354E779
:10426000022361E72846FFF783FD03B0BDE8F08332
:10427000005A6202404B4C000080E00F000000003A
:1042800000007A4400008043000020440000003811
:10429000000000490040004980969800E08F18CF48
:1042A00010B504460A6F496F02F00702FFF765FD7B
:1042B000204610BD064B4FF480329A6603F51C333E
:1042C00041F67132DA6303F500530122DA60704778
:1042D00000900040074B41F67132DA6303F500525B
:1042E0000121D1600022DA63A3F518334FF4803244
:1042F0009A66704700000340013831281AD8DFE879
:1043000000F0271919191919191919191925191945
:10431000191919191919191919191919191919190D
:1043200019191B1D1F2119191919191919191919E9
:104330001919192300207047012070470220704787
:1043400004207047052070470620704707207047FB
:10435000032070470C2801D008467047022903D07B
:104360000329F9D10121F7E70021F5E770B50446EB
:10437000C2F3062602F0070241B942EA062242F4DD
:1043800040220634094B43F8242070BD11463046C4
:10439000FFF7E0FF05463046FFF7AEFF45EA002590
:1043A0001234024B43F82450EFE700BF0080034073
:1043B00008B589B292B20A430021FFF7D7FF08BDC2
:1043C00022F0030303F1804303F5603322B109B9FE
:1043D000186070470002186070470000024B4FF4ED
:1043E00000321A67704700BF005000404FF0402372
:1043F000D3F894007047436813B9416070475B6815
:104400005A68012AFBD159607047836813B98160EB
:1044100070475B685A68012AFBD159607047C369CD
:10442000032B05D89A1C00EB820251600133C36153
:104430007047C269042A1DD84FF098431B6C13F4CF
:10444000801FF9D0043292004FF098431A65026839
:104450001A6042681A6082681A600023C2699A4230
:1044600008D99A1C00EB820251684FF09842116003
:104470000133F3E770470000074B4FF480325A6670
:1044800003F5E6239B69C3F38512827003F03F02B4
:1044900042701B0B0370704700900040436813F09C
:1044A000010F00D1704710B50446FEF7F2FE636AB3
:1044B00013F0010F01D10123E360FEF7F0FE10BD00
:1044C0000A4B9B6813F0020FFAD1084B5B6813F09C
:1044D000020FF5D1054BDB69002BF1D1034B03F53E
:1044E000805101224A601A61704700BF00800A4073
:1044F0000A4B5B68012B00D07047084B5B6813F0D8
:10450000010F03D0054BDB69002BF6D1034B0222D0
:104510001A6103F5005301225A60EDE700800A405A
:1045200038B50546134B9B6813F0020FFAD1114BB7
:104530005B6813F0020FF5D10E4BDC69002CF1D152
:104540005B68012B05D02B7803B10124094BDC609B
:1045500038BDFFF7CDFF074B9B6813F0020FFAD170
:10456000044B5B6813F0020FF5D1024BDB69002BA3
:10457000F1D1E8E700800A40D8B90B78D3B1012324
:104580004A6812B1127843EAC2034A78A2B1022201
:1045900013438A6812B1127843EA82138A786AB1A7
:1045A00004221343CA6812B1127843EA4223044A30
:1045B000936470470023E3E70022E9E70022F0E775
:1045C00000800A4008B9014B5964704700900A40C6
:1045D00008B9014B5964704700A00A4008B9014B63
:1045E0001964704700A00A4010B9024B186C70475C
:1045F0000020704700800A4048B911B1012903D05A
:104600007047044BD86C7047024B186D7047002000
:10461000704700BF00800A4040B911B1012903D0A2
:104620007047034BDA647047014B1A65704700BF4F
:1046300000800A4038B504460EF098F9064DA446AD
:10464000BCE80F000FC5BCE80F000FC59CE80300D5
:1046500085E80300002038BDE01F002047F6FF7307
:104660009A4275D0042975D870B53C4B03EBC10054
:1046700090F802C0604613F83130012B22D0374B3E
:1046800003EBC1035C68002C66D0B4F9005095427E
:1046900004DBB4F90250954200DC1546A388FF2BD9
:1046A0002BD02826C8230022AE465B1B93FBF6F3D3
:1046B00013442A4A02EBC1014D78691E994231D355
:1046C00019462FE0254B03EBC103D878A0EB0C0073
:1046D0000025A8420ED9431BA0EB53031F4C04EB4B
:1046E000C104646834F91340944201DC1D46F0E7CC
:1046F000581EEEE76044C0B229E0B4F90630B4F9C0
:1047000008600122D0E703F5FA73154AA2FB0323E0
:104710009B094A1C954210D904EBC206B6889E42FA
:104720000BD3114604EBC1029368B2F9062002FBD9
:104730000E33002BE7DA0023E5E704EBC1018A889A
:104740009A4200D31A46624500D31046C0B270BDEB
:10475000FF207047002070470020F8E7E01F00208E
:10476000D34D621004296DD8394B13F83130012B29
:1047700023D010B5364B03EBC1035C68002C63D02B
:1047800014F1040C62D0324B03EBC1039B789342CB
:104790002BD22F4B03EBC103DB78934228D92C4B50
:1047A00003EBC10191F801E00EF1FF3E5FFA8EFECE
:1047B000A388FF2B1FD0002321E0254B03EBC1036F
:1047C000DB78934200D21A46214800EBC100807882
:1047D000121AD2B21B1A9A4200DD00221C4B03EBC4
:1047E000C1014B6833F912007047B4F9020010BDE3
:1047F000B4F90000FBE7012301E00133DBB27345AC
:1048000005D2591C3CF8310091B28842F5D24FF4E0
:104810007A7101FB02F20CEBC30CDCF80430D31A02
:10482000BCF9022002EBD27103EB610393FBF2F3BC
:10483000B4F900009842DADBB4F902009842D6DC01
:1048400018B2D4E7034870470248D0E70148CEE7E2
:10485000E01F00200080FFFF08B50348FFF7EAFED5
:1048600001200EF0DFF808BD74EB0108002070474E
:10487000004870472C1100202D2822D8DFE800F0D6
:104880001721212121212121212121212121212122
:1048900021212121212121212121212121211B210E
:1048A0002123212121211D212121211F21190748F7
:1048B00070470748704707487047074870470748E0
:1048C0007047074870470748704700BF6CEE010803
:1048D00004ED010818ED010840ED010858ED01084C
:1048E000CCEC0108DCEC0108704700207047002088
:1048F000704710B48468C3680B4454F8231008460A
:1049000010F8023B497803EB012313605DF8044B78
:104910007047000010B504464FF42F72002115F0C7
:104920009CFF8023C4F88C300023C4F89030C4F876
:10493000943084F89830054A626001222272C4F8EB
:10494000AC3204F19C00FCF7EDFF10BD78ED0108DE
:1049500010B503460846D3F8A0202AB1D3F8A41016
:1049600090470024204610BD184600F0D5FD0446AF
:104970000028F7D0FFF780FF0146024801F03FF919
:10498000F0E700BF0CDD010838B5044601230372CF
:1049900000F10905284616F0EDF800B938BD2046AB
:1049A00000F05AFF29462046FFF7D2FF204600F0CC
:1049B0005EFEF3E7F8B5067816B100263046F8BD7E
:1049C0000546FFF794FF0028F8D101232B702B7ABE
:1049D0000BB9374616E000232B726968194801F0BD
:1049E0000EF9F6E701F0EFF8044614E02846FFF769
:1049F0007BFFE1B2284600F073FF0646B4F1FF3FAB
:104A00000ED06EB9D5F8B442B4F1FF3FEAD04FF002
:104A1000FF33C5F8B432B4F1FF3FE7D10127EDE72A
:104A20001EB900232B703E46C8E72846FFF7ACFFAF
:104A30002B7A002BF5D06968024801F0E0F80023DA
:104A40002B72EEE77CED010838B504460D46FFF702
:104A500061FF6B68C4F8B032A968204600F016FC0C
:104A60004FF0FF33C4F8B4322046FFF73EFF38BDA5
:104A700010B50446D0F8B432B3F1FF3F09D0D4F8F2
:104A8000B432B3F1FF3F09D194F8B83243B90120F1
:104A900005E001F098F8C4F8B402F0E7002010BD7A
:104AA0000020FCE708B5FFF785FF08BD1038072890
:104AB00001D80120704700207047A0F11003072B98
:104AC00000D8D8B270470000F8B506460D46174624
:104AD0000B78302B0DD04FF0000C15F80C30002B5C
:104AE0004ED0394C1B5D13F0040F6AD00CF1010C51
:104AF000F3E74B78782B04D0582B0CD04FF0000CF8
:104B0000EBE70222AB5C43B12F495B5C13F0440F2F
:104B100055D00132F6E70222F4E7724206F00303B1
:104B200002F0030258BF5342032B1AD1284616F055
:104B300021F8831E013609D4B410B3EBA60F07D1B8
:104B4000A87837288CBF002001203BE00336F3E72C
:104B5000284616F00FF802388442D4BF0020012006
:104B600030E0284616F006F8831E3246002E05DB9C
:104B7000B3EBA20FD4BF0120002023E0F21CF7E723
:104B80000A220021284616F033F902460C46202E50
:104B900011D02FB151EA000302D0421E61F100048E
:104BA0000123B340013B1340002C08BF93420CBFCC
:104BB0000120002006E0B1FA81F0400902E0002067
:104BC00000E00020F8BD00BF7D31020808B50B7879
:104BD0002D2B04D000220138FFF776FF08BD0122FB
:104BE00011440138FFF770FFF8E7000003787B2BD2
:104BF0001CD14FF0000C0123C25C7D2A0ED00E495F
:104C0000515C11F0440F03D00CF1010C0133F3E7B8
:104C1000202A01D0002070470133EDE71844437883
:104C200033B91CF0010F05D10120704700207047F7
:104C300000207047002070477D31020808B5072822
:104C400026D8DFE800F0060B1015191D04210120FD
:104C500008BD00220820FFF737FFF9E700221020E7
:104C6000FFF732FFF4E700222020FFF72DFFEFE7E8
:104C70000820FFF7ABFFEBE71020FFF7A7FFE7E700
:104C80002020FFF7A3FFE3E70846FFF7AFFFDFE7CA
:104C90000020DDE72DE9F04383B00C4617461D46A2
:104CA0000A9EDDF82C8021282BD8DFE800F0112D9A
:104CB000445A71889EA22A2A2A2A2A2A2A2A2A2A79
:104CC0002A2A2A2A2A2A2A2A2A2A2A2A2A2A2AD39B
:104CD00000221146204616F007F9D8F80030C0B27D
:104CE00045F82300D8F80030326805EB830347F815
:104CF0002230D8F800300133C8F80030336801336F
:104D0000336003B0BDE8F08300221146204616F060
:104D1000EBF8D8F8003080B245F82300D8F800301E
:104D2000326805EB830347F82230D8F800300133AE
:104D3000C8F80030E2E700221146204616F0D4F809
:104D4000D8F8003045F82300D8F80030326805EB79
:104D5000830347F82230D8F800300133C8F8003018
:104D6000CCE700221146204615F0A2FF40B2D8F849
:104D7000003045F82300D8F80030326805EB830393
:104D800047F82230D8F800300133C8F80030B5E7D2
:104D900000221146204615F08BFF00B2D8F80030F3
:104DA00045F82300D8F80030326805EB830347F854
:104DB0002230D8F800300133C8F800309EE70022D6
:104DC0001146204615F074FFD8F8003045F823004E
:104DD000D8F80020336805EB820547F82350D8F84F
:104DE00000300133C8F8003088E7336847F82310F3
:104DF00084E74FF000098DF80690C846012512E0BF
:104E0000013510E08DF8053008F10108102200216D
:104E100001A815F04DFF09F10203E05409F1010961
:104E20001FFA89F90135635D7D2B09D0202BE7D06E
:104E300018F0010FE6D18DF8043008F10108F1E710
:104E400084F800904FEA192984F80190336847F8F4
:104E5000234053E7336847F823104FE72DE9F04F1D
:104E600087B09B460023059304938B4500F38A800B
:104E700080468A4617461C461E46994602E04FF079
:104E80000109013418F80400FF280CD02028F6D0BE
:104E9000212805D0FFF70AFE0028F2D00646F0E7E9
:104EA0004FF00109EDE705465C44B9F1000F06D06B
:104EB000013C544568DC0024A146029443E03EB125
:104EC000013C544562DC0024CDF80890A1463AE04C
:104ED000A2455DD100240296A14634E008EB090307
:104EE0005B78FF2B0ED02B2049E0039B43445B787B
:104EF000FF2B4FD10123029304E009F1010935464C
:104F000000E00625029B93B957F824102846FFF7C6
:104F100095FE002842D004AB019305AB0093119B92
:104F2000109A57F824102846FFF7B4FE0AE004ABA5
:104F3000019305AB0093119B109A57F82410212080
:104F4000FFF7A8FE0134544518DA5C45D9DBCDF8EB
:104F50000C9018F80960202EC0D0212EC5D0304604
:104F6000FFF7A4FD0028C8D0039B43445B78FF2BC8
:104F700012D13046FFF7A1FD0546C3E7002007B078
:104F8000BDE8F08F2120FAE72B20F8E72B20F6E789
:104F90002B20F4E72B20F2E72B20F0E72620EEE78A
:104FA000212816D821283AD8DFE800F0113B191B38
:104FB0001D1F212339393939393939392527292B09
:104FC0002D2F31333939393939393939353718488D
:104FD0007047FE2827D0FF2827D11648704716486B
:104FE000704716487047164870471648704716486D
:104FF000704716487047164870471648704716485D
:10500000704716487047164870471648704716484C
:10501000704716487047164870471648704716483C
:10502000704716487047164870471348704700BFCE
:105030002CEE01083CEE010890ED010898ED010806
:10504000A0ED0108A8ED0108B0ED0108B8ED0108D8
:10505000BCED0108C8ED0108D4ED0108E0ED010840
:10506000E8ED0108F4ED010800EE01080CEE01087E
:1050700014EE010820EE010880ED010888ED01081A
:1050800034EE010808B5FCF7A1FC08BD2DE9F04796
:1050900084B081468A4690461D460C9F0D9E04466C
:1050A0000EE018680F9B03930E9B029301960097E6
:1050B0002B4642460121FFF7E9FF044618E00C3475
:1050C0002068A8B133682A68934211DA57F8231090
:1050D000FFF7D8FF0028F2D13368013333606368EB
:1050E0001A7BFE2ADDD001230E9A137088F8003057
:1050F00098F800305BB90F9B1B7843B9BAF1000FE9
:1051000009D001230F9A137088F800304C462046CE
:1051100004B0BDE8F0870024F9E7000070B506464A
:105120000D4615F027FD0446304600F068FD03E00B
:10513000034800F064FD0134AC42F9D370BD00BFF8
:1051400088DB01082DE9F84F044602213248FFF7B9
:10515000E5FF1E212068FFF7E1FF6368586800F053
:105160004EFD2E4800F04BFD63681A7BFD2A01D9E5
:10517000BDE8F88F03F10C09D3F808A0504615F0EC
:10518000F9FC80464FF0FF34002510E02B2000F0A2
:105190002AFD36E000F027FD01341AF804001F282C
:1051A00001D04445F6DB1D4800F029FD0135AB4632
:1051B00019F80560FF2EDBD03046FFF7F1FE0746F9
:1051C000B8F1000F00DD0134202EEFD0124E022185
:1051D0003046FFF7A3FF1E213046FFF79FFF104820
:1051E00000F00DFD0F49384615F0BAFC00B90E4F1E
:1051F00039460E4800F003FDCB449BF80130202BCC
:10520000C4D00B4800F0FBFCB8F1000FCBDD1AF85E
:1052100004301F2BC7D0C0E76CEE0108F0DE010898
:1052200044EE010820EE010840EE01087CED010883
:1052300048EE010838B50546002402E0FFF782FF7A
:10524000013404EB440305EB830055F8233023B10C
:10525000037A002BF2D00134F3E738BD10B539B131
:10526000084612B1FFF76EFF10BDFFF7E3FFFBE743
:10527000D0F89C4000E02468002CF5D0A0680028FD
:10528000F9D0FFF7D7FFF6E77047704759B10A79B1
:105290000AB10020704710B501240C719C30FCF756
:1052A00044FB204610BD0020704700002DE9F04F60
:1052B00095B08146039104929A461E9F00F109031E
:1052C0001C460693184615F055FC05900023CAF8B5
:1052D00000303B600CAA0BA9204600F0B8FC28B1B6
:1052E00000230293029815B0BDE8F08F0C9815F0DA
:1052F00041FCCAF80000D9F89CB000231C46029378
:105300009846B4E03B6801333B60013409EB040389
:105310005B7A202BF6D0002410E0D9F894203B686B
:10532000D21ACAF80020296814AB03EB880353F89B
:10533000200C15F027FC019080B1013404EB4403EC
:1053400006EB830556F82330002B64D00B9B4345B6
:1053500061DB2B7A002BE0D00134EFE7286815F0F1
:1053600009FC844669680A7BFE2A18D0D9F8943073
:1053700038681B1A63452FDDFE2ADED10B9B013BEB
:105380004345DAD10D680794CDF82080CDF824B0DC
:10539000019C029EDDF80C80DDF810B049E00B9B0B
:1053A000013B4345E2D00E6814AB03EB880353F88E
:1053B000200C15F0DFFB421C3B6813443B6001E00E
:1053C00001333B603B6809EB0302527A002AF7D0B5
:1053D00008F10108019CB1E7039815F0CBFB01909F
:1053E000286815F0C7FB019B03447B2B0ED8029B5A
:1053F000013302932A680499039D2846FCF7D3FAE7
:10540000204A04992846FCF7CEFA96E71E4A0499EA
:105410000398FCF7C8FA069B059A1EE059464046D9
:10542000FCF7C1FA174A59464046FCF7BCFA013668
:10543000013404EB440355F82320002AEED1079CE5
:10544000DDF82080DDF824B00296059B3B60002348
:10545000CAF80030DFE70133013A002A05DD197888
:105460000029F8D120211970F5E7DBF800B0BBF175
:10547000000F3FF437AFDBF80860002E7FF446AF33
:10548000F3E700BF88DB01084CEE01082DE9F04787
:1054900086B004460F4616461D46DDF83890DDF806
:1054A0003C8000238DF817302B6089F8003088F895
:1054B00000302B6852F823101648FFF7E3FD40B97F
:1054C0002B6801332B604FF0010AD4F89C40002078
:1054D00003E04FF0000AF8E7246894B1A0680028C0
:1054E000FAD0CDF80C80CDF80890019500963B4697
:1054F0000DF117020021FFF7C9FD9DF81730002BB1
:10550000EAD0BAF1000F02D0012388F8003006B0CB
:10551000BDE8F08754EE0108F0B5A3B00546084693
:105520001AAA19A900F093FB044610B1204623B033
:10553000F0BD00238DF80B300DF10B0301930DF13D
:105540000A03009303AB1AAA19A92846FFF79EFF86
:105550009DF80B3013BB40B3466806F10C0711AB46
:10556000019309AB0093039B1AAA19993846FFF7D8
:1055700075FC04460028D9D10495199B059309AB05
:105580000693039B0793089704A8FFF77DFE3368F3
:1055900004A8984704A8FFF778FEC7E79DF80A20FB
:1055A00001462846FFF75AFEC0E72D24BEE770B536
:1055B00005460024264600E0013405F1AC0015F054
:1055C000D9FAA04207D92B1993F8AC301BB10A2B9A
:1055D000F2D10136F0E7304670BDF8B500230B601C
:1055E0001360D0F8AC320BB90020F8BD07460E4668
:1055F0001546AC3015F0BEFA50B30121002301E08E
:1056000001330131D7F8AC228A4213D9B3F5007FB8
:10561000F7D23468013434602C6801342C60FA18F5
:1056200092F8AC200A2AEBD00133EFE72A68013266
:105630002A600133B3F5007F08D2FA1892F8AC2043
:105640000A2A07D0002AF1D10120CEE70120CCE7B9
:105650000020CAE70120C8E708B50844407A00F0F6
:10566000C2FA08BD08B5082000F0BDFA08BD10B5A3
:105670000446D0F88C200021093015F0EEF8002304
:10568000C4F89030C4F8943010BD000070B5ADF58A
:10569000447D04460021A4917C22A5A815F0DDF8E4
:1056A000A3AB0093A2AB8022A4A92046FFF7FEFD86
:1056B000012804D0012842DC0DF5447D70BDA4A86A
:1056C00015F058FA0546A299431AA39A0A440832DB
:1056D00022440132A4A8014404E011F8010B02F8AD
:1056E000010B013B002BF8DC00231370D4F8906011
:1056F0000AE0D4F890102046FFF7AEFFD4F89030BF
:105700000133C4F890300136A29AA39B1344B342EC
:10571000EFDCAD1AD4F894302B44C4F89430D4F8AC
:1057200090302B44C4F89030A4AB9C1804E014F8DB
:10573000010B00F058FA013D002DF8DCBCE7802297
:10574000002102A815F089F84FF40072002122A868
:1057500015F083F80125002300E00133C4AA1A44A0
:1057600012F8802C3AB1202AF7D15A1C22A941F80C
:1057700025200135F1E722AA42F82530A4A815F02A
:10578000F9F9002114E0013222AB53F822308342B0
:1057900008D00B44C4AE334413F8803C6345F2D0C8
:1057A000002300E001235BB102AB03F801C001312B
:1057B0008D4208DBC4AB0B4413F880CC0022E3E736
:1057C00002AB00225A54D4F890500AE0D4F890105A
:1057D0002046FFF741FFD4F890300133C4F89030F1
:1057E0000135A29BAB42F1DC04F10903184AA4A9DC
:1057F000184800F004FA02A815F0BCF9A29AA39B7D
:10580000D11808312144013102AB9D18821A0EE0F3
:1058100015F8013B01F8013BD4F890300133C4F88E
:105820009030D4F894300133C4F89430013A002A0F
:10583000EEDC00230B70A29C02AB1D19041B04E0DC
:1058400015F8010B00F0CFF9013C002CF8DC33E730
:1058500078ED01085CEE0108F0B583B004460EE077
:105860002046FFF7A4FEC4F8AC0201AA6946204610
:10587000FFF7B3FE009B2344002283F8AC2004F121
:105880000906304615F076F9451C04F1AC07384698
:1058900015F070F9C0F500708542E1D8304615F07A
:1058A00069F9451C3D44384615F064F9421C3946F7
:1058B000284614F0B8FF304615F05CF90246314630
:1058C000384614F0A3FF304615F054F920440A235B
:1058D00080F8AC300023C4F8AC3203B0F0BD000057
:1058E0002DE9F84304460D46D0F89060D0F8947046
:1058F00000F1090890F89830012B0AD0012B0ED93D
:10590000022B00F0C680032B00F0D2800020BDE8FF
:10591000F8830A29F2D1002084F89800F7E71B2DBC
:1059200029D00D2D2CD0002384F89830082D2BD0B1
:105930007F2D68D00D2D00F088800A2D00F0858025
:10594000092D00F08F80D4F88C30013BBB4240F32E
:10595000E280BE42C0F28B8008F806500136C4F8DF
:105960009060D4F894300133C4F89430284600F0A5
:105970003AF90020CBE7022384F898300020C6E7EC
:10598000012384F89830D1E7002E01DDBE420CD00F
:10599000002E01DDBE4217DB002E00F0BA80C4F8F5
:1059A0009060C4F894700020B1E7082000F01BF963
:1059B000202000F018F9082000F015F9013E00231E
:1059C00008F80630013FEAE706F1FF39082000F049
:1059D0000AF908EB0905A7EB090208EB06012846BE
:1059E00014F021FF002308F8073029464C4800F046
:1059F00006F9013F3D4602E0FFF734FE013D4D450B
:105A0000FADC4E46CBE7002F01DDBE4201DB002071
:105A10007DE708EB0605711CBA1B4144284614F0CB
:105A200002FF002308F8073029463E4800F0E7F857
:105A300003E0082000F0D7F8013FB742F9DCD4F8C2
:105A40009430013BC4F89430E1E70D2000F0CBF82E
:105A50000A2000F0C8F80023C4F89030C4F894304D
:105A6000012054E72046FFF711FE00204FE7701C8D
:105A700008EB0609BA1B4946404414F0D4FE4846D8
:105A800000F0BDF802E0FFF7EDFD013FB742FADAA2
:105A900062E75B2D04D1032384F89830002036E7B9
:105AA000002384F8983029462046FFF719FF2EE797
:105AB000002384F89830413D032D2ED8DFE805F00F
:105AC00002080F1E0121204600F02EF800201EE7DC
:105AD0004FF0FF31204600F027F8002017E7BE42C4
